{"contracts/AthleteChainFactory.sol":{"AthleteChainFactory":{"abi":[{"inputs":[],"stateMutability":"nonpayable","type":"constructor"},{"anonymous":false,"inputs":[{"indexed":true,"internalType":"uint256","name":"contractId","type":"uint256"},{"indexed":false,"internalType":"address","name":"athlete","type":"address"},{"indexed":false,"internalType":"address","name":"sponsor","type":"address"}],"name":"ContractCreated","type":"event"},{"anonymous":false,"inputs":[{"indexed":true,"internalType":"uint256","name":"tokenId","type":"uint256"},{"indexed":true,"internalType":"uint256","name":"contractId","type":"uint256"}],"name":"NFTMinted","type":"event"},{"anonymous":false,"inputs":[{"indexed":true,"internalType":"bytes32","name":"role","type":"bytes32"},{"indexed":true,"internalType":"bytes32","name":"previousAdminRole","type":"bytes32"},{"indexed":true,"internalType":"bytes32","name":"newAdminRole","type":"bytes32"}],"name":"RoleAdminChanged","type":"event"},{"anonymous":false,"inputs":[{"indexed":true,"internalType":"bytes32","name":"role","type":"bytes32"},{"indexed":true,"internalType":"address","name":"account","type":"address"},{"indexed":true,"internalType":"address","name":"sender","type":"address"}],"name":"RoleGranted","type":"event"},{"anonymous":false,"inputs":[{"indexed":true,"internalType":"bytes32","name":"role","type":"bytes32"},{"indexed":true,"internalType":"address","name":"account","type":"address"},{"indexed":true,"internalType":"address","name":"sender","type":"address"}],"name":"RoleRevoked","type":"event"},{"anonymous":false,"inputs":[{"indexed":true,"internalType":"address","name":"user","type":"address"},{"indexed":false,"internalType":"bytes32","name":"role","type":"bytes32"}],"name":"UserRegistered","type":"event"},{"inputs":[],"name":"AGENT_ROLE","outputs":[{"internalType":"bytes32","name":"","type":"bytes32"}],"stateMutability":"view","type":"function"},{"inputs":[],"name":"ARBITRATOR_ROLE","outputs":[{"internalType":"bytes32","name":"","type":"bytes32"}],"stateMutability":"view","type":"function"},{"inputs":[],"name":"ATHLETE_ROLE","outputs":[{"internalType":"bytes32","name":"","type":"bytes32"}],"stateMutability":"view","type":"function"},{"inputs":[],"name":"DEFAULT_ADMIN_ROLE","outputs":[{"internalType":"bytes32","name":"","type":"bytes32"}],"stateMutability":"view","type":"function"},{"inputs":[],"name":"SPONSOR_ROLE","outputs":[{"internalType":"bytes32","name":"","type":"bytes32"}],"stateMutability":"view","type":"function"},{"inputs":[],"name":"TEAM_ROLE","outputs":[{"internalType":"bytes32","name":"","type":"bytes32"}],"stateMutability":"view","type":"function"},{"inputs":[],"name":"athleteContract","outputs":[{"internalType":"contract AthleteContract","name":"","type":"address"}],"stateMutability":"view","type":"function"},{"inputs":[{"internalType":"address","name":"athlete","type":"address"},{"internalType":"address","name":"sponsor","type":"address"},{"internalType":"string","name":"contractIPFSHash","type":"string"},{"internalType":"uint256","name":"totalValue","type":"uint256"},{"internalType":"uint256","name":"startDate","type":"uint256"},{"internalType":"uint256","name":"endDate","type":"uint256"},{"internalType":"address","name":"paymentToken","type":"address"},{"internalType":"address[]","name":"arbitrators","type":"address[]"}],"name":"createSponsorshipContract","outputs":[{"internalType":"uint256","name":"","type":"uint256"}],"stateMutability":"nonpayable","type":"function"},{"inputs":[{"internalType":"uint256","name":"contractId","type":"uint256"}],"name":"getContractDetails","outputs":[{"internalType":"address","name":"athlete","type":"address"},{"internalType":"address","name":"sponsor","type":"address"},{"internalType":"string","name":"contractIPFSHash","type":"string"},{"internalType":"uint256","name":"totalValue","type":"uint256"},{"internalType":"uint256","name":"startDate","type":"uint256"},{"internalType":"uint256","name":"endDate","type":"uint256"},{"internalType":"enum AthleteContract.ContractState","name":"state","type":"uint8"},{"internalType":"address","name":"paymentToken","type":"address"}],"stateMutability":"view","type":"function"},{"inputs":[{"internalType":"bytes32","name":"role","type":"bytes32"}],"name":"getRoleAdmin","outputs":[{"internalType":"bytes32","name":"","type":"bytes32"}],"stateMutability":"view","type":"function"},{"inputs":[{"internalType":"address","name":"user","type":"address"}],"name":"getUserContracts","outputs":[{"internalType":"uint256[]","name":"","type":"uint256[]"}],"stateMutability":"view","type":"function"},{"inputs":[{"internalType":"address","name":"user","type":"address"}],"name":"getUserRoles","outputs":[{"internalType":"bytes32[]","name":"","type":"bytes32[]"}],"stateMutability":"view","type":"function"},{"inputs":[{"internalType":"bytes32","name":"role","type":"bytes32"},{"internalType":"address","name":"account","type":"address"}],"name":"grantRole","outputs":[],"stateMutability":"nonpayable","type":"function"},{"inputs":[{"internalType":"bytes32","name":"role","type":"bytes32"},{"internalType":"address","name":"account","type":"address"}],"name":"hasRole","outputs":[{"internalType":"bool","name":"","type":"bool"}],"stateMutability":"view","type":"function"},{"inputs":[{"internalType":"address","name":"user","type":"address"},{"internalType":"bytes32","name":"role","type":"bytes32"}],"name":"hasUserRole","outputs":[{"internalType":"bool","name":"","type":"bool"}],"stateMutability":"view","type":"function"},{"inputs":[{"internalType":"uint256","name":"contractId","type":"uint256"},{"internalType":"string","name":"tokenURI","type":"string"}],"name":"mintContractNFT","outputs":[{"internalType":"uint256","name":"","type":"uint256"}],"stateMutability":"nonpayable","type":"function"},{"inputs":[{"internalType":"address","name":"user","type":"address"},{"internalType":"bytes32","name":"role","type":"bytes32"},{"internalType":"string","name":"name","type":"string"},{"internalType":"string","name":"profileIPFSHash","type":"string"}],"name":"registerUser","outputs":[],"stateMutability":"nonpayable","type":"function"},{"inputs":[{"internalType":"bytes32","name":"role","type":"bytes32"},{"internalType":"address","name":"account","type":"address"}],"name":"renounceRole","outputs":[],"stateMutability":"nonpayable","type":"function"},{"inputs":[{"internalType":"bytes32","name":"role","type":"bytes32"},{"internalType":"address","name":"account","type":"address"}],"name":"revokeRole","outputs":[],"stateMutability":"nonpayable","type":"function"},{"inputs":[],"name":"sponsorshipNFT","outputs":[{"internalType":"contract SponsorshipNFT","name":"","type":"address"}],"stateMutability":"view","type":"function"},{"inputs":[{"internalType":"bytes4","name":"interfaceId","type":"bytes4"}],"name":"supportsInterface","outputs":[{"internalType":"bool","name":"","type":"bool"}],"stateMutability":"view","type":"function"},{"inputs":[{"internalType":"string","name":"name","type":"string"},{"internalType":"string","name":"profileIPFSHash","type":"string"}],"name":"updateUserProfile","outputs":[],"stateMutability":"nonpayable","type":"function"},{"inputs":[{"internalType":"address","name":"","type":"address"}],"name":"userInfo","outputs":[{"internalType":"string","name":"name","type":"string"},{"internalType":"string","name":"profileIPFSHash","type":"string"},{"internalType":"bool","name":"isVerified","type":"bool"}],"stateMutability":"view","type":"function"},{"inputs":[{"internalType":"address","name":"","type":"address"},{"internalType":"uint256","name":"","type":"uint256"}],"name":"userRoles","outputs":[{"internalType":"bytes32","name":"","type":"bytes32"}],"stateMutability":"view","type":"function"},{"inputs":[{"internalType":"address","name":"user","type":"address"}],"name":"verifyUser","outputs":[],"stateMutability":"nonpayable","type":"function"}],"evm":{"bytecode":{"linkReferences":{},"object":"60806040523480156200001157600080fd5b506200001f60003362000132565b6040516200002d90620001d3565b604051809103906000f0801580156200004a573d6000803e3d6000fd5b50600180546001600160a01b0319166001600160a01b03929092169190911790556040516200007990620001e1565b604051809103906000f08015801562000096573d6000803e3d6000fd5b50600280546001600160a01b0319166001600160a01b03929092169182179055604051632f2ff15d60e01b81527f9f2df0fed2c77648de5860a4cc508cd0818c85b8b8a1ab4ceeef8d981c8956a66004820152306024820152632f2ff15d90604401600060405180830381600087803b1580156200011357600080fd5b505af115801562000128573d6000803e3d6000fd5b50505050620001ef565b6000828152602081815260408083206001600160a01b038516845290915290205460ff16620001cf576000828152602081815260408083206001600160a01b03851684529091529020805460ff191660011790556200018e3390565b6001600160a01b0316816001600160a01b0316837f2f8788117e7eff1d82e926ec794901d17c78024a50270940304540a733656f0d60405160405180910390a45b5050565b612b078062001dac83390190565b61293380620048b383390190565b611bad80620001ff6000396000f3fe608060405234801561001057600080fd5b50600436106101735760003560e01c806349d5e604116100de57806391d1485411610097578063b051a1fb11610071578063b051a1fb146103b7578063c2d79444146103ca578063d547741f146103f1578063e7cdebd81461040457600080fd5b806391d14854146103755780639cea078714610388578063a217fddf146103af57600080fd5b806349d5e604146102c75780634d6d6a9c146102ee5780634d813120146103155780636c4ee56a14610328578063783c69cc1461033b5780637b2da3ce1461036257600080fd5b8063248a9ca311610130578063248a9ca314610243578063276832d7146102665780632f2ff15d1461027957806334c925f01461028e57806336568abe146102a157806340e06979146102b457600080fd5b806301ffc9a71461017857806306a36aee146101a05780630719fce9146101c05780630dbb4929146101eb5780631959a0021461020c57806322459e181461022e575b600080fd5b61018b6101863660046111fd565b610417565b60405190151581526020015b60405180910390f35b6101b36101ae36600461123c565b61044e565b6040516101979190611259565b6001546101d3906001600160a01b031681565b6040516001600160a01b039091168152602001610197565b6101fe6101f936600461129d565b6104ba565b604051908152602001610197565b61021f61021a36600461123c565b6104eb565b60405161019793929190611319565b6101fe600080516020611b5883398151915281565b6101fe610251366004611351565b60009081526020819052604090206001015490565b61018b61027436600461129d565b610620565b61028c61028736600461136a565b610633565b005b6101b361029c36600461123c565b61065d565b61028c6102af36600461136a565b6106ca565b61028c6102c236600461145f565b61074d565b6101fe7f5146a08baf902532d0ee2f909971144f12ca32651cd70cbee1117cddfb3b3b3381565b6103016102fc366004611351565b61077c565b6040516101979897969594939291906114c3565b61028c61032336600461123c565b61081a565b6002546101d3906001600160a01b031681565b6101fe7f7f611ffbf41dd527826abad73cb1b1ecff28482bb0412695be053afa0451ad1881565b6101fe610370366004611540565b61088e565b61018b61038336600461136a565b610b27565b6101fe7f16ceee8289685dd2a02b9c8ae81d2df373176ce53519e6284e2a2950d6546ffa81565b6101fe600081565b61028c6103c5366004611670565b610b50565b6101fe7f1597bc5e34ff090612f53164e4e642d2ab4fc78bffe19ed1b602a0d12559561a81565b61028c6103ff36600461136a565b610d04565b6101fe6104123660046116f0565b610d29565b60006001600160e01b03198216637965db0b60e01b148061044857506301ffc9a760e01b6001600160e01b03198316145b92915050565b6001600160a01b0381166000908152600460209081526040918290208054835181840281018401909452808452606093928301828280156104ae57602002820191906000526020600020905b81548152602001906001019080831161049a575b50505050509050919050565b600460205281600052604060002081815481106104d657600080fd5b90600052602060002001600091509150505481565b6003602052600090815260409020805481906105069061172d565b80601f01602080910402602001604051908101604052809291908181526020018280546105329061172d565b801561057f5780601f106105545761010080835404028352916020019161057f565b820191906000526020600020905b81548152906001019060200180831161056257829003601f168201915b5050505050908060010180546105949061172d565b80601f01602080910402602001604051908101604052809291908181526020018280546105c09061172d565b801561060d5780601f106105e25761010080835404028352916020019161060d565b820191906000526020600020905b8154815290600101906020018083116105f057829003601f168201915b5050506002909301549192505060ff1683565b600061062c8284610b27565b9392505050565b60008281526020819052604090206001015461064e81610f00565b6106588383610f0d565b505050565b6001600160a01b0381166000908152600360208181526040928390209091018054835181840281018401909452808452606093928301828280156104ae576020028201919060005260206000209081548152602001906001019080831161049a5750505050509050919050565b6001600160a01b038116331461073f5760405162461bcd60e51b815260206004820152602f60248201527f416363657373436f6e74726f6c3a2063616e206f6e6c792072656e6f756e636560448201526e103937b632b9903337b91039b2b63360891b60648201526084015b60405180910390fd5b6107498282610f91565b5050565b3360009081526003602052604090208061076784826117b5565b506001810161077683826117b5565b50505050565b60015460405163135b5aa760e21b8152600481018390526000918291606091839182918291829182916001600160a01b0390911690634d6d6a9c90602401600060405180830381865afa1580156107d7573d6000803e3d6000fd5b505050506040513d6000823e601f3d908101601f191682016040526107ff9190810190611894565b97509750975097509750975097509750919395975091939597565b610825600033610b27565b6108675760405162461bcd60e51b815260206004820152601360248201527210591b5a5b881c9bdb19481c995c5d5a5c9959606a1b6044820152606401610736565b6001600160a01b03166000908152600360205260409020600201805460ff19166001179055565b60006108ba7f7f611ffbf41dd527826abad73cb1b1ecff28482bb0412695be053afa0451ad188a610b27565b806108d857506108d8600080516020611b5883398151915233610b27565b6109245760405162461bcd60e51b815260206004820181905260248201527f4f6e6c79206174686c657465206f72206167656e742063616e206372656174656044820152606401610736565b61094e7f1597bc5e34ff090612f53164e4e642d2ab4fc78bffe19ed1b602a0d12559561a89610b27565b61099a5760405162461bcd60e51b815260206004820152601e60248201527f53706f6e736f72206d75737420686176652053504f4e534f525f524f4c4500006044820152606401610736565b600154604051631a872c6360e21b81526000916001600160a01b031690636a1cb18c906109d9908d908d908d908d908d908d908d908d90600401611973565b6020604051808303816000875af11580156109f8573d6000803e3d6000fd5b505050506040513d601f19601f82011682018060405250810190610a1c9190611a07565b6001600160a01b03808c166000908152600360208181526040808420830180546001818101835591865283862001879055948f16845283209091018054938401815582529020018190559050610a80600080516020611b5883398151915233610b27565b8015610a955750336001600160a01b038b1614155b8015610aaa5750336001600160a01b038a1614155b15610ad557336000908152600360208181526040832090910180546001810182559083529120018190555b604080516001600160a01b03808d1682528b16602082015282917f56560a52c047ed21fd801bf0f345b23d9af696f7922ff8e63101af5d48caddab910160405180910390a29998505050505050505050565b6000918252602082815260408084206001600160a01b0393909316845291905290205460ff1690565b610b5b600033610b27565b610b9d5760405162461bcd60e51b815260206004820152601360248201527210591b5a5b881c9bdb19481c995c5d5a5c9959606a1b6044820152606401610736565b610ba78385610b27565b15610bf45760405162461bcd60e51b815260206004820152601a60248201527f5573657220616c726561647920686173207468697320726f6c650000000000006044820152606401610736565b600154604051632f2ff15d60e01b8152600481018590526001600160a01b03868116602483015290911690632f2ff15d90604401600060405180830381600087803b158015610c4257600080fd5b505af1158015610c56573d6000803e3d6000fd5b50505050610c648385610f0d565b6001600160a01b038416600090815260036020526040902080610c8784826117b5565b5060018101610c9683826117b5565b506001600160a01b038516600081815260046020908152604080832080546001810182559084529190922001869055517f4c5d15f5779ae1ecd7d55bd3283d898e29c35743d172bd7b83a16e17bc0afe2a90610cf59087815260200190565b60405180910390a25050505050565b600082815260208190526040902060010154610d1f81610f00565b6106588383610f91565b60015460405163135b5aa760e21b815260048101849052600091829182916001600160a01b031690634d6d6a9c90602401600060405180830381865afa158015610d77573d6000803e3d6000fd5b505050506040513d6000823e601f3d908101601f19168201604052610d9f9190810190611894565b50505050505091509150816001600160a01b0316336001600160a01b03161480610dd15750336001600160a01b038216145b80610def5750610def600080516020611b5883398151915233610b27565b610e4b5760405162461bcd60e51b815260206004820152602760248201527f4f6e6c79206174686c6574652c2073706f6e736f72206f72206167656e742063604482015266185b881b5a5b9d60ca1b6064820152608401610736565b60025460405163613d8e4160e11b81526000916001600160a01b03169063c27b1c8290610e849085908a908a9089908490600401611a20565b6020604051808303816000875af1158015610ea3573d6000803e3d6000fd5b505050506040513d601f19601f82011682018060405250810190610ec79190611a07565b905085817fd4c3f7782ecae0d1a12013592109b1bf02689d7f4e8ab653c75a61aea745e3be60405160405180910390a395945050505050565b610f0a8133610ff6565b50565b610f178282610b27565b610749576000828152602081815260408083206001600160a01b03851684529091529020805460ff19166001179055610f4d3390565b6001600160a01b0316816001600160a01b0316837f2f8788117e7eff1d82e926ec794901d17c78024a50270940304540a733656f0d60405160405180910390a45050565b610f9b8282610b27565b15610749576000828152602081815260408083206001600160a01b0385168085529252808320805460ff1916905551339285917ff6391f5c32d9c69d2a47ea670b442974b53935d1edc7fd64eb21e047a839171b9190a45050565b6110008282610b27565b6107495761100d8161104f565b611018836020611061565b604051602001611029929190611a62565b60408051601f198184030181529082905262461bcd60e51b825261073691600401611ad7565b60606104486001600160a01b03831660145b60606000611070836002611b00565b61107b906002611b17565b67ffffffffffffffff8111156110935761109361139a565b6040519080825280601f01601f1916602001820160405280156110bd576020820181803683370190505b509050600360fc1b816000815181106110d8576110d8611b2a565b60200101906001600160f81b031916908160001a905350600f60fb1b8160018151811061110757611107611b2a565b60200101906001600160f81b031916908160001a905350600061112b846002611b00565b611136906001611b17565b90505b60018111156111ae576f181899199a1a9b1b9c1cb0b131b232b360811b85600f166010811061116a5761116a611b2a565b1a60f81b82828151811061118057611180611b2a565b60200101906001600160f81b031916908160001a90535060049490941c936111a781611b40565b9050611139565b50831561062c5760405162461bcd60e51b815260206004820181905260248201527f537472696e67733a20686578206c656e67746820696e73756666696369656e746044820152606401610736565b60006020828403121561120f57600080fd5b81356001600160e01b03198116811461062c57600080fd5b6001600160a01b0381168114610f0a57600080fd5b60006020828403121561124e57600080fd5b813561062c81611227565b6020808252825182820181905260009190848201906040850190845b8181101561129157835183529284019291840191600101611275565b50909695505050505050565b600080604083850312156112b057600080fd5b82356112bb81611227565b946020939093013593505050565b60005b838110156112e45781810151838201526020016112cc565b50506000910152565b600081518084526113058160208601602086016112c9565b601f01601f19169290920160200192915050565b60608152600061132c60608301866112ed565b828103602084015261133e81866112ed565b9150508215156040830152949350505050565b60006020828403121561136357600080fd5b5035919050565b6000806040838503121561137d57600080fd5b82359150602083013561138f81611227565b809150509250929050565b634e487b7160e01b600052604160045260246000fd5b604051601f8201601f1916810167ffffffffffffffff811182821017156113d9576113d961139a565b604052919050565b600067ffffffffffffffff8211156113fb576113fb61139a565b50601f01601f191660200190565b600082601f83011261141a57600080fd5b813561142d611428826113e1565b6113b0565b81815284602083860101111561144257600080fd5b816020850160208301376000918101602001919091529392505050565b6000806040838503121561147257600080fd5b823567ffffffffffffffff8082111561148a57600080fd5b61149686838701611409565b935060208501359150808211156114ac57600080fd5b506114b985828601611409565b9150509250929050565b6001600160a01b0389811682528881166020830152610100604083018190526000916114f18483018b6112ed565b92508860608501528760808501528660a08501526005861061152357634e487b7160e01b600052602160045260246000fd5b8560c085015280851660e085015250509998505050505050505050565b600080600080600080600080610100898b03121561155d57600080fd5b883561156881611227565b975060208981013561157981611227565b975060408a013567ffffffffffffffff8082111561159657600080fd5b6115a28d838e01611409565b985060608c0135975060808c0135965060a08c0135955060c08c013591506115c982611227565b90935060e08b013590808211156115df57600080fd5b818c0191508c601f8301126115f357600080fd5b8135818111156116055761160561139a565b8060051b91506116168483016113b0565b818152918301840191848101908f84111561163057600080fd5b938501935b8385101561165a578435925061164a83611227565b8282529385019390850190611635565b8096505050505050509295985092959890939650565b6000806000806080858703121561168657600080fd5b843561169181611227565b935060208501359250604085013567ffffffffffffffff808211156116b557600080fd5b6116c188838901611409565b935060608701359150808211156116d757600080fd5b506116e487828801611409565b91505092959194509250565b6000806040838503121561170357600080fd5b82359150602083013567ffffffffffffffff81111561172157600080fd5b6114b985828601611409565b600181811c9082168061174157607f821691505b60208210810361176157634e487b7160e01b600052602260045260246000fd5b50919050565b601f82111561065857600081815260208120601f850160051c8101602086101561178e5750805b601f850160051c820191505b818110156117ad5782815560010161179a565b505050505050565b815167ffffffffffffffff8111156117cf576117cf61139a565b6117e3816117dd845461172d565b84611767565b602080601f83116001811461181857600084156118005750858301515b600019600386901b1c1916600185901b1785556117ad565b600085815260208120601f198616915b8281101561184757888601518255948401946001909101908401611828565b50858210156118655787850151600019600388901b60f8161c191681555b5050505050600190811b01905550565b805161188081611227565b919050565b80516005811061188057600080fd5b600080600080600080600080610100898b0312156118b157600080fd5b88516118bc81611227565b60208a01519098506118cd81611227565b60408a015190975067ffffffffffffffff8111156118ea57600080fd5b8901601f81018b136118fb57600080fd5b8051611909611428826113e1565b8181528c602083850101111561191e57600080fd5b61192f8260208301602086016112c9565b809850505050606089015194506080890151935060a0890151925061195660c08a01611885565b915061196460e08a01611875565b90509295985092959890939650565b600061010060018060a01b03808c1684526020818c168186015282604086015261199f8386018c6112ed565b606086018b9052608086018a905260a0860189905287831660c087015285810360e0870152865180825282880194509082019060005b818110156119f35785518516835294830194918301916001016119d5565b50909e9d5050505050505050505050505050565b600060208284031215611a1957600080fd5b5051919050565b600060018060a01b03808816835286602084015260a06040840152611a4860a08401876112ed565b948116606084015292909216608090910152509392505050565b7f416363657373436f6e74726f6c3a206163636f756e7420000000000000000000815260008351611a9a8160178501602088016112c9565b7001034b99036b4b9b9b4b733903937b6329607d1b6017918401918201528351611acb8160288401602088016112c9565b01602801949350505050565b60208152600061062c60208301846112ed565b634e487b7160e01b600052601160045260246000fd5b808202811582820484141761044857610448611aea565b8082018082111561044857610448611aea565b634e487b7160e01b600052603260045260246000fd5b600081611b4f57611b4f611aea565b50600019019056fecab5a0bfe0b79d2c4b1c2e02599fa044d115b7511f9659307cb4276950967709a26469706673582212207dd8638bf4f131b42bea49e33b10c4590bff655117f4a3982855aa2486e52d9864736f6c6343000811003360806040523480156200001157600080fd5b50600180556200002360003362000029565b620000ca565b6000828152602081815260408083206001600160a01b038516845290915290205460ff16620000c6576000828152602081815260408083206001600160a01b03851684529091529020805460ff19166001179055620000853390565b6001600160a01b0316816001600160a01b0316837f2f8788117e7eff1d82e926ec794901d17c78024a50270940304540a733656f0d60405160405180910390a45b5050565b612a2d80620000da6000396000f3fe608060405234801561001057600080fd5b506004361061018e5760003560e01c80634c371022116100de5780638736381a11610097578063a217fddf11610071578063a217fddf146103c4578063c2010e50146103cc578063c2d79444146103ef578063d547741f1461041657600080fd5b80638736381a1461038157806391d148541461038a5780639cea07871461039d57600080fd5b80634c371022146102e95780634d6d6a9c1461030e5780635aef573c146103215780636a1cb18c146103345780636e2a373a14610347578063783c69cc1461035a57600080fd5b806334b25ee21161014b578063460ff8c411610125578063460ff8c414610275578063474da79a1461028857806348259836146102af57806349d5e604146102c257600080fd5b806334b25ee21461023c57806335c2bd631461024f57806336568abe1461026257600080fd5b806301ffc9a7146101935780630390e07a146101bb57806320913da5146101d057806322459e18146101e3578063248a9ca3146102065780632f2ff15d14610229575b600080fd5b6101a66101a1366004611fe5565b610429565b60405190151581526020015b60405180910390f35b6101ce6101c93660046120c6565b610460565b005b6101ce6101de366004612116565b61063a565b6101f86000805160206129d883398151915281565b6040519081526020016101b2565b6101f8610214366004612138565b60009081526020819052604090206001015490565b6101ce61023736600461216d565b6109f9565b6101ce61024a3660046121a7565b610a23565b6101ce61025d366004612138565b610be1565b6101ce61027036600461216d565b610e0e565b6101ce610283366004612266565b610e88565b61029b610296366004612138565b6111c3565b6040516101b29897969594939291906123d0565b6101ce6102bd36600461243f565b6112a9565b6101f87f5146a08baf902532d0ee2f909971144f12ca32651cd70cbee1117cddfb3b3b3381565b6102fc6102f7366004612116565b6113a5565b6040516101b296959493929190612486565b61029b61031c366004612138565b61153e565b6101ce61032f36600461243f565b61164b565b6101f86103423660046124e3565b611754565b6101ce6103553660046120c6565b6119d1565b6101f87f7f611ffbf41dd527826abad73cb1b1ecff28482bb0412695be053afa0451ad1881565b6101f860035481565b6101a661039836600461216d565b611bc0565b6101f87f16ceee8289685dd2a02b9c8ae81d2df373176ce53519e6284e2a2950d6546ffa81565b6101f8600081565b6101f86103da366004612138565b60009081526002602052604090206007015490565b6101f87f1597bc5e34ff090612f53164e4e642d2ab4fc78bffe19ed1b602a0d12559561a81565b6101ce61042436600461216d565b611be9565b60006001600160e01b03198216637965db0b60e01b148061045a57506301ffc9a760e01b6001600160e01b03198316145b92915050565b600083815260026020526040902080546001600160a01b031633146104d65760405162461bcd60e51b815260206004820152602160248201527f4f6e6c79206174686c6574652063616e207375626d6974206d696c6573746f6e6044820152606560f81b60648201526084015b60405180910390fd5b6001600682015460ff1660048111156104f1576104f16123ba565b1461050e5760405162461bcd60e51b81526004016104cd906125f3565b600781015483106105315760405162461bcd60e51b81526004016104cd90612620565b600081600701848154811061054857610548612657565b60009182526020909120600360069092020181015460ff1690811115610570576105706123ba565b146105b55760405162461bcd60e51b81526020600482015260156024820152744d696c6573746f6e65206e6f742070656e64696e6760581b60448201526064016104cd565b60008160070184815481106105cc576105cc612657565b90600052602060002090600602019050828160040190816105ed91906126ed565b5060038101805460ff1916600117905560405184815285907f1b7218c0ac23ea9cbe4df603d2b340fbf469a115b73ea3d11460727f445d6be1906020015b60405180910390a25050505050565b610642611c0e565b600082815260026020526040902060018101546001600160a01b031633146106b75760405162461bcd60e51b815260206004820152602260248201527f4f6e6c792073706f6e736f722063616e20617070726f7665206d696c6573746f6044820152616e6560f01b60648201526084016104cd565b6001600682015460ff1660048111156106d2576106d26123ba565b146106ef5760405162461bcd60e51b81526004016104cd906125f3565b600781015482106107125760405162461bcd60e51b81526004016104cd90612620565b600081600701838154811061072957610729612657565b600091825260209091206006909102019050600160038083015460ff1690811115610756576107566123ba565b1461079d5760405162461bcd60e51b8152602060048201526017602482015276135a5b195cdd1bdb99481b9bdd0818dbdb5c1b195d1959604a1b60448201526064016104cd565b600581015460ff16156107ed5760405162461bcd60e51b815260206004820152601860248201527714185e5b595b9d08185b1c9958591e481c995b19585cd95960421b60448201526064016104cd565b60058101805460ff19166001179055600682015461010090046001600160a01b031661085657815460018201546040516001600160a01b039092169181156108fc0291906000818181858888f19350505050158015610850573d6000803e3d6000fd5b5061092f565b60068201546001808401548454918401546040516323b872dd60e01b81526001600160a01b039283166004820152928216602484015260448301526101009092049091169081906323b872dd906064016020604051808303816000875af11580156108c5573d6000803e3d6000fd5b505050506040513d601f19601f820116820180604052508101906108e991906127ad565b61092d5760405162461bcd60e51b8152602060048201526015602482015274151bdad95b881d1c985b9cd9995c8819985a5b1959605a1b60448201526064016104cd565b505b837f3c70b1e8034b5738ec77fbfdaa4d28906a0b3160018d67a2dc7b534e53e33fe084836001015460405161096e929190918252602082015260400190565b60405180910390a2600160005b60078401548110156109d25783600701818154811061099c5761099c612657565b600091825260209091206005600690920201015460ff166109c057600091506109d2565b806109ca816127e0565b91505061097b565b5080156109e95760068301805460ff191660021790555b5050506109f560018055565b5050565b600082815260208190526040902060010154610a1481611c67565b610a1e8383611c74565b505050565b600082815260026020526040812090805b6008830154811015610a8b57826008018181548110610a5557610a55612657565b6000918252602090912001546001600160a01b03163303610a795760019150610a8b565b80610a83816127e0565b915050610a34565b508080610abd5750610abd7f16ceee8289685dd2a02b9c8ae81d2df373176ce53519e6284e2a2950d6546ffa33611bc0565b610b155760405162461bcd60e51b815260206004820152602360248201527f4f6e6c792061726269747261746f722063616e207265736f6c7665206469737060448201526275746560e81b60648201526084016104cd565b6003600683015460ff166004811115610b3057610b306123ba565b14610b755760405162461bcd60e51b815260206004820152601560248201527410dbdb9d1c9858dd081b9bdd08191a5cdc1d5d1959605a1b60448201526064016104cd565b8215610b8f5760068201805460ff19166001179055610b9f565b60068201805460ff191660041790555b837f5a87909bff68caaaaf0b3fd9c74eeccc928832f879315e5c6fb7a73612f26c0c84604051610bd3911515815260200190565b60405180910390a250505050565b600081815260026020526040902060018101546001600160a01b03163314610c565760405162461bcd60e51b815260206004820152602260248201527f4f6e6c792073706f6e736f722063616e20616374697661746520636f6e74726160448201526118dd60f21b60648201526084016104cd565b6000600682015460ff166004811115610c7157610c716123ba565b14610cbe5760405162461bcd60e51b815260206004820152601b60248201527f436f6e7472616374206e6f7420696e206472616674207374617465000000000060448201526064016104cd565b6007810154610d0f5760405162461bcd60e51b815260206004820152601d60248201527f436f6e7472616374206d7573742068617665206d696c6573746f6e657300000060448201526064016104cd565b600681015461010090046001600160a01b031615610dfd57600681015460038201546001830154604051636eb1769f60e11b81526001600160a01b0391821660048201523060248201526101009093041691829063dd62ed3e90604401602060405180830381865afa158015610d89573d6000803e3d6000fd5b505050506040513d601f19601f82011682018060405250810190610dad91906127f9565b1015610dfb5760405162461bcd60e51b815260206004820152601c60248201527f496e73756666696369656e7420746f6b656e20616c6c6f77616e63650000000060448201526064016104cd565b505b600601805460ff1916600117905550565b6001600160a01b0381163314610e7e5760405162461bcd60e51b815260206004820152602f60248201527f416363657373436f6e74726f6c3a2063616e206f6e6c792072656e6f756e636560448201526e103937b632b9903337b91039b2b63360891b60648201526084016104cd565b6109f58282611cf8565b600084815260026020526040902080546001600160a01b0316331480610eba575060018101546001600160a01b031633145b80610ed85750610ed86000805160206129d883398151915233611bc0565b610f135760405162461bcd60e51b815260206004820152600c60248201526b155b985d5d1a1bdc9a5e995960a21b60448201526064016104cd565b6000600682015460ff166004811115610f2e57610f2e6123ba565b14610f7b5760405162461bcd60e51b815260206004820152601b60248201527f436f6e7472616374206e6f7420696e206472616674207374617465000000000060448201526064016104cd565b82518451148015610f8d575081518351145b610fd25760405162461bcd60e51b8152602060048201526016602482015275082e4e4c2f2e640d8cadccee8d040dad2e6dac2e8c6d60531b60448201526064016104cd565b6000805b845181101561114d57848181518110610ff157610ff1612657565b6020026020010151826110049190612812565b9150826007016040518060c0016040528088848151811061102757611027612657565b6020026020010151815260200187848151811061104657611046612657565b6020026020010151815260200186848151811061106557611065612657565b6020026020010151815260200160006003811115611085576110856123ba565b81526040805160208181018352600080835281850192909252919092018290528354600181018555938252902081519192600602019081906110c790826126ed565b50602082015181600101556040820151816002015560608201518160030160006101000a81548160ff02191690836003811115611106576111066123ba565b02179055506080820151600482019061111f90826126ed565b5060a091909101516005909101805460ff191691151591909117905580611145816127e0565b915050610fd6565b50816003015481146111bb5760405162461bcd60e51b815260206004820152603160248201527f546f74616c206d696c6573746f6e6520616d6f756e7473206d757374206d6174604482015270636820636f6e74726163742076616c756560781b60648201526084016104cd565b505050505050565b60026020819052600091825260409091208054600182015492820180546001600160a01b039283169490921692916111fa9061266d565b80601f01602080910402602001604051908101604052809291908181526020018280546112269061266d565b80156112735780601f1061124857610100808354040283529160200191611273565b820191906000526020600020905b81548152906001019060200180831161125657829003601f168201915b505050506003830154600484015460058501546006909501549394919390925060ff81169061010090046001600160a01b031688565b600082815260026020526040902080546001600160a01b03163314806112db575060018101546001600160a01b031633145b806112f957506112f96000805160206129d883398151915233611bc0565b6113345760405162461bcd60e51b815260206004820152600c60248201526b155b985d5d1a1bdc9a5e995960a21b60448201526064016104cd565b60098101805460018101825560009182526020909120016113586002830182612825565b506002810161136783826126ed565b50827f3d6b58530bfb3205822f758555331d98d728b985f2081c1f5dbdcf7bc755d650836040516113989190612900565b60405180910390a2505050565b606060008060006060600080600260008a815260200190815260200160002060070188815481106113d8576113d8612657565b6000918252602090912060069091020160018101546002820154600383015460058401548454949550859460ff9283169260048701921690869061141b9061266d565b80601f01602080910402602001604051908101604052809291908181526020018280546114479061266d565b80156114945780601f1061146957610100808354040283529160200191611494565b820191906000526020600020905b81548152906001019060200180831161147757829003601f168201915b505050505095508180546114a79061266d565b80601f01602080910402602001604051908101604052809291908181526020018280546114d39061266d565b80156115205780601f106114f557610100808354040283529160200191611520565b820191906000526020600020905b81548152906001019060200180831161150357829003601f168201915b50505050509150965096509650965096509650509295509295509295565b60008181526002602081905260408220805460018201546003830154600484015460058501546006860154968601805489986060988a98899889988998899894976001600160a01b03948516979385169690959294919360ff8216926101009092049091169086906115af9061266d565b80601f01602080910402602001604051908101604052809291908181526020018280546115db9061266d565b80156116285780601f106115fd57610100808354040283529160200191611628565b820191906000526020600020905b81548152906001019060200180831161160b57829003601f168201915b505050505095509850985098509850985098509850985050919395975091939597565b600082815260026020526040902080546001600160a01b031633148061167d575060018101546001600160a01b031633145b6116db5760405162461bcd60e51b815260206004820152602960248201527f4f6e6c79206174686c657465206f722073706f6e736f722063616e207261697360448201526865206469737075746560b81b60648201526084016104cd565b6001600682015460ff1660048111156116f6576116f66123ba565b146117135760405162461bcd60e51b81526004016104cd906125f3565b60068101805460ff1916600317905560405183907fe07ad455e24561261e9047aab2f668ae1fc2cc6fda35021764673613b888836d90611398908590612900565b60006117807f7f611ffbf41dd527826abad73cb1b1ecff28482bb0412695be053afa0451ad188a611bc0565b8061179e575061179e6000805160206129d883398151915233611bc0565b6118015760405162461bcd60e51b815260206004820152602e60248201527f556e617574686f72697a65643a204f6e6c79206174686c657465206f7220616760448201526d656e742063616e2063726561746560901b60648201526084016104cd565b61182b7f1597bc5e34ff090612f53164e4e642d2ab4fc78bffe19ed1b602a0d12559561a89611bc0565b6118775760405162461bcd60e51b815260206004820152601e60248201527f53706f6e736f72206d75737420686176652053504f4e534f525f524f4c45000060448201526064016104cd565b8484116118d05760405162461bcd60e51b815260206004820152602160248201527f456e642064617465206d757374206265206166746572207374617274206461746044820152606560f81b60648201526084016104cd565b60038054600091826118e1836127e0565b90915550600081815260026020819052604090912080546001600160a01b03808f166001600160a01b0319928316178355600183018054918f169190921617905591925081016119318a826126ed565b506003810188905560048101879055600581018690556006810180546001600160a81b0319166101006001600160a01b03881602179055835161197d9060088301906020870190611f6b565b50604080516001600160a01b03808e1682528c16602082015283917f56560a52c047ed21fd801bf0f345b23d9af696f7922ff8e63101af5d48caddab910160405180910390a2509998505050505050505050565b600083815260026020526040902060018101546001600160a01b03163314611a455760405162461bcd60e51b815260206004820152602160248201527f4f6e6c792073706f6e736f722063616e2072656a656374206d696c6573746f6e6044820152606560f81b60648201526084016104cd565b6001600682015460ff166004811115611a6057611a606123ba565b14611a7d5760405162461bcd60e51b81526004016104cd906125f3565b60078101548310611aa05760405162461bcd60e51b81526004016104cd90612620565b6000816007018481548110611ab757611ab7612657565b600091825260209091206006909102019050600160038083015460ff1690811115611ae457611ae46123ba565b14611b2b5760405162461bcd60e51b8152602060048201526017602482015276135a5b195cdd1bdb99481b9bdd0818dbdb5c1b195d1959604a1b60448201526064016104cd565b600581015460ff1615611b7b5760405162461bcd60e51b815260206004820152601860248201527714185e5b595b9d08185b1c9958591e481c995b19585cd95960421b60448201526064016104cd565b6003818101805460ff19166001830217905550847f2632a738857d774f3179abee0fa205787aea133c8f6d4cbfe4e605028d3e8230858560405161062b929190612913565b6000918252602082815260408084206001600160a01b0393909316845291905290205460ff1690565b600082815260208190526040902060010154611c0481611c67565b610a1e8383611cf8565b600260015403611c605760405162461bcd60e51b815260206004820152601f60248201527f5265656e7472616e637947756172643a207265656e7472616e742063616c6c0060448201526064016104cd565b6002600155565b611c718133611d5d565b50565b611c7e8282611bc0565b6109f5576000828152602081815260408083206001600160a01b03851684529091529020805460ff19166001179055611cb43390565b6001600160a01b0316816001600160a01b0316837f2f8788117e7eff1d82e926ec794901d17c78024a50270940304540a733656f0d60405160405180910390a45050565b611d028282611bc0565b156109f5576000828152602081815260408083206001600160a01b0385168085529252808320805460ff1916905551339285917ff6391f5c32d9c69d2a47ea670b442974b53935d1edc7fd64eb21e047a839171b9190a45050565b611d678282611bc0565b6109f557611d7481611db6565b611d7f836020611dc8565b604051602001611d90929190612934565b60408051601f198184030181529082905262461bcd60e51b82526104cd91600401612900565b606061045a6001600160a01b03831660145b60606000611dd78360026129a9565b611de2906002612812565b67ffffffffffffffff811115611dfa57611dfa61200f565b6040519080825280601f01601f191660200182016040528015611e24576020820181803683370190505b509050600360fc1b81600081518110611e3f57611e3f612657565b60200101906001600160f81b031916908160001a905350600f60fb1b81600181518110611e6e57611e6e612657565b60200101906001600160f81b031916908160001a9053506000611e928460026129a9565b611e9d906001612812565b90505b6001811115611f15576f181899199a1a9b1b9c1cb0b131b232b360811b85600f1660108110611ed157611ed1612657565b1a60f81b828281518110611ee757611ee7612657565b60200101906001600160f81b031916908160001a90535060049490941c93611f0e816129c0565b9050611ea0565b508315611f645760405162461bcd60e51b815260206004820181905260248201527f537472696e67733a20686578206c656e67746820696e73756666696369656e7460448201526064016104cd565b9392505050565b828054828255906000526020600020908101928215611fc0579160200282015b82811115611fc057825182546001600160a01b0319166001600160a01b03909116178255602090920191600190910190611f8b565b50611fcc929150611fd0565b5090565b5b80821115611fcc5760008155600101611fd1565b600060208284031215611ff757600080fd5b81356001600160e01b031981168114611f6457600080fd5b634e487b7160e01b600052604160045260246000fd5b604051601f8201601f1916810167ffffffffffffffff8111828210171561204e5761204e61200f565b604052919050565b600082601f83011261206757600080fd5b813567ffffffffffffffff8111156120815761208161200f565b612094601f8201601f1916602001612025565b8181528460208386010111156120a957600080fd5b816020850160208301376000918101602001919091529392505050565b6000806000606084860312156120db57600080fd5b8335925060208401359150604084013567ffffffffffffffff81111561210057600080fd5b61210c86828701612056565b9150509250925092565b6000806040838503121561212957600080fd5b50508035926020909101359150565b60006020828403121561214a57600080fd5b5035919050565b80356001600160a01b038116811461216857600080fd5b919050565b6000806040838503121561218057600080fd5b8235915061219060208401612151565b90509250929050565b8015158114611c7157600080fd5b600080604083850312156121ba57600080fd5b8235915060208301356121cc81612199565b809150509250929050565b600067ffffffffffffffff8211156121f1576121f161200f565b5060051b60200190565b600082601f83011261220c57600080fd5b8135602061222161221c836121d7565b612025565b82815260059290921b8401810191818101908684111561224057600080fd5b8286015b8481101561225b5780358352918301918301612244565b509695505050505050565b6000806000806080858703121561227c57600080fd5b8435935060208086013567ffffffffffffffff8082111561229c57600080fd5b818801915088601f8301126122b057600080fd5b81356122be61221c826121d7565b81815260059190911b8301840190848101908b8311156122dd57600080fd5b8585015b83811015612315578035858111156122f95760008081fd5b6123078e89838a0101612056565b8452509186019186016122e1565b5097505050604088013592508083111561232e57600080fd5b61233a89848a016121fb565b9450606088013592508083111561235057600080fd5b505061235e878288016121fb565b91505092959194509250565b60005b8381101561238557818101518382015260200161236d565b50506000910152565b600081518084526123a681602086016020860161236a565b601f01601f19169290920160200192915050565b634e487b7160e01b600052602160045260246000fd5b6001600160a01b0389811682528881166020830152610100604083018190526000916123fe8483018b61238e565b92508860608501528760808501528660a085015260058610612422576124226123ba565b8560c085015280851660e085015250509998505050505050505050565b6000806040838503121561245257600080fd5b82359150602083013567ffffffffffffffff81111561247057600080fd5b61247c85828601612056565b9150509250929050565b60c08152600061249960c083018961238e565b876020840152866040840152600486106124b5576124b56123ba565b85606084015282810360808401526124cd818661238e565b91505082151560a0830152979650505050505050565b600080600080600080600080610100898b03121561250057600080fd5b61250989612151565b97506020612518818b01612151565b975060408a013567ffffffffffffffff8082111561253557600080fd5b6125418d838e01612056565b985060608c0135975060808c0135965060a08c0135955061256460c08d01612151565b945060e08c013591508082111561257a57600080fd5b508a01601f81018c1361258c57600080fd5b803561259a61221c826121d7565b81815260059190911b8201830190838101908e8311156125b957600080fd5b928401925b828410156125de576125cf84612151565b825292840192908401906125be565b80955050505050509295985092959890939650565b602080825260139082015272436f6e7472616374206e6f742061637469766560681b604082015260600190565b60208082526017908201527f496e76616c6964206d696c6573746f6e6520696e646578000000000000000000604082015260600190565b634e487b7160e01b600052603260045260246000fd5b600181811c9082168061268157607f821691505b6020821081036126a157634e487b7160e01b600052602260045260246000fd5b50919050565b601f821115610a1e57600081815260208120601f850160051c810160208610156126ce5750805b601f850160051c820191505b818110156111bb578281556001016126da565b815167ffffffffffffffff8111156127075761270761200f565b61271b81612715845461266d565b846126a7565b602080601f83116001811461275057600084156127385750858301515b600019600386901b1c1916600185901b1785556111bb565b600085815260208120601f198616915b8281101561277f57888601518255948401946001909101908401612760565b508582101561279d5787850151600019600388901b60f8161c191681555b5050505050600190811b01905550565b6000602082840312156127bf57600080fd5b8151611f6481612199565b634e487b7160e01b600052601160045260246000fd5b6000600182016127f2576127f26127ca565b5060010190565b60006020828403121561280b57600080fd5b5051919050565b8082018082111561045a5761045a6127ca565b818103612830575050565b61283a825461266d565b67ffffffffffffffff8111156128525761285261200f565b61286081612715845461266d565b6000601f821160018114612894576000831561287c5750848201545b600019600385901b1c1916600184901b1784556128f9565b600085815260209020601f19841690600086815260209020845b838110156128ce57828601548255600195860195909101906020016128ae565b50858310156128ec5781850154600019600388901b60f8161c191681555b50505060018360011b0184555b5050505050565b602081526000611f64602083018461238e565b82815260406020820152600061292c604083018461238e565b949350505050565b7f416363657373436f6e74726f6c3a206163636f756e742000000000000000000081526000835161296c81601785016020880161236a565b7001034b99036b4b9b9b4b733903937b6329607d1b601791840191820152835161299d81602884016020880161236a565b01602801949350505050565b808202811582820484141761045a5761045a6127ca565b6000816129cf576129cf6127ca565b50600019019056fecab5a0bfe0b79d2c4b1c2e02599fa044d115b7511f9659307cb4276950967709a2646970667358221220147d5b0bee03f5bc9f87234acfb37a73ce39e597efa9544836f051e0910ec7d464736f6c6343000811003360806040523480156200001157600080fd5b506040518060400160405280601381526020017f4174686c6574652053706f6e736f7273686970000000000000000000000000008152506040518060400160405280600581526020016420a9a827a760d91b815250816000908162000077919062000214565b50600162000086828262000214565b506200009891506000905033620000ca565b620000c47f9f2df0fed2c77648de5860a4cc508cd0818c85b8b8a1ab4ceeef8d981c8956a633620000ca565b620002e0565b6000828152600b602090815260408083206001600160a01b038516845290915290205460ff166200016b576000828152600b602090815260408083206001600160a01b03851684529091529020805460ff191660011790556200012a3390565b6001600160a01b0316816001600160a01b0316837f2f8788117e7eff1d82e926ec794901d17c78024a50270940304540a733656f0d60405160405180910390a45b5050565b634e487b7160e01b600052604160045260246000fd5b600181811c908216806200019a57607f821691505b602082108103620001bb57634e487b7160e01b600052602260045260246000fd5b50919050565b601f8211156200020f57600081815260208120601f850160051c81016020861015620001ea5750805b601f850160051c820191505b818110156200020b57828155600101620001f6565b5050505b505050565b81516001600160401b038111156200023057620002306200016f565b620002488162000241845462000185565b84620001c1565b602080601f831160018114620002805760008415620002675750858301515b600019600386901b1c1916600185901b1785556200020b565b600085815260208120601f198616915b82811015620002b15788860151825594840194600190910190840162000290565b5085821015620002d05787850151600019600388901b60f8161c191681555b5050505050600190811b01905550565b61264380620002f06000396000f3fe608060405234801561001057600080fd5b50600436106101cf5760003560e01c80634f6ccce711610104578063a22cb465116100a2578063d539139311610071578063d539139314610404578063d547741f1461042b578063e985e9c51461043e578063fc88210a1461047a57600080fd5b8063a22cb465146103b8578063b88d4fde146103cb578063c27b1c82146103de578063c87b56dd146103f157600080fd5b806391d14854116100de57806391d1485414610382578063930049161461039557806395d89b41146103a8578063a217fddf146103b057600080fd5b80634f6ccce7146103495780636352211e1461035c57806370a082311461036f57600080fd5b806323b872dd116101715780632f745c591161014b5780632f745c59146102f057806336568abe1461030357806340398d671461031657806342842e0e1461033657600080fd5b806323b872dd146102a7578063248a9ca3146102ba5780632f2ff15d146102dd57600080fd5b8063081812fc116101ad578063081812fc1461023f578063095ea7b31461026a5780630f152e5d1461027f57806318160ddd1461029f57600080fd5b806301ffc9a7146101d457806306474d12146101fc57806306fdde031461022a575b600080fd5b6101e76101e2366004611e6e565b61048d565b60405190151581526020015b60405180910390f35b61021c61020a366004611e8b565b600e6020526000908152604090205481565b6040519081526020016101f3565b61023261049e565b6040516101f39190611ef4565b61025261024d366004611e8b565b610530565b6040516001600160a01b0390911681526020016101f3565b61027d610278366004611f23565b610557565b005b61021c61028d366004611e8b565b600d6020526000908152604090205481565b60095461021c565b61027d6102b5366004611f4d565b610671565b61021c6102c8366004611e8b565b6000908152600b602052604090206001015490565b61027d6102eb366004611f89565b6106a2565b61021c6102fe366004611f23565b6106c7565b61027d610311366004611f89565b61075d565b610329610324366004611fb5565b6107db565b6040516101f39190611fd0565b61027d610344366004611f4d565b61087d565b61021c610357366004611e8b565b610898565b61025261036a366004611e8b565b61092b565b61021c61037d366004611fb5565b61098b565b6101e7610390366004611f89565b610a11565b61027d6103a3366004612014565b610a3c565b610232610b48565b61021c600081565b61027d6103c6366004612039565b610b57565b61027d6103d9366004612101565b610b62565b61021c6103ec36600461217d565b610b9a565b6102326103ff366004611e8b565b610d15565b61021c7f9f2df0fed2c77648de5860a4cc508cd0818c85b8b8a1ab4ceeef8d981c8956a681565b61027d610439366004611f89565b610d20565b6101e761044c36600461220a565b6001600160a01b03918216600090815260056020908152604080832093909416825291909152205460ff1690565b61021c610488366004611e8b565b610d45565b600061049882610da6565b92915050565b6060600080546104ad90612234565b80601f01602080910402602001604051908101604052809291908181526020018280546104d990612234565b80156105265780601f106104fb57610100808354040283529160200191610526565b820191906000526020600020905b81548152906001019060200180831161050957829003601f168201915b5050505050905090565b600061053b82610dcb565b506000908152600460205260409020546001600160a01b031690565b60006105628261092b565b9050806001600160a01b0316836001600160a01b0316036105d45760405162461bcd60e51b815260206004820152602160248201527f4552433732313a20617070726f76616c20746f2063757272656e74206f776e656044820152603960f91b60648201526084015b60405180910390fd5b336001600160a01b03821614806105f057506105f0813361044c565b6106625760405162461bcd60e51b815260206004820152603d60248201527f4552433732313a20617070726f76652063616c6c6572206973206e6f7420746f60448201527f6b656e206f776e6572206f7220617070726f76656420666f7220616c6c00000060648201526084016105cb565b61066c8383610e1e565b505050565b61067b3382610e8c565b6106975760405162461bcd60e51b81526004016105cb9061226e565b61066c838383610f0b565b6000828152600b60205260409020600101546106bd8161107c565b61066c8383611086565b60006106d28361098b565b82106107345760405162461bcd60e51b815260206004820152602b60248201527f455243373231456e756d657261626c653a206f776e657220696e646578206f7560448201526a74206f6620626f756e647360a81b60648201526084016105cb565b506001600160a01b03919091166000908152600760209081526040808320938352929052205490565b6001600160a01b03811633146107cd5760405162461bcd60e51b815260206004820152602f60248201527f416363657373436f6e74726f6c3a2063616e206f6e6c792072656e6f756e636560448201526e103937b632b9903337b91039b2b63360891b60648201526084016105cb565b6107d7828261110c565b5050565b606060006107e88361098b565b905060008167ffffffffffffffff81111561080557610805612075565b60405190808252806020026020018201604052801561082e578160200160208202803683370190505b50905060005b828110156108755761084685826106c7565b828281518110610858576108586122bb565b60209081029190910101528061086d816122e7565b915050610834565b509392505050565b61066c83838360405180602001604052806000815250610b62565b60006108a360095490565b82106109065760405162461bcd60e51b815260206004820152602c60248201527f455243373231456e756d657261626c653a20676c6f62616c20696e646578206f60448201526b7574206f6620626f756e647360a01b60648201526084016105cb565b60098281548110610919576109196122bb565b90600052602060002001549050919050565b6000818152600260205260408120546001600160a01b0316806104985760405162461bcd60e51b8152602060048201526018602482015277115490cdcc8c4e881a5b9d985b1a59081d1bdad95b88125160421b60448201526064016105cb565b60006001600160a01b0382166109f55760405162461bcd60e51b815260206004820152602960248201527f4552433732313a2061646472657373207a65726f206973206e6f7420612076616044820152683634b21037bbb732b960b91b60648201526084016105cb565b506001600160a01b031660009081526003602052604090205490565b6000918252600b602090815260408084206001600160a01b0393909316845291905290205460ff1690565b610a4583611173565b610a885760405162461bcd60e51b8152602060048201526014602482015273151bdad95b88191bd95cc81b9bdd08195e1a5cdd60621b60448201526064016105cb565b610a918361092b565b6001600160a01b0316336001600160a01b031614610aff5760405162461bcd60e51b815260206004820152602560248201527f4f6e6c7920746f6b656e206f776e65722063616e207265636f726420726f79616044820152646c7469657360d81b60648201526084016105cb565b604080516001600160a01b03841681526020810183905284917ff670029fc6f5302baba881b4ae845d1453acdf752b4c19ed81fe0fa6a686409b910160405180910390a2505050565b6060600180546104ad90612234565b6107d7338383611190565b610b6c3383610e8c565b610b885760405162461bcd60e51b81526004016105cb9061226e565b610b948484848461125e565b50505050565b6000610bc67f9f2df0fed2c77648de5860a4cc508cd0818c85b8b8a1ab4ceeef8d981c8956a633610a11565b610c0b5760405162461bcd60e51b815260206004820152601660248201527521b0b63632b91034b9903737ba10309036b4b73a32b960511b60448201526064016105cb565b6000858152600e602052604090205415610c735760405162461bcd60e51b8152602060048201526024808201527f4e465420616c7265616479206d696e74656420666f72207468697320636f6e746044820152631c9858dd60e21b60648201526084016105cb565b610c81600c80546001019055565b6000610c8c600c5490565b9050610c988782611291565b610ca2818661140c565b6000818152600d60209081526040808320899055888352600e82529182902083905581516001600160a01b038088168252861691810191909152879183917f55e9844e5f860996963c4a8a758e7e68642c5e59723728e1b09c9923698d927d910160405180910390a39695505050505050565b606061049882611490565b6000828152600b6020526040902060010154610d3b8161107c565b61066c838361110c565b6000610d5082611173565b610d935760405162461bcd60e51b8152602060048201526014602482015273151bdad95b88191bd95cc81b9bdd08195e1a5cdd60621b60448201526064016105cb565b506000908152600d602052604090205490565b60006001600160e01b03198216637965db0b60e01b1480610498575061049882611598565b610dd481611173565b610e1b5760405162461bcd60e51b8152602060048201526018602482015277115490cdcc8c4e881a5b9d985b1a59081d1bdad95b88125160421b60448201526064016105cb565b50565b600081815260046020526040902080546001600160a01b0319166001600160a01b0384169081179091558190610e538261092b565b6001600160a01b03167f8c5be1e5ebec7d5bd14f71427d1e84f3dd0314c0f7b2291e5b200ac8c7c3b92560405160405180910390a45050565b600080610e988361092b565b9050806001600160a01b0316846001600160a01b03161480610edf57506001600160a01b0380821660009081526005602090815260408083209388168352929052205460ff165b80610f035750836001600160a01b0316610ef884610530565b6001600160a01b0316145b949350505050565b826001600160a01b0316610f1e8261092b565b6001600160a01b031614610f445760405162461bcd60e51b81526004016105cb90612300565b6001600160a01b038216610fa65760405162461bcd60e51b8152602060048201526024808201527f4552433732313a207472616e7366657220746f20746865207a65726f206164646044820152637265737360e01b60648201526084016105cb565b610fb383838360016115bd565b826001600160a01b0316610fc68261092b565b6001600160a01b031614610fec5760405162461bcd60e51b81526004016105cb90612300565b600081815260046020908152604080832080546001600160a01b03199081169091556001600160a01b0387811680865260038552838620805460001901905590871680865283862080546001019055868652600290945282852080549092168417909155905184937fddf252ad1be2c89b69c2b068fc378daa952ba7f163c4a11628f55a4df523b3ef91a4505050565b610e1b81336115c9565b6110908282610a11565b6107d7576000828152600b602090815260408083206001600160a01b03851684529091529020805460ff191660011790556110c83390565b6001600160a01b0316816001600160a01b0316837f2f8788117e7eff1d82e926ec794901d17c78024a50270940304540a733656f0d60405160405180910390a45050565b6111168282610a11565b156107d7576000828152600b602090815260408083206001600160a01b0385168085529252808320805460ff1916905551339285917ff6391f5c32d9c69d2a47ea670b442974b53935d1edc7fd64eb21e047a839171b9190a45050565b6000908152600260205260409020546001600160a01b0316151590565b816001600160a01b0316836001600160a01b0316036111f15760405162461bcd60e51b815260206004820152601960248201527f4552433732313a20617070726f766520746f2063616c6c65720000000000000060448201526064016105cb565b6001600160a01b03838116600081815260056020908152604080832094871680845294825291829020805460ff191686151590811790915591519182527f17307eab39ab6107e8899845ad3d59bd9653f200f220920489ca2b5937696c31910160405180910390a3505050565b611269848484610f0b565b61127584848484611622565b610b945760405162461bcd60e51b81526004016105cb90612345565b6001600160a01b0382166112e75760405162461bcd60e51b815260206004820181905260248201527f4552433732313a206d696e7420746f20746865207a65726f206164647265737360448201526064016105cb565b6112f081611173565b1561133d5760405162461bcd60e51b815260206004820152601c60248201527f4552433732313a20746f6b656e20616c7265616479206d696e7465640000000060448201526064016105cb565b61134b6000838360016115bd565b61135481611173565b156113a15760405162461bcd60e51b815260206004820152601c60248201527f4552433732313a20746f6b656e20616c7265616479206d696e7465640000000060448201526064016105cb565b6001600160a01b038216600081815260036020908152604080832080546001019055848352600290915280822080546001600160a01b0319168417905551839291907fddf252ad1be2c89b69c2b068fc378daa952ba7f163c4a11628f55a4df523b3ef908290a45050565b61141582611173565b6114785760405162461bcd60e51b815260206004820152602e60248201527f45524337323155524953746f726167653a2055524920736574206f66206e6f6e60448201526d32bc34b9ba32b73a103a37b5b2b760911b60648201526084016105cb565b600082815260066020526040902061066c82826123e5565b606061149b82610dcb565b600082815260066020526040812080546114b490612234565b80601f01602080910402602001604051908101604052809291908181526020018280546114e090612234565b801561152d5780601f106115025761010080835404028352916020019161152d565b820191906000526020600020905b81548152906001019060200180831161151057829003601f168201915b50505050509050600061154b60408051602081019091526000815290565b9050805160000361155d575092915050565b81511561158f5780826040516020016115779291906124a5565b60405160208183030381529060405292505050919050565b610f0384611723565b60006001600160e01b0319821663780e9d6360e01b1480610498575061049882611797565b610b94848484846117e7565b6115d38282610a11565b6107d7576115e081611927565b6115eb836020611939565b6040516020016115fc9291906124d4565b60408051601f198184030181529082905262461bcd60e51b82526105cb91600401611ef4565b60006001600160a01b0384163b1561171857604051630a85bd0160e11b81526001600160a01b0385169063150b7a0290611666903390899088908890600401612549565b6020604051808303816000875af19250505080156116a1575060408051601f3d908101601f1916820190925261169e91810190612586565b60015b6116fe573d8080156116cf576040519150601f19603f3d011682016040523d82523d6000602084013e6116d4565b606091505b5080516000036116f65760405162461bcd60e51b81526004016105cb90612345565b805181602001fd5b6001600160e01b031916630a85bd0160e11b149050610f03565b506001949350505050565b606061172e82610dcb565b600061174560408051602081019091526000815290565b905060008151116117655760405180602001604052806000815250611790565b8061176f84611ad5565b6040516020016117809291906124a5565b6040516020818303038152906040525b9392505050565b60006001600160e01b031982166380ac58cd60e01b14806117c857506001600160e01b03198216635b5e139f60e01b145b8061049857506301ffc9a760e01b6001600160e01b0319831614610498565b6117f384848484611b68565b60018111156118625760405162461bcd60e51b815260206004820152603560248201527f455243373231456e756d657261626c653a20636f6e7365637574697665207472604482015274185b9cd9995c9cc81b9bdd081cdd5c1c1bdc9d1959605a1b60648201526084016105cb565b816001600160a01b0385166118be576118b981600980546000838152600a60205260408120829055600182018355919091527f6e1540171b6c0c960b71a7020d9f60077f6af931a8bbf590da0223dacf75c7af0155565b6118e1565b836001600160a01b0316856001600160a01b0316146118e1576118e18582611bf0565b6001600160a01b0384166118fd576118f881611c8d565b611920565b846001600160a01b0316846001600160a01b031614611920576119208482611d3c565b5050505050565b60606104986001600160a01b03831660145b606060006119488360026125a3565b6119539060026125ba565b67ffffffffffffffff81111561196b5761196b612075565b6040519080825280601f01601f191660200182016040528015611995576020820181803683370190505b509050600360fc1b816000815181106119b0576119b06122bb565b60200101906001600160f81b031916908160001a905350600f60fb1b816001815181106119df576119df6122bb565b60200101906001600160f81b031916908160001a9053506000611a038460026125a3565b611a0e9060016125ba565b90505b6001811115611a86576f181899199a1a9b1b9c1cb0b131b232b360811b85600f1660108110611a4257611a426122bb565b1a60f81b828281518110611a5857611a586122bb565b60200101906001600160f81b031916908160001a90535060049490941c93611a7f816125cd565b9050611a11565b5083156117905760405162461bcd60e51b815260206004820181905260248201527f537472696e67733a20686578206c656e67746820696e73756666696369656e7460448201526064016105cb565b60606000611ae283611d80565b600101905060008167ffffffffffffffff811115611b0257611b02612075565b6040519080825280601f01601f191660200182016040528015611b2c576020820181803683370190505b5090508181016020015b600019016f181899199a1a9b1b9c1cb0b131b232b360811b600a86061a8153600a8504945084611b3657509392505050565b6001811115610b94576001600160a01b03841615611bae576001600160a01b03841660009081526003602052604081208054839290611ba89084906125e4565b90915550505b6001600160a01b03831615610b94576001600160a01b03831660009081526003602052604081208054839290611be59084906125ba565b909155505050505050565b60006001611bfd8461098b565b611c0791906125e4565b600083815260086020526040902054909150808214611c5a576001600160a01b03841660009081526007602090815260408083208584528252808320548484528184208190558352600890915290208190555b5060009182526008602090815260408084208490556001600160a01b039094168352600781528383209183525290812055565b600954600090611c9f906001906125e4565b6000838152600a602052604081205460098054939450909284908110611cc757611cc76122bb565b906000526020600020015490508060098381548110611ce857611ce86122bb565b6000918252602080832090910192909255828152600a90915260408082208490558582528120556009805480611d2057611d206125f7565b6001900381819060005260206000200160009055905550505050565b6000611d478361098b565b6001600160a01b039093166000908152600760209081526040808320868452825280832085905593825260089052919091209190915550565b60008072184f03e93ff9f4daa797ed6e38ed64bf6a1f0160401b8310611dbf5772184f03e93ff9f4daa797ed6e38ed64bf6a1f0160401b830492506040015b6d04ee2d6d415b85acef81000000008310611deb576d04ee2d6d415b85acef8100000000830492506020015b662386f26fc100008310611e0957662386f26fc10000830492506010015b6305f5e1008310611e21576305f5e100830492506008015b6127108310611e3557612710830492506004015b60648310611e47576064830492506002015b600a83106104985760010192915050565b6001600160e01b031981168114610e1b57600080fd5b600060208284031215611e8057600080fd5b813561179081611e58565b600060208284031215611e9d57600080fd5b5035919050565b60005b83811015611ebf578181015183820152602001611ea7565b50506000910152565b60008151808452611ee0816020860160208601611ea4565b601f01601f19169290920160200192915050565b6020815260006117906020830184611ec8565b80356001600160a01b0381168114611f1e57600080fd5b919050565b60008060408385031215611f3657600080fd5b611f3f83611f07565b946020939093013593505050565b600080600060608486031215611f6257600080fd5b611f6b84611f07565b9250611f7960208501611f07565b9150604084013590509250925092565b60008060408385031215611f9c57600080fd5b82359150611fac60208401611f07565b90509250929050565b600060208284031215611fc757600080fd5b61179082611f07565b6020808252825182820181905260009190848201906040850190845b8181101561200857835183529284019291840191600101611fec565b50909695505050505050565b60008060006060848603121561202957600080fd5b83359250611f7960208501611f07565b6000806040838503121561204c57600080fd5b61205583611f07565b91506020830135801515811461206a57600080fd5b809150509250929050565b634e487b7160e01b600052604160045260246000fd5b600067ffffffffffffffff808411156120a6576120a6612075565b604051601f8501601f19908116603f011681019082821181831017156120ce576120ce612075565b816040528093508581528686860111156120e757600080fd5b858560208301376000602087830101525050509392505050565b6000806000806080858703121561211757600080fd5b61212085611f07565b935061212e60208601611f07565b925060408501359150606085013567ffffffffffffffff81111561215157600080fd5b8501601f8101871361216257600080fd5b6121718782356020840161208b565b91505092959194509250565b600080600080600060a0868803121561219557600080fd5b61219e86611f07565b945060208601359350604086013567ffffffffffffffff8111156121c157600080fd5b8601601f810188136121d257600080fd5b6121e18882356020840161208b565b9350506121f060608701611f07565b91506121fe60808701611f07565b90509295509295909350565b6000806040838503121561221d57600080fd5b61222683611f07565b9150611fac60208401611f07565b600181811c9082168061224857607f821691505b60208210810361226857634e487b7160e01b600052602260045260246000fd5b50919050565b6020808252602d908201527f4552433732313a2063616c6c6572206973206e6f7420746f6b656e206f776e6560408201526c1c881bdc88185c1c1c9bdd9959609a1b606082015260800190565b634e487b7160e01b600052603260045260246000fd5b634e487b7160e01b600052601160045260246000fd5b6000600182016122f9576122f96122d1565b5060010190565b60208082526025908201527f4552433732313a207472616e736665722066726f6d20696e636f72726563742060408201526437bbb732b960d91b606082015260800190565b60208082526032908201527f4552433732313a207472616e7366657220746f206e6f6e20455243373231526560408201527131b2b4bb32b91034b6b83632b6b2b73a32b960711b606082015260800190565b601f82111561066c57600081815260208120601f850160051c810160208610156123be5750805b601f850160051c820191505b818110156123dd578281556001016123ca565b505050505050565b815167ffffffffffffffff8111156123ff576123ff612075565b6124138161240d8454612234565b84612397565b602080601f83116001811461244857600084156124305750858301515b600019600386901b1c1916600185901b1785556123dd565b600085815260208120601f198616915b8281101561247757888601518255948401946001909101908401612458565b50858210156124955787850151600019600388901b60f8161c191681555b5050505050600190811b01905550565b600083516124b7818460208801611ea4565b8351908301906124cb818360208801611ea4565b01949350505050565b7f416363657373436f6e74726f6c3a206163636f756e742000000000000000000081526000835161250c816017850160208801611ea4565b7001034b99036b4b9b9b4b733903937b6329607d1b601791840191820152835161253d816028840160208801611ea4565b01602801949350505050565b6001600160a01b038581168252841660208201526040810183905260806060820181905260009061257c90830184611ec8565b9695505050505050565b60006020828403121561259857600080fd5b815161179081611e58565b8082028115828204841417610498576104986122d1565b80820180821115610498576104986122d1565b6000816125dc576125dc6122d1565b506000190190565b81810381811115610498576104986122d1565b634e487b7160e01b600052603160045260246000fdfea2646970667358221220a2df38d04278540d966692d6d2f1e632720cc780d13315012ba137ef892dc36e64736f6c63430008110033","opcodes":"PUSH1 0x80 PUSH1 0x40 MSTORE CALLVALUE DUP1 ISZERO PUSH3 0x11 JUMPI PUSH1 0x0 DUP1 REVERT JUMPDEST POP PUSH3 0x1F PUSH1 0x0 CALLER PUSH3 0x132 JUMP JUMPDEST PUSH1 0x40 MLOAD PUSH3 0x2D SWAP1 PUSH3 0x1D3 JUMP JUMPDEST PUSH1 0x40 MLOAD DUP1 SWAP2 SUB SWAP1 PUSH1 0x0 CREATE DUP1 ISZERO DUP1 ISZERO PUSH3 0x4A JUMPI RETURNDATASIZE PUSH1 0x0 DUP1 RETURNDATACOPY RETURNDATASIZE PUSH1 0x0 REVERT JUMPDEST POP PUSH1 0x1 DUP1 SLOAD PUSH1 0x1 PUSH1 0x1 PUSH1 0xA0 SHL SUB NOT AND PUSH1 0x1 PUSH1 0x1 PUSH1 0xA0 SHL SUB SWAP3 SWAP1 SWAP3 AND SWAP2 SWAP1 SWAP2 OR SWAP1 SSTORE PUSH1 0x40 MLOAD PUSH3 0x79 SWAP1 PUSH3 0x1E1 JUMP JUMPDEST PUSH1 0x40 MLOAD DUP1 SWAP2 SUB SWAP1 PUSH1 0x0 CREATE DUP1 ISZERO DUP1 ISZERO PUSH3 0x96 JUMPI RETURNDATASIZE PUSH1 0x0 DUP1 RETURNDATACOPY RETURNDATASIZE PUSH1 0x0 REVERT JUMPDEST POP PUSH1 0x2 DUP1 SLOAD PUSH1 0x1 PUSH1 0x1 PUSH1 0xA0 SHL SUB NOT AND PUSH1 0x1 PUSH1 0x1 PUSH1 0xA0 SHL SUB SWAP3 SWAP1 SWAP3 AND SWAP2 DUP3 OR SWAP1 SSTORE PUSH1 0x40 MLOAD PUSH4 0x2F2FF15D PUSH1 0xE0 SHL DUP2 MSTORE PUSH32 0x9F2DF0FED2C77648DE5860A4CC508CD0818C85B8B8A1AB4CEEEF8D981C8956A6 PUSH1 0x4 DUP3 ADD MSTORE ADDRESS PUSH1 0x24 DUP3 ADD MSTORE PUSH4 0x2F2FF15D SWAP1 PUSH1 0x44 ADD PUSH1 0x0 PUSH1 0x40 MLOAD DUP1 DUP4 SUB DUP2 PUSH1 0x0 DUP8 DUP1 EXTCODESIZE ISZERO DUP1 ISZERO PUSH3 0x113 JUMPI PUSH1 0x0 DUP1 REVERT JUMPDEST POP GAS CALL ISZERO DUP1 ISZERO PUSH3 0x128 JUMPI RETURNDATASIZE PUSH1 0x0 DUP1 RETURNDATACOPY RETURNDATASIZE PUSH1 0x0 REVERT JUMPDEST POP POP POP POP PUSH3 0x1EF JUMP JUMPDEST PUSH1 0x0 DUP3 DUP2 MSTORE PUSH1 0x20 DUP2 DUP2 MSTORE PUSH1 0x40 DUP1 DUP4 KECCAK256 PUSH1 0x1 PUSH1 0x1 PUSH1 0xA0 SHL SUB DUP6 AND DUP5 MSTORE SWAP1 SWAP2 MSTORE SWAP1 KECCAK256 SLOAD PUSH1 0xFF AND PUSH3 0x1CF JUMPI PUSH1 0x0 DUP3 DUP2 MSTORE PUSH1 0x20 DUP2 DUP2 MSTORE PUSH1 0x40 DUP1 DUP4 KECCAK256 PUSH1 0x1 PUSH1 0x1 PUSH1 0xA0 SHL SUB DUP6 AND DUP5 MSTORE SWAP1 SWAP2 MSTORE SWAP1 KECCAK256 DUP1 SLOAD PUSH1 0xFF NOT AND PUSH1 0x1 OR SWAP1 SSTORE PUSH3 0x18E CALLER SWAP1 JUMP JUMPDEST PUSH1 0x1 PUSH1 0x1 PUSH1 0xA0 SHL SUB AND DUP2 PUSH1 0x1 PUSH1 0x1 PUSH1 0xA0 SHL SUB AND DUP4 PUSH32 0x2F8788117E7EFF1D82E926EC794901D17C78024A50270940304540A733656F0D PUSH1 0x40 MLOAD PUSH1 0x40 MLOAD DUP1 SWAP2 SUB SWAP1 LOG4 JUMPDEST POP POP JUMP JUMPDEST PUSH2 0x2B07 DUP1 PUSH3 0x1DAC DUP4 CODECOPY ADD SWAP1 JUMP JUMPDEST PUSH2 0x2933 DUP1 PUSH3 0x48B3 DUP4 CODECOPY ADD SWAP1 JUMP JUMPDEST PUSH2 0x1BAD DUP1 PUSH3 0x1FF PUSH1 0x0 CODECOPY PUSH1 0x0 RETURN INVALID PUSH1 0x80 PUSH1 0x40 MSTORE CALLVALUE DUP1 ISZERO PUSH2 0x10 JUMPI PUSH1 0x0 DUP1 REVERT JUMPDEST POP PUSH1 0x4 CALLDATASIZE LT PUSH2 0x173 JUMPI PUSH1 0x0 CALLDATALOAD PUSH1 0xE0 SHR DUP1 PUSH4 0x49D5E604 GT PUSH2 0xDE JUMPI DUP1 PUSH4 0x91D14854 GT PUSH2 0x97 JUMPI DUP1 PUSH4 0xB051A1FB GT PUSH2 0x71 JUMPI DUP1 PUSH4 0xB051A1FB EQ PUSH2 0x3B7 JUMPI DUP1 PUSH4 0xC2D79444 EQ PUSH2 0x3CA JUMPI DUP1 PUSH4 0xD547741F EQ PUSH2 0x3F1 JUMPI DUP1 PUSH4 0xE7CDEBD8 EQ PUSH2 0x404 JUMPI PUSH1 0x0 DUP1 REVERT JUMPDEST DUP1 PUSH4 0x91D14854 EQ PUSH2 0x375 JUMPI DUP1 PUSH4 0x9CEA0787 EQ PUSH2 0x388 JUMPI DUP1 PUSH4 0xA217FDDF EQ PUSH2 0x3AF JUMPI PUSH1 0x0 DUP1 REVERT JUMPDEST DUP1 PUSH4 0x49D5E604 EQ PUSH2 0x2C7 JUMPI DUP1 PUSH4 0x4D6D6A9C EQ PUSH2 0x2EE JUMPI DUP1 PUSH4 0x4D813120 EQ PUSH2 0x315 JUMPI DUP1 PUSH4 0x6C4EE56A EQ PUSH2 0x328 JUMPI DUP1 PUSH4 0x783C69CC EQ PUSH2 0x33B JUMPI DUP1 PUSH4 0x7B2DA3CE EQ PUSH2 0x362 JUMPI PUSH1 0x0 DUP1 REVERT JUMPDEST DUP1 PUSH4 0x248A9CA3 GT PUSH2 0x130 JUMPI DUP1 PUSH4 0x248A9CA3 EQ PUSH2 0x243 JUMPI DUP1 PUSH4 0x276832D7 EQ PUSH2 0x266 JUMPI DUP1 PUSH4 0x2F2FF15D EQ PUSH2 0x279 JUMPI DUP1 PUSH4 0x34C925F0 EQ PUSH2 0x28E JUMPI DUP1 PUSH4 0x36568ABE EQ PUSH2 0x2A1 JUMPI DUP1 PUSH4 0x40E06979 EQ PUSH2 0x2B4 JUMPI PUSH1 0x0 DUP1 REVERT JUMPDEST DUP1 PUSH4 0x1FFC9A7 EQ PUSH2 0x178 JUMPI DUP1 PUSH4 0x6A36AEE EQ PUSH2 0x1A0 JUMPI DUP1 PUSH4 0x719FCE9 EQ PUSH2 0x1C0 JUMPI DUP1 PUSH4 0xDBB4929 EQ PUSH2 0x1EB JUMPI DUP1 PUSH4 0x1959A002 EQ PUSH2 0x20C JUMPI DUP1 PUSH4 0x22459E18 EQ PUSH2 0x22E JUMPI JUMPDEST PUSH1 0x0 DUP1 REVERT JUMPDEST PUSH2 0x18B PUSH2 0x186 CALLDATASIZE PUSH1 0x4 PUSH2 0x11FD JUMP JUMPDEST PUSH2 0x417 JUMP JUMPDEST PUSH1 0x40 MLOAD SWAP1 ISZERO ISZERO DUP2 MSTORE PUSH1 0x20 ADD JUMPDEST PUSH1 0x40 MLOAD DUP1 SWAP2 SUB SWAP1 RETURN JUMPDEST PUSH2 0x1B3 PUSH2 0x1AE CALLDATASIZE PUSH1 0x4 PUSH2 0x123C JUMP JUMPDEST PUSH2 0x44E JUMP JUMPDEST PUSH1 0x40 MLOAD PUSH2 0x197 SWAP2 SWAP1 PUSH2 0x1259 JUMP JUMPDEST PUSH1 0x1 SLOAD PUSH2 0x1D3 SWAP1 PUSH1 0x1 PUSH1 0x1 PUSH1 0xA0 SHL SUB AND DUP2 JUMP JUMPDEST PUSH1 0x40 MLOAD PUSH1 0x1 PUSH1 0x1 PUSH1 0xA0 SHL SUB SWAP1 SWAP2 AND DUP2 MSTORE PUSH1 0x20 ADD PUSH2 0x197 JUMP JUMPDEST PUSH2 0x1FE PUSH2 0x1F9 CALLDATASIZE PUSH1 0x4 PUSH2 0x129D JUMP JUMPDEST PUSH2 0x4BA JUMP JUMPDEST PUSH1 0x40 MLOAD SWAP1 DUP2 MSTORE PUSH1 0x20 ADD PUSH2 0x197 JUMP JUMPDEST PUSH2 0x21F PUSH2 0x21A CALLDATASIZE PUSH1 0x4 PUSH2 0x123C JUMP JUMPDEST PUSH2 0x4EB JUMP JUMPDEST PUSH1 0x40 MLOAD PUSH2 0x197 SWAP4 SWAP3 SWAP2 SWAP1 PUSH2 0x1319 JUMP JUMPDEST PUSH2 0x1FE PUSH1 0x0 DUP1 MLOAD PUSH1 0x20 PUSH2 0x1B58 DUP4 CODECOPY DUP2 MLOAD SWAP2 MSTORE DUP2 JUMP JUMPDEST PUSH2 0x1FE PUSH2 0x251 CALLDATASIZE PUSH1 0x4 PUSH2 0x1351 JUMP JUMPDEST PUSH1 0x0 SWAP1 DUP2 MSTORE PUSH1 0x20 DUP2 SWAP1 MSTORE PUSH1 0x40 SWAP1 KECCAK256 PUSH1 0x1 ADD SLOAD SWAP1 JUMP JUMPDEST PUSH2 0x18B PUSH2 0x274 CALLDATASIZE PUSH1 0x4 PUSH2 0x129D JUMP JUMPDEST PUSH2 0x620 JUMP JUMPDEST PUSH2 0x28C PUSH2 0x287 CALLDATASIZE PUSH1 0x4 PUSH2 0x136A JUMP JUMPDEST PUSH2 0x633 JUMP JUMPDEST STOP JUMPDEST PUSH2 0x1B3 PUSH2 0x29C CALLDATASIZE PUSH1 0x4 PUSH2 0x123C JUMP JUMPDEST PUSH2 0x65D JUMP JUMPDEST PUSH2 0x28C PUSH2 0x2AF CALLDATASIZE PUSH1 0x4 PUSH2 0x136A JUMP JUMPDEST PUSH2 0x6CA JUMP JUMPDEST PUSH2 0x28C PUSH2 0x2C2 CALLDATASIZE PUSH1 0x4 PUSH2 0x145F JUMP JUMPDEST PUSH2 0x74D JUMP JUMPDEST PUSH2 0x1FE PUSH32 0x5146A08BAF902532D0EE2F909971144F12CA32651CD70CBEE1117CDDFB3B3B33 DUP2 JUMP JUMPDEST PUSH2 0x301 PUSH2 0x2FC CALLDATASIZE PUSH1 0x4 PUSH2 0x1351 JUMP JUMPDEST PUSH2 0x77C JUMP JUMPDEST PUSH1 0x40 MLOAD PUSH2 0x197 SWAP9 SWAP8 SWAP7 SWAP6 SWAP5 SWAP4 SWAP3 SWAP2 SWAP1 PUSH2 0x14C3 JUMP JUMPDEST PUSH2 0x28C PUSH2 0x323 CALLDATASIZE PUSH1 0x4 PUSH2 0x123C JUMP JUMPDEST PUSH2 0x81A JUMP JUMPDEST PUSH1 0x2 SLOAD PUSH2 0x1D3 SWAP1 PUSH1 0x1 PUSH1 0x1 PUSH1 0xA0 SHL SUB AND DUP2 JUMP JUMPDEST PUSH2 0x1FE PUSH32 0x7F611FFBF41DD527826ABAD73CB1B1ECFF28482BB0412695BE053AFA0451AD18 DUP2 JUMP JUMPDEST PUSH2 0x1FE PUSH2 0x370 CALLDATASIZE PUSH1 0x4 PUSH2 0x1540 JUMP JUMPDEST PUSH2 0x88E JUMP JUMPDEST PUSH2 0x18B PUSH2 0x383 CALLDATASIZE PUSH1 0x4 PUSH2 0x136A JUMP JUMPDEST PUSH2 0xB27 JUMP JUMPDEST PUSH2 0x1FE PUSH32 0x16CEEE8289685DD2A02B9C8AE81D2DF373176CE53519E6284E2A2950D6546FFA DUP2 JUMP JUMPDEST PUSH2 0x1FE PUSH1 0x0 DUP2 JUMP JUMPDEST PUSH2 0x28C PUSH2 0x3C5 CALLDATASIZE PUSH1 0x4 PUSH2 0x1670 JUMP JUMPDEST PUSH2 0xB50 JUMP JUMPDEST PUSH2 0x1FE PUSH32 0x1597BC5E34FF090612F53164E4E642D2AB4FC78BFFE19ED1B602A0D12559561A DUP2 JUMP JUMPDEST PUSH2 0x28C PUSH2 0x3FF CALLDATASIZE PUSH1 0x4 PUSH2 0x136A JUMP JUMPDEST PUSH2 0xD04 JUMP JUMPDEST PUSH2 0x1FE PUSH2 0x412 CALLDATASIZE PUSH1 0x4 PUSH2 0x16F0 JUMP JUMPDEST PUSH2 0xD29 JUMP JUMPDEST PUSH1 0x0 PUSH1 0x1 PUSH1 0x1 PUSH1 0xE0 SHL SUB NOT DUP3 AND PUSH4 0x7965DB0B PUSH1 0xE0 SHL EQ DUP1 PUSH2 0x448 JUMPI POP PUSH4 0x1FFC9A7 PUSH1 0xE0 SHL PUSH1 0x1 PUSH1 0x1 PUSH1 0xE0 SHL SUB NOT DUP4 AND EQ JUMPDEST SWAP3 SWAP2 POP POP JUMP JUMPDEST PUSH1 0x1 PUSH1 0x1 PUSH1 0xA0 SHL SUB DUP2 AND PUSH1 0x0 SWAP1 DUP2 MSTORE PUSH1 0x4 PUSH1 0x20 SWAP1 DUP2 MSTORE PUSH1 0x40 SWAP2 DUP3 SWAP1 KECCAK256 DUP1 SLOAD DUP4 MLOAD DUP2 DUP5 MUL DUP2 ADD DUP5 ADD SWAP1 SWAP5 MSTORE DUP1 DUP5 MSTORE PUSH1 0x60 SWAP4 SWAP3 DUP4 ADD DUP3 DUP3 DUP1 ISZERO PUSH2 0x4AE JUMPI PUSH1 0x20 MUL DUP3 ADD SWAP2 SWAP1 PUSH1 0x0 MSTORE PUSH1 0x20 PUSH1 0x0 KECCAK256 SWAP1 JUMPDEST DUP2 SLOAD DUP2 MSTORE PUSH1 0x20 ADD SWAP1 PUSH1 0x1 ADD SWAP1 DUP1 DUP4 GT PUSH2 0x49A JUMPI JUMPDEST POP POP POP POP POP SWAP1 POP SWAP2 SWAP1 POP JUMP JUMPDEST PUSH1 0x4 PUSH1 0x20 MSTORE DUP2 PUSH1 0x0 MSTORE PUSH1 0x40 PUSH1 0x0 KECCAK256 DUP2 DUP2 SLOAD DUP2 LT PUSH2 0x4D6 JUMPI PUSH1 0x0 DUP1 REVERT JUMPDEST SWAP1 PUSH1 0x0 MSTORE PUSH1 0x20 PUSH1 0x0 KECCAK256 ADD PUSH1 0x0 SWAP2 POP SWAP2 POP POP SLOAD DUP2 JUMP JUMPDEST PUSH1 0x3 PUSH1 0x20 MSTORE PUSH1 0x0 SWAP1 DUP2 MSTORE PUSH1 0x40 SWAP1 KECCAK256 DUP1 SLOAD DUP2 SWAP1 PUSH2 0x506 SWAP1 PUSH2 0x172D JUMP JUMPDEST DUP1 PUSH1 0x1F ADD PUSH1 0x20 DUP1 SWAP2 DIV MUL PUSH1 0x20 ADD PUSH1 0x40 MLOAD SWAP1 DUP2 ADD PUSH1 0x40 MSTORE DUP1 SWAP3 SWAP2 SWAP1 DUP2 DUP2 MSTORE PUSH1 0x20 ADD DUP3 DUP1 SLOAD PUSH2 0x532 SWAP1 PUSH2 0x172D JUMP JUMPDEST DUP1 ISZERO PUSH2 0x57F JUMPI DUP1 PUSH1 0x1F LT PUSH2 0x554 JUMPI PUSH2 0x100 DUP1 DUP4 SLOAD DIV MUL DUP4 MSTORE SWAP2 PUSH1 0x20 ADD SWAP2 PUSH2 0x57F JUMP JUMPDEST DUP3 ADD SWAP2 SWAP1 PUSH1 0x0 MSTORE PUSH1 0x20 PUSH1 0x0 KECCAK256 SWAP1 JUMPDEST DUP2 SLOAD DUP2 MSTORE SWAP1 PUSH1 0x1 ADD SWAP1 PUSH1 0x20 ADD DUP1 DUP4 GT PUSH2 0x562 JUMPI DUP3 SWAP1 SUB PUSH1 0x1F AND DUP3 ADD SWAP2 JUMPDEST POP POP POP POP POP SWAP1 DUP1 PUSH1 0x1 ADD DUP1 SLOAD PUSH2 0x594 SWAP1 PUSH2 0x172D JUMP JUMPDEST DUP1 PUSH1 0x1F ADD PUSH1 0x20 DUP1 SWAP2 DIV MUL PUSH1 0x20 ADD PUSH1 0x40 MLOAD SWAP1 DUP2 ADD PUSH1 0x40 MSTORE DUP1 SWAP3 SWAP2 SWAP1 DUP2 DUP2 MSTORE PUSH1 0x20 ADD DUP3 DUP1 SLOAD PUSH2 0x5C0 SWAP1 PUSH2 0x172D JUMP JUMPDEST DUP1 ISZERO PUSH2 0x60D JUMPI DUP1 PUSH1 0x1F LT PUSH2 0x5E2 JUMPI PUSH2 0x100 DUP1 DUP4 SLOAD DIV MUL DUP4 MSTORE SWAP2 PUSH1 0x20 ADD SWAP2 PUSH2 0x60D JUMP JUMPDEST DUP3 ADD SWAP2 SWAP1 PUSH1 0x0 MSTORE PUSH1 0x20 PUSH1 0x0 KECCAK256 SWAP1 JUMPDEST DUP2 SLOAD DUP2 MSTORE SWAP1 PUSH1 0x1 ADD SWAP1 PUSH1 0x20 ADD DUP1 DUP4 GT PUSH2 0x5F0 JUMPI DUP3 SWAP1 SUB PUSH1 0x1F AND DUP3 ADD SWAP2 JUMPDEST POP POP POP PUSH1 0x2 SWAP1 SWAP4 ADD SLOAD SWAP2 SWAP3 POP POP PUSH1 0xFF AND DUP4 JUMP JUMPDEST PUSH1 0x0 PUSH2 0x62C DUP3 DUP5 PUSH2 0xB27 JUMP JUMPDEST SWAP4 SWAP3 POP POP POP JUMP JUMPDEST PUSH1 0x0 DUP3 DUP2 MSTORE PUSH1 0x20 DUP2 SWAP1 MSTORE PUSH1 0x40 SWAP1 KECCAK256 PUSH1 0x1 ADD SLOAD PUSH2 0x64E DUP2 PUSH2 0xF00 JUMP JUMPDEST PUSH2 0x658 DUP4 DUP4 PUSH2 0xF0D JUMP JUMPDEST POP POP POP JUMP JUMPDEST PUSH1 0x1 PUSH1 0x1 PUSH1 0xA0 SHL SUB DUP2 AND PUSH1 0x0 SWAP1 DUP2 MSTORE PUSH1 0x3 PUSH1 0x20 DUP2 DUP2 MSTORE PUSH1 0x40 SWAP3 DUP4 SWAP1 KECCAK256 SWAP1 SWAP2 ADD DUP1 SLOAD DUP4 MLOAD DUP2 DUP5 MUL DUP2 ADD DUP5 ADD SWAP1 SWAP5 MSTORE DUP1 DUP5 MSTORE PUSH1 0x60 SWAP4 SWAP3 DUP4 ADD DUP3 DUP3 DUP1 ISZERO PUSH2 0x4AE JUMPI PUSH1 0x20 MUL DUP3 ADD SWAP2 SWAP1 PUSH1 0x0 MSTORE PUSH1 0x20 PUSH1 0x0 KECCAK256 SWAP1 DUP2 SLOAD DUP2 MSTORE PUSH1 0x20 ADD SWAP1 PUSH1 0x1 ADD SWAP1 DUP1 DUP4 GT PUSH2 0x49A JUMPI POP POP POP POP POP SWAP1 POP SWAP2 SWAP1 POP JUMP JUMPDEST PUSH1 0x1 PUSH1 0x1 PUSH1 0xA0 SHL SUB DUP2 AND CALLER EQ PUSH2 0x73F JUMPI PUSH1 0x40 MLOAD PUSH3 0x461BCD PUSH1 0xE5 SHL DUP2 MSTORE PUSH1 0x20 PUSH1 0x4 DUP3 ADD MSTORE PUSH1 0x2F PUSH1 0x24 DUP3 ADD MSTORE PUSH32 0x416363657373436F6E74726F6C3A2063616E206F6E6C792072656E6F756E6365 PUSH1 0x44 DUP3 ADD MSTORE PUSH15 0x103937B632B9903337B91039B2B633 PUSH1 0x89 SHL PUSH1 0x64 DUP3 ADD MSTORE PUSH1 0x84 ADD JUMPDEST PUSH1 0x40 MLOAD DUP1 SWAP2 SUB SWAP1 REVERT JUMPDEST PUSH2 0x749 DUP3 DUP3 PUSH2 0xF91 JUMP JUMPDEST POP POP JUMP JUMPDEST CALLER PUSH1 0x0 SWAP1 DUP2 MSTORE PUSH1 0x3 PUSH1 0x20 MSTORE PUSH1 0x40 SWAP1 KECCAK256 DUP1 PUSH2 0x767 DUP5 DUP3 PUSH2 0x17B5 JUMP JUMPDEST POP PUSH1 0x1 DUP2 ADD PUSH2 0x776 DUP4 DUP3 PUSH2 0x17B5 JUMP JUMPDEST POP POP POP POP JUMP JUMPDEST PUSH1 0x1 SLOAD PUSH1 0x40 MLOAD PUSH4 0x135B5AA7 PUSH1 0xE2 SHL DUP2 MSTORE PUSH1 0x4 DUP2 ADD DUP4 SWAP1 MSTORE PUSH1 0x0 SWAP2 DUP3 SWAP2 PUSH1 0x60 SWAP2 DUP4 SWAP2 DUP3 SWAP2 DUP3 SWAP2 DUP3 SWAP2 DUP3 SWAP2 PUSH1 0x1 PUSH1 0x1 PUSH1 0xA0 SHL SUB SWAP1 SWAP2 AND SWAP1 PUSH4 0x4D6D6A9C SWAP1 PUSH1 0x24 ADD PUSH1 0x0 PUSH1 0x40 MLOAD DUP1 DUP4 SUB DUP2 DUP7 GAS STATICCALL ISZERO DUP1 ISZERO PUSH2 0x7D7 JUMPI RETURNDATASIZE PUSH1 0x0 DUP1 RETURNDATACOPY RETURNDATASIZE PUSH1 0x0 REVERT JUMPDEST POP POP POP POP PUSH1 0x40 MLOAD RETURNDATASIZE PUSH1 0x0 DUP3 RETURNDATACOPY PUSH1 0x1F RETURNDATASIZE SWAP1 DUP2 ADD PUSH1 0x1F NOT AND DUP3 ADD PUSH1 0x40 MSTORE PUSH2 0x7FF SWAP2 SWAP1 DUP2 ADD SWAP1 PUSH2 0x1894 JUMP JUMPDEST SWAP8 POP SWAP8 POP SWAP8 POP SWAP8 POP SWAP8 POP SWAP8 POP SWAP8 POP SWAP8 POP SWAP2 SWAP4 SWAP6 SWAP8 POP SWAP2 SWAP4 SWAP6 SWAP8 JUMP JUMPDEST PUSH2 0x825 PUSH1 0x0 CALLER PUSH2 0xB27 JUMP JUMPDEST PUSH2 0x867 JUMPI PUSH1 0x40 MLOAD PUSH3 0x461BCD PUSH1 0xE5 SHL DUP2 MSTORE PUSH1 0x20 PUSH1 0x4 DUP3 ADD MSTORE PUSH1 0x13 PUSH1 0x24 DUP3 ADD MSTORE PUSH19 0x10591B5A5B881C9BDB19481C995C5D5A5C9959 PUSH1 0x6A SHL PUSH1 0x44 DUP3 ADD MSTORE PUSH1 0x64 ADD PUSH2 0x736 JUMP JUMPDEST PUSH1 0x1 PUSH1 0x1 PUSH1 0xA0 SHL SUB AND PUSH1 0x0 SWAP1 DUP2 MSTORE PUSH1 0x3 PUSH1 0x20 MSTORE PUSH1 0x40 SWAP1 KECCAK256 PUSH1 0x2 ADD DUP1 SLOAD PUSH1 0xFF NOT AND PUSH1 0x1 OR SWAP1 SSTORE JUMP JUMPDEST PUSH1 0x0 PUSH2 0x8BA PUSH32 0x7F611FFBF41DD527826ABAD73CB1B1ECFF28482BB0412695BE053AFA0451AD18 DUP11 PUSH2 0xB27 JUMP JUMPDEST DUP1 PUSH2 0x8D8 JUMPI POP PUSH2 0x8D8 PUSH1 0x0 DUP1 MLOAD PUSH1 0x20 PUSH2 0x1B58 DUP4 CODECOPY DUP2 MLOAD SWAP2 MSTORE CALLER PUSH2 0xB27 JUMP JUMPDEST PUSH2 0x924 JUMPI PUSH1 0x40 MLOAD PUSH3 0x461BCD PUSH1 0xE5 SHL DUP2 MSTORE PUSH1 0x20 PUSH1 0x4 DUP3 ADD DUP2 SWAP1 MSTORE PUSH1 0x24 DUP3 ADD MSTORE PUSH32 0x4F6E6C79206174686C657465206F72206167656E742063616E20637265617465 PUSH1 0x44 DUP3 ADD MSTORE PUSH1 0x64 ADD PUSH2 0x736 JUMP JUMPDEST PUSH2 0x94E PUSH32 0x1597BC5E34FF090612F53164E4E642D2AB4FC78BFFE19ED1B602A0D12559561A DUP10 PUSH2 0xB27 JUMP JUMPDEST PUSH2 0x99A JUMPI PUSH1 0x40 MLOAD PUSH3 0x461BCD PUSH1 0xE5 SHL DUP2 MSTORE PUSH1 0x20 PUSH1 0x4 DUP3 ADD MSTORE PUSH1 0x1E PUSH1 0x24 DUP3 ADD MSTORE PUSH32 0x53706F6E736F72206D75737420686176652053504F4E534F525F524F4C450000 PUSH1 0x44 DUP3 ADD MSTORE PUSH1 0x64 ADD PUSH2 0x736 JUMP JUMPDEST PUSH1 0x1 SLOAD PUSH1 0x40 MLOAD PUSH4 0x1A872C63 PUSH1 0xE2 SHL DUP2 MSTORE PUSH1 0x0 SWAP2 PUSH1 0x1 PUSH1 0x1 PUSH1 0xA0 SHL SUB AND SWAP1 PUSH4 0x6A1CB18C SWAP1 PUSH2 0x9D9 SWAP1 DUP14 SWAP1 DUP14 SWAP1 DUP14 SWAP1 DUP14 SWAP1 DUP14 SWAP1 DUP14 SWAP1 DUP14 SWAP1 DUP14 SWAP1 PUSH1 0x4 ADD PUSH2 0x1973 JUMP JUMPDEST PUSH1 0x20 PUSH1 0x40 MLOAD DUP1 DUP4 SUB DUP2 PUSH1 0x0 DUP8 GAS CALL ISZERO DUP1 ISZERO PUSH2 0x9F8 JUMPI RETURNDATASIZE PUSH1 0x0 DUP1 RETURNDATACOPY RETURNDATASIZE PUSH1 0x0 REVERT JUMPDEST POP POP POP POP PUSH1 0x40 MLOAD RETURNDATASIZE PUSH1 0x1F NOT PUSH1 0x1F DUP3 ADD AND DUP3 ADD DUP1 PUSH1 0x40 MSTORE POP DUP2 ADD SWAP1 PUSH2 0xA1C SWAP2 SWAP1 PUSH2 0x1A07 JUMP JUMPDEST PUSH1 0x1 PUSH1 0x1 PUSH1 0xA0 SHL SUB DUP1 DUP13 AND PUSH1 0x0 SWAP1 DUP2 MSTORE PUSH1 0x3 PUSH1 0x20 DUP2 DUP2 MSTORE PUSH1 0x40 DUP1 DUP5 KECCAK256 DUP4 ADD DUP1 SLOAD PUSH1 0x1 DUP2 DUP2 ADD DUP4 SSTORE SWAP2 DUP7 MSTORE DUP4 DUP7 KECCAK256 ADD DUP8 SWAP1 SSTORE SWAP5 DUP16 AND DUP5 MSTORE DUP4 KECCAK256 SWAP1 SWAP2 ADD DUP1 SLOAD SWAP4 DUP5 ADD DUP2 SSTORE DUP3 MSTORE SWAP1 KECCAK256 ADD DUP2 SWAP1 SSTORE SWAP1 POP PUSH2 0xA80 PUSH1 0x0 DUP1 MLOAD PUSH1 0x20 PUSH2 0x1B58 DUP4 CODECOPY DUP2 MLOAD SWAP2 MSTORE CALLER PUSH2 0xB27 JUMP JUMPDEST DUP1 ISZERO PUSH2 0xA95 JUMPI POP CALLER PUSH1 0x1 PUSH1 0x1 PUSH1 0xA0 SHL SUB DUP12 AND EQ ISZERO JUMPDEST DUP1 ISZERO PUSH2 0xAAA JUMPI POP CALLER PUSH1 0x1 PUSH1 0x1 PUSH1 0xA0 SHL SUB DUP11 AND EQ ISZERO JUMPDEST ISZERO PUSH2 0xAD5 JUMPI CALLER PUSH1 0x0 SWAP1 DUP2 MSTORE PUSH1 0x3 PUSH1 0x20 DUP2 DUP2 MSTORE PUSH1 0x40 DUP4 KECCAK256 SWAP1 SWAP2 ADD DUP1 SLOAD PUSH1 0x1 DUP2 ADD DUP3 SSTORE SWAP1 DUP4 MSTORE SWAP2 KECCAK256 ADD DUP2 SWAP1 SSTORE JUMPDEST PUSH1 0x40 DUP1 MLOAD PUSH1 0x1 PUSH1 0x1 PUSH1 0xA0 SHL SUB DUP1 DUP14 AND DUP3 MSTORE DUP12 AND PUSH1 0x20 DUP3 ADD MSTORE DUP3 SWAP2 PUSH32 0x56560A52C047ED21FD801BF0F345B23D9AF696F7922FF8E63101AF5D48CADDAB SWAP2 ADD PUSH1 0x40 MLOAD DUP1 SWAP2 SUB SWAP1 LOG2 SWAP10 SWAP9 POP POP POP POP POP POP POP POP POP JUMP JUMPDEST PUSH1 0x0 SWAP2 DUP3 MSTORE PUSH1 0x20 DUP3 DUP2 MSTORE PUSH1 0x40 DUP1 DUP5 KECCAK256 PUSH1 0x1 PUSH1 0x1 PUSH1 0xA0 SHL SUB SWAP4 SWAP1 SWAP4 AND DUP5 MSTORE SWAP2 SWAP1 MSTORE SWAP1 KECCAK256 SLOAD PUSH1 0xFF AND SWAP1 JUMP JUMPDEST PUSH2 0xB5B PUSH1 0x0 CALLER PUSH2 0xB27 JUMP JUMPDEST PUSH2 0xB9D JUMPI PUSH1 0x40 MLOAD PUSH3 0x461BCD PUSH1 0xE5 SHL DUP2 MSTORE PUSH1 0x20 PUSH1 0x4 DUP3 ADD MSTORE PUSH1 0x13 PUSH1 0x24 DUP3 ADD MSTORE PUSH19 0x10591B5A5B881C9BDB19481C995C5D5A5C9959 PUSH1 0x6A SHL PUSH1 0x44 DUP3 ADD MSTORE PUSH1 0x64 ADD PUSH2 0x736 JUMP JUMPDEST PUSH2 0xBA7 DUP4 DUP6 PUSH2 0xB27 JUMP JUMPDEST ISZERO PUSH2 0xBF4 JUMPI PUSH1 0x40 MLOAD PUSH3 0x461BCD PUSH1 0xE5 SHL DUP2 MSTORE PUSH1 0x20 PUSH1 0x4 DUP3 ADD MSTORE PUSH1 0x1A PUSH1 0x24 DUP3 ADD MSTORE PUSH32 0x5573657220616C726561647920686173207468697320726F6C65000000000000 PUSH1 0x44 DUP3 ADD MSTORE PUSH1 0x64 ADD PUSH2 0x736 JUMP JUMPDEST PUSH1 0x1 SLOAD PUSH1 0x40 MLOAD PUSH4 0x2F2FF15D PUSH1 0xE0 SHL DUP2 MSTORE PUSH1 0x4 DUP2 ADD DUP6 SWAP1 MSTORE PUSH1 0x1 PUSH1 0x1 PUSH1 0xA0 SHL SUB DUP7 DUP2 AND PUSH1 0x24 DUP4 ADD MSTORE SWAP1 SWAP2 AND SWAP1 PUSH4 0x2F2FF15D SWAP1 PUSH1 0x44 ADD PUSH1 0x0 PUSH1 0x40 MLOAD DUP1 DUP4 SUB DUP2 PUSH1 0x0 DUP8 DUP1 EXTCODESIZE ISZERO DUP1 ISZERO PUSH2 0xC42 JUMPI PUSH1 0x0 DUP1 REVERT JUMPDEST POP GAS CALL ISZERO DUP1 ISZERO PUSH2 0xC56 JUMPI RETURNDATASIZE PUSH1 0x0 DUP1 RETURNDATACOPY RETURNDATASIZE PUSH1 0x0 REVERT JUMPDEST POP POP POP POP PUSH2 0xC64 DUP4 DUP6 PUSH2 0xF0D JUMP JUMPDEST PUSH1 0x1 PUSH1 0x1 PUSH1 0xA0 SHL SUB DUP5 AND PUSH1 0x0 SWAP1 DUP2 MSTORE PUSH1 0x3 PUSH1 0x20 MSTORE PUSH1 0x40 SWAP1 KECCAK256 DUP1 PUSH2 0xC87 DUP5 DUP3 PUSH2 0x17B5 JUMP JUMPDEST POP PUSH1 0x1 DUP2 ADD PUSH2 0xC96 DUP4 DUP3 PUSH2 0x17B5 JUMP JUMPDEST POP PUSH1 0x1 PUSH1 0x1 PUSH1 0xA0 SHL SUB DUP6 AND PUSH1 0x0 DUP2 DUP2 MSTORE PUSH1 0x4 PUSH1 0x20 SWAP1 DUP2 MSTORE PUSH1 0x40 DUP1 DUP4 KECCAK256 DUP1 SLOAD PUSH1 0x1 DUP2 ADD DUP3 SSTORE SWAP1 DUP5 MSTORE SWAP2 SWAP1 SWAP3 KECCAK256 ADD DUP7 SWAP1 SSTORE MLOAD PUSH32 0x4C5D15F5779AE1ECD7D55BD3283D898E29C35743D172BD7B83A16E17BC0AFE2A SWAP1 PUSH2 0xCF5 SWAP1 DUP8 DUP2 MSTORE PUSH1 0x20 ADD SWAP1 JUMP JUMPDEST PUSH1 0x40 MLOAD DUP1 SWAP2 SUB SWAP1 LOG2 POP POP POP POP POP JUMP JUMPDEST PUSH1 0x0 DUP3 DUP2 MSTORE PUSH1 0x20 DUP2 SWAP1 MSTORE PUSH1 0x40 SWAP1 KECCAK256 PUSH1 0x1 ADD SLOAD PUSH2 0xD1F DUP2 PUSH2 0xF00 JUMP JUMPDEST PUSH2 0x658 DUP4 DUP4 PUSH2 0xF91 JUMP JUMPDEST PUSH1 0x1 SLOAD PUSH1 0x40 MLOAD PUSH4 0x135B5AA7 PUSH1 0xE2 SHL DUP2 MSTORE PUSH1 0x4 DUP2 ADD DUP5 SWAP1 MSTORE PUSH1 0x0 SWAP2 DUP3 SWAP2 DUP3 SWAP2 PUSH1 0x1 PUSH1 0x1 PUSH1 0xA0 SHL SUB AND SWAP1 PUSH4 0x4D6D6A9C SWAP1 PUSH1 0x24 ADD PUSH1 0x0 PUSH1 0x40 MLOAD DUP1 DUP4 SUB DUP2 DUP7 GAS STATICCALL ISZERO DUP1 ISZERO PUSH2 0xD77 JUMPI RETURNDATASIZE PUSH1 0x0 DUP1 RETURNDATACOPY RETURNDATASIZE PUSH1 0x0 REVERT JUMPDEST POP POP POP POP PUSH1 0x40 MLOAD RETURNDATASIZE PUSH1 0x0 DUP3 RETURNDATACOPY PUSH1 0x1F RETURNDATASIZE SWAP1 DUP2 ADD PUSH1 0x1F NOT AND DUP3 ADD PUSH1 0x40 MSTORE PUSH2 0xD9F SWAP2 SWAP1 DUP2 ADD SWAP1 PUSH2 0x1894 JUMP JUMPDEST POP POP POP POP POP POP SWAP2 POP SWAP2 POP DUP2 PUSH1 0x1 PUSH1 0x1 PUSH1 0xA0 SHL SUB AND CALLER PUSH1 0x1 PUSH1 0x1 PUSH1 0xA0 SHL SUB AND EQ DUP1 PUSH2 0xDD1 JUMPI POP CALLER PUSH1 0x1 PUSH1 0x1 PUSH1 0xA0 SHL SUB DUP3 AND EQ JUMPDEST DUP1 PUSH2 0xDEF JUMPI POP PUSH2 0xDEF PUSH1 0x0 DUP1 MLOAD PUSH1 0x20 PUSH2 0x1B58 DUP4 CODECOPY DUP2 MLOAD SWAP2 MSTORE CALLER PUSH2 0xB27 JUMP JUMPDEST PUSH2 0xE4B JUMPI PUSH1 0x40 MLOAD PUSH3 0x461BCD PUSH1 0xE5 SHL DUP2 MSTORE PUSH1 0x20 PUSH1 0x4 DUP3 ADD MSTORE PUSH1 0x27 PUSH1 0x24 DUP3 ADD MSTORE PUSH32 0x4F6E6C79206174686C6574652C2073706F6E736F72206F72206167656E742063 PUSH1 0x44 DUP3 ADD MSTORE PUSH7 0x185B881B5A5B9D PUSH1 0xCA SHL PUSH1 0x64 DUP3 ADD MSTORE PUSH1 0x84 ADD PUSH2 0x736 JUMP JUMPDEST PUSH1 0x2 SLOAD PUSH1 0x40 MLOAD PUSH4 0x613D8E41 PUSH1 0xE1 SHL DUP2 MSTORE PUSH1 0x0 SWAP2 PUSH1 0x1 PUSH1 0x1 PUSH1 0xA0 SHL SUB AND SWAP1 PUSH4 0xC27B1C82 SWAP1 PUSH2 0xE84 SWAP1 DUP6 SWAP1 DUP11 SWAP1 DUP11 SWAP1 DUP10 SWAP1 DUP5 SWAP1 PUSH1 0x4 ADD PUSH2 0x1A20 JUMP JUMPDEST PUSH1 0x20 PUSH1 0x40 MLOAD DUP1 DUP4 SUB DUP2 PUSH1 0x0 DUP8 GAS CALL ISZERO DUP1 ISZERO PUSH2 0xEA3 JUMPI RETURNDATASIZE PUSH1 0x0 DUP1 RETURNDATACOPY RETURNDATASIZE PUSH1 0x0 REVERT JUMPDEST POP POP POP POP PUSH1 0x40 MLOAD RETURNDATASIZE PUSH1 0x1F NOT PUSH1 0x1F DUP3 ADD AND DUP3 ADD DUP1 PUSH1 0x40 MSTORE POP DUP2 ADD SWAP1 PUSH2 0xEC7 SWAP2 SWAP1 PUSH2 0x1A07 JUMP JUMPDEST SWAP1 POP DUP6 DUP2 PUSH32 0xD4C3F7782ECAE0D1A12013592109B1BF02689D7F4E8AB653C75A61AEA745E3BE PUSH1 0x40 MLOAD PUSH1 0x40 MLOAD DUP1 SWAP2 SUB SWAP1 LOG3 SWAP6 SWAP5 POP POP POP POP POP JUMP JUMPDEST PUSH2 0xF0A DUP2 CALLER PUSH2 0xFF6 JUMP JUMPDEST POP JUMP JUMPDEST PUSH2 0xF17 DUP3 DUP3 PUSH2 0xB27 JUMP JUMPDEST PUSH2 0x749 JUMPI PUSH1 0x0 DUP3 DUP2 MSTORE PUSH1 0x20 DUP2 DUP2 MSTORE PUSH1 0x40 DUP1 DUP4 KECCAK256 PUSH1 0x1 PUSH1 0x1 PUSH1 0xA0 SHL SUB DUP6 AND DUP5 MSTORE SWAP1 SWAP2 MSTORE SWAP1 KECCAK256 DUP1 SLOAD PUSH1 0xFF NOT AND PUSH1 0x1 OR SWAP1 SSTORE PUSH2 0xF4D CALLER SWAP1 JUMP JUMPDEST PUSH1 0x1 PUSH1 0x1 PUSH1 0xA0 SHL SUB AND DUP2 PUSH1 0x1 PUSH1 0x1 PUSH1 0xA0 SHL SUB AND DUP4 PUSH32 0x2F8788117E7EFF1D82E926EC794901D17C78024A50270940304540A733656F0D PUSH1 0x40 MLOAD PUSH1 0x40 MLOAD DUP1 SWAP2 SUB SWAP1 LOG4 POP POP JUMP JUMPDEST PUSH2 0xF9B DUP3 DUP3 PUSH2 0xB27 JUMP JUMPDEST ISZERO PUSH2 0x749 JUMPI PUSH1 0x0 DUP3 DUP2 MSTORE PUSH1 0x20 DUP2 DUP2 MSTORE PUSH1 0x40 DUP1 DUP4 KECCAK256 PUSH1 0x1 PUSH1 0x1 PUSH1 0xA0 SHL SUB DUP6 AND DUP1 DUP6 MSTORE SWAP3 MSTORE DUP1 DUP4 KECCAK256 DUP1 SLOAD PUSH1 0xFF NOT AND SWAP1 SSTORE MLOAD CALLER SWAP3 DUP6 SWAP2 PUSH32 0xF6391F5C32D9C69D2A47EA670B442974B53935D1EDC7FD64EB21E047A839171B SWAP2 SWAP1 LOG4 POP POP JUMP JUMPDEST PUSH2 0x1000 DUP3 DUP3 PUSH2 0xB27 JUMP JUMPDEST PUSH2 0x749 JUMPI PUSH2 0x100D DUP2 PUSH2 0x104F JUMP JUMPDEST PUSH2 0x1018 DUP4 PUSH1 0x20 PUSH2 0x1061 JUMP JUMPDEST PUSH1 0x40 MLOAD PUSH1 0x20 ADD PUSH2 0x1029 SWAP3 SWAP2 SWAP1 PUSH2 0x1A62 JUMP JUMPDEST PUSH1 0x40 DUP1 MLOAD PUSH1 0x1F NOT DUP2 DUP5 SUB ADD DUP2 MSTORE SWAP1 DUP3 SWAP1 MSTORE PUSH3 0x461BCD PUSH1 0xE5 SHL DUP3 MSTORE PUSH2 0x736 SWAP2 PUSH1 0x4 ADD PUSH2 0x1AD7 JUMP JUMPDEST PUSH1 0x60 PUSH2 0x448 PUSH1 0x1 PUSH1 0x1 PUSH1 0xA0 SHL SUB DUP4 AND PUSH1 0x14 JUMPDEST PUSH1 0x60 PUSH1 0x0 PUSH2 0x1070 DUP4 PUSH1 0x2 PUSH2 0x1B00 JUMP JUMPDEST PUSH2 0x107B SWAP1 PUSH1 0x2 PUSH2 0x1B17 JUMP JUMPDEST PUSH8 0xFFFFFFFFFFFFFFFF DUP2 GT ISZERO PUSH2 0x1093 JUMPI PUSH2 0x1093 PUSH2 0x139A JUMP JUMPDEST PUSH1 0x40 MLOAD SWAP1 DUP1 DUP3 MSTORE DUP1 PUSH1 0x1F ADD PUSH1 0x1F NOT AND PUSH1 0x20 ADD DUP3 ADD PUSH1 0x40 MSTORE DUP1 ISZERO PUSH2 0x10BD JUMPI PUSH1 0x20 DUP3 ADD DUP2 DUP1 CALLDATASIZE DUP4 CALLDATACOPY ADD SWAP1 POP JUMPDEST POP SWAP1 POP PUSH1 0x3 PUSH1 0xFC SHL DUP2 PUSH1 0x0 DUP2 MLOAD DUP2 LT PUSH2 0x10D8 JUMPI PUSH2 0x10D8 PUSH2 0x1B2A JUMP JUMPDEST PUSH1 0x20 ADD ADD SWAP1 PUSH1 0x1 PUSH1 0x1 PUSH1 0xF8 SHL SUB NOT AND SWAP1 DUP2 PUSH1 0x0 BYTE SWAP1 MSTORE8 POP PUSH1 0xF PUSH1 0xFB SHL DUP2 PUSH1 0x1 DUP2 MLOAD DUP2 LT PUSH2 0x1107 JUMPI PUSH2 0x1107 PUSH2 0x1B2A JUMP JUMPDEST PUSH1 0x20 ADD ADD SWAP1 PUSH1 0x1 PUSH1 0x1 PUSH1 0xF8 SHL SUB NOT AND SWAP1 DUP2 PUSH1 0x0 BYTE SWAP1 MSTORE8 POP PUSH1 0x0 PUSH2 0x112B DUP5 PUSH1 0x2 PUSH2 0x1B00 JUMP JUMPDEST PUSH2 0x1136 SWAP1 PUSH1 0x1 PUSH2 0x1B17 JUMP JUMPDEST SWAP1 POP JUMPDEST PUSH1 0x1 DUP2 GT ISZERO PUSH2 0x11AE JUMPI PUSH16 0x181899199A1A9B1B9C1CB0B131B232B3 PUSH1 0x81 SHL DUP6 PUSH1 0xF AND PUSH1 0x10 DUP2 LT PUSH2 0x116A JUMPI PUSH2 0x116A PUSH2 0x1B2A JUMP JUMPDEST BYTE PUSH1 0xF8 SHL DUP3 DUP3 DUP2 MLOAD DUP2 LT PUSH2 0x1180 JUMPI PUSH2 0x1180 PUSH2 0x1B2A JUMP JUMPDEST PUSH1 0x20 ADD ADD SWAP1 PUSH1 0x1 PUSH1 0x1 PUSH1 0xF8 SHL SUB NOT AND SWAP1 DUP2 PUSH1 0x0 BYTE SWAP1 MSTORE8 POP PUSH1 0x4 SWAP5 SWAP1 SWAP5 SHR SWAP4 PUSH2 0x11A7 DUP2 PUSH2 0x1B40 JUMP JUMPDEST SWAP1 POP PUSH2 0x1139 JUMP JUMPDEST POP DUP4 ISZERO PUSH2 0x62C JUMPI PUSH1 0x40 MLOAD PUSH3 0x461BCD PUSH1 0xE5 SHL DUP2 MSTORE PUSH1 0x20 PUSH1 0x4 DUP3 ADD DUP2 SWAP1 MSTORE PUSH1 0x24 DUP3 ADD MSTORE PUSH32 0x537472696E67733A20686578206C656E67746820696E73756666696369656E74 PUSH1 0x44 DUP3 ADD MSTORE PUSH1 0x64 ADD PUSH2 0x736 JUMP JUMPDEST PUSH1 0x0 PUSH1 0x20 DUP3 DUP5 SUB SLT ISZERO PUSH2 0x120F JUMPI PUSH1 0x0 DUP1 REVERT JUMPDEST DUP2 CALLDATALOAD PUSH1 0x1 PUSH1 0x1 PUSH1 0xE0 SHL SUB NOT DUP2 AND DUP2 EQ PUSH2 0x62C JUMPI PUSH1 0x0 DUP1 REVERT JUMPDEST PUSH1 0x1 PUSH1 0x1 PUSH1 0xA0 SHL SUB DUP2 AND DUP2 EQ PUSH2 0xF0A JUMPI PUSH1 0x0 DUP1 REVERT JUMPDEST PUSH1 0x0 PUSH1 0x20 DUP3 DUP5 SUB SLT ISZERO PUSH2 0x124E JUMPI PUSH1 0x0 DUP1 REVERT JUMPDEST DUP2 CALLDATALOAD PUSH2 0x62C DUP2 PUSH2 0x1227 JUMP JUMPDEST PUSH1 0x20 DUP1 DUP3 MSTORE DUP3 MLOAD DUP3 DUP3 ADD DUP2 SWAP1 MSTORE PUSH1 0x0 SWAP2 SWAP1 DUP5 DUP3 ADD SWAP1 PUSH1 0x40 DUP6 ADD SWAP1 DUP5 JUMPDEST DUP2 DUP2 LT ISZERO PUSH2 0x1291 JUMPI DUP4 MLOAD DUP4 MSTORE SWAP3 DUP5 ADD SWAP3 SWAP2 DUP5 ADD SWAP2 PUSH1 0x1 ADD PUSH2 0x1275 JUMP JUMPDEST POP SWAP1 SWAP7 SWAP6 POP POP POP POP POP POP JUMP JUMPDEST PUSH1 0x0 DUP1 PUSH1 0x40 DUP4 DUP6 SUB SLT ISZERO PUSH2 0x12B0 JUMPI PUSH1 0x0 DUP1 REVERT JUMPDEST DUP3 CALLDATALOAD PUSH2 0x12BB DUP2 PUSH2 0x1227 JUMP JUMPDEST SWAP5 PUSH1 0x20 SWAP4 SWAP1 SWAP4 ADD CALLDATALOAD SWAP4 POP POP POP JUMP JUMPDEST PUSH1 0x0 JUMPDEST DUP4 DUP2 LT ISZERO PUSH2 0x12E4 JUMPI DUP2 DUP2 ADD MLOAD DUP4 DUP3 ADD MSTORE PUSH1 0x20 ADD PUSH2 0x12CC JUMP JUMPDEST POP POP PUSH1 0x0 SWAP2 ADD MSTORE JUMP JUMPDEST PUSH1 0x0 DUP2 MLOAD DUP1 DUP5 MSTORE PUSH2 0x1305 DUP2 PUSH1 0x20 DUP7 ADD PUSH1 0x20 DUP7 ADD PUSH2 0x12C9 JUMP JUMPDEST PUSH1 0x1F ADD PUSH1 0x1F NOT AND SWAP3 SWAP1 SWAP3 ADD PUSH1 0x20 ADD SWAP3 SWAP2 POP POP JUMP JUMPDEST PUSH1 0x60 DUP2 MSTORE PUSH1 0x0 PUSH2 0x132C PUSH1 0x60 DUP4 ADD DUP7 PUSH2 0x12ED JUMP JUMPDEST DUP3 DUP2 SUB PUSH1 0x20 DUP5 ADD MSTORE PUSH2 0x133E DUP2 DUP7 PUSH2 0x12ED JUMP JUMPDEST SWAP2 POP POP DUP3 ISZERO ISZERO PUSH1 0x40 DUP4 ADD MSTORE SWAP5 SWAP4 POP POP POP POP JUMP JUMPDEST PUSH1 0x0 PUSH1 0x20 DUP3 DUP5 SUB SLT ISZERO PUSH2 0x1363 JUMPI PUSH1 0x0 DUP1 REVERT JUMPDEST POP CALLDATALOAD SWAP2 SWAP1 POP JUMP JUMPDEST PUSH1 0x0 DUP1 PUSH1 0x40 DUP4 DUP6 SUB SLT ISZERO PUSH2 0x137D JUMPI PUSH1 0x0 DUP1 REVERT JUMPDEST DUP3 CALLDATALOAD SWAP2 POP PUSH1 0x20 DUP4 ADD CALLDATALOAD PUSH2 0x138F DUP2 PUSH2 0x1227 JUMP JUMPDEST DUP1 SWAP2 POP POP SWAP3 POP SWAP3 SWAP1 POP JUMP JUMPDEST PUSH4 0x4E487B71 PUSH1 0xE0 SHL PUSH1 0x0 MSTORE PUSH1 0x41 PUSH1 0x4 MSTORE PUSH1 0x24 PUSH1 0x0 REVERT JUMPDEST PUSH1 0x40 MLOAD PUSH1 0x1F DUP3 ADD PUSH1 0x1F NOT AND DUP2 ADD PUSH8 0xFFFFFFFFFFFFFFFF DUP2 GT DUP3 DUP3 LT OR ISZERO PUSH2 0x13D9 JUMPI PUSH2 0x13D9 PUSH2 0x139A JUMP JUMPDEST PUSH1 0x40 MSTORE SWAP2 SWAP1 POP JUMP JUMPDEST PUSH1 0x0 PUSH8 0xFFFFFFFFFFFFFFFF DUP3 GT ISZERO PUSH2 0x13FB JUMPI PUSH2 0x13FB PUSH2 0x139A JUMP JUMPDEST POP PUSH1 0x1F ADD PUSH1 0x1F NOT AND PUSH1 0x20 ADD SWAP1 JUMP JUMPDEST PUSH1 0x0 DUP3 PUSH1 0x1F DUP4 ADD SLT PUSH2 0x141A JUMPI PUSH1 0x0 DUP1 REVERT JUMPDEST DUP2 CALLDATALOAD PUSH2 0x142D PUSH2 0x1428 DUP3 PUSH2 0x13E1 JUMP JUMPDEST PUSH2 0x13B0 JUMP JUMPDEST DUP2 DUP2 MSTORE DUP5 PUSH1 0x20 DUP4 DUP7 ADD ADD GT ISZERO PUSH2 0x1442 JUMPI PUSH1 0x0 DUP1 REVERT JUMPDEST DUP2 PUSH1 0x20 DUP6 ADD PUSH1 0x20 DUP4 ADD CALLDATACOPY PUSH1 0x0 SWAP2 DUP2 ADD PUSH1 0x20 ADD SWAP2 SWAP1 SWAP2 MSTORE SWAP4 SWAP3 POP POP POP JUMP JUMPDEST PUSH1 0x0 DUP1 PUSH1 0x40 DUP4 DUP6 SUB SLT ISZERO PUSH2 0x1472 JUMPI PUSH1 0x0 DUP1 REVERT JUMPDEST DUP3 CALLDATALOAD PUSH8 0xFFFFFFFFFFFFFFFF DUP1 DUP3 GT ISZERO PUSH2 0x148A JUMPI PUSH1 0x0 DUP1 REVERT JUMPDEST PUSH2 0x1496 DUP7 DUP4 DUP8 ADD PUSH2 0x1409 JUMP JUMPDEST SWAP4 POP PUSH1 0x20 DUP6 ADD CALLDATALOAD SWAP2 POP DUP1 DUP3 GT ISZERO PUSH2 0x14AC JUMPI PUSH1 0x0 DUP1 REVERT JUMPDEST POP PUSH2 0x14B9 DUP6 DUP3 DUP7 ADD PUSH2 0x1409 JUMP JUMPDEST SWAP2 POP POP SWAP3 POP SWAP3 SWAP1 POP JUMP JUMPDEST PUSH1 0x1 PUSH1 0x1 PUSH1 0xA0 SHL SUB DUP10 DUP2 AND DUP3 MSTORE DUP9 DUP2 AND PUSH1 0x20 DUP4 ADD MSTORE PUSH2 0x100 PUSH1 0x40 DUP4 ADD DUP2 SWAP1 MSTORE PUSH1 0x0 SWAP2 PUSH2 0x14F1 DUP5 DUP4 ADD DUP12 PUSH2 0x12ED JUMP JUMPDEST SWAP3 POP DUP9 PUSH1 0x60 DUP6 ADD MSTORE DUP8 PUSH1 0x80 DUP6 ADD MSTORE DUP7 PUSH1 0xA0 DUP6 ADD MSTORE PUSH1 0x5 DUP7 LT PUSH2 0x1523 JUMPI PUSH4 0x4E487B71 PUSH1 0xE0 SHL PUSH1 0x0 MSTORE PUSH1 0x21 PUSH1 0x4 MSTORE PUSH1 0x24 PUSH1 0x0 REVERT JUMPDEST DUP6 PUSH1 0xC0 DUP6 ADD MSTORE DUP1 DUP6 AND PUSH1 0xE0 DUP6 ADD MSTORE POP POP SWAP10 SWAP9 POP POP POP POP POP POP POP POP POP JUMP JUMPDEST PUSH1 0x0 DUP1 PUSH1 0x0 DUP1 PUSH1 0x0 DUP1 PUSH1 0x0 DUP1 PUSH2 0x100 DUP10 DUP12 SUB SLT ISZERO PUSH2 0x155D JUMPI PUSH1 0x0 DUP1 REVERT JUMPDEST DUP9 CALLDATALOAD PUSH2 0x1568 DUP2 PUSH2 0x1227 JUMP JUMPDEST SWAP8 POP PUSH1 0x20 DUP10 DUP2 ADD CALLDATALOAD PUSH2 0x1579 DUP2 PUSH2 0x1227 JUMP JUMPDEST SWAP8 POP PUSH1 0x40 DUP11 ADD CALLDATALOAD PUSH8 0xFFFFFFFFFFFFFFFF DUP1 DUP3 GT ISZERO PUSH2 0x1596 JUMPI PUSH1 0x0 DUP1 REVERT JUMPDEST PUSH2 0x15A2 DUP14 DUP4 DUP15 ADD PUSH2 0x1409 JUMP JUMPDEST SWAP9 POP PUSH1 0x60 DUP13 ADD CALLDATALOAD SWAP8 POP PUSH1 0x80 DUP13 ADD CALLDATALOAD SWAP7 POP PUSH1 0xA0 DUP13 ADD CALLDATALOAD SWAP6 POP PUSH1 0xC0 DUP13 ADD CALLDATALOAD SWAP2 POP PUSH2 0x15C9 DUP3 PUSH2 0x1227 JUMP JUMPDEST SWAP1 SWAP4 POP PUSH1 0xE0 DUP12 ADD CALLDATALOAD SWAP1 DUP1 DUP3 GT ISZERO PUSH2 0x15DF JUMPI PUSH1 0x0 DUP1 REVERT JUMPDEST DUP2 DUP13 ADD SWAP2 POP DUP13 PUSH1 0x1F DUP4 ADD SLT PUSH2 0x15F3 JUMPI PUSH1 0x0 DUP1 REVERT JUMPDEST DUP2 CALLDATALOAD DUP2 DUP2 GT ISZERO PUSH2 0x1605 JUMPI PUSH2 0x1605 PUSH2 0x139A JUMP JUMPDEST DUP1 PUSH1 0x5 SHL SWAP2 POP PUSH2 0x1616 DUP5 DUP4 ADD PUSH2 0x13B0 JUMP JUMPDEST DUP2 DUP2 MSTORE SWAP2 DUP4 ADD DUP5 ADD SWAP2 DUP5 DUP2 ADD SWAP1 DUP16 DUP5 GT ISZERO PUSH2 0x1630 JUMPI PUSH1 0x0 DUP1 REVERT JUMPDEST SWAP4 DUP6 ADD SWAP4 JUMPDEST DUP4 DUP6 LT ISZERO PUSH2 0x165A JUMPI DUP5 CALLDATALOAD SWAP3 POP PUSH2 0x164A DUP4 PUSH2 0x1227 JUMP JUMPDEST DUP3 DUP3 MSTORE SWAP4 DUP6 ADD SWAP4 SWAP1 DUP6 ADD SWAP1 PUSH2 0x1635 JUMP JUMPDEST DUP1 SWAP7 POP POP POP POP POP POP POP SWAP3 SWAP6 SWAP9 POP SWAP3 SWAP6 SWAP9 SWAP1 SWAP4 SWAP7 POP JUMP JUMPDEST PUSH1 0x0 DUP1 PUSH1 0x0 DUP1 PUSH1 0x80 DUP6 DUP8 SUB SLT ISZERO PUSH2 0x1686 JUMPI PUSH1 0x0 DUP1 REVERT JUMPDEST DUP5 CALLDATALOAD PUSH2 0x1691 DUP2 PUSH2 0x1227 JUMP JUMPDEST SWAP4 POP PUSH1 0x20 DUP6 ADD CALLDATALOAD SWAP3 POP PUSH1 0x40 DUP6 ADD CALLDATALOAD PUSH8 0xFFFFFFFFFFFFFFFF DUP1 DUP3 GT ISZERO PUSH2 0x16B5 JUMPI PUSH1 0x0 DUP1 REVERT JUMPDEST PUSH2 0x16C1 DUP9 DUP4 DUP10 ADD PUSH2 0x1409 JUMP JUMPDEST SWAP4 POP PUSH1 0x60 DUP8 ADD CALLDATALOAD SWAP2 POP DUP1 DUP3 GT ISZERO PUSH2 0x16D7 JUMPI PUSH1 0x0 DUP1 REVERT JUMPDEST POP PUSH2 0x16E4 DUP8 DUP3 DUP9 ADD PUSH2 0x1409 JUMP JUMPDEST SWAP2 POP POP SWAP3 SWAP6 SWAP2 SWAP5 POP SWAP3 POP JUMP JUMPDEST PUSH1 0x0 DUP1 PUSH1 0x40 DUP4 DUP6 SUB SLT ISZERO PUSH2 0x1703 JUMPI PUSH1 0x0 DUP1 REVERT JUMPDEST DUP3 CALLDATALOAD SWAP2 POP PUSH1 0x20 DUP4 ADD CALLDATALOAD PUSH8 0xFFFFFFFFFFFFFFFF DUP2 GT ISZERO PUSH2 0x1721 JUMPI PUSH1 0x0 DUP1 REVERT JUMPDEST PUSH2 0x14B9 DUP6 DUP3 DUP7 ADD PUSH2 0x1409 JUMP JUMPDEST PUSH1 0x1 DUP2 DUP2 SHR SWAP1 DUP3 AND DUP1 PUSH2 0x1741 JUMPI PUSH1 0x7F DUP3 AND SWAP2 POP JUMPDEST PUSH1 0x20 DUP3 LT DUP2 SUB PUSH2 0x1761 JUMPI PUSH4 0x4E487B71 PUSH1 0xE0 SHL PUSH1 0x0 MSTORE PUSH1 0x22 PUSH1 0x4 MSTORE PUSH1 0x24 PUSH1 0x0 REVERT JUMPDEST POP SWAP2 SWAP1 POP JUMP JUMPDEST PUSH1 0x1F DUP3 GT ISZERO PUSH2 0x658 JUMPI PUSH1 0x0 DUP2 DUP2 MSTORE PUSH1 0x20 DUP2 KECCAK256 PUSH1 0x1F DUP6 ADD PUSH1 0x5 SHR DUP2 ADD PUSH1 0x20 DUP7 LT ISZERO PUSH2 0x178E JUMPI POP DUP1 JUMPDEST PUSH1 0x1F DUP6 ADD PUSH1 0x5 SHR DUP3 ADD SWAP2 POP JUMPDEST DUP2 DUP2 LT ISZERO PUSH2 0x17AD JUMPI DUP3 DUP2 SSTORE PUSH1 0x1 ADD PUSH2 0x179A JUMP JUMPDEST POP POP POP POP POP POP JUMP JUMPDEST DUP2 MLOAD PUSH8 0xFFFFFFFFFFFFFFFF DUP2 GT ISZERO PUSH2 0x17CF JUMPI PUSH2 0x17CF PUSH2 0x139A JUMP JUMPDEST PUSH2 0x17E3 DUP2 PUSH2 0x17DD DUP5 SLOAD PUSH2 0x172D JUMP JUMPDEST DUP5 PUSH2 0x1767 JUMP JUMPDEST PUSH1 0x20 DUP1 PUSH1 0x1F DUP4 GT PUSH1 0x1 DUP2 EQ PUSH2 0x1818 JUMPI PUSH1 0x0 DUP5 ISZERO PUSH2 0x1800 JUMPI POP DUP6 DUP4 ADD MLOAD JUMPDEST PUSH1 0x0 NOT PUSH1 0x3 DUP7 SWAP1 SHL SHR NOT AND PUSH1 0x1 DUP6 SWAP1 SHL OR DUP6 SSTORE PUSH2 0x17AD JUMP JUMPDEST PUSH1 0x0 DUP6 DUP2 MSTORE PUSH1 0x20 DUP2 KECCAK256 PUSH1 0x1F NOT DUP7 AND SWAP2 JUMPDEST DUP3 DUP2 LT ISZERO PUSH2 0x1847 JUMPI DUP9 DUP7 ADD MLOAD DUP3 SSTORE SWAP5 DUP5 ADD SWAP5 PUSH1 0x1 SWAP1 SWAP2 ADD SWAP1 DUP5 ADD PUSH2 0x1828 JUMP JUMPDEST POP DUP6 DUP3 LT ISZERO PUSH2 0x1865 JUMPI DUP8 DUP6 ADD MLOAD PUSH1 0x0 NOT PUSH1 0x3 DUP9 SWAP1 SHL PUSH1 0xF8 AND SHR NOT AND DUP2 SSTORE JUMPDEST POP POP POP POP POP PUSH1 0x1 SWAP1 DUP2 SHL ADD SWAP1 SSTORE POP JUMP JUMPDEST DUP1 MLOAD PUSH2 0x1880 DUP2 PUSH2 0x1227 JUMP JUMPDEST SWAP2 SWAP1 POP JUMP JUMPDEST DUP1 MLOAD PUSH1 0x5 DUP2 LT PUSH2 0x1880 JUMPI PUSH1 0x0 DUP1 REVERT JUMPDEST PUSH1 0x0 DUP1 PUSH1 0x0 DUP1 PUSH1 0x0 DUP1 PUSH1 0x0 DUP1 PUSH2 0x100 DUP10 DUP12 SUB SLT ISZERO PUSH2 0x18B1 JUMPI PUSH1 0x0 DUP1 REVERT JUMPDEST DUP9 MLOAD PUSH2 0x18BC DUP2 PUSH2 0x1227 JUMP JUMPDEST PUSH1 0x20 DUP11 ADD MLOAD SWAP1 SWAP9 POP PUSH2 0x18CD DUP2 PUSH2 0x1227 JUMP JUMPDEST PUSH1 0x40 DUP11 ADD MLOAD SWAP1 SWAP8 POP PUSH8 0xFFFFFFFFFFFFFFFF DUP2 GT ISZERO PUSH2 0x18EA JUMPI PUSH1 0x0 DUP1 REVERT JUMPDEST DUP10 ADD PUSH1 0x1F DUP2 ADD DUP12 SGT PUSH2 0x18FB JUMPI PUSH1 0x0 DUP1 REVERT JUMPDEST DUP1 MLOAD PUSH2 0x1909 PUSH2 0x1428 DUP3 PUSH2 0x13E1 JUMP JUMPDEST DUP2 DUP2 MSTORE DUP13 PUSH1 0x20 DUP4 DUP6 ADD ADD GT ISZERO PUSH2 0x191E JUMPI PUSH1 0x0 DUP1 REVERT JUMPDEST PUSH2 0x192F DUP3 PUSH1 0x20 DUP4 ADD PUSH1 0x20 DUP7 ADD PUSH2 0x12C9 JUMP JUMPDEST DUP1 SWAP9 POP POP POP POP PUSH1 0x60 DUP10 ADD MLOAD SWAP5 POP PUSH1 0x80 DUP10 ADD MLOAD SWAP4 POP PUSH1 0xA0 DUP10 ADD MLOAD SWAP3 POP PUSH2 0x1956 PUSH1 0xC0 DUP11 ADD PUSH2 0x1885 JUMP JUMPDEST SWAP2 POP PUSH2 0x1964 PUSH1 0xE0 DUP11 ADD PUSH2 0x1875 JUMP JUMPDEST SWAP1 POP SWAP3 SWAP6 SWAP9 POP SWAP3 SWAP6 SWAP9 SWAP1 SWAP4 SWAP7 POP JUMP JUMPDEST PUSH1 0x0 PUSH2 0x100 PUSH1 0x1 DUP1 PUSH1 0xA0 SHL SUB DUP1 DUP13 AND DUP5 MSTORE PUSH1 0x20 DUP2 DUP13 AND DUP2 DUP7 ADD MSTORE DUP3 PUSH1 0x40 DUP7 ADD MSTORE PUSH2 0x199F DUP4 DUP7 ADD DUP13 PUSH2 0x12ED JUMP JUMPDEST PUSH1 0x60 DUP7 ADD DUP12 SWAP1 MSTORE PUSH1 0x80 DUP7 ADD DUP11 SWAP1 MSTORE PUSH1 0xA0 DUP7 ADD DUP10 SWAP1 MSTORE DUP8 DUP4 AND PUSH1 0xC0 DUP8 ADD MSTORE DUP6 DUP2 SUB PUSH1 0xE0 DUP8 ADD MSTORE DUP7 MLOAD DUP1 DUP3 MSTORE DUP3 DUP9 ADD SWAP5 POP SWAP1 DUP3 ADD SWAP1 PUSH1 0x0 JUMPDEST DUP2 DUP2 LT ISZERO PUSH2 0x19F3 JUMPI DUP6 MLOAD DUP6 AND DUP4 MSTORE SWAP5 DUP4 ADD SWAP5 SWAP2 DUP4 ADD SWAP2 PUSH1 0x1 ADD PUSH2 0x19D5 JUMP JUMPDEST POP SWAP1 SWAP15 SWAP14 POP POP POP POP POP POP POP POP POP POP POP POP POP POP JUMP JUMPDEST PUSH1 0x0 PUSH1 0x20 DUP3 DUP5 SUB SLT ISZERO PUSH2 0x1A19 JUMPI PUSH1 0x0 DUP1 REVERT JUMPDEST POP MLOAD SWAP2 SWAP1 POP JUMP JUMPDEST PUSH1 0x0 PUSH1 0x1 DUP1 PUSH1 0xA0 SHL SUB DUP1 DUP9 AND DUP4 MSTORE DUP7 PUSH1 0x20 DUP5 ADD MSTORE PUSH1 0xA0 PUSH1 0x40 DUP5 ADD MSTORE PUSH2 0x1A48 PUSH1 0xA0 DUP5 ADD DUP8 PUSH2 0x12ED JUMP JUMPDEST SWAP5 DUP2 AND PUSH1 0x60 DUP5 ADD MSTORE SWAP3 SWAP1 SWAP3 AND PUSH1 0x80 SWAP1 SWAP2 ADD MSTORE POP SWAP4 SWAP3 POP POP POP JUMP JUMPDEST PUSH32 0x416363657373436F6E74726F6C3A206163636F756E7420000000000000000000 DUP2 MSTORE PUSH1 0x0 DUP4 MLOAD PUSH2 0x1A9A DUP2 PUSH1 0x17 DUP6 ADD PUSH1 0x20 DUP9 ADD PUSH2 0x12C9 JUMP JUMPDEST PUSH17 0x1034B99036B4B9B9B4B733903937B6329 PUSH1 0x7D SHL PUSH1 0x17 SWAP2 DUP5 ADD SWAP2 DUP3 ADD MSTORE DUP4 MLOAD PUSH2 0x1ACB DUP2 PUSH1 0x28 DUP5 ADD PUSH1 0x20 DUP9 ADD PUSH2 0x12C9 JUMP JUMPDEST ADD PUSH1 0x28 ADD SWAP5 SWAP4 POP POP POP POP JUMP JUMPDEST PUSH1 0x20 DUP2 MSTORE PUSH1 0x0 PUSH2 0x62C PUSH1 0x20 DUP4 ADD DUP5 PUSH2 0x12ED JUMP JUMPDEST PUSH4 0x4E487B71 PUSH1 0xE0 SHL PUSH1 0x0 MSTORE PUSH1 0x11 PUSH1 0x4 MSTORE PUSH1 0x24 PUSH1 0x0 REVERT JUMPDEST DUP1 DUP3 MUL DUP2 ISZERO DUP3 DUP3 DIV DUP5 EQ OR PUSH2 0x448 JUMPI PUSH2 0x448 PUSH2 0x1AEA JUMP JUMPDEST DUP1 DUP3 ADD DUP1 DUP3 GT ISZERO PUSH2 0x448 JUMPI PUSH2 0x448 PUSH2 0x1AEA JUMP JUMPDEST PUSH4 0x4E487B71 PUSH1 0xE0 SHL PUSH1 0x0 MSTORE PUSH1 0x32 PUSH1 0x4 MSTORE PUSH1 0x24 PUSH1 0x0 REVERT JUMPDEST PUSH1 0x0 DUP2 PUSH2 0x1B4F JUMPI PUSH2 0x1B4F PUSH2 0x1AEA JUMP JUMPDEST POP PUSH1 0x0 NOT ADD SWAP1 JUMP INVALID 0xCA 0xB5 LOG0 0xBF 0xE0 0xB7 SWAP14 0x2C 0x4B SHR 0x2E MUL MSIZE SWAP16 LOG0 DIFFICULTY 0xD1 ISZERO 0xB7 MLOAD 0x1F SWAP7 MSIZE ADDRESS PUSH29 0xB4276950967709A26469706673582212207DD8638BF4F131B42BEA49E3 EXTCODESIZE LT 0xC4 MSIZE SIGNEXTEND SELFDESTRUCT PUSH6 0x5117F4A39828 SSTORE 0xAA 0x24 DUP7 0xE5 0x2D SWAP9 PUSH5 0x736F6C6343 STOP ADDMOD GT STOP CALLER PUSH1 0x80 PUSH1 0x40 MSTORE CALLVALUE DUP1 ISZERO PUSH3 0x11 JUMPI PUSH1 0x0 DUP1 REVERT JUMPDEST POP PUSH1 0x1 DUP1 SSTORE PUSH3 0x23 PUSH1 0x0 CALLER PUSH3 0x29 JUMP JUMPDEST PUSH3 0xCA JUMP JUMPDEST PUSH1 0x0 DUP3 DUP2 MSTORE PUSH1 0x20 DUP2 DUP2 MSTORE PUSH1 0x40 DUP1 DUP4 KECCAK256 PUSH1 0x1 PUSH1 0x1 PUSH1 0xA0 SHL SUB DUP6 AND DUP5 MSTORE SWAP1 SWAP2 MSTORE SWAP1 KECCAK256 SLOAD PUSH1 0xFF AND PUSH3 0xC6 JUMPI PUSH1 0x0 DUP3 DUP2 MSTORE PUSH1 0x20 DUP2 DUP2 MSTORE PUSH1 0x40 DUP1 DUP4 KECCAK256 PUSH1 0x1 PUSH1 0x1 PUSH1 0xA0 SHL SUB DUP6 AND DUP5 MSTORE SWAP1 SWAP2 MSTORE SWAP1 KECCAK256 DUP1 SLOAD PUSH1 0xFF NOT AND PUSH1 0x1 OR SWAP1 SSTORE PUSH3 0x85 CALLER SWAP1 JUMP JUMPDEST PUSH1 0x1 PUSH1 0x1 PUSH1 0xA0 SHL SUB AND DUP2 PUSH1 0x1 PUSH1 0x1 PUSH1 0xA0 SHL SUB AND DUP4 PUSH32 0x2F8788117E7EFF1D82E926EC794901D17C78024A50270940304540A733656F0D PUSH1 0x40 MLOAD PUSH1 0x40 MLOAD DUP1 SWAP2 SUB SWAP1 LOG4 JUMPDEST POP POP JUMP JUMPDEST PUSH2 0x2A2D DUP1 PUSH3 0xDA PUSH1 0x0 CODECOPY PUSH1 0x0 RETURN INVALID PUSH1 0x80 PUSH1 0x40 MSTORE CALLVALUE DUP1 ISZERO PUSH2 0x10 JUMPI PUSH1 0x0 DUP1 REVERT JUMPDEST POP PUSH1 0x4 CALLDATASIZE LT PUSH2 0x18E JUMPI PUSH1 0x0 CALLDATALOAD PUSH1 0xE0 SHR DUP1 PUSH4 0x4C371022 GT PUSH2 0xDE JUMPI DUP1 PUSH4 0x8736381A GT PUSH2 0x97 JUMPI DUP1 PUSH4 0xA217FDDF GT PUSH2 0x71 JUMPI DUP1 PUSH4 0xA217FDDF EQ PUSH2 0x3C4 JUMPI DUP1 PUSH4 0xC2010E50 EQ PUSH2 0x3CC JUMPI DUP1 PUSH4 0xC2D79444 EQ PUSH2 0x3EF JUMPI DUP1 PUSH4 0xD547741F EQ PUSH2 0x416 JUMPI PUSH1 0x0 DUP1 REVERT JUMPDEST DUP1 PUSH4 0x8736381A EQ PUSH2 0x381 JUMPI DUP1 PUSH4 0x91D14854 EQ PUSH2 0x38A JUMPI DUP1 PUSH4 0x9CEA0787 EQ PUSH2 0x39D JUMPI PUSH1 0x0 DUP1 REVERT JUMPDEST DUP1 PUSH4 0x4C371022 EQ PUSH2 0x2E9 JUMPI DUP1 PUSH4 0x4D6D6A9C EQ PUSH2 0x30E JUMPI DUP1 PUSH4 0x5AEF573C EQ PUSH2 0x321 JUMPI DUP1 PUSH4 0x6A1CB18C EQ PUSH2 0x334 JUMPI DUP1 PUSH4 0x6E2A373A EQ PUSH2 0x347 JUMPI DUP1 PUSH4 0x783C69CC EQ PUSH2 0x35A JUMPI PUSH1 0x0 DUP1 REVERT JUMPDEST DUP1 PUSH4 0x34B25EE2 GT PUSH2 0x14B JUMPI DUP1 PUSH4 0x460FF8C4 GT PUSH2 0x125 JUMPI DUP1 PUSH4 0x460FF8C4 EQ PUSH2 0x275 JUMPI DUP1 PUSH4 0x474DA79A EQ PUSH2 0x288 JUMPI DUP1 PUSH4 0x48259836 EQ PUSH2 0x2AF JUMPI DUP1 PUSH4 0x49D5E604 EQ PUSH2 0x2C2 JUMPI PUSH1 0x0 DUP1 REVERT JUMPDEST DUP1 PUSH4 0x34B25EE2 EQ PUSH2 0x23C JUMPI DUP1 PUSH4 0x35C2BD63 EQ PUSH2 0x24F JUMPI DUP1 PUSH4 0x36568ABE EQ PUSH2 0x262 JUMPI PUSH1 0x0 DUP1 REVERT JUMPDEST DUP1 PUSH4 0x1FFC9A7 EQ PUSH2 0x193 JUMPI DUP1 PUSH4 0x390E07A EQ PUSH2 0x1BB JUMPI DUP1 PUSH4 0x20913DA5 EQ PUSH2 0x1D0 JUMPI DUP1 PUSH4 0x22459E18 EQ PUSH2 0x1E3 JUMPI DUP1 PUSH4 0x248A9CA3 EQ PUSH2 0x206 JUMPI DUP1 PUSH4 0x2F2FF15D EQ PUSH2 0x229 JUMPI JUMPDEST PUSH1 0x0 DUP1 REVERT JUMPDEST PUSH2 0x1A6 PUSH2 0x1A1 CALLDATASIZE PUSH1 0x4 PUSH2 0x1FE5 JUMP JUMPDEST PUSH2 0x429 JUMP JUMPDEST PUSH1 0x40 MLOAD SWAP1 ISZERO ISZERO DUP2 MSTORE PUSH1 0x20 ADD JUMPDEST PUSH1 0x40 MLOAD DUP1 SWAP2 SUB SWAP1 RETURN JUMPDEST PUSH2 0x1CE PUSH2 0x1C9 CALLDATASIZE PUSH1 0x4 PUSH2 0x20C6 JUMP JUMPDEST PUSH2 0x460 JUMP JUMPDEST STOP JUMPDEST PUSH2 0x1CE PUSH2 0x1DE CALLDATASIZE PUSH1 0x4 PUSH2 0x2116 JUMP JUMPDEST PUSH2 0x63A JUMP JUMPDEST PUSH2 0x1F8 PUSH1 0x0 DUP1 MLOAD PUSH1 0x20 PUSH2 0x29D8 DUP4 CODECOPY DUP2 MLOAD SWAP2 MSTORE DUP2 JUMP JUMPDEST PUSH1 0x40 MLOAD SWAP1 DUP2 MSTORE PUSH1 0x20 ADD PUSH2 0x1B2 JUMP JUMPDEST PUSH2 0x1F8 PUSH2 0x214 CALLDATASIZE PUSH1 0x4 PUSH2 0x2138 JUMP JUMPDEST PUSH1 0x0 SWAP1 DUP2 MSTORE PUSH1 0x20 DUP2 SWAP1 MSTORE PUSH1 0x40 SWAP1 KECCAK256 PUSH1 0x1 ADD SLOAD SWAP1 JUMP JUMPDEST PUSH2 0x1CE PUSH2 0x237 CALLDATASIZE PUSH1 0x4 PUSH2 0x216D JUMP JUMPDEST PUSH2 0x9F9 JUMP JUMPDEST PUSH2 0x1CE PUSH2 0x24A CALLDATASIZE PUSH1 0x4 PUSH2 0x21A7 JUMP JUMPDEST PUSH2 0xA23 JUMP JUMPDEST PUSH2 0x1CE PUSH2 0x25D CALLDATASIZE PUSH1 0x4 PUSH2 0x2138 JUMP JUMPDEST PUSH2 0xBE1 JUMP JUMPDEST PUSH2 0x1CE PUSH2 0x270 CALLDATASIZE PUSH1 0x4 PUSH2 0x216D JUMP JUMPDEST PUSH2 0xE0E JUMP JUMPDEST PUSH2 0x1CE PUSH2 0x283 CALLDATASIZE PUSH1 0x4 PUSH2 0x2266 JUMP JUMPDEST PUSH2 0xE88 JUMP JUMPDEST PUSH2 0x29B PUSH2 0x296 CALLDATASIZE PUSH1 0x4 PUSH2 0x2138 JUMP JUMPDEST PUSH2 0x11C3 JUMP JUMPDEST PUSH1 0x40 MLOAD PUSH2 0x1B2 SWAP9 SWAP8 SWAP7 SWAP6 SWAP5 SWAP4 SWAP3 SWAP2 SWAP1 PUSH2 0x23D0 JUMP JUMPDEST PUSH2 0x1CE PUSH2 0x2BD CALLDATASIZE PUSH1 0x4 PUSH2 0x243F JUMP JUMPDEST PUSH2 0x12A9 JUMP JUMPDEST PUSH2 0x1F8 PUSH32 0x5146A08BAF902532D0EE2F909971144F12CA32651CD70CBEE1117CDDFB3B3B33 DUP2 JUMP JUMPDEST PUSH2 0x2FC PUSH2 0x2F7 CALLDATASIZE PUSH1 0x4 PUSH2 0x2116 JUMP JUMPDEST PUSH2 0x13A5 JUMP JUMPDEST PUSH1 0x40 MLOAD PUSH2 0x1B2 SWAP7 SWAP6 SWAP5 SWAP4 SWAP3 SWAP2 SWAP1 PUSH2 0x2486 JUMP JUMPDEST PUSH2 0x29B PUSH2 0x31C CALLDATASIZE PUSH1 0x4 PUSH2 0x2138 JUMP JUMPDEST PUSH2 0x153E JUMP JUMPDEST PUSH2 0x1CE PUSH2 0x32F CALLDATASIZE PUSH1 0x4 PUSH2 0x243F JUMP JUMPDEST PUSH2 0x164B JUMP JUMPDEST PUSH2 0x1F8 PUSH2 0x342 CALLDATASIZE PUSH1 0x4 PUSH2 0x24E3 JUMP JUMPDEST PUSH2 0x1754 JUMP JUMPDEST PUSH2 0x1CE PUSH2 0x355 CALLDATASIZE PUSH1 0x4 PUSH2 0x20C6 JUMP JUMPDEST PUSH2 0x19D1 JUMP JUMPDEST PUSH2 0x1F8 PUSH32 0x7F611FFBF41DD527826ABAD73CB1B1ECFF28482BB0412695BE053AFA0451AD18 DUP2 JUMP JUMPDEST PUSH2 0x1F8 PUSH1 0x3 SLOAD DUP2 JUMP JUMPDEST PUSH2 0x1A6 PUSH2 0x398 CALLDATASIZE PUSH1 0x4 PUSH2 0x216D JUMP JUMPDEST PUSH2 0x1BC0 JUMP JUMPDEST PUSH2 0x1F8 PUSH32 0x16CEEE8289685DD2A02B9C8AE81D2DF373176CE53519E6284E2A2950D6546FFA DUP2 JUMP JUMPDEST PUSH2 0x1F8 PUSH1 0x0 DUP2 JUMP JUMPDEST PUSH2 0x1F8 PUSH2 0x3DA CALLDATASIZE PUSH1 0x4 PUSH2 0x2138 JUMP JUMPDEST PUSH1 0x0 SWAP1 DUP2 MSTORE PUSH1 0x2 PUSH1 0x20 MSTORE PUSH1 0x40 SWAP1 KECCAK256 PUSH1 0x7 ADD SLOAD SWAP1 JUMP JUMPDEST PUSH2 0x1F8 PUSH32 0x1597BC5E34FF090612F53164E4E642D2AB4FC78BFFE19ED1B602A0D12559561A DUP2 JUMP JUMPDEST PUSH2 0x1CE PUSH2 0x424 CALLDATASIZE PUSH1 0x4 PUSH2 0x216D JUMP JUMPDEST PUSH2 0x1BE9 JUMP JUMPDEST PUSH1 0x0 PUSH1 0x1 PUSH1 0x1 PUSH1 0xE0 SHL SUB NOT DUP3 AND PUSH4 0x7965DB0B PUSH1 0xE0 SHL EQ DUP1 PUSH2 0x45A JUMPI POP PUSH4 0x1FFC9A7 PUSH1 0xE0 SHL PUSH1 0x1 PUSH1 0x1 PUSH1 0xE0 SHL SUB NOT DUP4 AND EQ JUMPDEST SWAP3 SWAP2 POP POP JUMP JUMPDEST PUSH1 0x0 DUP4 DUP2 MSTORE PUSH1 0x2 PUSH1 0x20 MSTORE PUSH1 0x40 SWAP1 KECCAK256 DUP1 SLOAD PUSH1 0x1 PUSH1 0x1 PUSH1 0xA0 SHL SUB AND CALLER EQ PUSH2 0x4D6 JUMPI PUSH1 0x40 MLOAD PUSH3 0x461BCD PUSH1 0xE5 SHL DUP2 MSTORE PUSH1 0x20 PUSH1 0x4 DUP3 ADD MSTORE PUSH1 0x21 PUSH1 0x24 DUP3 ADD MSTORE PUSH32 0x4F6E6C79206174686C6574652063616E207375626D6974206D696C6573746F6E PUSH1 0x44 DUP3 ADD MSTORE PUSH1 0x65 PUSH1 0xF8 SHL PUSH1 0x64 DUP3 ADD MSTORE PUSH1 0x84 ADD JUMPDEST PUSH1 0x40 MLOAD DUP1 SWAP2 SUB SWAP1 REVERT JUMPDEST PUSH1 0x1 PUSH1 0x6 DUP3 ADD SLOAD PUSH1 0xFF AND PUSH1 0x4 DUP2 GT ISZERO PUSH2 0x4F1 JUMPI PUSH2 0x4F1 PUSH2 0x23BA JUMP JUMPDEST EQ PUSH2 0x50E JUMPI PUSH1 0x40 MLOAD PUSH3 0x461BCD PUSH1 0xE5 SHL DUP2 MSTORE PUSH1 0x4 ADD PUSH2 0x4CD SWAP1 PUSH2 0x25F3 JUMP JUMPDEST PUSH1 0x7 DUP2 ADD SLOAD DUP4 LT PUSH2 0x531 JUMPI PUSH1 0x40 MLOAD PUSH3 0x461BCD PUSH1 0xE5 SHL DUP2 MSTORE PUSH1 0x4 ADD PUSH2 0x4CD SWAP1 PUSH2 0x2620 JUMP JUMPDEST PUSH1 0x0 DUP2 PUSH1 0x7 ADD DUP5 DUP2 SLOAD DUP2 LT PUSH2 0x548 JUMPI PUSH2 0x548 PUSH2 0x2657 JUMP JUMPDEST PUSH1 0x0 SWAP2 DUP3 MSTORE PUSH1 0x20 SWAP1 SWAP2 KECCAK256 PUSH1 0x3 PUSH1 0x6 SWAP1 SWAP3 MUL ADD DUP2 ADD SLOAD PUSH1 0xFF AND SWAP1 DUP2 GT ISZERO PUSH2 0x570 JUMPI PUSH2 0x570 PUSH2 0x23BA JUMP JUMPDEST EQ PUSH2 0x5B5 JUMPI PUSH1 0x40 MLOAD PUSH3 0x461BCD PUSH1 0xE5 SHL DUP2 MSTORE PUSH1 0x20 PUSH1 0x4 DUP3 ADD MSTORE PUSH1 0x15 PUSH1 0x24 DUP3 ADD MSTORE PUSH21 0x4D696C6573746F6E65206E6F742070656E64696E67 PUSH1 0x58 SHL PUSH1 0x44 DUP3 ADD MSTORE PUSH1 0x64 ADD PUSH2 0x4CD JUMP JUMPDEST PUSH1 0x0 DUP2 PUSH1 0x7 ADD DUP5 DUP2 SLOAD DUP2 LT PUSH2 0x5CC JUMPI PUSH2 0x5CC PUSH2 0x2657 JUMP JUMPDEST SWAP1 PUSH1 0x0 MSTORE PUSH1 0x20 PUSH1 0x0 KECCAK256 SWAP1 PUSH1 0x6 MUL ADD SWAP1 POP DUP3 DUP2 PUSH1 0x4 ADD SWAP1 DUP2 PUSH2 0x5ED SWAP2 SWAP1 PUSH2 0x26ED JUMP JUMPDEST POP PUSH1 0x3 DUP2 ADD DUP1 SLOAD PUSH1 0xFF NOT AND PUSH1 0x1 OR SWAP1 SSTORE PUSH1 0x40 MLOAD DUP5 DUP2 MSTORE DUP6 SWAP1 PUSH32 0x1B7218C0AC23EA9CBE4DF603D2B340FBF469A115B73EA3D11460727F445D6BE1 SWAP1 PUSH1 0x20 ADD JUMPDEST PUSH1 0x40 MLOAD DUP1 SWAP2 SUB SWAP1 LOG2 POP POP POP POP POP JUMP JUMPDEST PUSH2 0x642 PUSH2 0x1C0E JUMP JUMPDEST PUSH1 0x0 DUP3 DUP2 MSTORE PUSH1 0x2 PUSH1 0x20 MSTORE PUSH1 0x40 SWAP1 KECCAK256 PUSH1 0x1 DUP2 ADD SLOAD PUSH1 0x1 PUSH1 0x1 PUSH1 0xA0 SHL SUB AND CALLER EQ PUSH2 0x6B7 JUMPI PUSH1 0x40 MLOAD PUSH3 0x461BCD PUSH1 0xE5 SHL DUP2 MSTORE PUSH1 0x20 PUSH1 0x4 DUP3 ADD MSTORE PUSH1 0x22 PUSH1 0x24 DUP3 ADD MSTORE PUSH32 0x4F6E6C792073706F6E736F722063616E20617070726F7665206D696C6573746F PUSH1 0x44 DUP3 ADD MSTORE PUSH2 0x6E65 PUSH1 0xF0 SHL PUSH1 0x64 DUP3 ADD MSTORE PUSH1 0x84 ADD PUSH2 0x4CD JUMP JUMPDEST PUSH1 0x1 PUSH1 0x6 DUP3 ADD SLOAD PUSH1 0xFF AND PUSH1 0x4 DUP2 GT ISZERO PUSH2 0x6D2 JUMPI PUSH2 0x6D2 PUSH2 0x23BA JUMP JUMPDEST EQ PUSH2 0x6EF JUMPI PUSH1 0x40 MLOAD PUSH3 0x461BCD PUSH1 0xE5 SHL DUP2 MSTORE PUSH1 0x4 ADD PUSH2 0x4CD SWAP1 PUSH2 0x25F3 JUMP JUMPDEST PUSH1 0x7 DUP2 ADD SLOAD DUP3 LT PUSH2 0x712 JUMPI PUSH1 0x40 MLOAD PUSH3 0x461BCD PUSH1 0xE5 SHL DUP2 MSTORE PUSH1 0x4 ADD PUSH2 0x4CD SWAP1 PUSH2 0x2620 JUMP JUMPDEST PUSH1 0x0 DUP2 PUSH1 0x7 ADD DUP4 DUP2 SLOAD DUP2 LT PUSH2 0x729 JUMPI PUSH2 0x729 PUSH2 0x2657 JUMP JUMPDEST PUSH1 0x0 SWAP2 DUP3 MSTORE PUSH1 0x20 SWAP1 SWAP2 KECCAK256 PUSH1 0x6 SWAP1 SWAP2 MUL ADD SWAP1 POP PUSH1 0x1 PUSH1 0x3 DUP1 DUP4 ADD SLOAD PUSH1 0xFF AND SWAP1 DUP2 GT ISZERO PUSH2 0x756 JUMPI PUSH2 0x756 PUSH2 0x23BA JUMP JUMPDEST EQ PUSH2 0x79D JUMPI PUSH1 0x40 MLOAD PUSH3 0x461BCD PUSH1 0xE5 SHL DUP2 MSTORE PUSH1 0x20 PUSH1 0x4 DUP3 ADD MSTORE PUSH1 0x17 PUSH1 0x24 DUP3 ADD MSTORE PUSH23 0x135A5B195CDD1BDB99481B9BDD0818DBDB5C1B195D1959 PUSH1 0x4A SHL PUSH1 0x44 DUP3 ADD MSTORE PUSH1 0x64 ADD PUSH2 0x4CD JUMP JUMPDEST PUSH1 0x5 DUP2 ADD SLOAD PUSH1 0xFF AND ISZERO PUSH2 0x7ED JUMPI PUSH1 0x40 MLOAD PUSH3 0x461BCD PUSH1 0xE5 SHL DUP2 MSTORE PUSH1 0x20 PUSH1 0x4 DUP3 ADD MSTORE PUSH1 0x18 PUSH1 0x24 DUP3 ADD MSTORE PUSH24 0x14185E5B595B9D08185B1C9958591E481C995B19585CD959 PUSH1 0x42 SHL PUSH1 0x44 DUP3 ADD MSTORE PUSH1 0x64 ADD PUSH2 0x4CD JUMP JUMPDEST PUSH1 0x5 DUP2 ADD DUP1 SLOAD PUSH1 0xFF NOT AND PUSH1 0x1 OR SWAP1 SSTORE PUSH1 0x6 DUP3 ADD SLOAD PUSH2 0x100 SWAP1 DIV PUSH1 0x1 PUSH1 0x1 PUSH1 0xA0 SHL SUB AND PUSH2 0x856 JUMPI DUP2 SLOAD PUSH1 0x1 DUP3 ADD SLOAD PUSH1 0x40 MLOAD PUSH1 0x1 PUSH1 0x1 PUSH1 0xA0 SHL SUB SWAP1 SWAP3 AND SWAP2 DUP2 ISZERO PUSH2 0x8FC MUL SWAP2 SWAP1 PUSH1 0x0 DUP2 DUP2 DUP2 DUP6 DUP9 DUP9 CALL SWAP4 POP POP POP POP ISZERO DUP1 ISZERO PUSH2 0x850 JUMPI RETURNDATASIZE PUSH1 0x0 DUP1 RETURNDATACOPY RETURNDATASIZE PUSH1 0x0 REVERT JUMPDEST POP PUSH2 0x92F JUMP JUMPDEST PUSH1 0x6 DUP3 ADD SLOAD PUSH1 0x1 DUP1 DUP5 ADD SLOAD DUP5 SLOAD SWAP2 DUP5 ADD SLOAD PUSH1 0x40 MLOAD PUSH4 0x23B872DD PUSH1 0xE0 SHL DUP2 MSTORE PUSH1 0x1 PUSH1 0x1 PUSH1 0xA0 SHL SUB SWAP3 DUP4 AND PUSH1 0x4 DUP3 ADD MSTORE SWAP3 DUP3 AND PUSH1 0x24 DUP5 ADD MSTORE PUSH1 0x44 DUP4 ADD MSTORE PUSH2 0x100 SWAP1 SWAP3 DIV SWAP1 SWAP2 AND SWAP1 DUP2 SWAP1 PUSH4 0x23B872DD SWAP1 PUSH1 0x64 ADD PUSH1 0x20 PUSH1 0x40 MLOAD DUP1 DUP4 SUB DUP2 PUSH1 0x0 DUP8 GAS CALL ISZERO DUP1 ISZERO PUSH2 0x8C5 JUMPI RETURNDATASIZE PUSH1 0x0 DUP1 RETURNDATACOPY RETURNDATASIZE PUSH1 0x0 REVERT JUMPDEST POP POP POP POP PUSH1 0x40 MLOAD RETURNDATASIZE PUSH1 0x1F NOT PUSH1 0x1F DUP3 ADD AND DUP3 ADD DUP1 PUSH1 0x40 MSTORE POP DUP2 ADD SWAP1 PUSH2 0x8E9 SWAP2 SWAP1 PUSH2 0x27AD JUMP JUMPDEST PUSH2 0x92D JUMPI PUSH1 0x40 MLOAD PUSH3 0x461BCD PUSH1 0xE5 SHL DUP2 MSTORE PUSH1 0x20 PUSH1 0x4 DUP3 ADD MSTORE PUSH1 0x15 PUSH1 0x24 DUP3 ADD MSTORE PUSH21 0x151BDAD95B881D1C985B9CD9995C8819985A5B1959 PUSH1 0x5A SHL PUSH1 0x44 DUP3 ADD MSTORE PUSH1 0x64 ADD PUSH2 0x4CD JUMP JUMPDEST POP JUMPDEST DUP4 PUSH32 0x3C70B1E8034B5738EC77FBFDAA4D28906A0B3160018D67A2DC7B534E53E33FE0 DUP5 DUP4 PUSH1 0x1 ADD SLOAD PUSH1 0x40 MLOAD PUSH2 0x96E SWAP3 SWAP2 SWAP1 SWAP2 DUP3 MSTORE PUSH1 0x20 DUP3 ADD MSTORE PUSH1 0x40 ADD SWAP1 JUMP JUMPDEST PUSH1 0x40 MLOAD DUP1 SWAP2 SUB SWAP1 LOG2 PUSH1 0x1 PUSH1 0x0 JUMPDEST PUSH1 0x7 DUP5 ADD SLOAD DUP2 LT ISZERO PUSH2 0x9D2 JUMPI DUP4 PUSH1 0x7 ADD DUP2 DUP2 SLOAD DUP2 LT PUSH2 0x99C JUMPI PUSH2 0x99C PUSH2 0x2657 JUMP JUMPDEST PUSH1 0x0 SWAP2 DUP3 MSTORE PUSH1 0x20 SWAP1 SWAP2 KECCAK256 PUSH1 0x5 PUSH1 0x6 SWAP1 SWAP3 MUL ADD ADD SLOAD PUSH1 0xFF AND PUSH2 0x9C0 JUMPI PUSH1 0x0 SWAP2 POP PUSH2 0x9D2 JUMP JUMPDEST DUP1 PUSH2 0x9CA DUP2 PUSH2 0x27E0 JUMP JUMPDEST SWAP2 POP POP PUSH2 0x97B JUMP JUMPDEST POP DUP1 ISZERO PUSH2 0x9E9 JUMPI PUSH1 0x6 DUP4 ADD DUP1 SLOAD PUSH1 0xFF NOT AND PUSH1 0x2 OR SWAP1 SSTORE JUMPDEST POP POP POP PUSH2 0x9F5 PUSH1 0x1 DUP1 SSTORE JUMP JUMPDEST POP POP JUMP JUMPDEST PUSH1 0x0 DUP3 DUP2 MSTORE PUSH1 0x20 DUP2 SWAP1 MSTORE PUSH1 0x40 SWAP1 KECCAK256 PUSH1 0x1 ADD SLOAD PUSH2 0xA14 DUP2 PUSH2 0x1C67 JUMP JUMPDEST PUSH2 0xA1E DUP4 DUP4 PUSH2 0x1C74 JUMP JUMPDEST POP POP POP JUMP JUMPDEST PUSH1 0x0 DUP3 DUP2 MSTORE PUSH1 0x2 PUSH1 0x20 MSTORE PUSH1 0x40 DUP2 KECCAK256 SWAP1 DUP1 JUMPDEST PUSH1 0x8 DUP4 ADD SLOAD DUP2 LT ISZERO PUSH2 0xA8B JUMPI DUP3 PUSH1 0x8 ADD DUP2 DUP2 SLOAD DUP2 LT PUSH2 0xA55 JUMPI PUSH2 0xA55 PUSH2 0x2657 JUMP JUMPDEST PUSH1 0x0 SWAP2 DUP3 MSTORE PUSH1 0x20 SWAP1 SWAP2 KECCAK256 ADD SLOAD PUSH1 0x1 PUSH1 0x1 PUSH1 0xA0 SHL SUB AND CALLER SUB PUSH2 0xA79 JUMPI PUSH1 0x1 SWAP2 POP PUSH2 0xA8B JUMP JUMPDEST DUP1 PUSH2 0xA83 DUP2 PUSH2 0x27E0 JUMP JUMPDEST SWAP2 POP POP PUSH2 0xA34 JUMP JUMPDEST POP DUP1 DUP1 PUSH2 0xABD JUMPI POP PUSH2 0xABD PUSH32 0x16CEEE8289685DD2A02B9C8AE81D2DF373176CE53519E6284E2A2950D6546FFA CALLER PUSH2 0x1BC0 JUMP JUMPDEST PUSH2 0xB15 JUMPI PUSH1 0x40 MLOAD PUSH3 0x461BCD PUSH1 0xE5 SHL DUP2 MSTORE PUSH1 0x20 PUSH1 0x4 DUP3 ADD MSTORE PUSH1 0x23 PUSH1 0x24 DUP3 ADD MSTORE PUSH32 0x4F6E6C792061726269747261746F722063616E207265736F6C76652064697370 PUSH1 0x44 DUP3 ADD MSTORE PUSH3 0x757465 PUSH1 0xE8 SHL PUSH1 0x64 DUP3 ADD MSTORE PUSH1 0x84 ADD PUSH2 0x4CD JUMP JUMPDEST PUSH1 0x3 PUSH1 0x6 DUP4 ADD SLOAD PUSH1 0xFF AND PUSH1 0x4 DUP2 GT ISZERO PUSH2 0xB30 JUMPI PUSH2 0xB30 PUSH2 0x23BA JUMP JUMPDEST EQ PUSH2 0xB75 JUMPI PUSH1 0x40 MLOAD PUSH3 0x461BCD PUSH1 0xE5 SHL DUP2 MSTORE PUSH1 0x20 PUSH1 0x4 DUP3 ADD MSTORE PUSH1 0x15 PUSH1 0x24 DUP3 ADD MSTORE PUSH21 0x10DBDB9D1C9858DD081B9BDD08191A5CDC1D5D1959 PUSH1 0x5A SHL PUSH1 0x44 DUP3 ADD MSTORE PUSH1 0x64 ADD PUSH2 0x4CD JUMP JUMPDEST DUP3 ISZERO PUSH2 0xB8F JUMPI PUSH1 0x6 DUP3 ADD DUP1 SLOAD PUSH1 0xFF NOT AND PUSH1 0x1 OR SWAP1 SSTORE PUSH2 0xB9F JUMP JUMPDEST PUSH1 0x6 DUP3 ADD DUP1 SLOAD PUSH1 0xFF NOT AND PUSH1 0x4 OR SWAP1 SSTORE JUMPDEST DUP4 PUSH32 0x5A87909BFF68CAAAAF0B3FD9C74EECCC928832F879315E5C6FB7A73612F26C0C DUP5 PUSH1 0x40 MLOAD PUSH2 0xBD3 SWAP2 ISZERO ISZERO DUP2 MSTORE PUSH1 0x20 ADD SWAP1 JUMP JUMPDEST PUSH1 0x40 MLOAD DUP1 SWAP2 SUB SWAP1 LOG2 POP POP POP POP JUMP JUMPDEST PUSH1 0x0 DUP2 DUP2 MSTORE PUSH1 0x2 PUSH1 0x20 MSTORE PUSH1 0x40 SWAP1 KECCAK256 PUSH1 0x1 DUP2 ADD SLOAD PUSH1 0x1 PUSH1 0x1 PUSH1 0xA0 SHL SUB AND CALLER EQ PUSH2 0xC56 JUMPI PUSH1 0x40 MLOAD PUSH3 0x461BCD PUSH1 0xE5 SHL DUP2 MSTORE PUSH1 0x20 PUSH1 0x4 DUP3 ADD MSTORE PUSH1 0x22 PUSH1 0x24 DUP3 ADD MSTORE PUSH32 0x4F6E6C792073706F6E736F722063616E20616374697661746520636F6E747261 PUSH1 0x44 DUP3 ADD MSTORE PUSH2 0x18DD PUSH1 0xF2 SHL PUSH1 0x64 DUP3 ADD MSTORE PUSH1 0x84 ADD PUSH2 0x4CD JUMP JUMPDEST PUSH1 0x0 PUSH1 0x6 DUP3 ADD SLOAD PUSH1 0xFF AND PUSH1 0x4 DUP2 GT ISZERO PUSH2 0xC71 JUMPI PUSH2 0xC71 PUSH2 0x23BA JUMP JUMPDEST EQ PUSH2 0xCBE JUMPI PUSH1 0x40 MLOAD PUSH3 0x461BCD PUSH1 0xE5 SHL DUP2 MSTORE PUSH1 0x20 PUSH1 0x4 DUP3 ADD MSTORE PUSH1 0x1B PUSH1 0x24 DUP3 ADD MSTORE PUSH32 0x436F6E7472616374206E6F7420696E2064726166742073746174650000000000 PUSH1 0x44 DUP3 ADD MSTORE PUSH1 0x64 ADD PUSH2 0x4CD JUMP JUMPDEST PUSH1 0x7 DUP2 ADD SLOAD PUSH2 0xD0F JUMPI PUSH1 0x40 MLOAD PUSH3 0x461BCD PUSH1 0xE5 SHL DUP2 MSTORE PUSH1 0x20 PUSH1 0x4 DUP3 ADD MSTORE PUSH1 0x1D PUSH1 0x24 DUP3 ADD MSTORE PUSH32 0x436F6E7472616374206D7573742068617665206D696C6573746F6E6573000000 PUSH1 0x44 DUP3 ADD MSTORE PUSH1 0x64 ADD PUSH2 0x4CD JUMP JUMPDEST PUSH1 0x6 DUP2 ADD SLOAD PUSH2 0x100 SWAP1 DIV PUSH1 0x1 PUSH1 0x1 PUSH1 0xA0 SHL SUB AND ISZERO PUSH2 0xDFD JUMPI PUSH1 0x6 DUP2 ADD SLOAD PUSH1 0x3 DUP3 ADD SLOAD PUSH1 0x1 DUP4 ADD SLOAD PUSH1 0x40 MLOAD PUSH4 0x6EB1769F PUSH1 0xE1 SHL DUP2 MSTORE PUSH1 0x1 PUSH1 0x1 PUSH1 0xA0 SHL SUB SWAP2 DUP3 AND PUSH1 0x4 DUP3 ADD MSTORE ADDRESS PUSH1 0x24 DUP3 ADD MSTORE PUSH2 0x100 SWAP1 SWAP4 DIV AND SWAP2 DUP3 SWAP1 PUSH4 0xDD62ED3E SWAP1 PUSH1 0x44 ADD PUSH1 0x20 PUSH1 0x40 MLOAD DUP1 DUP4 SUB DUP2 DUP7 GAS STATICCALL ISZERO DUP1 ISZERO PUSH2 0xD89 JUMPI RETURNDATASIZE PUSH1 0x0 DUP1 RETURNDATACOPY RETURNDATASIZE PUSH1 0x0 REVERT JUMPDEST POP POP POP POP PUSH1 0x40 MLOAD RETURNDATASIZE PUSH1 0x1F NOT PUSH1 0x1F DUP3 ADD AND DUP3 ADD DUP1 PUSH1 0x40 MSTORE POP DUP2 ADD SWAP1 PUSH2 0xDAD SWAP2 SWAP1 PUSH2 0x27F9 JUMP JUMPDEST LT ISZERO PUSH2 0xDFB JUMPI PUSH1 0x40 MLOAD PUSH3 0x461BCD PUSH1 0xE5 SHL DUP2 MSTORE PUSH1 0x20 PUSH1 0x4 DUP3 ADD MSTORE PUSH1 0x1C PUSH1 0x24 DUP3 ADD MSTORE PUSH32 0x496E73756666696369656E7420746F6B656E20616C6C6F77616E636500000000 PUSH1 0x44 DUP3 ADD MSTORE PUSH1 0x64 ADD PUSH2 0x4CD JUMP JUMPDEST POP JUMPDEST PUSH1 0x6 ADD DUP1 SLOAD PUSH1 0xFF NOT AND PUSH1 0x1 OR SWAP1 SSTORE POP JUMP JUMPDEST PUSH1 0x1 PUSH1 0x1 PUSH1 0xA0 SHL SUB DUP2 AND CALLER EQ PUSH2 0xE7E JUMPI PUSH1 0x40 MLOAD PUSH3 0x461BCD PUSH1 0xE5 SHL DUP2 MSTORE PUSH1 0x20 PUSH1 0x4 DUP3 ADD MSTORE PUSH1 0x2F PUSH1 0x24 DUP3 ADD MSTORE PUSH32 0x416363657373436F6E74726F6C3A2063616E206F6E6C792072656E6F756E6365 PUSH1 0x44 DUP3 ADD MSTORE PUSH15 0x103937B632B9903337B91039B2B633 PUSH1 0x89 SHL PUSH1 0x64 DUP3 ADD MSTORE PUSH1 0x84 ADD PUSH2 0x4CD JUMP JUMPDEST PUSH2 0x9F5 DUP3 DUP3 PUSH2 0x1CF8 JUMP JUMPDEST PUSH1 0x0 DUP5 DUP2 MSTORE PUSH1 0x2 PUSH1 0x20 MSTORE PUSH1 0x40 SWAP1 KECCAK256 DUP1 SLOAD PUSH1 0x1 PUSH1 0x1 PUSH1 0xA0 SHL SUB AND CALLER EQ DUP1 PUSH2 0xEBA JUMPI POP PUSH1 0x1 DUP2 ADD SLOAD PUSH1 0x1 PUSH1 0x1 PUSH1 0xA0 SHL SUB AND CALLER EQ JUMPDEST DUP1 PUSH2 0xED8 JUMPI POP PUSH2 0xED8 PUSH1 0x0 DUP1 MLOAD PUSH1 0x20 PUSH2 0x29D8 DUP4 CODECOPY DUP2 MLOAD SWAP2 MSTORE CALLER PUSH2 0x1BC0 JUMP JUMPDEST PUSH2 0xF13 JUMPI PUSH1 0x40 MLOAD PUSH3 0x461BCD PUSH1 0xE5 SHL DUP2 MSTORE PUSH1 0x20 PUSH1 0x4 DUP3 ADD MSTORE PUSH1 0xC PUSH1 0x24 DUP3 ADD MSTORE PUSH12 0x155B985D5D1A1BDC9A5E9959 PUSH1 0xA2 SHL PUSH1 0x44 DUP3 ADD MSTORE PUSH1 0x64 ADD PUSH2 0x4CD JUMP JUMPDEST PUSH1 0x0 PUSH1 0x6 DUP3 ADD SLOAD PUSH1 0xFF AND PUSH1 0x4 DUP2 GT ISZERO PUSH2 0xF2E JUMPI PUSH2 0xF2E PUSH2 0x23BA JUMP JUMPDEST EQ PUSH2 0xF7B JUMPI PUSH1 0x40 MLOAD PUSH3 0x461BCD PUSH1 0xE5 SHL DUP2 MSTORE PUSH1 0x20 PUSH1 0x4 DUP3 ADD MSTORE PUSH1 0x1B PUSH1 0x24 DUP3 ADD MSTORE PUSH32 0x436F6E7472616374206E6F7420696E2064726166742073746174650000000000 PUSH1 0x44 DUP3 ADD MSTORE PUSH1 0x64 ADD PUSH2 0x4CD JUMP JUMPDEST DUP3 MLOAD DUP5 MLOAD EQ DUP1 ISZERO PUSH2 0xF8D JUMPI POP DUP2 MLOAD DUP4 MLOAD EQ JUMPDEST PUSH2 0xFD2 JUMPI PUSH1 0x40 MLOAD PUSH3 0x461BCD PUSH1 0xE5 SHL DUP2 MSTORE PUSH1 0x20 PUSH1 0x4 DUP3 ADD MSTORE PUSH1 0x16 PUSH1 0x24 DUP3 ADD MSTORE PUSH22 0x82E4E4C2F2E640D8CADCCEE8D040DAD2E6DAC2E8C6D PUSH1 0x53 SHL PUSH1 0x44 DUP3 ADD MSTORE PUSH1 0x64 ADD PUSH2 0x4CD JUMP JUMPDEST PUSH1 0x0 DUP1 JUMPDEST DUP5 MLOAD DUP2 LT ISZERO PUSH2 0x114D JUMPI DUP5 DUP2 DUP2 MLOAD DUP2 LT PUSH2 0xFF1 JUMPI PUSH2 0xFF1 PUSH2 0x2657 JUMP JUMPDEST PUSH1 0x20 MUL PUSH1 0x20 ADD ADD MLOAD DUP3 PUSH2 0x1004 SWAP2 SWAP1 PUSH2 0x2812 JUMP JUMPDEST SWAP2 POP DUP3 PUSH1 0x7 ADD PUSH1 0x40 MLOAD DUP1 PUSH1 0xC0 ADD PUSH1 0x40 MSTORE DUP1 DUP9 DUP5 DUP2 MLOAD DUP2 LT PUSH2 0x1027 JUMPI PUSH2 0x1027 PUSH2 0x2657 JUMP JUMPDEST PUSH1 0x20 MUL PUSH1 0x20 ADD ADD MLOAD DUP2 MSTORE PUSH1 0x20 ADD DUP8 DUP5 DUP2 MLOAD DUP2 LT PUSH2 0x1046 JUMPI PUSH2 0x1046 PUSH2 0x2657 JUMP JUMPDEST PUSH1 0x20 MUL PUSH1 0x20 ADD ADD MLOAD DUP2 MSTORE PUSH1 0x20 ADD DUP7 DUP5 DUP2 MLOAD DUP2 LT PUSH2 0x1065 JUMPI PUSH2 0x1065 PUSH2 0x2657 JUMP JUMPDEST PUSH1 0x20 MUL PUSH1 0x20 ADD ADD MLOAD DUP2 MSTORE PUSH1 0x20 ADD PUSH1 0x0 PUSH1 0x3 DUP2 GT ISZERO PUSH2 0x1085 JUMPI PUSH2 0x1085 PUSH2 0x23BA JUMP JUMPDEST DUP2 MSTORE PUSH1 0x40 DUP1 MLOAD PUSH1 0x20 DUP2 DUP2 ADD DUP4 MSTORE PUSH1 0x0 DUP1 DUP4 MSTORE DUP2 DUP6 ADD SWAP3 SWAP1 SWAP3 MSTORE SWAP2 SWAP1 SWAP3 ADD DUP3 SWAP1 MSTORE DUP4 SLOAD PUSH1 0x1 DUP2 ADD DUP6 SSTORE SWAP4 DUP3 MSTORE SWAP1 KECCAK256 DUP2 MLOAD SWAP2 SWAP3 PUSH1 0x6 MUL ADD SWAP1 DUP2 SWAP1 PUSH2 0x10C7 SWAP1 DUP3 PUSH2 0x26ED JUMP JUMPDEST POP PUSH1 0x20 DUP3 ADD MLOAD DUP2 PUSH1 0x1 ADD SSTORE PUSH1 0x40 DUP3 ADD MLOAD DUP2 PUSH1 0x2 ADD SSTORE PUSH1 0x60 DUP3 ADD MLOAD DUP2 PUSH1 0x3 ADD PUSH1 0x0 PUSH2 0x100 EXP DUP2 SLOAD DUP2 PUSH1 0xFF MUL NOT AND SWAP1 DUP4 PUSH1 0x3 DUP2 GT ISZERO PUSH2 0x1106 JUMPI PUSH2 0x1106 PUSH2 0x23BA JUMP JUMPDEST MUL OR SWAP1 SSTORE POP PUSH1 0x80 DUP3 ADD MLOAD PUSH1 0x4 DUP3 ADD SWAP1 PUSH2 0x111F SWAP1 DUP3 PUSH2 0x26ED JUMP JUMPDEST POP PUSH1 0xA0 SWAP2 SWAP1 SWAP2 ADD MLOAD PUSH1 0x5 SWAP1 SWAP2 ADD DUP1 SLOAD PUSH1 0xFF NOT AND SWAP2 ISZERO ISZERO SWAP2 SWAP1 SWAP2 OR SWAP1 SSTORE DUP1 PUSH2 0x1145 DUP2 PUSH2 0x27E0 JUMP JUMPDEST SWAP2 POP POP PUSH2 0xFD6 JUMP JUMPDEST POP DUP2 PUSH1 0x3 ADD SLOAD DUP2 EQ PUSH2 0x11BB JUMPI PUSH1 0x40 MLOAD PUSH3 0x461BCD PUSH1 0xE5 SHL DUP2 MSTORE PUSH1 0x20 PUSH1 0x4 DUP3 ADD MSTORE PUSH1 0x31 PUSH1 0x24 DUP3 ADD MSTORE PUSH32 0x546F74616C206D696C6573746F6E6520616D6F756E7473206D757374206D6174 PUSH1 0x44 DUP3 ADD MSTORE PUSH17 0x636820636F6E74726163742076616C7565 PUSH1 0x78 SHL PUSH1 0x64 DUP3 ADD MSTORE PUSH1 0x84 ADD PUSH2 0x4CD JUMP JUMPDEST POP POP POP POP POP POP JUMP JUMPDEST PUSH1 0x2 PUSH1 0x20 DUP2 SWAP1 MSTORE PUSH1 0x0 SWAP2 DUP3 MSTORE PUSH1 0x40 SWAP1 SWAP2 KECCAK256 DUP1 SLOAD PUSH1 0x1 DUP3 ADD SLOAD SWAP3 DUP3 ADD DUP1 SLOAD PUSH1 0x1 PUSH1 0x1 PUSH1 0xA0 SHL SUB SWAP3 DUP4 AND SWAP5 SWAP1 SWAP3 AND SWAP3 SWAP2 PUSH2 0x11FA SWAP1 PUSH2 0x266D JUMP JUMPDEST DUP1 PUSH1 0x1F ADD PUSH1 0x20 DUP1 SWAP2 DIV MUL PUSH1 0x20 ADD PUSH1 0x40 MLOAD SWAP1 DUP2 ADD PUSH1 0x40 MSTORE DUP1 SWAP3 SWAP2 SWAP1 DUP2 DUP2 MSTORE PUSH1 0x20 ADD DUP3 DUP1 SLOAD PUSH2 0x1226 SWAP1 PUSH2 0x266D JUMP JUMPDEST DUP1 ISZERO PUSH2 0x1273 JUMPI DUP1 PUSH1 0x1F LT PUSH2 0x1248 JUMPI PUSH2 0x100 DUP1 DUP4 SLOAD DIV MUL DUP4 MSTORE SWAP2 PUSH1 0x20 ADD SWAP2 PUSH2 0x1273 JUMP JUMPDEST DUP3 ADD SWAP2 SWAP1 PUSH1 0x0 MSTORE PUSH1 0x20 PUSH1 0x0 KECCAK256 SWAP1 JUMPDEST DUP2 SLOAD DUP2 MSTORE SWAP1 PUSH1 0x1 ADD SWAP1 PUSH1 0x20 ADD DUP1 DUP4 GT PUSH2 0x1256 JUMPI DUP3 SWAP1 SUB PUSH1 0x1F AND DUP3 ADD SWAP2 JUMPDEST POP POP POP POP PUSH1 0x3 DUP4 ADD SLOAD PUSH1 0x4 DUP5 ADD SLOAD PUSH1 0x5 DUP6 ADD SLOAD PUSH1 0x6 SWAP1 SWAP6 ADD SLOAD SWAP4 SWAP5 SWAP2 SWAP4 SWAP1 SWAP3 POP PUSH1 0xFF DUP2 AND SWAP1 PUSH2 0x100 SWAP1 DIV PUSH1 0x1 PUSH1 0x1 PUSH1 0xA0 SHL SUB AND DUP9 JUMP JUMPDEST PUSH1 0x0 DUP3 DUP2 MSTORE PUSH1 0x2 PUSH1 0x20 MSTORE PUSH1 0x40 SWAP1 KECCAK256 DUP1 SLOAD PUSH1 0x1 PUSH1 0x1 PUSH1 0xA0 SHL SUB AND CALLER EQ DUP1 PUSH2 0x12DB JUMPI POP PUSH1 0x1 DUP2 ADD SLOAD PUSH1 0x1 PUSH1 0x1 PUSH1 0xA0 SHL SUB AND CALLER EQ JUMPDEST DUP1 PUSH2 0x12F9 JUMPI POP PUSH2 0x12F9 PUSH1 0x0 DUP1 MLOAD PUSH1 0x20 PUSH2 0x29D8 DUP4 CODECOPY DUP2 MLOAD SWAP2 MSTORE CALLER PUSH2 0x1BC0 JUMP JUMPDEST PUSH2 0x1334 JUMPI PUSH1 0x40 MLOAD PUSH3 0x461BCD PUSH1 0xE5 SHL DUP2 MSTORE PUSH1 0x20 PUSH1 0x4 DUP3 ADD MSTORE PUSH1 0xC PUSH1 0x24 DUP3 ADD MSTORE PUSH12 0x155B985D5D1A1BDC9A5E9959 PUSH1 0xA2 SHL PUSH1 0x44 DUP3 ADD MSTORE PUSH1 0x64 ADD PUSH2 0x4CD JUMP JUMPDEST PUSH1 0x9 DUP2 ADD DUP1 SLOAD PUSH1 0x1 DUP2 ADD DUP3 SSTORE PUSH1 0x0 SWAP2 DUP3 MSTORE PUSH1 0x20 SWAP1 SWAP2 KECCAK256 ADD PUSH2 0x1358 PUSH1 0x2 DUP4 ADD DUP3 PUSH2 0x2825 JUMP JUMPDEST POP PUSH1 0x2 DUP2 ADD PUSH2 0x1367 DUP4 DUP3 PUSH2 0x26ED JUMP JUMPDEST POP DUP3 PUSH32 0x3D6B58530BFB3205822F758555331D98D728B985F2081C1F5DBDCF7BC755D650 DUP4 PUSH1 0x40 MLOAD PUSH2 0x1398 SWAP2 SWAP1 PUSH2 0x2900 JUMP JUMPDEST PUSH1 0x40 MLOAD DUP1 SWAP2 SUB SWAP1 LOG2 POP POP POP JUMP JUMPDEST PUSH1 0x60 PUSH1 0x0 DUP1 PUSH1 0x0 PUSH1 0x60 PUSH1 0x0 DUP1 PUSH1 0x2 PUSH1 0x0 DUP11 DUP2 MSTORE PUSH1 0x20 ADD SWAP1 DUP2 MSTORE PUSH1 0x20 ADD PUSH1 0x0 KECCAK256 PUSH1 0x7 ADD DUP9 DUP2 SLOAD DUP2 LT PUSH2 0x13D8 JUMPI PUSH2 0x13D8 PUSH2 0x2657 JUMP JUMPDEST PUSH1 0x0 SWAP2 DUP3 MSTORE PUSH1 0x20 SWAP1 SWAP2 KECCAK256 PUSH1 0x6 SWAP1 SWAP2 MUL ADD PUSH1 0x1 DUP2 ADD SLOAD PUSH1 0x2 DUP3 ADD SLOAD PUSH1 0x3 DUP4 ADD SLOAD PUSH1 0x5 DUP5 ADD SLOAD DUP5 SLOAD SWAP5 SWAP6 POP DUP6 SWAP5 PUSH1 0xFF SWAP3 DUP4 AND SWAP3 PUSH1 0x4 DUP8 ADD SWAP3 AND SWAP1 DUP7 SWAP1 PUSH2 0x141B SWAP1 PUSH2 0x266D JUMP JUMPDEST DUP1 PUSH1 0x1F ADD PUSH1 0x20 DUP1 SWAP2 DIV MUL PUSH1 0x20 ADD PUSH1 0x40 MLOAD SWAP1 DUP2 ADD PUSH1 0x40 MSTORE DUP1 SWAP3 SWAP2 SWAP1 DUP2 DUP2 MSTORE PUSH1 0x20 ADD DUP3 DUP1 SLOAD PUSH2 0x1447 SWAP1 PUSH2 0x266D JUMP JUMPDEST DUP1 ISZERO PUSH2 0x1494 JUMPI DUP1 PUSH1 0x1F LT PUSH2 0x1469 JUMPI PUSH2 0x100 DUP1 DUP4 SLOAD DIV MUL DUP4 MSTORE SWAP2 PUSH1 0x20 ADD SWAP2 PUSH2 0x1494 JUMP JUMPDEST DUP3 ADD SWAP2 SWAP1 PUSH1 0x0 MSTORE PUSH1 0x20 PUSH1 0x0 KECCAK256 SWAP1 JUMPDEST DUP2 SLOAD DUP2 MSTORE SWAP1 PUSH1 0x1 ADD SWAP1 PUSH1 0x20 ADD DUP1 DUP4 GT PUSH2 0x1477 JUMPI DUP3 SWAP1 SUB PUSH1 0x1F AND DUP3 ADD SWAP2 JUMPDEST POP POP POP POP POP SWAP6 POP DUP2 DUP1 SLOAD PUSH2 0x14A7 SWAP1 PUSH2 0x266D JUMP JUMPDEST DUP1 PUSH1 0x1F ADD PUSH1 0x20 DUP1 SWAP2 DIV MUL PUSH1 0x20 ADD PUSH1 0x40 MLOAD SWAP1 DUP2 ADD PUSH1 0x40 MSTORE DUP1 SWAP3 SWAP2 SWAP1 DUP2 DUP2 MSTORE PUSH1 0x20 ADD DUP3 DUP1 SLOAD PUSH2 0x14D3 SWAP1 PUSH2 0x266D JUMP JUMPDEST DUP1 ISZERO PUSH2 0x1520 JUMPI DUP1 PUSH1 0x1F LT PUSH2 0x14F5 JUMPI PUSH2 0x100 DUP1 DUP4 SLOAD DIV MUL DUP4 MSTORE SWAP2 PUSH1 0x20 ADD SWAP2 PUSH2 0x1520 JUMP JUMPDEST DUP3 ADD SWAP2 SWAP1 PUSH1 0x0 MSTORE PUSH1 0x20 PUSH1 0x0 KECCAK256 SWAP1 JUMPDEST DUP2 SLOAD DUP2 MSTORE SWAP1 PUSH1 0x1 ADD SWAP1 PUSH1 0x20 ADD DUP1 DUP4 GT PUSH2 0x1503 JUMPI DUP3 SWAP1 SUB PUSH1 0x1F AND DUP3 ADD SWAP2 JUMPDEST POP POP POP POP POP SWAP2 POP SWAP7 POP SWAP7 POP SWAP7 POP SWAP7 POP SWAP7 POP SWAP7 POP POP SWAP3 SWAP6 POP SWAP3 SWAP6 POP SWAP3 SWAP6 JUMP JUMPDEST PUSH1 0x0 DUP2 DUP2 MSTORE PUSH1 0x2 PUSH1 0x20 DUP2 SWAP1 MSTORE PUSH1 0x40 DUP3 KECCAK256 DUP1 SLOAD PUSH1 0x1 DUP3 ADD SLOAD PUSH1 0x3 DUP4 ADD SLOAD PUSH1 0x4 DUP5 ADD SLOAD PUSH1 0x5 DUP6 ADD SLOAD PUSH1 0x6 DUP7 ADD SLOAD SWAP7 DUP7 ADD DUP1 SLOAD DUP10 SWAP9 PUSH1 0x60 SWAP9 DUP11 SWAP9 DUP10 SWAP9 DUP10 SWAP9 DUP10 SWAP9 DUP10 SWAP9 SWAP5 SWAP8 PUSH1 0x1 PUSH1 0x1 PUSH1 0xA0 SHL SUB SWAP5 DUP6 AND SWAP8 SWAP4 DUP6 AND SWAP7 SWAP1 SWAP6 SWAP3 SWAP5 SWAP2 SWAP4 PUSH1 0xFF DUP3 AND SWAP3 PUSH2 0x100 SWAP1 SWAP3 DIV SWAP1 SWAP2 AND SWAP1 DUP7 SWAP1 PUSH2 0x15AF SWAP1 PUSH2 0x266D JUMP JUMPDEST DUP1 PUSH1 0x1F ADD PUSH1 0x20 DUP1 SWAP2 DIV MUL PUSH1 0x20 ADD PUSH1 0x40 MLOAD SWAP1 DUP2 ADD PUSH1 0x40 MSTORE DUP1 SWAP3 SWAP2 SWAP1 DUP2 DUP2 MSTORE PUSH1 0x20 ADD DUP3 DUP1 SLOAD PUSH2 0x15DB SWAP1 PUSH2 0x266D JUMP JUMPDEST DUP1 ISZERO PUSH2 0x1628 JUMPI DUP1 PUSH1 0x1F LT PUSH2 0x15FD JUMPI PUSH2 0x100 DUP1 DUP4 SLOAD DIV MUL DUP4 MSTORE SWAP2 PUSH1 0x20 ADD SWAP2 PUSH2 0x1628 JUMP JUMPDEST DUP3 ADD SWAP2 SWAP1 PUSH1 0x0 MSTORE PUSH1 0x20 PUSH1 0x0 KECCAK256 SWAP1 JUMPDEST DUP2 SLOAD DUP2 MSTORE SWAP1 PUSH1 0x1 ADD SWAP1 PUSH1 0x20 ADD DUP1 DUP4 GT PUSH2 0x160B JUMPI DUP3 SWAP1 SUB PUSH1 0x1F AND DUP3 ADD SWAP2 JUMPDEST POP POP POP POP POP SWAP6 POP SWAP9 POP SWAP9 POP SWAP9 POP SWAP9 POP SWAP9 POP SWAP9 POP SWAP9 POP SWAP9 POP POP SWAP2 SWAP4 SWAP6 SWAP8 POP SWAP2 SWAP4 SWAP6 SWAP8 JUMP JUMPDEST PUSH1 0x0 DUP3 DUP2 MSTORE PUSH1 0x2 PUSH1 0x20 MSTORE PUSH1 0x40 SWAP1 KECCAK256 DUP1 SLOAD PUSH1 0x1 PUSH1 0x1 PUSH1 0xA0 SHL SUB AND CALLER EQ DUP1 PUSH2 0x167D JUMPI POP PUSH1 0x1 DUP2 ADD SLOAD PUSH1 0x1 PUSH1 0x1 PUSH1 0xA0 SHL SUB AND CALLER EQ JUMPDEST PUSH2 0x16DB JUMPI PUSH1 0x40 MLOAD PUSH3 0x461BCD PUSH1 0xE5 SHL DUP2 MSTORE PUSH1 0x20 PUSH1 0x4 DUP3 ADD MSTORE PUSH1 0x29 PUSH1 0x24 DUP3 ADD MSTORE PUSH32 0x4F6E6C79206174686C657465206F722073706F6E736F722063616E2072616973 PUSH1 0x44 DUP3 ADD MSTORE PUSH9 0x652064697370757465 PUSH1 0xB8 SHL PUSH1 0x64 DUP3 ADD MSTORE PUSH1 0x84 ADD PUSH2 0x4CD JUMP JUMPDEST PUSH1 0x1 PUSH1 0x6 DUP3 ADD SLOAD PUSH1 0xFF AND PUSH1 0x4 DUP2 GT ISZERO PUSH2 0x16F6 JUMPI PUSH2 0x16F6 PUSH2 0x23BA JUMP JUMPDEST EQ PUSH2 0x1713 JUMPI PUSH1 0x40 MLOAD PUSH3 0x461BCD PUSH1 0xE5 SHL DUP2 MSTORE PUSH1 0x4 ADD PUSH2 0x4CD SWAP1 PUSH2 0x25F3 JUMP JUMPDEST PUSH1 0x6 DUP2 ADD DUP1 SLOAD PUSH1 0xFF NOT AND PUSH1 0x3 OR SWAP1 SSTORE PUSH1 0x40 MLOAD DUP4 SWAP1 PUSH32 0xE07AD455E24561261E9047AAB2F668AE1FC2CC6FDA35021764673613B888836D SWAP1 PUSH2 0x1398 SWAP1 DUP6 SWAP1 PUSH2 0x2900 JUMP JUMPDEST PUSH1 0x0 PUSH2 0x1780 PUSH32 0x7F611FFBF41DD527826ABAD73CB1B1ECFF28482BB0412695BE053AFA0451AD18 DUP11 PUSH2 0x1BC0 JUMP JUMPDEST DUP1 PUSH2 0x179E JUMPI POP PUSH2 0x179E PUSH1 0x0 DUP1 MLOAD PUSH1 0x20 PUSH2 0x29D8 DUP4 CODECOPY DUP2 MLOAD SWAP2 MSTORE CALLER PUSH2 0x1BC0 JUMP JUMPDEST PUSH2 0x1801 JUMPI PUSH1 0x40 MLOAD PUSH3 0x461BCD PUSH1 0xE5 SHL DUP2 MSTORE PUSH1 0x20 PUSH1 0x4 DUP3 ADD MSTORE PUSH1 0x2E PUSH1 0x24 DUP3 ADD MSTORE PUSH32 0x556E617574686F72697A65643A204F6E6C79206174686C657465206F72206167 PUSH1 0x44 DUP3 ADD MSTORE PUSH14 0x656E742063616E20637265617465 PUSH1 0x90 SHL PUSH1 0x64 DUP3 ADD MSTORE PUSH1 0x84 ADD PUSH2 0x4CD JUMP JUMPDEST PUSH2 0x182B PUSH32 0x1597BC5E34FF090612F53164E4E642D2AB4FC78BFFE19ED1B602A0D12559561A DUP10 PUSH2 0x1BC0 JUMP JUMPDEST PUSH2 0x1877 JUMPI PUSH1 0x40 MLOAD PUSH3 0x461BCD PUSH1 0xE5 SHL DUP2 MSTORE PUSH1 0x20 PUSH1 0x4 DUP3 ADD MSTORE PUSH1 0x1E PUSH1 0x24 DUP3 ADD MSTORE PUSH32 0x53706F6E736F72206D75737420686176652053504F4E534F525F524F4C450000 PUSH1 0x44 DUP3 ADD MSTORE PUSH1 0x64 ADD PUSH2 0x4CD JUMP JUMPDEST DUP5 DUP5 GT PUSH2 0x18D0 JUMPI PUSH1 0x40 MLOAD PUSH3 0x461BCD PUSH1 0xE5 SHL DUP2 MSTORE PUSH1 0x20 PUSH1 0x4 DUP3 ADD MSTORE PUSH1 0x21 PUSH1 0x24 DUP3 ADD MSTORE PUSH32 0x456E642064617465206D75737420626520616674657220737461727420646174 PUSH1 0x44 DUP3 ADD MSTORE PUSH1 0x65 PUSH1 0xF8 SHL PUSH1 0x64 DUP3 ADD MSTORE PUSH1 0x84 ADD PUSH2 0x4CD JUMP JUMPDEST PUSH1 0x3 DUP1 SLOAD PUSH1 0x0 SWAP2 DUP3 PUSH2 0x18E1 DUP4 PUSH2 0x27E0 JUMP JUMPDEST SWAP1 SWAP2 SSTORE POP PUSH1 0x0 DUP2 DUP2 MSTORE PUSH1 0x2 PUSH1 0x20 DUP2 SWAP1 MSTORE PUSH1 0x40 SWAP1 SWAP2 KECCAK256 DUP1 SLOAD PUSH1 0x1 PUSH1 0x1 PUSH1 0xA0 SHL SUB DUP1 DUP16 AND PUSH1 0x1 PUSH1 0x1 PUSH1 0xA0 SHL SUB NOT SWAP3 DUP4 AND OR DUP4 SSTORE PUSH1 0x1 DUP4 ADD DUP1 SLOAD SWAP2 DUP16 AND SWAP2 SWAP1 SWAP3 AND OR SWAP1 SSTORE SWAP2 SWAP3 POP DUP2 ADD PUSH2 0x1931 DUP11 DUP3 PUSH2 0x26ED JUMP JUMPDEST POP PUSH1 0x3 DUP2 ADD DUP9 SWAP1 SSTORE PUSH1 0x4 DUP2 ADD DUP8 SWAP1 SSTORE PUSH1 0x5 DUP2 ADD DUP7 SWAP1 SSTORE PUSH1 0x6 DUP2 ADD DUP1 SLOAD PUSH1 0x1 PUSH1 0x1 PUSH1 0xA8 SHL SUB NOT AND PUSH2 0x100 PUSH1 0x1 PUSH1 0x1 PUSH1 0xA0 SHL SUB DUP9 AND MUL OR SWAP1 SSTORE DUP4 MLOAD PUSH2 0x197D SWAP1 PUSH1 0x8 DUP4 ADD SWAP1 PUSH1 0x20 DUP8 ADD SWAP1 PUSH2 0x1F6B JUMP JUMPDEST POP PUSH1 0x40 DUP1 MLOAD PUSH1 0x1 PUSH1 0x1 PUSH1 0xA0 SHL SUB DUP1 DUP15 AND DUP3 MSTORE DUP13 AND PUSH1 0x20 DUP3 ADD MSTORE DUP4 SWAP2 PUSH32 0x56560A52C047ED21FD801BF0F345B23D9AF696F7922FF8E63101AF5D48CADDAB SWAP2 ADD PUSH1 0x40 MLOAD DUP1 SWAP2 SUB SWAP1 LOG2 POP SWAP10 SWAP9 POP POP POP POP POP POP POP POP POP JUMP JUMPDEST PUSH1 0x0 DUP4 DUP2 MSTORE PUSH1 0x2 PUSH1 0x20 MSTORE PUSH1 0x40 SWAP1 KECCAK256 PUSH1 0x1 DUP2 ADD SLOAD PUSH1 0x1 PUSH1 0x1 PUSH1 0xA0 SHL SUB AND CALLER EQ PUSH2 0x1A45 JUMPI PUSH1 0x40 MLOAD PUSH3 0x461BCD PUSH1 0xE5 SHL DUP2 MSTORE PUSH1 0x20 PUSH1 0x4 DUP3 ADD MSTORE PUSH1 0x21 PUSH1 0x24 DUP3 ADD MSTORE PUSH32 0x4F6E6C792073706F6E736F722063616E2072656A656374206D696C6573746F6E PUSH1 0x44 DUP3 ADD MSTORE PUSH1 0x65 PUSH1 0xF8 SHL PUSH1 0x64 DUP3 ADD MSTORE PUSH1 0x84 ADD PUSH2 0x4CD JUMP JUMPDEST PUSH1 0x1 PUSH1 0x6 DUP3 ADD SLOAD PUSH1 0xFF AND PUSH1 0x4 DUP2 GT ISZERO PUSH2 0x1A60 JUMPI PUSH2 0x1A60 PUSH2 0x23BA JUMP JUMPDEST EQ PUSH2 0x1A7D JUMPI PUSH1 0x40 MLOAD PUSH3 0x461BCD PUSH1 0xE5 SHL DUP2 MSTORE PUSH1 0x4 ADD PUSH2 0x4CD SWAP1 PUSH2 0x25F3 JUMP JUMPDEST PUSH1 0x7 DUP2 ADD SLOAD DUP4 LT PUSH2 0x1AA0 JUMPI PUSH1 0x40 MLOAD PUSH3 0x461BCD PUSH1 0xE5 SHL DUP2 MSTORE PUSH1 0x4 ADD PUSH2 0x4CD SWAP1 PUSH2 0x2620 JUMP JUMPDEST PUSH1 0x0 DUP2 PUSH1 0x7 ADD DUP5 DUP2 SLOAD DUP2 LT PUSH2 0x1AB7 JUMPI PUSH2 0x1AB7 PUSH2 0x2657 JUMP JUMPDEST PUSH1 0x0 SWAP2 DUP3 MSTORE PUSH1 0x20 SWAP1 SWAP2 KECCAK256 PUSH1 0x6 SWAP1 SWAP2 MUL ADD SWAP1 POP PUSH1 0x1 PUSH1 0x3 DUP1 DUP4 ADD SLOAD PUSH1 0xFF AND SWAP1 DUP2 GT ISZERO PUSH2 0x1AE4 JUMPI PUSH2 0x1AE4 PUSH2 0x23BA JUMP JUMPDEST EQ PUSH2 0x1B2B JUMPI PUSH1 0x40 MLOAD PUSH3 0x461BCD PUSH1 0xE5 SHL DUP2 MSTORE PUSH1 0x20 PUSH1 0x4 DUP3 ADD MSTORE PUSH1 0x17 PUSH1 0x24 DUP3 ADD MSTORE PUSH23 0x135A5B195CDD1BDB99481B9BDD0818DBDB5C1B195D1959 PUSH1 0x4A SHL PUSH1 0x44 DUP3 ADD MSTORE PUSH1 0x64 ADD PUSH2 0x4CD JUMP JUMPDEST PUSH1 0x5 DUP2 ADD SLOAD PUSH1 0xFF AND ISZERO PUSH2 0x1B7B JUMPI PUSH1 0x40 MLOAD PUSH3 0x461BCD PUSH1 0xE5 SHL DUP2 MSTORE PUSH1 0x20 PUSH1 0x4 DUP3 ADD MSTORE PUSH1 0x18 PUSH1 0x24 DUP3 ADD MSTORE PUSH24 0x14185E5B595B9D08185B1C9958591E481C995B19585CD959 PUSH1 0x42 SHL PUSH1 0x44 DUP3 ADD MSTORE PUSH1 0x64 ADD PUSH2 0x4CD JUMP JUMPDEST PUSH1 0x3 DUP2 DUP2 ADD DUP1 SLOAD PUSH1 0xFF NOT AND PUSH1 0x1 DUP4 MUL OR SWAP1 SSTORE POP DUP5 PUSH32 0x2632A738857D774F3179ABEE0FA205787AEA133C8F6D4CBFE4E605028D3E8230 DUP6 DUP6 PUSH1 0x40 MLOAD PUSH2 0x62B SWAP3 SWAP2 SWAP1 PUSH2 0x2913 JUMP JUMPDEST PUSH1 0x0 SWAP2 DUP3 MSTORE PUSH1 0x20 DUP3 DUP2 MSTORE PUSH1 0x40 DUP1 DUP5 KECCAK256 PUSH1 0x1 PUSH1 0x1 PUSH1 0xA0 SHL SUB SWAP4 SWAP1 SWAP4 AND DUP5 MSTORE SWAP2 SWAP1 MSTORE SWAP1 KECCAK256 SLOAD PUSH1 0xFF AND SWAP1 JUMP JUMPDEST PUSH1 0x0 DUP3 DUP2 MSTORE PUSH1 0x20 DUP2 SWAP1 MSTORE PUSH1 0x40 SWAP1 KECCAK256 PUSH1 0x1 ADD SLOAD PUSH2 0x1C04 DUP2 PUSH2 0x1C67 JUMP JUMPDEST PUSH2 0xA1E DUP4 DUP4 PUSH2 0x1CF8 JUMP JUMPDEST PUSH1 0x2 PUSH1 0x1 SLOAD SUB PUSH2 0x1C60 JUMPI PUSH1 0x40 MLOAD PUSH3 0x461BCD PUSH1 0xE5 SHL DUP2 MSTORE PUSH1 0x20 PUSH1 0x4 DUP3 ADD MSTORE PUSH1 0x1F PUSH1 0x24 DUP3 ADD MSTORE PUSH32 0x5265656E7472616E637947756172643A207265656E7472616E742063616C6C00 PUSH1 0x44 DUP3 ADD MSTORE PUSH1 0x64 ADD PUSH2 0x4CD JUMP JUMPDEST PUSH1 0x2 PUSH1 0x1 SSTORE JUMP JUMPDEST PUSH2 0x1C71 DUP2 CALLER PUSH2 0x1D5D JUMP JUMPDEST POP JUMP JUMPDEST PUSH2 0x1C7E DUP3 DUP3 PUSH2 0x1BC0 JUMP JUMPDEST PUSH2 0x9F5 JUMPI PUSH1 0x0 DUP3 DUP2 MSTORE PUSH1 0x20 DUP2 DUP2 MSTORE PUSH1 0x40 DUP1 DUP4 KECCAK256 PUSH1 0x1 PUSH1 0x1 PUSH1 0xA0 SHL SUB DUP6 AND DUP5 MSTORE SWAP1 SWAP2 MSTORE SWAP1 KECCAK256 DUP1 SLOAD PUSH1 0xFF NOT AND PUSH1 0x1 OR SWAP1 SSTORE PUSH2 0x1CB4 CALLER SWAP1 JUMP JUMPDEST PUSH1 0x1 PUSH1 0x1 PUSH1 0xA0 SHL SUB AND DUP2 PUSH1 0x1 PUSH1 0x1 PUSH1 0xA0 SHL SUB AND DUP4 PUSH32 0x2F8788117E7EFF1D82E926EC794901D17C78024A50270940304540A733656F0D PUSH1 0x40 MLOAD PUSH1 0x40 MLOAD DUP1 SWAP2 SUB SWAP1 LOG4 POP POP JUMP JUMPDEST PUSH2 0x1D02 DUP3 DUP3 PUSH2 0x1BC0 JUMP JUMPDEST ISZERO PUSH2 0x9F5 JUMPI PUSH1 0x0 DUP3 DUP2 MSTORE PUSH1 0x20 DUP2 DUP2 MSTORE PUSH1 0x40 DUP1 DUP4 KECCAK256 PUSH1 0x1 PUSH1 0x1 PUSH1 0xA0 SHL SUB DUP6 AND DUP1 DUP6 MSTORE SWAP3 MSTORE DUP1 DUP4 KECCAK256 DUP1 SLOAD PUSH1 0xFF NOT AND SWAP1 SSTORE MLOAD CALLER SWAP3 DUP6 SWAP2 PUSH32 0xF6391F5C32D9C69D2A47EA670B442974B53935D1EDC7FD64EB21E047A839171B SWAP2 SWAP1 LOG4 POP POP JUMP JUMPDEST PUSH2 0x1D67 DUP3 DUP3 PUSH2 0x1BC0 JUMP JUMPDEST PUSH2 0x9F5 JUMPI PUSH2 0x1D74 DUP2 PUSH2 0x1DB6 JUMP JUMPDEST PUSH2 0x1D7F DUP4 PUSH1 0x20 PUSH2 0x1DC8 JUMP JUMPDEST PUSH1 0x40 MLOAD PUSH1 0x20 ADD PUSH2 0x1D90 SWAP3 SWAP2 SWAP1 PUSH2 0x2934 JUMP JUMPDEST PUSH1 0x40 DUP1 MLOAD PUSH1 0x1F NOT DUP2 DUP5 SUB ADD DUP2 MSTORE SWAP1 DUP3 SWAP1 MSTORE PUSH3 0x461BCD PUSH1 0xE5 SHL DUP3 MSTORE PUSH2 0x4CD SWAP2 PUSH1 0x4 ADD PUSH2 0x2900 JUMP JUMPDEST PUSH1 0x60 PUSH2 0x45A PUSH1 0x1 PUSH1 0x1 PUSH1 0xA0 SHL SUB DUP4 AND PUSH1 0x14 JUMPDEST PUSH1 0x60 PUSH1 0x0 PUSH2 0x1DD7 DUP4 PUSH1 0x2 PUSH2 0x29A9 JUMP JUMPDEST PUSH2 0x1DE2 SWAP1 PUSH1 0x2 PUSH2 0x2812 JUMP JUMPDEST PUSH8 0xFFFFFFFFFFFFFFFF DUP2 GT ISZERO PUSH2 0x1DFA JUMPI PUSH2 0x1DFA PUSH2 0x200F JUMP JUMPDEST PUSH1 0x40 MLOAD SWAP1 DUP1 DUP3 MSTORE DUP1 PUSH1 0x1F ADD PUSH1 0x1F NOT AND PUSH1 0x20 ADD DUP3 ADD PUSH1 0x40 MSTORE DUP1 ISZERO PUSH2 0x1E24 JUMPI PUSH1 0x20 DUP3 ADD DUP2 DUP1 CALLDATASIZE DUP4 CALLDATACOPY ADD SWAP1 POP JUMPDEST POP SWAP1 POP PUSH1 0x3 PUSH1 0xFC SHL DUP2 PUSH1 0x0 DUP2 MLOAD DUP2 LT PUSH2 0x1E3F JUMPI PUSH2 0x1E3F PUSH2 0x2657 JUMP JUMPDEST PUSH1 0x20 ADD ADD SWAP1 PUSH1 0x1 PUSH1 0x1 PUSH1 0xF8 SHL SUB NOT AND SWAP1 DUP2 PUSH1 0x0 BYTE SWAP1 MSTORE8 POP PUSH1 0xF PUSH1 0xFB SHL DUP2 PUSH1 0x1 DUP2 MLOAD DUP2 LT PUSH2 0x1E6E JUMPI PUSH2 0x1E6E PUSH2 0x2657 JUMP JUMPDEST PUSH1 0x20 ADD ADD SWAP1 PUSH1 0x1 PUSH1 0x1 PUSH1 0xF8 SHL SUB NOT AND SWAP1 DUP2 PUSH1 0x0 BYTE SWAP1 MSTORE8 POP PUSH1 0x0 PUSH2 0x1E92 DUP5 PUSH1 0x2 PUSH2 0x29A9 JUMP JUMPDEST PUSH2 0x1E9D SWAP1 PUSH1 0x1 PUSH2 0x2812 JUMP JUMPDEST SWAP1 POP JUMPDEST PUSH1 0x1 DUP2 GT ISZERO PUSH2 0x1F15 JUMPI PUSH16 0x181899199A1A9B1B9C1CB0B131B232B3 PUSH1 0x81 SHL DUP6 PUSH1 0xF AND PUSH1 0x10 DUP2 LT PUSH2 0x1ED1 JUMPI PUSH2 0x1ED1 PUSH2 0x2657 JUMP JUMPDEST BYTE PUSH1 0xF8 SHL DUP3 DUP3 DUP2 MLOAD DUP2 LT PUSH2 0x1EE7 JUMPI PUSH2 0x1EE7 PUSH2 0x2657 JUMP JUMPDEST PUSH1 0x20 ADD ADD SWAP1 PUSH1 0x1 PUSH1 0x1 PUSH1 0xF8 SHL SUB NOT AND SWAP1 DUP2 PUSH1 0x0 BYTE SWAP1 MSTORE8 POP PUSH1 0x4 SWAP5 SWAP1 SWAP5 SHR SWAP4 PUSH2 0x1F0E DUP2 PUSH2 0x29C0 JUMP JUMPDEST SWAP1 POP PUSH2 0x1EA0 JUMP JUMPDEST POP DUP4 ISZERO PUSH2 0x1F64 JUMPI PUSH1 0x40 MLOAD PUSH3 0x461BCD PUSH1 0xE5 SHL DUP2 MSTORE PUSH1 0x20 PUSH1 0x4 DUP3 ADD DUP2 SWAP1 MSTORE PUSH1 0x24 DUP3 ADD MSTORE PUSH32 0x537472696E67733A20686578206C656E67746820696E73756666696369656E74 PUSH1 0x44 DUP3 ADD MSTORE PUSH1 0x64 ADD PUSH2 0x4CD JUMP JUMPDEST SWAP4 SWAP3 POP POP POP JUMP JUMPDEST DUP3 DUP1 SLOAD DUP3 DUP3 SSTORE SWAP1 PUSH1 0x0 MSTORE PUSH1 0x20 PUSH1 0x0 KECCAK256 SWAP1 DUP2 ADD SWAP3 DUP3 ISZERO PUSH2 0x1FC0 JUMPI SWAP2 PUSH1 0x20 MUL DUP3 ADD JUMPDEST DUP3 DUP2 GT ISZERO PUSH2 0x1FC0 JUMPI DUP3 MLOAD DUP3 SLOAD PUSH1 0x1 PUSH1 0x1 PUSH1 0xA0 SHL SUB NOT AND PUSH1 0x1 PUSH1 0x1 PUSH1 0xA0 SHL SUB SWAP1 SWAP2 AND OR DUP3 SSTORE PUSH1 0x20 SWAP1 SWAP3 ADD SWAP2 PUSH1 0x1 SWAP1 SWAP2 ADD SWAP1 PUSH2 0x1F8B JUMP JUMPDEST POP PUSH2 0x1FCC SWAP3 SWAP2 POP PUSH2 0x1FD0 JUMP JUMPDEST POP SWAP1 JUMP JUMPDEST JUMPDEST DUP1 DUP3 GT ISZERO PUSH2 0x1FCC JUMPI PUSH1 0x0 DUP2 SSTORE PUSH1 0x1 ADD PUSH2 0x1FD1 JUMP JUMPDEST PUSH1 0x0 PUSH1 0x20 DUP3 DUP5 SUB SLT ISZERO PUSH2 0x1FF7 JUMPI PUSH1 0x0 DUP1 REVERT JUMPDEST DUP2 CALLDATALOAD PUSH1 0x1 PUSH1 0x1 PUSH1 0xE0 SHL SUB NOT DUP2 AND DUP2 EQ PUSH2 0x1F64 JUMPI PUSH1 0x0 DUP1 REVERT JUMPDEST PUSH4 0x4E487B71 PUSH1 0xE0 SHL PUSH1 0x0 MSTORE PUSH1 0x41 PUSH1 0x4 MSTORE PUSH1 0x24 PUSH1 0x0 REVERT JUMPDEST PUSH1 0x40 MLOAD PUSH1 0x1F DUP3 ADD PUSH1 0x1F NOT AND DUP2 ADD PUSH8 0xFFFFFFFFFFFFFFFF DUP2 GT DUP3 DUP3 LT OR ISZERO PUSH2 0x204E JUMPI PUSH2 0x204E PUSH2 0x200F JUMP JUMPDEST PUSH1 0x40 MSTORE SWAP2 SWAP1 POP JUMP JUMPDEST PUSH1 0x0 DUP3 PUSH1 0x1F DUP4 ADD SLT PUSH2 0x2067 JUMPI PUSH1 0x0 DUP1 REVERT JUMPDEST DUP2 CALLDATALOAD PUSH8 0xFFFFFFFFFFFFFFFF DUP2 GT ISZERO PUSH2 0x2081 JUMPI PUSH2 0x2081 PUSH2 0x200F JUMP JUMPDEST PUSH2 0x2094 PUSH1 0x1F DUP3 ADD PUSH1 0x1F NOT AND PUSH1 0x20 ADD PUSH2 0x2025 JUMP JUMPDEST DUP2 DUP2 MSTORE DUP5 PUSH1 0x20 DUP4 DUP7 ADD ADD GT ISZERO PUSH2 0x20A9 JUMPI PUSH1 0x0 DUP1 REVERT JUMPDEST DUP2 PUSH1 0x20 DUP6 ADD PUSH1 0x20 DUP4 ADD CALLDATACOPY PUSH1 0x0 SWAP2 DUP2 ADD PUSH1 0x20 ADD SWAP2 SWAP1 SWAP2 MSTORE SWAP4 SWAP3 POP POP POP JUMP JUMPDEST PUSH1 0x0 DUP1 PUSH1 0x0 PUSH1 0x60 DUP5 DUP7 SUB SLT ISZERO PUSH2 0x20DB JUMPI PUSH1 0x0 DUP1 REVERT JUMPDEST DUP4 CALLDATALOAD SWAP3 POP PUSH1 0x20 DUP5 ADD CALLDATALOAD SWAP2 POP PUSH1 0x40 DUP5 ADD CALLDATALOAD PUSH8 0xFFFFFFFFFFFFFFFF DUP2 GT ISZERO PUSH2 0x2100 JUMPI PUSH1 0x0 DUP1 REVERT JUMPDEST PUSH2 0x210C DUP7 DUP3 DUP8 ADD PUSH2 0x2056 JUMP JUMPDEST SWAP2 POP POP SWAP3 POP SWAP3 POP SWAP3 JUMP JUMPDEST PUSH1 0x0 DUP1 PUSH1 0x40 DUP4 DUP6 SUB SLT ISZERO PUSH2 0x2129 JUMPI PUSH1 0x0 DUP1 REVERT JUMPDEST POP POP DUP1 CALLDATALOAD SWAP3 PUSH1 0x20 SWAP1 SWAP2 ADD CALLDATALOAD SWAP2 POP JUMP JUMPDEST PUSH1 0x0 PUSH1 0x20 DUP3 DUP5 SUB SLT ISZERO PUSH2 0x214A JUMPI PUSH1 0x0 DUP1 REVERT JUMPDEST POP CALLDATALOAD SWAP2 SWAP1 POP JUMP JUMPDEST DUP1 CALLDATALOAD PUSH1 0x1 PUSH1 0x1 PUSH1 0xA0 SHL SUB DUP2 AND DUP2 EQ PUSH2 0x2168 JUMPI PUSH1 0x0 DUP1 REVERT JUMPDEST SWAP2 SWAP1 POP JUMP JUMPDEST PUSH1 0x0 DUP1 PUSH1 0x40 DUP4 DUP6 SUB SLT ISZERO PUSH2 0x2180 JUMPI PUSH1 0x0 DUP1 REVERT JUMPDEST DUP3 CALLDATALOAD SWAP2 POP PUSH2 0x2190 PUSH1 0x20 DUP5 ADD PUSH2 0x2151 JUMP JUMPDEST SWAP1 POP SWAP3 POP SWAP3 SWAP1 POP JUMP JUMPDEST DUP1 ISZERO ISZERO DUP2 EQ PUSH2 0x1C71 JUMPI PUSH1 0x0 DUP1 REVERT JUMPDEST PUSH1 0x0 DUP1 PUSH1 0x40 DUP4 DUP6 SUB SLT ISZERO PUSH2 0x21BA JUMPI PUSH1 0x0 DUP1 REVERT JUMPDEST DUP3 CALLDATALOAD SWAP2 POP PUSH1 0x20 DUP4 ADD CALLDATALOAD PUSH2 0x21CC DUP2 PUSH2 0x2199 JUMP JUMPDEST DUP1 SWAP2 POP POP SWAP3 POP SWAP3 SWAP1 POP JUMP JUMPDEST PUSH1 0x0 PUSH8 0xFFFFFFFFFFFFFFFF DUP3 GT ISZERO PUSH2 0x21F1 JUMPI PUSH2 0x21F1 PUSH2 0x200F JUMP JUMPDEST POP PUSH1 0x5 SHL PUSH1 0x20 ADD SWAP1 JUMP JUMPDEST PUSH1 0x0 DUP3 PUSH1 0x1F DUP4 ADD SLT PUSH2 0x220C JUMPI PUSH1 0x0 DUP1 REVERT JUMPDEST DUP2 CALLDATALOAD PUSH1 0x20 PUSH2 0x2221 PUSH2 0x221C DUP4 PUSH2 0x21D7 JUMP JUMPDEST PUSH2 0x2025 JUMP JUMPDEST DUP3 DUP2 MSTORE PUSH1 0x5 SWAP3 SWAP1 SWAP3 SHL DUP5 ADD DUP2 ADD SWAP2 DUP2 DUP2 ADD SWAP1 DUP7 DUP5 GT ISZERO PUSH2 0x2240 JUMPI PUSH1 0x0 DUP1 REVERT JUMPDEST DUP3 DUP7 ADD JUMPDEST DUP5 DUP2 LT ISZERO PUSH2 0x225B JUMPI DUP1 CALLDATALOAD DUP4 MSTORE SWAP2 DUP4 ADD SWAP2 DUP4 ADD PUSH2 0x2244 JUMP JUMPDEST POP SWAP7 SWAP6 POP POP POP POP POP POP JUMP JUMPDEST PUSH1 0x0 DUP1 PUSH1 0x0 DUP1 PUSH1 0x80 DUP6 DUP8 SUB SLT ISZERO PUSH2 0x227C JUMPI PUSH1 0x0 DUP1 REVERT JUMPDEST DUP5 CALLDATALOAD SWAP4 POP PUSH1 0x20 DUP1 DUP7 ADD CALLDATALOAD PUSH8 0xFFFFFFFFFFFFFFFF DUP1 DUP3 GT ISZERO PUSH2 0x229C JUMPI PUSH1 0x0 DUP1 REVERT JUMPDEST DUP2 DUP9 ADD SWAP2 POP DUP9 PUSH1 0x1F DUP4 ADD SLT PUSH2 0x22B0 JUMPI PUSH1 0x0 DUP1 REVERT JUMPDEST DUP2 CALLDATALOAD PUSH2 0x22BE PUSH2 0x221C DUP3 PUSH2 0x21D7 JUMP JUMPDEST DUP2 DUP2 MSTORE PUSH1 0x5 SWAP2 SWAP1 SWAP2 SHL DUP4 ADD DUP5 ADD SWAP1 DUP5 DUP2 ADD SWAP1 DUP12 DUP4 GT ISZERO PUSH2 0x22DD JUMPI PUSH1 0x0 DUP1 REVERT JUMPDEST DUP6 DUP6 ADD JUMPDEST DUP4 DUP2 LT ISZERO PUSH2 0x2315 JUMPI DUP1 CALLDATALOAD DUP6 DUP2 GT ISZERO PUSH2 0x22F9 JUMPI PUSH1 0x0 DUP1 DUP2 REVERT JUMPDEST PUSH2 0x2307 DUP15 DUP10 DUP4 DUP11 ADD ADD PUSH2 0x2056 JUMP JUMPDEST DUP5 MSTORE POP SWAP2 DUP7 ADD SWAP2 DUP7 ADD PUSH2 0x22E1 JUMP JUMPDEST POP SWAP8 POP POP POP PUSH1 0x40 DUP9 ADD CALLDATALOAD SWAP3 POP DUP1 DUP4 GT ISZERO PUSH2 0x232E JUMPI PUSH1 0x0 DUP1 REVERT JUMPDEST PUSH2 0x233A DUP10 DUP5 DUP11 ADD PUSH2 0x21FB JUMP JUMPDEST SWAP5 POP PUSH1 0x60 DUP9 ADD CALLDATALOAD SWAP3 POP DUP1 DUP4 GT ISZERO PUSH2 0x2350 JUMPI PUSH1 0x0 DUP1 REVERT JUMPDEST POP POP PUSH2 0x235E DUP8 DUP3 DUP9 ADD PUSH2 0x21FB JUMP JUMPDEST SWAP2 POP POP SWAP3 SWAP6 SWAP2 SWAP5 POP SWAP3 POP JUMP JUMPDEST PUSH1 0x0 JUMPDEST DUP4 DUP2 LT ISZERO PUSH2 0x2385 JUMPI DUP2 DUP2 ADD MLOAD DUP4 DUP3 ADD MSTORE PUSH1 0x20 ADD PUSH2 0x236D JUMP JUMPDEST POP POP PUSH1 0x0 SWAP2 ADD MSTORE JUMP JUMPDEST PUSH1 0x0 DUP2 MLOAD DUP1 DUP5 MSTORE PUSH2 0x23A6 DUP2 PUSH1 0x20 DUP7 ADD PUSH1 0x20 DUP7 ADD PUSH2 0x236A JUMP JUMPDEST PUSH1 0x1F ADD PUSH1 0x1F NOT AND SWAP3 SWAP1 SWAP3 ADD PUSH1 0x20 ADD SWAP3 SWAP2 POP POP JUMP JUMPDEST PUSH4 0x4E487B71 PUSH1 0xE0 SHL PUSH1 0x0 MSTORE PUSH1 0x21 PUSH1 0x4 MSTORE PUSH1 0x24 PUSH1 0x0 REVERT JUMPDEST PUSH1 0x1 PUSH1 0x1 PUSH1 0xA0 SHL SUB DUP10 DUP2 AND DUP3 MSTORE DUP9 DUP2 AND PUSH1 0x20 DUP4 ADD MSTORE PUSH2 0x100 PUSH1 0x40 DUP4 ADD DUP2 SWAP1 MSTORE PUSH1 0x0 SWAP2 PUSH2 0x23FE DUP5 DUP4 ADD DUP12 PUSH2 0x238E JUMP JUMPDEST SWAP3 POP DUP9 PUSH1 0x60 DUP6 ADD MSTORE DUP8 PUSH1 0x80 DUP6 ADD MSTORE DUP7 PUSH1 0xA0 DUP6 ADD MSTORE PUSH1 0x5 DUP7 LT PUSH2 0x2422 JUMPI PUSH2 0x2422 PUSH2 0x23BA JUMP JUMPDEST DUP6 PUSH1 0xC0 DUP6 ADD MSTORE DUP1 DUP6 AND PUSH1 0xE0 DUP6 ADD MSTORE POP POP SWAP10 SWAP9 POP POP POP POP POP POP POP POP POP JUMP JUMPDEST PUSH1 0x0 DUP1 PUSH1 0x40 DUP4 DUP6 SUB SLT ISZERO PUSH2 0x2452 JUMPI PUSH1 0x0 DUP1 REVERT JUMPDEST DUP3 CALLDATALOAD SWAP2 POP PUSH1 0x20 DUP4 ADD CALLDATALOAD PUSH8 0xFFFFFFFFFFFFFFFF DUP2 GT ISZERO PUSH2 0x2470 JUMPI PUSH1 0x0 DUP1 REVERT JUMPDEST PUSH2 0x247C DUP6 DUP3 DUP7 ADD PUSH2 0x2056 JUMP JUMPDEST SWAP2 POP POP SWAP3 POP SWAP3 SWAP1 POP JUMP JUMPDEST PUSH1 0xC0 DUP2 MSTORE PUSH1 0x0 PUSH2 0x2499 PUSH1 0xC0 DUP4 ADD DUP10 PUSH2 0x238E JUMP JUMPDEST DUP8 PUSH1 0x20 DUP5 ADD MSTORE DUP7 PUSH1 0x40 DUP5 ADD MSTORE PUSH1 0x4 DUP7 LT PUSH2 0x24B5 JUMPI PUSH2 0x24B5 PUSH2 0x23BA JUMP JUMPDEST DUP6 PUSH1 0x60 DUP5 ADD MSTORE DUP3 DUP2 SUB PUSH1 0x80 DUP5 ADD MSTORE PUSH2 0x24CD DUP2 DUP7 PUSH2 0x238E JUMP JUMPDEST SWAP2 POP POP DUP3 ISZERO ISZERO PUSH1 0xA0 DUP4 ADD MSTORE SWAP8 SWAP7 POP POP POP POP POP POP POP JUMP JUMPDEST PUSH1 0x0 DUP1 PUSH1 0x0 DUP1 PUSH1 0x0 DUP1 PUSH1 0x0 DUP1 PUSH2 0x100 DUP10 DUP12 SUB SLT ISZERO PUSH2 0x2500 JUMPI PUSH1 0x0 DUP1 REVERT JUMPDEST PUSH2 0x2509 DUP10 PUSH2 0x2151 JUMP JUMPDEST SWAP8 POP PUSH1 0x20 PUSH2 0x2518 DUP2 DUP12 ADD PUSH2 0x2151 JUMP JUMPDEST SWAP8 POP PUSH1 0x40 DUP11 ADD CALLDATALOAD PUSH8 0xFFFFFFFFFFFFFFFF DUP1 DUP3 GT ISZERO PUSH2 0x2535 JUMPI PUSH1 0x0 DUP1 REVERT JUMPDEST PUSH2 0x2541 DUP14 DUP4 DUP15 ADD PUSH2 0x2056 JUMP JUMPDEST SWAP9 POP PUSH1 0x60 DUP13 ADD CALLDATALOAD SWAP8 POP PUSH1 0x80 DUP13 ADD CALLDATALOAD SWAP7 POP PUSH1 0xA0 DUP13 ADD CALLDATALOAD SWAP6 POP PUSH2 0x2564 PUSH1 0xC0 DUP14 ADD PUSH2 0x2151 JUMP JUMPDEST SWAP5 POP PUSH1 0xE0 DUP13 ADD CALLDATALOAD SWAP2 POP DUP1 DUP3 GT ISZERO PUSH2 0x257A JUMPI PUSH1 0x0 DUP1 REVERT JUMPDEST POP DUP11 ADD PUSH1 0x1F DUP2 ADD DUP13 SGT PUSH2 0x258C JUMPI PUSH1 0x0 DUP1 REVERT JUMPDEST DUP1 CALLDATALOAD PUSH2 0x259A PUSH2 0x221C DUP3 PUSH2 0x21D7 JUMP JUMPDEST DUP2 DUP2 MSTORE PUSH1 0x5 SWAP2 SWAP1 SWAP2 SHL DUP3 ADD DUP4 ADD SWAP1 DUP4 DUP2 ADD SWAP1 DUP15 DUP4 GT ISZERO PUSH2 0x25B9 JUMPI PUSH1 0x0 DUP1 REVERT JUMPDEST SWAP3 DUP5 ADD SWAP3 JUMPDEST DUP3 DUP5 LT ISZERO PUSH2 0x25DE JUMPI PUSH2 0x25CF DUP5 PUSH2 0x2151 JUMP JUMPDEST DUP3 MSTORE SWAP3 DUP5 ADD SWAP3 SWAP1 DUP5 ADD SWAP1 PUSH2 0x25BE JUMP JUMPDEST DUP1 SWAP6 POP POP POP POP POP POP SWAP3 SWAP6 SWAP9 POP SWAP3 SWAP6 SWAP9 SWAP1 SWAP4 SWAP7 POP JUMP JUMPDEST PUSH1 0x20 DUP1 DUP3 MSTORE PUSH1 0x13 SWAP1 DUP3 ADD MSTORE PUSH19 0x436F6E7472616374206E6F7420616374697665 PUSH1 0x68 SHL PUSH1 0x40 DUP3 ADD MSTORE PUSH1 0x60 ADD SWAP1 JUMP JUMPDEST PUSH1 0x20 DUP1 DUP3 MSTORE PUSH1 0x17 SWAP1 DUP3 ADD MSTORE PUSH32 0x496E76616C6964206D696C6573746F6E6520696E646578000000000000000000 PUSH1 0x40 DUP3 ADD MSTORE PUSH1 0x60 ADD SWAP1 JUMP JUMPDEST PUSH4 0x4E487B71 PUSH1 0xE0 SHL PUSH1 0x0 MSTORE PUSH1 0x32 PUSH1 0x4 MSTORE PUSH1 0x24 PUSH1 0x0 REVERT JUMPDEST PUSH1 0x1 DUP2 DUP2 SHR SWAP1 DUP3 AND DUP1 PUSH2 0x2681 JUMPI PUSH1 0x7F DUP3 AND SWAP2 POP JUMPDEST PUSH1 0x20 DUP3 LT DUP2 SUB PUSH2 0x26A1 JUMPI PUSH4 0x4E487B71 PUSH1 0xE0 SHL PUSH1 0x0 MSTORE PUSH1 0x22 PUSH1 0x4 MSTORE PUSH1 0x24 PUSH1 0x0 REVERT JUMPDEST POP SWAP2 SWAP1 POP JUMP JUMPDEST PUSH1 0x1F DUP3 GT ISZERO PUSH2 0xA1E JUMPI PUSH1 0x0 DUP2 DUP2 MSTORE PUSH1 0x20 DUP2 KECCAK256 PUSH1 0x1F DUP6 ADD PUSH1 0x5 SHR DUP2 ADD PUSH1 0x20 DUP7 LT ISZERO PUSH2 0x26CE JUMPI POP DUP1 JUMPDEST PUSH1 0x1F DUP6 ADD PUSH1 0x5 SHR DUP3 ADD SWAP2 POP JUMPDEST DUP2 DUP2 LT ISZERO PUSH2 0x11BB JUMPI DUP3 DUP2 SSTORE PUSH1 0x1 ADD PUSH2 0x26DA JUMP JUMPDEST DUP2 MLOAD PUSH8 0xFFFFFFFFFFFFFFFF DUP2 GT ISZERO PUSH2 0x2707 JUMPI PUSH2 0x2707 PUSH2 0x200F JUMP JUMPDEST PUSH2 0x271B DUP2 PUSH2 0x2715 DUP5 SLOAD PUSH2 0x266D JUMP JUMPDEST DUP5 PUSH2 0x26A7 JUMP JUMPDEST PUSH1 0x20 DUP1 PUSH1 0x1F DUP4 GT PUSH1 0x1 DUP2 EQ PUSH2 0x2750 JUMPI PUSH1 0x0 DUP5 ISZERO PUSH2 0x2738 JUMPI POP DUP6 DUP4 ADD MLOAD JUMPDEST PUSH1 0x0 NOT PUSH1 0x3 DUP7 SWAP1 SHL SHR NOT AND PUSH1 0x1 DUP6 SWAP1 SHL OR DUP6 SSTORE PUSH2 0x11BB JUMP JUMPDEST PUSH1 0x0 DUP6 DUP2 MSTORE PUSH1 0x20 DUP2 KECCAK256 PUSH1 0x1F NOT DUP7 AND SWAP2 JUMPDEST DUP3 DUP2 LT ISZERO PUSH2 0x277F JUMPI DUP9 DUP7 ADD MLOAD DUP3 SSTORE SWAP5 DUP5 ADD SWAP5 PUSH1 0x1 SWAP1 SWAP2 ADD SWAP1 DUP5 ADD PUSH2 0x2760 JUMP JUMPDEST POP DUP6 DUP3 LT ISZERO PUSH2 0x279D JUMPI DUP8 DUP6 ADD MLOAD PUSH1 0x0 NOT PUSH1 0x3 DUP9 SWAP1 SHL PUSH1 0xF8 AND SHR NOT AND DUP2 SSTORE JUMPDEST POP POP POP POP POP PUSH1 0x1 SWAP1 DUP2 SHL ADD SWAP1 SSTORE POP JUMP JUMPDEST PUSH1 0x0 PUSH1 0x20 DUP3 DUP5 SUB SLT ISZERO PUSH2 0x27BF JUMPI PUSH1 0x0 DUP1 REVERT JUMPDEST DUP2 MLOAD PUSH2 0x1F64 DUP2 PUSH2 0x2199 JUMP JUMPDEST PUSH4 0x4E487B71 PUSH1 0xE0 SHL PUSH1 0x0 MSTORE PUSH1 0x11 PUSH1 0x4 MSTORE PUSH1 0x24 PUSH1 0x0 REVERT JUMPDEST PUSH1 0x0 PUSH1 0x1 DUP3 ADD PUSH2 0x27F2 JUMPI PUSH2 0x27F2 PUSH2 0x27CA JUMP JUMPDEST POP PUSH1 0x1 ADD SWAP1 JUMP JUMPDEST PUSH1 0x0 PUSH1 0x20 DUP3 DUP5 SUB SLT ISZERO PUSH2 0x280B JUMPI PUSH1 0x0 DUP1 REVERT JUMPDEST POP MLOAD SWAP2 SWAP1 POP JUMP JUMPDEST DUP1 DUP3 ADD DUP1 DUP3 GT ISZERO PUSH2 0x45A JUMPI PUSH2 0x45A PUSH2 0x27CA JUMP JUMPDEST DUP2 DUP2 SUB PUSH2 0x2830 JUMPI POP POP JUMP JUMPDEST PUSH2 0x283A DUP3 SLOAD PUSH2 0x266D JUMP JUMPDEST PUSH8 0xFFFFFFFFFFFFFFFF DUP2 GT ISZERO PUSH2 0x2852 JUMPI PUSH2 0x2852 PUSH2 0x200F JUMP JUMPDEST PUSH2 0x2860 DUP2 PUSH2 0x2715 DUP5 SLOAD PUSH2 0x266D JUMP JUMPDEST PUSH1 0x0 PUSH1 0x1F DUP3 GT PUSH1 0x1 DUP2 EQ PUSH2 0x2894 JUMPI PUSH1 0x0 DUP4 ISZERO PUSH2 0x287C JUMPI POP DUP5 DUP3 ADD SLOAD JUMPDEST PUSH1 0x0 NOT PUSH1 0x3 DUP6 SWAP1 SHL SHR NOT AND PUSH1 0x1 DUP5 SWAP1 SHL OR DUP5 SSTORE PUSH2 0x28F9 JUMP JUMPDEST PUSH1 0x0 DUP6 DUP2 MSTORE PUSH1 0x20 SWAP1 KECCAK256 PUSH1 0x1F NOT DUP5 AND SWAP1 PUSH1 0x0 DUP7 DUP2 MSTORE PUSH1 0x20 SWAP1 KECCAK256 DUP5 JUMPDEST DUP4 DUP2 LT ISZERO PUSH2 0x28CE JUMPI DUP3 DUP7 ADD SLOAD DUP3 SSTORE PUSH1 0x1 SWAP6 DUP7 ADD SWAP6 SWAP1 SWAP2 ADD SWAP1 PUSH1 0x20 ADD PUSH2 0x28AE JUMP JUMPDEST POP DUP6 DUP4 LT ISZERO PUSH2 0x28EC JUMPI DUP2 DUP6 ADD SLOAD PUSH1 0x0 NOT PUSH1 0x3 DUP9 SWAP1 SHL PUSH1 0xF8 AND SHR NOT AND DUP2 SSTORE JUMPDEST POP POP POP PUSH1 0x1 DUP4 PUSH1 0x1 SHL ADD DUP5 SSTORE JUMPDEST POP POP POP POP POP JUMP JUMPDEST PUSH1 0x20 DUP2 MSTORE PUSH1 0x0 PUSH2 0x1F64 PUSH1 0x20 DUP4 ADD DUP5 PUSH2 0x238E JUMP JUMPDEST DUP3 DUP2 MSTORE PUSH1 0x40 PUSH1 0x20 DUP3 ADD MSTORE PUSH1 0x0 PUSH2 0x292C PUSH1 0x40 DUP4 ADD DUP5 PUSH2 0x238E JUMP JUMPDEST SWAP5 SWAP4 POP POP POP POP JUMP JUMPDEST PUSH32 0x416363657373436F6E74726F6C3A206163636F756E7420000000000000000000 DUP2 MSTORE PUSH1 0x0 DUP4 MLOAD PUSH2 0x296C DUP2 PUSH1 0x17 DUP6 ADD PUSH1 0x20 DUP9 ADD PUSH2 0x236A JUMP JUMPDEST PUSH17 0x1034B99036B4B9B9B4B733903937B6329 PUSH1 0x7D SHL PUSH1 0x17 SWAP2 DUP5 ADD SWAP2 DUP3 ADD MSTORE DUP4 MLOAD PUSH2 0x299D DUP2 PUSH1 0x28 DUP5 ADD PUSH1 0x20 DUP9 ADD PUSH2 0x236A JUMP JUMPDEST ADD PUSH1 0x28 ADD SWAP5 SWAP4 POP POP POP POP JUMP JUMPDEST DUP1 DUP3 MUL DUP2 ISZERO DUP3 DUP3 DIV DUP5 EQ OR PUSH2 0x45A JUMPI PUSH2 0x45A PUSH2 0x27CA JUMP JUMPDEST PUSH1 0x0 DUP2 PUSH2 0x29CF JUMPI PUSH2 0x29CF PUSH2 0x27CA JUMP JUMPDEST POP PUSH1 0x0 NOT ADD SWAP1 JUMP INVALID 0xCA 0xB5 LOG0 0xBF 0xE0 0xB7 SWAP14 0x2C 0x4B SHR 0x2E MUL MSIZE SWAP16 LOG0 DIFFICULTY 0xD1 ISZERO 0xB7 MLOAD 0x1F SWAP7 MSIZE ADDRESS PUSH29 0xB4276950967709A2646970667358221220147D5B0BEE03F5BC9F87234A 0xCF 0xB3 PUSH27 0x73CE39E597EFA9544836F051E0910EC7D464736F6C634300081100 CALLER PUSH1 0x80 PUSH1 0x40 MSTORE CALLVALUE DUP1 ISZERO PUSH3 0x11 JUMPI PUSH1 0x0 DUP1 REVERT JUMPDEST POP PUSH1 0x40 MLOAD DUP1 PUSH1 0x40 ADD PUSH1 0x40 MSTORE DUP1 PUSH1 0x13 DUP2 MSTORE PUSH1 0x20 ADD PUSH32 0x4174686C6574652053706F6E736F727368697000000000000000000000000000 DUP2 MSTORE POP PUSH1 0x40 MLOAD DUP1 PUSH1 0x40 ADD PUSH1 0x40 MSTORE DUP1 PUSH1 0x5 DUP2 MSTORE PUSH1 0x20 ADD PUSH5 0x20A9A827A7 PUSH1 0xD9 SHL DUP2 MSTORE POP DUP2 PUSH1 0x0 SWAP1 DUP2 PUSH3 0x77 SWAP2 SWAP1 PUSH3 0x214 JUMP JUMPDEST POP PUSH1 0x1 PUSH3 0x86 DUP3 DUP3 PUSH3 0x214 JUMP JUMPDEST POP PUSH3 0x98 SWAP2 POP PUSH1 0x0 SWAP1 POP CALLER PUSH3 0xCA JUMP JUMPDEST PUSH3 0xC4 PUSH32 0x9F2DF0FED2C77648DE5860A4CC508CD0818C85B8B8A1AB4CEEEF8D981C8956A6 CALLER PUSH3 0xCA JUMP JUMPDEST PUSH3 0x2E0 JUMP JUMPDEST PUSH1 0x0 DUP3 DUP2 MSTORE PUSH1 0xB PUSH1 0x20 SWAP1 DUP2 MSTORE PUSH1 0x40 DUP1 DUP4 KECCAK256 PUSH1 0x1 PUSH1 0x1 PUSH1 0xA0 SHL SUB DUP6 AND DUP5 MSTORE SWAP1 SWAP2 MSTORE SWAP1 KECCAK256 SLOAD PUSH1 0xFF AND PUSH3 0x16B JUMPI PUSH1 0x0 DUP3 DUP2 MSTORE PUSH1 0xB PUSH1 0x20 SWAP1 DUP2 MSTORE PUSH1 0x40 DUP1 DUP4 KECCAK256 PUSH1 0x1 PUSH1 0x1 PUSH1 0xA0 SHL SUB DUP6 AND DUP5 MSTORE SWAP1 SWAP2 MSTORE SWAP1 KECCAK256 DUP1 SLOAD PUSH1 0xFF NOT AND PUSH1 0x1 OR SWAP1 SSTORE PUSH3 0x12A CALLER SWAP1 JUMP JUMPDEST PUSH1 0x1 PUSH1 0x1 PUSH1 0xA0 SHL SUB AND DUP2 PUSH1 0x1 PUSH1 0x1 PUSH1 0xA0 SHL SUB AND DUP4 PUSH32 0x2F8788117E7EFF1D82E926EC794901D17C78024A50270940304540A733656F0D PUSH1 0x40 MLOAD PUSH1 0x40 MLOAD DUP1 SWAP2 SUB SWAP1 LOG4 JUMPDEST POP POP JUMP JUMPDEST PUSH4 0x4E487B71 PUSH1 0xE0 SHL PUSH1 0x0 MSTORE PUSH1 0x41 PUSH1 0x4 MSTORE PUSH1 0x24 PUSH1 0x0 REVERT JUMPDEST PUSH1 0x1 DUP2 DUP2 SHR SWAP1 DUP3 AND DUP1 PUSH3 0x19A JUMPI PUSH1 0x7F DUP3 AND SWAP2 POP JUMPDEST PUSH1 0x20 DUP3 LT DUP2 SUB PUSH3 0x1BB JUMPI PUSH4 0x4E487B71 PUSH1 0xE0 SHL PUSH1 0x0 MSTORE PUSH1 0x22 PUSH1 0x4 MSTORE PUSH1 0x24 PUSH1 0x0 REVERT JUMPDEST POP SWAP2 SWAP1 POP JUMP JUMPDEST PUSH1 0x1F DUP3 GT ISZERO PUSH3 0x20F JUMPI PUSH1 0x0 DUP2 DUP2 MSTORE PUSH1 0x20 DUP2 KECCAK256 PUSH1 0x1F DUP6 ADD PUSH1 0x5 SHR DUP2 ADD PUSH1 0x20 DUP7 LT ISZERO PUSH3 0x1EA JUMPI POP DUP1 JUMPDEST PUSH1 0x1F DUP6 ADD PUSH1 0x5 SHR DUP3 ADD SWAP2 POP JUMPDEST DUP2 DUP2 LT ISZERO PUSH3 0x20B JUMPI DUP3 DUP2 SSTORE PUSH1 0x1 ADD PUSH3 0x1F6 JUMP JUMPDEST POP POP POP JUMPDEST POP POP POP JUMP JUMPDEST DUP2 MLOAD PUSH1 0x1 PUSH1 0x1 PUSH1 0x40 SHL SUB DUP2 GT ISZERO PUSH3 0x230 JUMPI PUSH3 0x230 PUSH3 0x16F JUMP JUMPDEST PUSH3 0x248 DUP2 PUSH3 0x241 DUP5 SLOAD PUSH3 0x185 JUMP JUMPDEST DUP5 PUSH3 0x1C1 JUMP JUMPDEST PUSH1 0x20 DUP1 PUSH1 0x1F DUP4 GT PUSH1 0x1 DUP2 EQ PUSH3 0x280 JUMPI PUSH1 0x0 DUP5 ISZERO PUSH3 0x267 JUMPI POP DUP6 DUP4 ADD MLOAD JUMPDEST PUSH1 0x0 NOT PUSH1 0x3 DUP7 SWAP1 SHL SHR NOT AND PUSH1 0x1 DUP6 SWAP1 SHL OR DUP6 SSTORE PUSH3 0x20B JUMP JUMPDEST PUSH1 0x0 DUP6 DUP2 MSTORE PUSH1 0x20 DUP2 KECCAK256 PUSH1 0x1F NOT DUP7 AND SWAP2 JUMPDEST DUP3 DUP2 LT ISZERO PUSH3 0x2B1 JUMPI DUP9 DUP7 ADD MLOAD DUP3 SSTORE SWAP5 DUP5 ADD SWAP5 PUSH1 0x1 SWAP1 SWAP2 ADD SWAP1 DUP5 ADD PUSH3 0x290 JUMP JUMPDEST POP DUP6 DUP3 LT ISZERO PUSH3 0x2D0 JUMPI DUP8 DUP6 ADD MLOAD PUSH1 0x0 NOT PUSH1 0x3 DUP9 SWAP1 SHL PUSH1 0xF8 AND SHR NOT AND DUP2 SSTORE JUMPDEST POP POP POP POP POP PUSH1 0x1 SWAP1 DUP2 SHL ADD SWAP1 SSTORE POP JUMP JUMPDEST PUSH2 0x2643 DUP1 PUSH3 0x2F0 PUSH1 0x0 CODECOPY PUSH1 0x0 RETURN INVALID PUSH1 0x80 PUSH1 0x40 MSTORE CALLVALUE DUP1 ISZERO PUSH2 0x10 JUMPI PUSH1 0x0 DUP1 REVERT JUMPDEST POP PUSH1 0x4 CALLDATASIZE LT PUSH2 0x1CF JUMPI PUSH1 0x0 CALLDATALOAD PUSH1 0xE0 SHR DUP1 PUSH4 0x4F6CCCE7 GT PUSH2 0x104 JUMPI DUP1 PUSH4 0xA22CB465 GT PUSH2 0xA2 JUMPI DUP1 PUSH4 0xD5391393 GT PUSH2 0x71 JUMPI DUP1 PUSH4 0xD5391393 EQ PUSH2 0x404 JUMPI DUP1 PUSH4 0xD547741F EQ PUSH2 0x42B JUMPI DUP1 PUSH4 0xE985E9C5 EQ PUSH2 0x43E JUMPI DUP1 PUSH4 0xFC88210A EQ PUSH2 0x47A JUMPI PUSH1 0x0 DUP1 REVERT JUMPDEST DUP1 PUSH4 0xA22CB465 EQ PUSH2 0x3B8 JUMPI DUP1 PUSH4 0xB88D4FDE EQ PUSH2 0x3CB JUMPI DUP1 PUSH4 0xC27B1C82 EQ PUSH2 0x3DE JUMPI DUP1 PUSH4 0xC87B56DD EQ PUSH2 0x3F1 JUMPI PUSH1 0x0 DUP1 REVERT JUMPDEST DUP1 PUSH4 0x91D14854 GT PUSH2 0xDE JUMPI DUP1 PUSH4 0x91D14854 EQ PUSH2 0x382 JUMPI DUP1 PUSH4 0x93004916 EQ PUSH2 0x395 JUMPI DUP1 PUSH4 0x95D89B41 EQ PUSH2 0x3A8 JUMPI DUP1 PUSH4 0xA217FDDF EQ PUSH2 0x3B0 JUMPI PUSH1 0x0 DUP1 REVERT JUMPDEST DUP1 PUSH4 0x4F6CCCE7 EQ PUSH2 0x349 JUMPI DUP1 PUSH4 0x6352211E EQ PUSH2 0x35C JUMPI DUP1 PUSH4 0x70A08231 EQ PUSH2 0x36F JUMPI PUSH1 0x0 DUP1 REVERT JUMPDEST DUP1 PUSH4 0x23B872DD GT PUSH2 0x171 JUMPI DUP1 PUSH4 0x2F745C59 GT PUSH2 0x14B JUMPI DUP1 PUSH4 0x2F745C59 EQ PUSH2 0x2F0 JUMPI DUP1 PUSH4 0x36568ABE EQ PUSH2 0x303 JUMPI DUP1 PUSH4 0x40398D67 EQ PUSH2 0x316 JUMPI DUP1 PUSH4 0x42842E0E EQ PUSH2 0x336 JUMPI PUSH1 0x0 DUP1 REVERT JUMPDEST DUP1 PUSH4 0x23B872DD EQ PUSH2 0x2A7 JUMPI DUP1 PUSH4 0x248A9CA3 EQ PUSH2 0x2BA JUMPI DUP1 PUSH4 0x2F2FF15D EQ PUSH2 0x2DD JUMPI PUSH1 0x0 DUP1 REVERT JUMPDEST DUP1 PUSH4 0x81812FC GT PUSH2 0x1AD JUMPI DUP1 PUSH4 0x81812FC EQ PUSH2 0x23F JUMPI DUP1 PUSH4 0x95EA7B3 EQ PUSH2 0x26A JUMPI DUP1 PUSH4 0xF152E5D EQ PUSH2 0x27F JUMPI DUP1 PUSH4 0x18160DDD EQ PUSH2 0x29F JUMPI PUSH1 0x0 DUP1 REVERT JUMPDEST DUP1 PUSH4 0x1FFC9A7 EQ PUSH2 0x1D4 JUMPI DUP1 PUSH4 0x6474D12 EQ PUSH2 0x1FC JUMPI DUP1 PUSH4 0x6FDDE03 EQ PUSH2 0x22A JUMPI JUMPDEST PUSH1 0x0 DUP1 REVERT JUMPDEST PUSH2 0x1E7 PUSH2 0x1E2 CALLDATASIZE PUSH1 0x4 PUSH2 0x1E6E JUMP JUMPDEST PUSH2 0x48D JUMP JUMPDEST PUSH1 0x40 MLOAD SWAP1 ISZERO ISZERO DUP2 MSTORE PUSH1 0x20 ADD JUMPDEST PUSH1 0x40 MLOAD DUP1 SWAP2 SUB SWAP1 RETURN JUMPDEST PUSH2 0x21C PUSH2 0x20A CALLDATASIZE PUSH1 0x4 PUSH2 0x1E8B JUMP JUMPDEST PUSH1 0xE PUSH1 0x20 MSTORE PUSH1 0x0 SWAP1 DUP2 MSTORE PUSH1 0x40 SWAP1 KECCAK256 SLOAD DUP2 JUMP JUMPDEST PUSH1 0x40 MLOAD SWAP1 DUP2 MSTORE PUSH1 0x20 ADD PUSH2 0x1F3 JUMP JUMPDEST PUSH2 0x232 PUSH2 0x49E JUMP JUMPDEST PUSH1 0x40 MLOAD PUSH2 0x1F3 SWAP2 SWAP1 PUSH2 0x1EF4 JUMP JUMPDEST PUSH2 0x252 PUSH2 0x24D CALLDATASIZE PUSH1 0x4 PUSH2 0x1E8B JUMP JUMPDEST PUSH2 0x530 JUMP JUMPDEST PUSH1 0x40 MLOAD PUSH1 0x1 PUSH1 0x1 PUSH1 0xA0 SHL SUB SWAP1 SWAP2 AND DUP2 MSTORE PUSH1 0x20 ADD PUSH2 0x1F3 JUMP JUMPDEST PUSH2 0x27D PUSH2 0x278 CALLDATASIZE PUSH1 0x4 PUSH2 0x1F23 JUMP JUMPDEST PUSH2 0x557 JUMP JUMPDEST STOP JUMPDEST PUSH2 0x21C PUSH2 0x28D CALLDATASIZE PUSH1 0x4 PUSH2 0x1E8B JUMP JUMPDEST PUSH1 0xD PUSH1 0x20 MSTORE PUSH1 0x0 SWAP1 DUP2 MSTORE PUSH1 0x40 SWAP1 KECCAK256 SLOAD DUP2 JUMP JUMPDEST PUSH1 0x9 SLOAD PUSH2 0x21C JUMP JUMPDEST PUSH2 0x27D PUSH2 0x2B5 CALLDATASIZE PUSH1 0x4 PUSH2 0x1F4D JUMP JUMPDEST PUSH2 0x671 JUMP JUMPDEST PUSH2 0x21C PUSH2 0x2C8 CALLDATASIZE PUSH1 0x4 PUSH2 0x1E8B JUMP JUMPDEST PUSH1 0x0 SWAP1 DUP2 MSTORE PUSH1 0xB PUSH1 0x20 MSTORE PUSH1 0x40 SWAP1 KECCAK256 PUSH1 0x1 ADD SLOAD SWAP1 JUMP JUMPDEST PUSH2 0x27D PUSH2 0x2EB CALLDATASIZE PUSH1 0x4 PUSH2 0x1F89 JUMP JUMPDEST PUSH2 0x6A2 JUMP JUMPDEST PUSH2 0x21C PUSH2 0x2FE CALLDATASIZE PUSH1 0x4 PUSH2 0x1F23 JUMP JUMPDEST PUSH2 0x6C7 JUMP JUMPDEST PUSH2 0x27D PUSH2 0x311 CALLDATASIZE PUSH1 0x4 PUSH2 0x1F89 JUMP JUMPDEST PUSH2 0x75D JUMP JUMPDEST PUSH2 0x329 PUSH2 0x324 CALLDATASIZE PUSH1 0x4 PUSH2 0x1FB5 JUMP JUMPDEST PUSH2 0x7DB JUMP JUMPDEST PUSH1 0x40 MLOAD PUSH2 0x1F3 SWAP2 SWAP1 PUSH2 0x1FD0 JUMP JUMPDEST PUSH2 0x27D PUSH2 0x344 CALLDATASIZE PUSH1 0x4 PUSH2 0x1F4D JUMP JUMPDEST PUSH2 0x87D JUMP JUMPDEST PUSH2 0x21C PUSH2 0x357 CALLDATASIZE PUSH1 0x4 PUSH2 0x1E8B JUMP JUMPDEST PUSH2 0x898 JUMP JUMPDEST PUSH2 0x252 PUSH2 0x36A CALLDATASIZE PUSH1 0x4 PUSH2 0x1E8B JUMP JUMPDEST PUSH2 0x92B JUMP JUMPDEST PUSH2 0x21C PUSH2 0x37D CALLDATASIZE PUSH1 0x4 PUSH2 0x1FB5 JUMP JUMPDEST PUSH2 0x98B JUMP JUMPDEST PUSH2 0x1E7 PUSH2 0x390 CALLDATASIZE PUSH1 0x4 PUSH2 0x1F89 JUMP JUMPDEST PUSH2 0xA11 JUMP JUMPDEST PUSH2 0x27D PUSH2 0x3A3 CALLDATASIZE PUSH1 0x4 PUSH2 0x2014 JUMP JUMPDEST PUSH2 0xA3C JUMP JUMPDEST PUSH2 0x232 PUSH2 0xB48 JUMP JUMPDEST PUSH2 0x21C PUSH1 0x0 DUP2 JUMP JUMPDEST PUSH2 0x27D PUSH2 0x3C6 CALLDATASIZE PUSH1 0x4 PUSH2 0x2039 JUMP JUMPDEST PUSH2 0xB57 JUMP JUMPDEST PUSH2 0x27D PUSH2 0x3D9 CALLDATASIZE PUSH1 0x4 PUSH2 0x2101 JUMP JUMPDEST PUSH2 0xB62 JUMP JUMPDEST PUSH2 0x21C PUSH2 0x3EC CALLDATASIZE PUSH1 0x4 PUSH2 0x217D JUMP JUMPDEST PUSH2 0xB9A JUMP JUMPDEST PUSH2 0x232 PUSH2 0x3FF CALLDATASIZE PUSH1 0x4 PUSH2 0x1E8B JUMP JUMPDEST PUSH2 0xD15 JUMP JUMPDEST PUSH2 0x21C PUSH32 0x9F2DF0FED2C77648DE5860A4CC508CD0818C85B8B8A1AB4CEEEF8D981C8956A6 DUP2 JUMP JUMPDEST PUSH2 0x27D PUSH2 0x439 CALLDATASIZE PUSH1 0x4 PUSH2 0x1F89 JUMP JUMPDEST PUSH2 0xD20 JUMP JUMPDEST PUSH2 0x1E7 PUSH2 0x44C CALLDATASIZE PUSH1 0x4 PUSH2 0x220A JUMP JUMPDEST PUSH1 0x1 PUSH1 0x1 PUSH1 0xA0 SHL SUB SWAP2 DUP3 AND PUSH1 0x0 SWAP1 DUP2 MSTORE PUSH1 0x5 PUSH1 0x20 SWAP1 DUP2 MSTORE PUSH1 0x40 DUP1 DUP4 KECCAK256 SWAP4 SWAP1 SWAP5 AND DUP3 MSTORE SWAP2 SWAP1 SWAP2 MSTORE KECCAK256 SLOAD PUSH1 0xFF AND SWAP1 JUMP JUMPDEST PUSH2 0x21C PUSH2 0x488 CALLDATASIZE PUSH1 0x4 PUSH2 0x1E8B JUMP JUMPDEST PUSH2 0xD45 JUMP JUMPDEST PUSH1 0x0 PUSH2 0x498 DUP3 PUSH2 0xDA6 JUMP JUMPDEST SWAP3 SWAP2 POP POP JUMP JUMPDEST PUSH1 0x60 PUSH1 0x0 DUP1 SLOAD PUSH2 0x4AD SWAP1 PUSH2 0x2234 JUMP JUMPDEST DUP1 PUSH1 0x1F ADD PUSH1 0x20 DUP1 SWAP2 DIV MUL PUSH1 0x20 ADD PUSH1 0x40 MLOAD SWAP1 DUP2 ADD PUSH1 0x40 MSTORE DUP1 SWAP3 SWAP2 SWAP1 DUP2 DUP2 MSTORE PUSH1 0x20 ADD DUP3 DUP1 SLOAD PUSH2 0x4D9 SWAP1 PUSH2 0x2234 JUMP JUMPDEST DUP1 ISZERO PUSH2 0x526 JUMPI DUP1 PUSH1 0x1F LT PUSH2 0x4FB JUMPI PUSH2 0x100 DUP1 DUP4 SLOAD DIV MUL DUP4 MSTORE SWAP2 PUSH1 0x20 ADD SWAP2 PUSH2 0x526 JUMP JUMPDEST DUP3 ADD SWAP2 SWAP1 PUSH1 0x0 MSTORE PUSH1 0x20 PUSH1 0x0 KECCAK256 SWAP1 JUMPDEST DUP2 SLOAD DUP2 MSTORE SWAP1 PUSH1 0x1 ADD SWAP1 PUSH1 0x20 ADD DUP1 DUP4 GT PUSH2 0x509 JUMPI DUP3 SWAP1 SUB PUSH1 0x1F AND DUP3 ADD SWAP2 JUMPDEST POP POP POP POP POP SWAP1 POP SWAP1 JUMP JUMPDEST PUSH1 0x0 PUSH2 0x53B DUP3 PUSH2 0xDCB JUMP JUMPDEST POP PUSH1 0x0 SWAP1 DUP2 MSTORE PUSH1 0x4 PUSH1 0x20 MSTORE PUSH1 0x40 SWAP1 KECCAK256 SLOAD PUSH1 0x1 PUSH1 0x1 PUSH1 0xA0 SHL SUB AND SWAP1 JUMP JUMPDEST PUSH1 0x0 PUSH2 0x562 DUP3 PUSH2 0x92B JUMP JUMPDEST SWAP1 POP DUP1 PUSH1 0x1 PUSH1 0x1 PUSH1 0xA0 SHL SUB AND DUP4 PUSH1 0x1 PUSH1 0x1 PUSH1 0xA0 SHL SUB AND SUB PUSH2 0x5D4 JUMPI PUSH1 0x40 MLOAD PUSH3 0x461BCD PUSH1 0xE5 SHL DUP2 MSTORE PUSH1 0x20 PUSH1 0x4 DUP3 ADD MSTORE PUSH1 0x21 PUSH1 0x24 DUP3 ADD MSTORE PUSH32 0x4552433732313A20617070726F76616C20746F2063757272656E74206F776E65 PUSH1 0x44 DUP3 ADD MSTORE PUSH1 0x39 PUSH1 0xF9 SHL PUSH1 0x64 DUP3 ADD MSTORE PUSH1 0x84 ADD JUMPDEST PUSH1 0x40 MLOAD DUP1 SWAP2 SUB SWAP1 REVERT JUMPDEST CALLER PUSH1 0x1 PUSH1 0x1 PUSH1 0xA0 SHL SUB DUP3 AND EQ DUP1 PUSH2 0x5F0 JUMPI POP PUSH2 0x5F0 DUP2 CALLER PUSH2 0x44C JUMP JUMPDEST PUSH2 0x662 JUMPI PUSH1 0x40 MLOAD PUSH3 0x461BCD PUSH1 0xE5 SHL DUP2 MSTORE PUSH1 0x20 PUSH1 0x4 DUP3 ADD MSTORE PUSH1 0x3D PUSH1 0x24 DUP3 ADD MSTORE PUSH32 0x4552433732313A20617070726F76652063616C6C6572206973206E6F7420746F PUSH1 0x44 DUP3 ADD MSTORE PUSH32 0x6B656E206F776E6572206F7220617070726F76656420666F7220616C6C000000 PUSH1 0x64 DUP3 ADD MSTORE PUSH1 0x84 ADD PUSH2 0x5CB JUMP JUMPDEST PUSH2 0x66C DUP4 DUP4 PUSH2 0xE1E JUMP JUMPDEST POP POP POP JUMP JUMPDEST PUSH2 0x67B CALLER DUP3 PUSH2 0xE8C JUMP JUMPDEST PUSH2 0x697 JUMPI PUSH1 0x40 MLOAD PUSH3 0x461BCD PUSH1 0xE5 SHL DUP2 MSTORE PUSH1 0x4 ADD PUSH2 0x5CB SWAP1 PUSH2 0x226E JUMP JUMPDEST PUSH2 0x66C DUP4 DUP4 DUP4 PUSH2 0xF0B JUMP JUMPDEST PUSH1 0x0 DUP3 DUP2 MSTORE PUSH1 0xB PUSH1 0x20 MSTORE PUSH1 0x40 SWAP1 KECCAK256 PUSH1 0x1 ADD SLOAD PUSH2 0x6BD DUP2 PUSH2 0x107C JUMP JUMPDEST PUSH2 0x66C DUP4 DUP4 PUSH2 0x1086 JUMP JUMPDEST PUSH1 0x0 PUSH2 0x6D2 DUP4 PUSH2 0x98B JUMP JUMPDEST DUP3 LT PUSH2 0x734 JUMPI PUSH1 0x40 MLOAD PUSH3 0x461BCD PUSH1 0xE5 SHL DUP2 MSTORE PUSH1 0x20 PUSH1 0x4 DUP3 ADD MSTORE PUSH1 0x2B PUSH1 0x24 DUP3 ADD MSTORE PUSH32 0x455243373231456E756D657261626C653A206F776E657220696E646578206F75 PUSH1 0x44 DUP3 ADD MSTORE PUSH11 0x74206F6620626F756E6473 PUSH1 0xA8 SHL PUSH1 0x64 DUP3 ADD MSTORE PUSH1 0x84 ADD PUSH2 0x5CB JUMP JUMPDEST POP PUSH1 0x1 PUSH1 0x1 PUSH1 0xA0 SHL SUB SWAP2 SWAP1 SWAP2 AND PUSH1 0x0 SWAP1 DUP2 MSTORE PUSH1 0x7 PUSH1 0x20 SWAP1 DUP2 MSTORE PUSH1 0x40 DUP1 DUP4 KECCAK256 SWAP4 DUP4 MSTORE SWAP3 SWAP1 MSTORE KECCAK256 SLOAD SWAP1 JUMP JUMPDEST PUSH1 0x1 PUSH1 0x1 PUSH1 0xA0 SHL SUB DUP2 AND CALLER EQ PUSH2 0x7CD JUMPI PUSH1 0x40 MLOAD PUSH3 0x461BCD PUSH1 0xE5 SHL DUP2 MSTORE PUSH1 0x20 PUSH1 0x4 DUP3 ADD MSTORE PUSH1 0x2F PUSH1 0x24 DUP3 ADD MSTORE PUSH32 0x416363657373436F6E74726F6C3A2063616E206F6E6C792072656E6F756E6365 PUSH1 0x44 DUP3 ADD MSTORE PUSH15 0x103937B632B9903337B91039B2B633 PUSH1 0x89 SHL PUSH1 0x64 DUP3 ADD MSTORE PUSH1 0x84 ADD PUSH2 0x5CB JUMP JUMPDEST PUSH2 0x7D7 DUP3 DUP3 PUSH2 0x110C JUMP JUMPDEST POP POP JUMP JUMPDEST PUSH1 0x60 PUSH1 0x0 PUSH2 0x7E8 DUP4 PUSH2 0x98B JUMP JUMPDEST SWAP1 POP PUSH1 0x0 DUP2 PUSH8 0xFFFFFFFFFFFFFFFF DUP2 GT ISZERO PUSH2 0x805 JUMPI PUSH2 0x805 PUSH2 0x2075 JUMP JUMPDEST PUSH1 0x40 MLOAD SWAP1 DUP1 DUP3 MSTORE DUP1 PUSH1 0x20 MUL PUSH1 0x20 ADD DUP3 ADD PUSH1 0x40 MSTORE DUP1 ISZERO PUSH2 0x82E JUMPI DUP2 PUSH1 0x20 ADD PUSH1 0x20 DUP3 MUL DUP1 CALLDATASIZE DUP4 CALLDATACOPY ADD SWAP1 POP JUMPDEST POP SWAP1 POP PUSH1 0x0 JUMPDEST DUP3 DUP2 LT ISZERO PUSH2 0x875 JUMPI PUSH2 0x846 DUP6 DUP3 PUSH2 0x6C7 JUMP JUMPDEST DUP3 DUP3 DUP2 MLOAD DUP2 LT PUSH2 0x858 JUMPI PUSH2 0x858 PUSH2 0x22BB JUMP JUMPDEST PUSH1 0x20 SWAP1 DUP2 MUL SWAP2 SWAP1 SWAP2 ADD ADD MSTORE DUP1 PUSH2 0x86D DUP2 PUSH2 0x22E7 JUMP JUMPDEST SWAP2 POP POP PUSH2 0x834 JUMP JUMPDEST POP SWAP4 SWAP3 POP POP POP JUMP JUMPDEST PUSH2 0x66C DUP4 DUP4 DUP4 PUSH1 0x40 MLOAD DUP1 PUSH1 0x20 ADD PUSH1 0x40 MSTORE DUP1 PUSH1 0x0 DUP2 MSTORE POP PUSH2 0xB62 JUMP JUMPDEST PUSH1 0x0 PUSH2 0x8A3 PUSH1 0x9 SLOAD SWAP1 JUMP JUMPDEST DUP3 LT PUSH2 0x906 JUMPI PUSH1 0x40 MLOAD PUSH3 0x461BCD PUSH1 0xE5 SHL DUP2 MSTORE PUSH1 0x20 PUSH1 0x4 DUP3 ADD MSTORE PUSH1 0x2C PUSH1 0x24 DUP3 ADD MSTORE PUSH32 0x455243373231456E756D657261626C653A20676C6F62616C20696E646578206F PUSH1 0x44 DUP3 ADD MSTORE PUSH12 0x7574206F6620626F756E6473 PUSH1 0xA0 SHL PUSH1 0x64 DUP3 ADD MSTORE PUSH1 0x84 ADD PUSH2 0x5CB JUMP JUMPDEST PUSH1 0x9 DUP3 DUP2 SLOAD DUP2 LT PUSH2 0x919 JUMPI PUSH2 0x919 PUSH2 0x22BB JUMP JUMPDEST SWAP1 PUSH1 0x0 MSTORE PUSH1 0x20 PUSH1 0x0 KECCAK256 ADD SLOAD SWAP1 POP SWAP2 SWAP1 POP JUMP JUMPDEST PUSH1 0x0 DUP2 DUP2 MSTORE PUSH1 0x2 PUSH1 0x20 MSTORE PUSH1 0x40 DUP2 KECCAK256 SLOAD PUSH1 0x1 PUSH1 0x1 PUSH1 0xA0 SHL SUB AND DUP1 PUSH2 0x498 JUMPI PUSH1 0x40 MLOAD PUSH3 0x461BCD PUSH1 0xE5 SHL DUP2 MSTORE PUSH1 0x20 PUSH1 0x4 DUP3 ADD MSTORE PUSH1 0x18 PUSH1 0x24 DUP3 ADD MSTORE PUSH24 0x115490CDCC8C4E881A5B9D985B1A59081D1BDAD95B881251 PUSH1 0x42 SHL PUSH1 0x44 DUP3 ADD MSTORE PUSH1 0x64 ADD PUSH2 0x5CB JUMP JUMPDEST PUSH1 0x0 PUSH1 0x1 PUSH1 0x1 PUSH1 0xA0 SHL SUB DUP3 AND PUSH2 0x9F5 JUMPI PUSH1 0x40 MLOAD PUSH3 0x461BCD PUSH1 0xE5 SHL DUP2 MSTORE PUSH1 0x20 PUSH1 0x4 DUP3 ADD MSTORE PUSH1 0x29 PUSH1 0x24 DUP3 ADD MSTORE PUSH32 0x4552433732313A2061646472657373207A65726F206973206E6F742061207661 PUSH1 0x44 DUP3 ADD MSTORE PUSH9 0x3634B21037BBB732B9 PUSH1 0xB9 SHL PUSH1 0x64 DUP3 ADD MSTORE PUSH1 0x84 ADD PUSH2 0x5CB JUMP JUMPDEST POP PUSH1 0x1 PUSH1 0x1 PUSH1 0xA0 SHL SUB AND PUSH1 0x0 SWAP1 DUP2 MSTORE PUSH1 0x3 PUSH1 0x20 MSTORE PUSH1 0x40 SWAP1 KECCAK256 SLOAD SWAP1 JUMP JUMPDEST PUSH1 0x0 SWAP2 DUP3 MSTORE PUSH1 0xB PUSH1 0x20 SWAP1 DUP2 MSTORE PUSH1 0x40 DUP1 DUP5 KECCAK256 PUSH1 0x1 PUSH1 0x1 PUSH1 0xA0 SHL SUB SWAP4 SWAP1 SWAP4 AND DUP5 MSTORE SWAP2 SWAP1 MSTORE SWAP1 KECCAK256 SLOAD PUSH1 0xFF AND SWAP1 JUMP JUMPDEST PUSH2 0xA45 DUP4 PUSH2 0x1173 JUMP JUMPDEST PUSH2 0xA88 JUMPI PUSH1 0x40 MLOAD PUSH3 0x461BCD PUSH1 0xE5 SHL DUP2 MSTORE PUSH1 0x20 PUSH1 0x4 DUP3 ADD MSTORE PUSH1 0x14 PUSH1 0x24 DUP3 ADD MSTORE PUSH20 0x151BDAD95B88191BD95CC81B9BDD08195E1A5CDD PUSH1 0x62 SHL PUSH1 0x44 DUP3 ADD MSTORE PUSH1 0x64 ADD PUSH2 0x5CB JUMP JUMPDEST PUSH2 0xA91 DUP4 PUSH2 0x92B JUMP JUMPDEST PUSH1 0x1 PUSH1 0x1 PUSH1 0xA0 SHL SUB AND CALLER PUSH1 0x1 PUSH1 0x1 PUSH1 0xA0 SHL SUB AND EQ PUSH2 0xAFF JUMPI PUSH1 0x40 MLOAD PUSH3 0x461BCD PUSH1 0xE5 SHL DUP2 MSTORE PUSH1 0x20 PUSH1 0x4 DUP3 ADD MSTORE PUSH1 0x25 PUSH1 0x24 DUP3 ADD MSTORE PUSH32 0x4F6E6C7920746F6B656E206F776E65722063616E207265636F726420726F7961 PUSH1 0x44 DUP3 ADD MSTORE PUSH5 0x6C74696573 PUSH1 0xD8 SHL PUSH1 0x64 DUP3 ADD MSTORE PUSH1 0x84 ADD PUSH2 0x5CB JUMP JUMPDEST PUSH1 0x40 DUP1 MLOAD PUSH1 0x1 PUSH1 0x1 PUSH1 0xA0 SHL SUB DUP5 AND DUP2 MSTORE PUSH1 0x20 DUP2 ADD DUP4 SWAP1 MSTORE DUP5 SWAP2 PUSH32 0xF670029FC6F5302BABA881B4AE845D1453ACDF752B4C19ED81FE0FA6A686409B SWAP2 ADD PUSH1 0x40 MLOAD DUP1 SWAP2 SUB SWAP1 LOG2 POP POP POP JUMP JUMPDEST PUSH1 0x60 PUSH1 0x1 DUP1 SLOAD PUSH2 0x4AD SWAP1 PUSH2 0x2234 JUMP JUMPDEST PUSH2 0x7D7 CALLER DUP4 DUP4 PUSH2 0x1190 JUMP JUMPDEST PUSH2 0xB6C CALLER DUP4 PUSH2 0xE8C JUMP JUMPDEST PUSH2 0xB88 JUMPI PUSH1 0x40 MLOAD PUSH3 0x461BCD PUSH1 0xE5 SHL DUP2 MSTORE PUSH1 0x4 ADD PUSH2 0x5CB SWAP1 PUSH2 0x226E JUMP JUMPDEST PUSH2 0xB94 DUP5 DUP5 DUP5 DUP5 PUSH2 0x125E JUMP JUMPDEST POP POP POP POP JUMP JUMPDEST PUSH1 0x0 PUSH2 0xBC6 PUSH32 0x9F2DF0FED2C77648DE5860A4CC508CD0818C85B8B8A1AB4CEEEF8D981C8956A6 CALLER PUSH2 0xA11 JUMP JUMPDEST PUSH2 0xC0B JUMPI PUSH1 0x40 MLOAD PUSH3 0x461BCD PUSH1 0xE5 SHL DUP2 MSTORE PUSH1 0x20 PUSH1 0x4 DUP3 ADD MSTORE PUSH1 0x16 PUSH1 0x24 DUP3 ADD MSTORE PUSH22 0x21B0B63632B91034B9903737BA10309036B4B73A32B9 PUSH1 0x51 SHL PUSH1 0x44 DUP3 ADD MSTORE PUSH1 0x64 ADD PUSH2 0x5CB JUMP JUMPDEST PUSH1 0x0 DUP6 DUP2 MSTORE PUSH1 0xE PUSH1 0x20 MSTORE PUSH1 0x40 SWAP1 KECCAK256 SLOAD ISZERO PUSH2 0xC73 JUMPI PUSH1 0x40 MLOAD PUSH3 0x461BCD PUSH1 0xE5 SHL DUP2 MSTORE PUSH1 0x20 PUSH1 0x4 DUP3 ADD MSTORE PUSH1 0x24 DUP1 DUP3 ADD MSTORE PUSH32 0x4E465420616C7265616479206D696E74656420666F72207468697320636F6E74 PUSH1 0x44 DUP3 ADD MSTORE PUSH4 0x1C9858DD PUSH1 0xE2 SHL PUSH1 0x64 DUP3 ADD MSTORE PUSH1 0x84 ADD PUSH2 0x5CB JUMP JUMPDEST PUSH2 0xC81 PUSH1 0xC DUP1 SLOAD PUSH1 0x1 ADD SWAP1 SSTORE JUMP JUMPDEST PUSH1 0x0 PUSH2 0xC8C PUSH1 0xC SLOAD SWAP1 JUMP JUMPDEST SWAP1 POP PUSH2 0xC98 DUP8 DUP3 PUSH2 0x1291 JUMP JUMPDEST PUSH2 0xCA2 DUP2 DUP7 PUSH2 0x140C JUMP JUMPDEST PUSH1 0x0 DUP2 DUP2 MSTORE PUSH1 0xD PUSH1 0x20 SWAP1 DUP2 MSTORE PUSH1 0x40 DUP1 DUP4 KECCAK256 DUP10 SWAP1 SSTORE DUP9 DUP4 MSTORE PUSH1 0xE DUP3 MSTORE SWAP2 DUP3 SWAP1 KECCAK256 DUP4 SWAP1 SSTORE DUP2 MLOAD PUSH1 0x1 PUSH1 0x1 PUSH1 0xA0 SHL SUB DUP1 DUP9 AND DUP3 MSTORE DUP7 AND SWAP2 DUP2 ADD SWAP2 SWAP1 SWAP2 MSTORE DUP8 SWAP2 DUP4 SWAP2 PUSH32 0x55E9844E5F860996963C4A8A758E7E68642C5E59723728E1B09C9923698D927D SWAP2 ADD PUSH1 0x40 MLOAD DUP1 SWAP2 SUB SWAP1 LOG3 SWAP7 SWAP6 POP POP POP POP POP POP JUMP JUMPDEST PUSH1 0x60 PUSH2 0x498 DUP3 PUSH2 0x1490 JUMP JUMPDEST PUSH1 0x0 DUP3 DUP2 MSTORE PUSH1 0xB PUSH1 0x20 MSTORE PUSH1 0x40 SWAP1 KECCAK256 PUSH1 0x1 ADD SLOAD PUSH2 0xD3B DUP2 PUSH2 0x107C JUMP JUMPDEST PUSH2 0x66C DUP4 DUP4 PUSH2 0x110C JUMP JUMPDEST PUSH1 0x0 PUSH2 0xD50 DUP3 PUSH2 0x1173 JUMP JUMPDEST PUSH2 0xD93 JUMPI PUSH1 0x40 MLOAD PUSH3 0x461BCD PUSH1 0xE5 SHL DUP2 MSTORE PUSH1 0x20 PUSH1 0x4 DUP3 ADD MSTORE PUSH1 0x14 PUSH1 0x24 DUP3 ADD MSTORE PUSH20 0x151BDAD95B88191BD95CC81B9BDD08195E1A5CDD PUSH1 0x62 SHL PUSH1 0x44 DUP3 ADD MSTORE PUSH1 0x64 ADD PUSH2 0x5CB JUMP JUMPDEST POP PUSH1 0x0 SWAP1 DUP2 MSTORE PUSH1 0xD PUSH1 0x20 MSTORE PUSH1 0x40 SWAP1 KECCAK256 SLOAD SWAP1 JUMP JUMPDEST PUSH1 0x0 PUSH1 0x1 PUSH1 0x1 PUSH1 0xE0 SHL SUB NOT DUP3 AND PUSH4 0x7965DB0B PUSH1 0xE0 SHL EQ DUP1 PUSH2 0x498 JUMPI POP PUSH2 0x498 DUP3 PUSH2 0x1598 JUMP JUMPDEST PUSH2 0xDD4 DUP2 PUSH2 0x1173 JUMP JUMPDEST PUSH2 0xE1B JUMPI PUSH1 0x40 MLOAD PUSH3 0x461BCD PUSH1 0xE5 SHL DUP2 MSTORE PUSH1 0x20 PUSH1 0x4 DUP3 ADD MSTORE PUSH1 0x18 PUSH1 0x24 DUP3 ADD MSTORE PUSH24 0x115490CDCC8C4E881A5B9D985B1A59081D1BDAD95B881251 PUSH1 0x42 SHL PUSH1 0x44 DUP3 ADD MSTORE PUSH1 0x64 ADD PUSH2 0x5CB JUMP JUMPDEST POP JUMP JUMPDEST PUSH1 0x0 DUP2 DUP2 MSTORE PUSH1 0x4 PUSH1 0x20 MSTORE PUSH1 0x40 SWAP1 KECCAK256 DUP1 SLOAD PUSH1 0x1 PUSH1 0x1 PUSH1 0xA0 SHL SUB NOT AND PUSH1 0x1 PUSH1 0x1 PUSH1 0xA0 SHL SUB DUP5 AND SWAP1 DUP2 OR SWAP1 SWAP2 SSTORE DUP2 SWAP1 PUSH2 0xE53 DUP3 PUSH2 0x92B JUMP JUMPDEST PUSH1 0x1 PUSH1 0x1 PUSH1 0xA0 SHL SUB AND PUSH32 0x8C5BE1E5EBEC7D5BD14F71427D1E84F3DD0314C0F7B2291E5B200AC8C7C3B925 PUSH1 0x40 MLOAD PUSH1 0x40 MLOAD DUP1 SWAP2 SUB SWAP1 LOG4 POP POP JUMP JUMPDEST PUSH1 0x0 DUP1 PUSH2 0xE98 DUP4 PUSH2 0x92B JUMP JUMPDEST SWAP1 POP DUP1 PUSH1 0x1 PUSH1 0x1 PUSH1 0xA0 SHL SUB AND DUP5 PUSH1 0x1 PUSH1 0x1 PUSH1 0xA0 SHL SUB AND EQ DUP1 PUSH2 0xEDF JUMPI POP PUSH1 0x1 PUSH1 0x1 PUSH1 0xA0 SHL SUB DUP1 DUP3 AND PUSH1 0x0 SWAP1 DUP2 MSTORE PUSH1 0x5 PUSH1 0x20 SWAP1 DUP2 MSTORE PUSH1 0x40 DUP1 DUP4 KECCAK256 SWAP4 DUP9 AND DUP4 MSTORE SWAP3 SWAP1 MSTORE KECCAK256 SLOAD PUSH1 0xFF AND JUMPDEST DUP1 PUSH2 0xF03 JUMPI POP DUP4 PUSH1 0x1 PUSH1 0x1 PUSH1 0xA0 SHL SUB AND PUSH2 0xEF8 DUP5 PUSH2 0x530 JUMP JUMPDEST PUSH1 0x1 PUSH1 0x1 PUSH1 0xA0 SHL SUB AND EQ JUMPDEST SWAP5 SWAP4 POP POP POP POP JUMP JUMPDEST DUP3 PUSH1 0x1 PUSH1 0x1 PUSH1 0xA0 SHL SUB AND PUSH2 0xF1E DUP3 PUSH2 0x92B JUMP JUMPDEST PUSH1 0x1 PUSH1 0x1 PUSH1 0xA0 SHL SUB AND EQ PUSH2 0xF44 JUMPI PUSH1 0x40 MLOAD PUSH3 0x461BCD PUSH1 0xE5 SHL DUP2 MSTORE PUSH1 0x4 ADD PUSH2 0x5CB SWAP1 PUSH2 0x2300 JUMP JUMPDEST PUSH1 0x1 PUSH1 0x1 PUSH1 0xA0 SHL SUB DUP3 AND PUSH2 0xFA6 JUMPI PUSH1 0x40 MLOAD PUSH3 0x461BCD PUSH1 0xE5 SHL DUP2 MSTORE PUSH1 0x20 PUSH1 0x4 DUP3 ADD MSTORE PUSH1 0x24 DUP1 DUP3 ADD MSTORE PUSH32 0x4552433732313A207472616E7366657220746F20746865207A65726F20616464 PUSH1 0x44 DUP3 ADD MSTORE PUSH4 0x72657373 PUSH1 0xE0 SHL PUSH1 0x64 DUP3 ADD MSTORE PUSH1 0x84 ADD PUSH2 0x5CB JUMP JUMPDEST PUSH2 0xFB3 DUP4 DUP4 DUP4 PUSH1 0x1 PUSH2 0x15BD JUMP JUMPDEST DUP3 PUSH1 0x1 PUSH1 0x1 PUSH1 0xA0 SHL SUB AND PUSH2 0xFC6 DUP3 PUSH2 0x92B JUMP JUMPDEST PUSH1 0x1 PUSH1 0x1 PUSH1 0xA0 SHL SUB AND EQ PUSH2 0xFEC JUMPI PUSH1 0x40 MLOAD PUSH3 0x461BCD PUSH1 0xE5 SHL DUP2 MSTORE PUSH1 0x4 ADD PUSH2 0x5CB SWAP1 PUSH2 0x2300 JUMP JUMPDEST PUSH1 0x0 DUP2 DUP2 MSTORE PUSH1 0x4 PUSH1 0x20 SWAP1 DUP2 MSTORE PUSH1 0x40 DUP1 DUP4 KECCAK256 DUP1 SLOAD PUSH1 0x1 PUSH1 0x1 PUSH1 0xA0 SHL SUB NOT SWAP1 DUP2 AND SWAP1 SWAP2 SSTORE PUSH1 0x1 PUSH1 0x1 PUSH1 0xA0 SHL SUB DUP8 DUP2 AND DUP1 DUP7 MSTORE PUSH1 0x3 DUP6 MSTORE DUP4 DUP7 KECCAK256 DUP1 SLOAD PUSH1 0x0 NOT ADD SWAP1 SSTORE SWAP1 DUP8 AND DUP1 DUP7 MSTORE DUP4 DUP7 KECCAK256 DUP1 SLOAD PUSH1 0x1 ADD SWAP1 SSTORE DUP7 DUP7 MSTORE PUSH1 0x2 SWAP1 SWAP5 MSTORE DUP3 DUP6 KECCAK256 DUP1 SLOAD SWAP1 SWAP3 AND DUP5 OR SWAP1 SWAP2 SSTORE SWAP1 MLOAD DUP5 SWAP4 PUSH32 0xDDF252AD1BE2C89B69C2B068FC378DAA952BA7F163C4A11628F55A4DF523B3EF SWAP2 LOG4 POP POP POP JUMP JUMPDEST PUSH2 0xE1B DUP2 CALLER PUSH2 0x15C9 JUMP JUMPDEST PUSH2 0x1090 DUP3 DUP3 PUSH2 0xA11 JUMP JUMPDEST PUSH2 0x7D7 JUMPI PUSH1 0x0 DUP3 DUP2 MSTORE PUSH1 0xB PUSH1 0x20 SWAP1 DUP2 MSTORE PUSH1 0x40 DUP1 DUP4 KECCAK256 PUSH1 0x1 PUSH1 0x1 PUSH1 0xA0 SHL SUB DUP6 AND DUP5 MSTORE SWAP1 SWAP2 MSTORE SWAP1 KECCAK256 DUP1 SLOAD PUSH1 0xFF NOT AND PUSH1 0x1 OR SWAP1 SSTORE PUSH2 0x10C8 CALLER SWAP1 JUMP JUMPDEST PUSH1 0x1 PUSH1 0x1 PUSH1 0xA0 SHL SUB AND DUP2 PUSH1 0x1 PUSH1 0x1 PUSH1 0xA0 SHL SUB AND DUP4 PUSH32 0x2F8788117E7EFF1D82E926EC794901D17C78024A50270940304540A733656F0D PUSH1 0x40 MLOAD PUSH1 0x40 MLOAD DUP1 SWAP2 SUB SWAP1 LOG4 POP POP JUMP JUMPDEST PUSH2 0x1116 DUP3 DUP3 PUSH2 0xA11 JUMP JUMPDEST ISZERO PUSH2 0x7D7 JUMPI PUSH1 0x0 DUP3 DUP2 MSTORE PUSH1 0xB PUSH1 0x20 SWAP1 DUP2 MSTORE PUSH1 0x40 DUP1 DUP4 KECCAK256 PUSH1 0x1 PUSH1 0x1 PUSH1 0xA0 SHL SUB DUP6 AND DUP1 DUP6 MSTORE SWAP3 MSTORE DUP1 DUP4 KECCAK256 DUP1 SLOAD PUSH1 0xFF NOT AND SWAP1 SSTORE MLOAD CALLER SWAP3 DUP6 SWAP2 PUSH32 0xF6391F5C32D9C69D2A47EA670B442974B53935D1EDC7FD64EB21E047A839171B SWAP2 SWAP1 LOG4 POP POP JUMP JUMPDEST PUSH1 0x0 SWAP1 DUP2 MSTORE PUSH1 0x2 PUSH1 0x20 MSTORE PUSH1 0x40 SWAP1 KECCAK256 SLOAD PUSH1 0x1 PUSH1 0x1 PUSH1 0xA0 SHL SUB AND ISZERO ISZERO SWAP1 JUMP JUMPDEST DUP2 PUSH1 0x1 PUSH1 0x1 PUSH1 0xA0 SHL SUB AND DUP4 PUSH1 0x1 PUSH1 0x1 PUSH1 0xA0 SHL SUB AND SUB PUSH2 0x11F1 JUMPI PUSH1 0x40 MLOAD PUSH3 0x461BCD PUSH1 0xE5 SHL DUP2 MSTORE PUSH1 0x20 PUSH1 0x4 DUP3 ADD MSTORE PUSH1 0x19 PUSH1 0x24 DUP3 ADD MSTORE PUSH32 0x4552433732313A20617070726F766520746F2063616C6C657200000000000000 PUSH1 0x44 DUP3 ADD MSTORE PUSH1 0x64 ADD PUSH2 0x5CB JUMP JUMPDEST PUSH1 0x1 PUSH1 0x1 PUSH1 0xA0 SHL SUB DUP4 DUP2 AND PUSH1 0x0 DUP2 DUP2 MSTORE PUSH1 0x5 PUSH1 0x20 SWAP1 DUP2 MSTORE PUSH1 0x40 DUP1 DUP4 KECCAK256 SWAP5 DUP8 AND DUP1 DUP5 MSTORE SWAP5 DUP3 MSTORE SWAP2 DUP3 SWAP1 KECCAK256 DUP1 SLOAD PUSH1 0xFF NOT AND DUP7 ISZERO ISZERO SWAP1 DUP2 OR SWAP1 SWAP2 SSTORE SWAP2 MLOAD SWAP2 DUP3 MSTORE PUSH32 0x17307EAB39AB6107E8899845AD3D59BD9653F200F220920489CA2B5937696C31 SWAP2 ADD PUSH1 0x40 MLOAD DUP1 SWAP2 SUB SWAP1 LOG3 POP POP POP JUMP JUMPDEST PUSH2 0x1269 DUP5 DUP5 DUP5 PUSH2 0xF0B JUMP JUMPDEST PUSH2 0x1275 DUP5 DUP5 DUP5 DUP5 PUSH2 0x1622 JUMP JUMPDEST PUSH2 0xB94 JUMPI PUSH1 0x40 MLOAD PUSH3 0x461BCD PUSH1 0xE5 SHL DUP2 MSTORE PUSH1 0x4 ADD PUSH2 0x5CB SWAP1 PUSH2 0x2345 JUMP JUMPDEST PUSH1 0x1 PUSH1 0x1 PUSH1 0xA0 SHL SUB DUP3 AND PUSH2 0x12E7 JUMPI PUSH1 0x40 MLOAD PUSH3 0x461BCD PUSH1 0xE5 SHL DUP2 MSTORE PUSH1 0x20 PUSH1 0x4 DUP3 ADD DUP2 SWAP1 MSTORE PUSH1 0x24 DUP3 ADD MSTORE PUSH32 0x4552433732313A206D696E7420746F20746865207A65726F2061646472657373 PUSH1 0x44 DUP3 ADD MSTORE PUSH1 0x64 ADD PUSH2 0x5CB JUMP JUMPDEST PUSH2 0x12F0 DUP2 PUSH2 0x1173 JUMP JUMPDEST ISZERO PUSH2 0x133D JUMPI PUSH1 0x40 MLOAD PUSH3 0x461BCD PUSH1 0xE5 SHL DUP2 MSTORE PUSH1 0x20 PUSH1 0x4 DUP3 ADD MSTORE PUSH1 0x1C PUSH1 0x24 DUP3 ADD MSTORE PUSH32 0x4552433732313A20746F6B656E20616C7265616479206D696E74656400000000 PUSH1 0x44 DUP3 ADD MSTORE PUSH1 0x64 ADD PUSH2 0x5CB JUMP JUMPDEST PUSH2 0x134B PUSH1 0x0 DUP4 DUP4 PUSH1 0x1 PUSH2 0x15BD JUMP JUMPDEST PUSH2 0x1354 DUP2 PUSH2 0x1173 JUMP JUMPDEST ISZERO PUSH2 0x13A1 JUMPI PUSH1 0x40 MLOAD PUSH3 0x461BCD PUSH1 0xE5 SHL DUP2 MSTORE PUSH1 0x20 PUSH1 0x4 DUP3 ADD MSTORE PUSH1 0x1C PUSH1 0x24 DUP3 ADD MSTORE PUSH32 0x4552433732313A20746F6B656E20616C7265616479206D696E74656400000000 PUSH1 0x44 DUP3 ADD MSTORE PUSH1 0x64 ADD PUSH2 0x5CB JUMP JUMPDEST PUSH1 0x1 PUSH1 0x1 PUSH1 0xA0 SHL SUB DUP3 AND PUSH1 0x0 DUP2 DUP2 MSTORE PUSH1 0x3 PUSH1 0x20 SWAP1 DUP2 MSTORE PUSH1 0x40 DUP1 DUP4 KECCAK256 DUP1 SLOAD PUSH1 0x1 ADD SWAP1 SSTORE DUP5 DUP4 MSTORE PUSH1 0x2 SWAP1 SWAP2 MSTORE DUP1 DUP3 KECCAK256 DUP1 SLOAD PUSH1 0x1 PUSH1 0x1 PUSH1 0xA0 SHL SUB NOT AND DUP5 OR SWAP1 SSTORE MLOAD DUP4 SWAP3 SWAP2 SWAP1 PUSH32 0xDDF252AD1BE2C89B69C2B068FC378DAA952BA7F163C4A11628F55A4DF523B3EF SWAP1 DUP3 SWAP1 LOG4 POP POP JUMP JUMPDEST PUSH2 0x1415 DUP3 PUSH2 0x1173 JUMP JUMPDEST PUSH2 0x1478 JUMPI PUSH1 0x40 MLOAD PUSH3 0x461BCD PUSH1 0xE5 SHL DUP2 MSTORE PUSH1 0x20 PUSH1 0x4 DUP3 ADD MSTORE PUSH1 0x2E PUSH1 0x24 DUP3 ADD MSTORE PUSH32 0x45524337323155524953746F726167653A2055524920736574206F66206E6F6E PUSH1 0x44 DUP3 ADD MSTORE PUSH14 0x32BC34B9BA32B73A103A37B5B2B7 PUSH1 0x91 SHL PUSH1 0x64 DUP3 ADD MSTORE PUSH1 0x84 ADD PUSH2 0x5CB JUMP JUMPDEST PUSH1 0x0 DUP3 DUP2 MSTORE PUSH1 0x6 PUSH1 0x20 MSTORE PUSH1 0x40 SWAP1 KECCAK256 PUSH2 0x66C DUP3 DUP3 PUSH2 0x23E5 JUMP JUMPDEST PUSH1 0x60 PUSH2 0x149B DUP3 PUSH2 0xDCB JUMP JUMPDEST PUSH1 0x0 DUP3 DUP2 MSTORE PUSH1 0x6 PUSH1 0x20 MSTORE PUSH1 0x40 DUP2 KECCAK256 DUP1 SLOAD PUSH2 0x14B4 SWAP1 PUSH2 0x2234 JUMP JUMPDEST DUP1 PUSH1 0x1F ADD PUSH1 0x20 DUP1 SWAP2 DIV MUL PUSH1 0x20 ADD PUSH1 0x40 MLOAD SWAP1 DUP2 ADD PUSH1 0x40 MSTORE DUP1 SWAP3 SWAP2 SWAP1 DUP2 DUP2 MSTORE PUSH1 0x20 ADD DUP3 DUP1 SLOAD PUSH2 0x14E0 SWAP1 PUSH2 0x2234 JUMP JUMPDEST DUP1 ISZERO PUSH2 0x152D JUMPI DUP1 PUSH1 0x1F LT PUSH2 0x1502 JUMPI PUSH2 0x100 DUP1 DUP4 SLOAD DIV MUL DUP4 MSTORE SWAP2 PUSH1 0x20 ADD SWAP2 PUSH2 0x152D JUMP JUMPDEST DUP3 ADD SWAP2 SWAP1 PUSH1 0x0 MSTORE PUSH1 0x20 PUSH1 0x0 KECCAK256 SWAP1 JUMPDEST DUP2 SLOAD DUP2 MSTORE SWAP1 PUSH1 0x1 ADD SWAP1 PUSH1 0x20 ADD DUP1 DUP4 GT PUSH2 0x1510 JUMPI DUP3 SWAP1 SUB PUSH1 0x1F AND DUP3 ADD SWAP2 JUMPDEST POP POP POP POP POP SWAP1 POP PUSH1 0x0 PUSH2 0x154B PUSH1 0x40 DUP1 MLOAD PUSH1 0x20 DUP2 ADD SWAP1 SWAP2 MSTORE PUSH1 0x0 DUP2 MSTORE SWAP1 JUMP JUMPDEST SWAP1 POP DUP1 MLOAD PUSH1 0x0 SUB PUSH2 0x155D JUMPI POP SWAP3 SWAP2 POP POP JUMP JUMPDEST DUP2 MLOAD ISZERO PUSH2 0x158F JUMPI DUP1 DUP3 PUSH1 0x40 MLOAD PUSH1 0x20 ADD PUSH2 0x1577 SWAP3 SWAP2 SWAP1 PUSH2 0x24A5 JUMP JUMPDEST PUSH1 0x40 MLOAD PUSH1 0x20 DUP2 DUP4 SUB SUB DUP2 MSTORE SWAP1 PUSH1 0x40 MSTORE SWAP3 POP POP POP SWAP2 SWAP1 POP JUMP JUMPDEST PUSH2 0xF03 DUP5 PUSH2 0x1723 JUMP JUMPDEST PUSH1 0x0 PUSH1 0x1 PUSH1 0x1 PUSH1 0xE0 SHL SUB NOT DUP3 AND PUSH4 0x780E9D63 PUSH1 0xE0 SHL EQ DUP1 PUSH2 0x498 JUMPI POP PUSH2 0x498 DUP3 PUSH2 0x1797 JUMP JUMPDEST PUSH2 0xB94 DUP5 DUP5 DUP5 DUP5 PUSH2 0x17E7 JUMP JUMPDEST PUSH2 0x15D3 DUP3 DUP3 PUSH2 0xA11 JUMP JUMPDEST PUSH2 0x7D7 JUMPI PUSH2 0x15E0 DUP2 PUSH2 0x1927 JUMP JUMPDEST PUSH2 0x15EB DUP4 PUSH1 0x20 PUSH2 0x1939 JUMP JUMPDEST PUSH1 0x40 MLOAD PUSH1 0x20 ADD PUSH2 0x15FC SWAP3 SWAP2 SWAP1 PUSH2 0x24D4 JUMP JUMPDEST PUSH1 0x40 DUP1 MLOAD PUSH1 0x1F NOT DUP2 DUP5 SUB ADD DUP2 MSTORE SWAP1 DUP3 SWAP1 MSTORE PUSH3 0x461BCD PUSH1 0xE5 SHL DUP3 MSTORE PUSH2 0x5CB SWAP2 PUSH1 0x4 ADD PUSH2 0x1EF4 JUMP JUMPDEST PUSH1 0x0 PUSH1 0x1 PUSH1 0x1 PUSH1 0xA0 SHL SUB DUP5 AND EXTCODESIZE ISZERO PUSH2 0x1718 JUMPI PUSH1 0x40 MLOAD PUSH4 0xA85BD01 PUSH1 0xE1 SHL DUP2 MSTORE PUSH1 0x1 PUSH1 0x1 PUSH1 0xA0 SHL SUB DUP6 AND SWAP1 PUSH4 0x150B7A02 SWAP1 PUSH2 0x1666 SWAP1 CALLER SWAP1 DUP10 SWAP1 DUP9 SWAP1 DUP9 SWAP1 PUSH1 0x4 ADD PUSH2 0x2549 JUMP JUMPDEST PUSH1 0x20 PUSH1 0x40 MLOAD DUP1 DUP4 SUB DUP2 PUSH1 0x0 DUP8 GAS CALL SWAP3 POP POP POP DUP1 ISZERO PUSH2 0x16A1 JUMPI POP PUSH1 0x40 DUP1 MLOAD PUSH1 0x1F RETURNDATASIZE SWAP1 DUP2 ADD PUSH1 0x1F NOT AND DUP3 ADD SWAP1 SWAP3 MSTORE PUSH2 0x169E SWAP2 DUP2 ADD SWAP1 PUSH2 0x2586 JUMP JUMPDEST PUSH1 0x1 JUMPDEST PUSH2 0x16FE JUMPI RETURNDATASIZE DUP1 DUP1 ISZERO PUSH2 0x16CF JUMPI PUSH1 0x40 MLOAD SWAP2 POP PUSH1 0x1F NOT PUSH1 0x3F RETURNDATASIZE ADD AND DUP3 ADD PUSH1 0x40 MSTORE RETURNDATASIZE DUP3 MSTORE RETURNDATASIZE PUSH1 0x0 PUSH1 0x20 DUP5 ADD RETURNDATACOPY PUSH2 0x16D4 JUMP JUMPDEST PUSH1 0x60 SWAP2 POP JUMPDEST POP DUP1 MLOAD PUSH1 0x0 SUB PUSH2 0x16F6 JUMPI PUSH1 0x40 MLOAD PUSH3 0x461BCD PUSH1 0xE5 SHL DUP2 MSTORE PUSH1 0x4 ADD PUSH2 0x5CB SWAP1 PUSH2 0x2345 JUMP JUMPDEST DUP1 MLOAD DUP2 PUSH1 0x20 ADD REVERT JUMPDEST PUSH1 0x1 PUSH1 0x1 PUSH1 0xE0 SHL SUB NOT AND PUSH4 0xA85BD01 PUSH1 0xE1 SHL EQ SWAP1 POP PUSH2 0xF03 JUMP JUMPDEST POP PUSH1 0x1 SWAP5 SWAP4 POP POP POP POP JUMP JUMPDEST PUSH1 0x60 PUSH2 0x172E DUP3 PUSH2 0xDCB JUMP JUMPDEST PUSH1 0x0 PUSH2 0x1745 PUSH1 0x40 DUP1 MLOAD PUSH1 0x20 DUP2 ADD SWAP1 SWAP2 MSTORE PUSH1 0x0 DUP2 MSTORE SWAP1 JUMP JUMPDEST SWAP1 POP PUSH1 0x0 DUP2 MLOAD GT PUSH2 0x1765 JUMPI PUSH1 0x40 MLOAD DUP1 PUSH1 0x20 ADD PUSH1 0x40 MSTORE DUP1 PUSH1 0x0 DUP2 MSTORE POP PUSH2 0x1790 JUMP JUMPDEST DUP1 PUSH2 0x176F DUP5 PUSH2 0x1AD5 JUMP JUMPDEST PUSH1 0x40 MLOAD PUSH1 0x20 ADD PUSH2 0x1780 SWAP3 SWAP2 SWAP1 PUSH2 0x24A5 JUMP JUMPDEST PUSH1 0x40 MLOAD PUSH1 0x20 DUP2 DUP4 SUB SUB DUP2 MSTORE SWAP1 PUSH1 0x40 MSTORE JUMPDEST SWAP4 SWAP3 POP POP POP JUMP JUMPDEST PUSH1 0x0 PUSH1 0x1 PUSH1 0x1 PUSH1 0xE0 SHL SUB NOT DUP3 AND PUSH4 0x80AC58CD PUSH1 0xE0 SHL EQ DUP1 PUSH2 0x17C8 JUMPI POP PUSH1 0x1 PUSH1 0x1 PUSH1 0xE0 SHL SUB NOT DUP3 AND PUSH4 0x5B5E139F PUSH1 0xE0 SHL EQ JUMPDEST DUP1 PUSH2 0x498 JUMPI POP PUSH4 0x1FFC9A7 PUSH1 0xE0 SHL PUSH1 0x1 PUSH1 0x1 PUSH1 0xE0 SHL SUB NOT DUP4 AND EQ PUSH2 0x498 JUMP JUMPDEST PUSH2 0x17F3 DUP5 DUP5 DUP5 DUP5 PUSH2 0x1B68 JUMP JUMPDEST PUSH1 0x1 DUP2 GT ISZERO PUSH2 0x1862 JUMPI PUSH1 0x40 MLOAD PUSH3 0x461BCD PUSH1 0xE5 SHL DUP2 MSTORE PUSH1 0x20 PUSH1 0x4 DUP3 ADD MSTORE PUSH1 0x35 PUSH1 0x24 DUP3 ADD MSTORE PUSH32 0x455243373231456E756D657261626C653A20636F6E7365637574697665207472 PUSH1 0x44 DUP3 ADD MSTORE PUSH21 0x185B9CD9995C9CC81B9BDD081CDD5C1C1BDC9D1959 PUSH1 0x5A SHL PUSH1 0x64 DUP3 ADD MSTORE PUSH1 0x84 ADD PUSH2 0x5CB JUMP JUMPDEST DUP2 PUSH1 0x1 PUSH1 0x1 PUSH1 0xA0 SHL SUB DUP6 AND PUSH2 0x18BE JUMPI PUSH2 0x18B9 DUP2 PUSH1 0x9 DUP1 SLOAD PUSH1 0x0 DUP4 DUP2 MSTORE PUSH1 0xA PUSH1 0x20 MSTORE PUSH1 0x40 DUP2 KECCAK256 DUP3 SWAP1 SSTORE PUSH1 0x1 DUP3 ADD DUP4 SSTORE SWAP2 SWAP1 SWAP2 MSTORE PUSH32 0x6E1540171B6C0C960B71A7020D9F60077F6AF931A8BBF590DA0223DACF75C7AF ADD SSTORE JUMP JUMPDEST PUSH2 0x18E1 JUMP JUMPDEST DUP4 PUSH1 0x1 PUSH1 0x1 PUSH1 0xA0 SHL SUB AND DUP6 PUSH1 0x1 PUSH1 0x1 PUSH1 0xA0 SHL SUB AND EQ PUSH2 0x18E1 JUMPI PUSH2 0x18E1 DUP6 DUP3 PUSH2 0x1BF0 JUMP JUMPDEST PUSH1 0x1 PUSH1 0x1 PUSH1 0xA0 SHL SUB DUP5 AND PUSH2 0x18FD JUMPI PUSH2 0x18F8 DUP2 PUSH2 0x1C8D JUMP JUMPDEST PUSH2 0x1920 JUMP JUMPDEST DUP5 PUSH1 0x1 PUSH1 0x1 PUSH1 0xA0 SHL SUB AND DUP5 PUSH1 0x1 PUSH1 0x1 PUSH1 0xA0 SHL SUB AND EQ PUSH2 0x1920 JUMPI PUSH2 0x1920 DUP5 DUP3 PUSH2 0x1D3C JUMP JUMPDEST POP POP POP POP POP JUMP JUMPDEST PUSH1 0x60 PUSH2 0x498 PUSH1 0x1 PUSH1 0x1 PUSH1 0xA0 SHL SUB DUP4 AND PUSH1 0x14 JUMPDEST PUSH1 0x60 PUSH1 0x0 PUSH2 0x1948 DUP4 PUSH1 0x2 PUSH2 0x25A3 JUMP JUMPDEST PUSH2 0x1953 SWAP1 PUSH1 0x2 PUSH2 0x25BA JUMP JUMPDEST PUSH8 0xFFFFFFFFFFFFFFFF DUP2 GT ISZERO PUSH2 0x196B JUMPI PUSH2 0x196B PUSH2 0x2075 JUMP JUMPDEST PUSH1 0x40 MLOAD SWAP1 DUP1 DUP3 MSTORE DUP1 PUSH1 0x1F ADD PUSH1 0x1F NOT AND PUSH1 0x20 ADD DUP3 ADD PUSH1 0x40 MSTORE DUP1 ISZERO PUSH2 0x1995 JUMPI PUSH1 0x20 DUP3 ADD DUP2 DUP1 CALLDATASIZE DUP4 CALLDATACOPY ADD SWAP1 POP JUMPDEST POP SWAP1 POP PUSH1 0x3 PUSH1 0xFC SHL DUP2 PUSH1 0x0 DUP2 MLOAD DUP2 LT PUSH2 0x19B0 JUMPI PUSH2 0x19B0 PUSH2 0x22BB JUMP JUMPDEST PUSH1 0x20 ADD ADD SWAP1 PUSH1 0x1 PUSH1 0x1 PUSH1 0xF8 SHL SUB NOT AND SWAP1 DUP2 PUSH1 0x0 BYTE SWAP1 MSTORE8 POP PUSH1 0xF PUSH1 0xFB SHL DUP2 PUSH1 0x1 DUP2 MLOAD DUP2 LT PUSH2 0x19DF JUMPI PUSH2 0x19DF PUSH2 0x22BB JUMP JUMPDEST PUSH1 0x20 ADD ADD SWAP1 PUSH1 0x1 PUSH1 0x1 PUSH1 0xF8 SHL SUB NOT AND SWAP1 DUP2 PUSH1 0x0 BYTE SWAP1 MSTORE8 POP PUSH1 0x0 PUSH2 0x1A03 DUP5 PUSH1 0x2 PUSH2 0x25A3 JUMP JUMPDEST PUSH2 0x1A0E SWAP1 PUSH1 0x1 PUSH2 0x25BA JUMP JUMPDEST SWAP1 POP JUMPDEST PUSH1 0x1 DUP2 GT ISZERO PUSH2 0x1A86 JUMPI PUSH16 0x181899199A1A9B1B9C1CB0B131B232B3 PUSH1 0x81 SHL DUP6 PUSH1 0xF AND PUSH1 0x10 DUP2 LT PUSH2 0x1A42 JUMPI PUSH2 0x1A42 PUSH2 0x22BB JUMP JUMPDEST BYTE PUSH1 0xF8 SHL DUP3 DUP3 DUP2 MLOAD DUP2 LT PUSH2 0x1A58 JUMPI PUSH2 0x1A58 PUSH2 0x22BB JUMP JUMPDEST PUSH1 0x20 ADD ADD SWAP1 PUSH1 0x1 PUSH1 0x1 PUSH1 0xF8 SHL SUB NOT AND SWAP1 DUP2 PUSH1 0x0 BYTE SWAP1 MSTORE8 POP PUSH1 0x4 SWAP5 SWAP1 SWAP5 SHR SWAP4 PUSH2 0x1A7F DUP2 PUSH2 0x25CD JUMP JUMPDEST SWAP1 POP PUSH2 0x1A11 JUMP JUMPDEST POP DUP4 ISZERO PUSH2 0x1790 JUMPI PUSH1 0x40 MLOAD PUSH3 0x461BCD PUSH1 0xE5 SHL DUP2 MSTORE PUSH1 0x20 PUSH1 0x4 DUP3 ADD DUP2 SWAP1 MSTORE PUSH1 0x24 DUP3 ADD MSTORE PUSH32 0x537472696E67733A20686578206C656E67746820696E73756666696369656E74 PUSH1 0x44 DUP3 ADD MSTORE PUSH1 0x64 ADD PUSH2 0x5CB JUMP JUMPDEST PUSH1 0x60 PUSH1 0x0 PUSH2 0x1AE2 DUP4 PUSH2 0x1D80 JUMP JUMPDEST PUSH1 0x1 ADD SWAP1 POP PUSH1 0x0 DUP2 PUSH8 0xFFFFFFFFFFFFFFFF DUP2 GT ISZERO PUSH2 0x1B02 JUMPI PUSH2 0x1B02 PUSH2 0x2075 JUMP JUMPDEST PUSH1 0x40 MLOAD SWAP1 DUP1 DUP3 MSTORE DUP1 PUSH1 0x1F ADD PUSH1 0x1F NOT AND PUSH1 0x20 ADD DUP3 ADD PUSH1 0x40 MSTORE DUP1 ISZERO PUSH2 0x1B2C JUMPI PUSH1 0x20 DUP3 ADD DUP2 DUP1 CALLDATASIZE DUP4 CALLDATACOPY ADD SWAP1 POP JUMPDEST POP SWAP1 POP DUP2 DUP2 ADD PUSH1 0x20 ADD JUMPDEST PUSH1 0x0 NOT ADD PUSH16 0x181899199A1A9B1B9C1CB0B131B232B3 PUSH1 0x81 SHL PUSH1 0xA DUP7 MOD BYTE DUP2 MSTORE8 PUSH1 0xA DUP6 DIV SWAP5 POP DUP5 PUSH2 0x1B36 JUMPI POP SWAP4 SWAP3 POP POP POP JUMP JUMPDEST PUSH1 0x1 DUP2 GT ISZERO PUSH2 0xB94 JUMPI PUSH1 0x1 PUSH1 0x1 PUSH1 0xA0 SHL SUB DUP5 AND ISZERO PUSH2 0x1BAE JUMPI PUSH1 0x1 PUSH1 0x1 PUSH1 0xA0 SHL SUB DUP5 AND PUSH1 0x0 SWAP1 DUP2 MSTORE PUSH1 0x3 PUSH1 0x20 MSTORE PUSH1 0x40 DUP2 KECCAK256 DUP1 SLOAD DUP4 SWAP3 SWAP1 PUSH2 0x1BA8 SWAP1 DUP5 SWAP1 PUSH2 0x25E4 JUMP JUMPDEST SWAP1 SWAP2 SSTORE POP POP JUMPDEST PUSH1 0x1 PUSH1 0x1 PUSH1 0xA0 SHL SUB DUP4 AND ISZERO PUSH2 0xB94 JUMPI PUSH1 0x1 PUSH1 0x1 PUSH1 0xA0 SHL SUB DUP4 AND PUSH1 0x0 SWAP1 DUP2 MSTORE PUSH1 0x3 PUSH1 0x20 MSTORE PUSH1 0x40 DUP2 KECCAK256 DUP1 SLOAD DUP4 SWAP3 SWAP1 PUSH2 0x1BE5 SWAP1 DUP5 SWAP1 PUSH2 0x25BA JUMP JUMPDEST SWAP1 SWAP2 SSTORE POP POP POP POP POP POP JUMP JUMPDEST PUSH1 0x0 PUSH1 0x1 PUSH2 0x1BFD DUP5 PUSH2 0x98B JUMP JUMPDEST PUSH2 0x1C07 SWAP2 SWAP1 PUSH2 0x25E4 JUMP JUMPDEST PUSH1 0x0 DUP4 DUP2 MSTORE PUSH1 0x8 PUSH1 0x20 MSTORE PUSH1 0x40 SWAP1 KECCAK256 SLOAD SWAP1 SWAP2 POP DUP1 DUP3 EQ PUSH2 0x1C5A JUMPI PUSH1 0x1 PUSH1 0x1 PUSH1 0xA0 SHL SUB DUP5 AND PUSH1 0x0 SWAP1 DUP2 MSTORE PUSH1 0x7 PUSH1 0x20 SWAP1 DUP2 MSTORE PUSH1 0x40 DUP1 DUP4 KECCAK256 DUP6 DUP5 MSTORE DUP3 MSTORE DUP1 DUP4 KECCAK256 SLOAD DUP5 DUP5 MSTORE DUP2 DUP5 KECCAK256 DUP2 SWAP1 SSTORE DUP4 MSTORE PUSH1 0x8 SWAP1 SWAP2 MSTORE SWAP1 KECCAK256 DUP2 SWAP1 SSTORE JUMPDEST POP PUSH1 0x0 SWAP2 DUP3 MSTORE PUSH1 0x8 PUSH1 0x20 SWAP1 DUP2 MSTORE PUSH1 0x40 DUP1 DUP5 KECCAK256 DUP5 SWAP1 SSTORE PUSH1 0x1 PUSH1 0x1 PUSH1 0xA0 SHL SUB SWAP1 SWAP5 AND DUP4 MSTORE PUSH1 0x7 DUP2 MSTORE DUP4 DUP4 KECCAK256 SWAP2 DUP4 MSTORE MSTORE SWAP1 DUP2 KECCAK256 SSTORE JUMP JUMPDEST PUSH1 0x9 SLOAD PUSH1 0x0 SWAP1 PUSH2 0x1C9F SWAP1 PUSH1 0x1 SWAP1 PUSH2 0x25E4 JUMP JUMPDEST PUSH1 0x0 DUP4 DUP2 MSTORE PUSH1 0xA PUSH1 0x20 MSTORE PUSH1 0x40 DUP2 KECCAK256 SLOAD PUSH1 0x9 DUP1 SLOAD SWAP4 SWAP5 POP SWAP1 SWAP3 DUP5 SWAP1 DUP2 LT PUSH2 0x1CC7 JUMPI PUSH2 0x1CC7 PUSH2 0x22BB JUMP JUMPDEST SWAP1 PUSH1 0x0 MSTORE PUSH1 0x20 PUSH1 0x0 KECCAK256 ADD SLOAD SWAP1 POP DUP1 PUSH1 0x9 DUP4 DUP2 SLOAD DUP2 LT PUSH2 0x1CE8 JUMPI PUSH2 0x1CE8 PUSH2 0x22BB JUMP JUMPDEST PUSH1 0x0 SWAP2 DUP3 MSTORE PUSH1 0x20 DUP1 DUP4 KECCAK256 SWAP1 SWAP2 ADD SWAP3 SWAP1 SWAP3 SSTORE DUP3 DUP2 MSTORE PUSH1 0xA SWAP1 SWAP2 MSTORE PUSH1 0x40 DUP1 DUP3 KECCAK256 DUP5 SWAP1 SSTORE DUP6 DUP3 MSTORE DUP2 KECCAK256 SSTORE PUSH1 0x9 DUP1 SLOAD DUP1 PUSH2 0x1D20 JUMPI PUSH2 0x1D20 PUSH2 0x25F7 JUMP JUMPDEST PUSH1 0x1 SWAP1 SUB DUP2 DUP2 SWAP1 PUSH1 0x0 MSTORE PUSH1 0x20 PUSH1 0x0 KECCAK256 ADD PUSH1 0x0 SWAP1 SSTORE SWAP1 SSTORE POP POP POP POP JUMP JUMPDEST PUSH1 0x0 PUSH2 0x1D47 DUP4 PUSH2 0x98B JUMP JUMPDEST PUSH1 0x1 PUSH1 0x1 PUSH1 0xA0 SHL SUB SWAP1 SWAP4 AND PUSH1 0x0 SWAP1 DUP2 MSTORE PUSH1 0x7 PUSH1 0x20 SWAP1 DUP2 MSTORE PUSH1 0x40 DUP1 DUP4 KECCAK256 DUP7 DUP5 MSTORE DUP3 MSTORE DUP1 DUP4 KECCAK256 DUP6 SWAP1 SSTORE SWAP4 DUP3 MSTORE PUSH1 0x8 SWAP1 MSTORE SWAP2 SWAP1 SWAP2 KECCAK256 SWAP2 SWAP1 SWAP2 SSTORE POP JUMP JUMPDEST PUSH1 0x0 DUP1 PUSH19 0x184F03E93FF9F4DAA797ED6E38ED64BF6A1F01 PUSH1 0x40 SHL DUP4 LT PUSH2 0x1DBF JUMPI PUSH19 0x184F03E93FF9F4DAA797ED6E38ED64BF6A1F01 PUSH1 0x40 SHL DUP4 DIV SWAP3 POP PUSH1 0x40 ADD JUMPDEST PUSH14 0x4EE2D6D415B85ACEF8100000000 DUP4 LT PUSH2 0x1DEB JUMPI PUSH14 0x4EE2D6D415B85ACEF8100000000 DUP4 DIV SWAP3 POP PUSH1 0x20 ADD JUMPDEST PUSH7 0x2386F26FC10000 DUP4 LT PUSH2 0x1E09 JUMPI PUSH7 0x2386F26FC10000 DUP4 DIV SWAP3 POP PUSH1 0x10 ADD JUMPDEST PUSH4 0x5F5E100 DUP4 LT PUSH2 0x1E21 JUMPI PUSH4 0x5F5E100 DUP4 DIV SWAP3 POP PUSH1 0x8 ADD JUMPDEST PUSH2 0x2710 DUP4 LT PUSH2 0x1E35 JUMPI PUSH2 0x2710 DUP4 DIV SWAP3 POP PUSH1 0x4 ADD JUMPDEST PUSH1 0x64 DUP4 LT PUSH2 0x1E47 JUMPI PUSH1 0x64 DUP4 DIV SWAP3 POP PUSH1 0x2 ADD JUMPDEST PUSH1 0xA DUP4 LT PUSH2 0x498 JUMPI PUSH1 0x1 ADD SWAP3 SWAP2 POP POP JUMP JUMPDEST PUSH1 0x1 PUSH1 0x1 PUSH1 0xE0 SHL SUB NOT DUP2 AND DUP2 EQ PUSH2 0xE1B JUMPI PUSH1 0x0 DUP1 REVERT JUMPDEST PUSH1 0x0 PUSH1 0x20 DUP3 DUP5 SUB SLT ISZERO PUSH2 0x1E80 JUMPI PUSH1 0x0 DUP1 REVERT JUMPDEST DUP2 CALLDATALOAD PUSH2 0x1790 DUP2 PUSH2 0x1E58 JUMP JUMPDEST PUSH1 0x0 PUSH1 0x20 DUP3 DUP5 SUB SLT ISZERO PUSH2 0x1E9D JUMPI PUSH1 0x0 DUP1 REVERT JUMPDEST POP CALLDATALOAD SWAP2 SWAP1 POP JUMP JUMPDEST PUSH1 0x0 JUMPDEST DUP4 DUP2 LT ISZERO PUSH2 0x1EBF JUMPI DUP2 DUP2 ADD MLOAD DUP4 DUP3 ADD MSTORE PUSH1 0x20 ADD PUSH2 0x1EA7 JUMP JUMPDEST POP POP PUSH1 0x0 SWAP2 ADD MSTORE JUMP JUMPDEST PUSH1 0x0 DUP2 MLOAD DUP1 DUP5 MSTORE PUSH2 0x1EE0 DUP2 PUSH1 0x20 DUP7 ADD PUSH1 0x20 DUP7 ADD PUSH2 0x1EA4 JUMP JUMPDEST PUSH1 0x1F ADD PUSH1 0x1F NOT AND SWAP3 SWAP1 SWAP3 ADD PUSH1 0x20 ADD SWAP3 SWAP2 POP POP JUMP JUMPDEST PUSH1 0x20 DUP2 MSTORE PUSH1 0x0 PUSH2 0x1790 PUSH1 0x20 DUP4 ADD DUP5 PUSH2 0x1EC8 JUMP JUMPDEST DUP1 CALLDATALOAD PUSH1 0x1 PUSH1 0x1 PUSH1 0xA0 SHL SUB DUP2 AND DUP2 EQ PUSH2 0x1F1E JUMPI PUSH1 0x0 DUP1 REVERT JUMPDEST SWAP2 SWAP1 POP JUMP JUMPDEST PUSH1 0x0 DUP1 PUSH1 0x40 DUP4 DUP6 SUB SLT ISZERO PUSH2 0x1F36 JUMPI PUSH1 0x0 DUP1 REVERT JUMPDEST PUSH2 0x1F3F DUP4 PUSH2 0x1F07 JUMP JUMPDEST SWAP5 PUSH1 0x20 SWAP4 SWAP1 SWAP4 ADD CALLDATALOAD SWAP4 POP POP POP JUMP JUMPDEST PUSH1 0x0 DUP1 PUSH1 0x0 PUSH1 0x60 DUP5 DUP7 SUB SLT ISZERO PUSH2 0x1F62 JUMPI PUSH1 0x0 DUP1 REVERT JUMPDEST PUSH2 0x1F6B DUP5 PUSH2 0x1F07 JUMP JUMPDEST SWAP3 POP PUSH2 0x1F79 PUSH1 0x20 DUP6 ADD PUSH2 0x1F07 JUMP JUMPDEST SWAP2 POP PUSH1 0x40 DUP5 ADD CALLDATALOAD SWAP1 POP SWAP3 POP SWAP3 POP SWAP3 JUMP JUMPDEST PUSH1 0x0 DUP1 PUSH1 0x40 DUP4 DUP6 SUB SLT ISZERO PUSH2 0x1F9C JUMPI PUSH1 0x0 DUP1 REVERT JUMPDEST DUP3 CALLDATALOAD SWAP2 POP PUSH2 0x1FAC PUSH1 0x20 DUP5 ADD PUSH2 0x1F07 JUMP JUMPDEST SWAP1 POP SWAP3 POP SWAP3 SWAP1 POP JUMP JUMPDEST PUSH1 0x0 PUSH1 0x20 DUP3 DUP5 SUB SLT ISZERO PUSH2 0x1FC7 JUMPI PUSH1 0x0 DUP1 REVERT JUMPDEST PUSH2 0x1790 DUP3 PUSH2 0x1F07 JUMP JUMPDEST PUSH1 0x20 DUP1 DUP3 MSTORE DUP3 MLOAD DUP3 DUP3 ADD DUP2 SWAP1 MSTORE PUSH1 0x0 SWAP2 SWAP1 DUP5 DUP3 ADD SWAP1 PUSH1 0x40 DUP6 ADD SWAP1 DUP5 JUMPDEST DUP2 DUP2 LT ISZERO PUSH2 0x2008 JUMPI DUP4 MLOAD DUP4 MSTORE SWAP3 DUP5 ADD SWAP3 SWAP2 DUP5 ADD SWAP2 PUSH1 0x1 ADD PUSH2 0x1FEC JUMP JUMPDEST POP SWAP1 SWAP7 SWAP6 POP POP POP POP POP POP JUMP JUMPDEST PUSH1 0x0 DUP1 PUSH1 0x0 PUSH1 0x60 DUP5 DUP7 SUB SLT ISZERO PUSH2 0x2029 JUMPI PUSH1 0x0 DUP1 REVERT JUMPDEST DUP4 CALLDATALOAD SWAP3 POP PUSH2 0x1F79 PUSH1 0x20 DUP6 ADD PUSH2 0x1F07 JUMP JUMPDEST PUSH1 0x0 DUP1 PUSH1 0x40 DUP4 DUP6 SUB SLT ISZERO PUSH2 0x204C JUMPI PUSH1 0x0 DUP1 REVERT JUMPDEST PUSH2 0x2055 DUP4 PUSH2 0x1F07 JUMP JUMPDEST SWAP2 POP PUSH1 0x20 DUP4 ADD CALLDATALOAD DUP1 ISZERO ISZERO DUP2 EQ PUSH2 0x206A JUMPI PUSH1 0x0 DUP1 REVERT JUMPDEST DUP1 SWAP2 POP POP SWAP3 POP SWAP3 SWAP1 POP JUMP JUMPDEST PUSH4 0x4E487B71 PUSH1 0xE0 SHL PUSH1 0x0 MSTORE PUSH1 0x41 PUSH1 0x4 MSTORE PUSH1 0x24 PUSH1 0x0 REVERT JUMPDEST PUSH1 0x0 PUSH8 0xFFFFFFFFFFFFFFFF DUP1 DUP5 GT ISZERO PUSH2 0x20A6 JUMPI PUSH2 0x20A6 PUSH2 0x2075 JUMP JUMPDEST PUSH1 0x40 MLOAD PUSH1 0x1F DUP6 ADD PUSH1 0x1F NOT SWAP1 DUP2 AND PUSH1 0x3F ADD AND DUP2 ADD SWAP1 DUP3 DUP3 GT DUP2 DUP4 LT OR ISZERO PUSH2 0x20CE JUMPI PUSH2 0x20CE PUSH2 0x2075 JUMP JUMPDEST DUP2 PUSH1 0x40 MSTORE DUP1 SWAP4 POP DUP6 DUP2 MSTORE DUP7 DUP7 DUP7 ADD GT ISZERO PUSH2 0x20E7 JUMPI PUSH1 0x0 DUP1 REVERT JUMPDEST DUP6 DUP6 PUSH1 0x20 DUP4 ADD CALLDATACOPY PUSH1 0x0 PUSH1 0x20 DUP8 DUP4 ADD ADD MSTORE POP POP POP SWAP4 SWAP3 POP POP POP JUMP JUMPDEST PUSH1 0x0 DUP1 PUSH1 0x0 DUP1 PUSH1 0x80 DUP6 DUP8 SUB SLT ISZERO PUSH2 0x2117 JUMPI PUSH1 0x0 DUP1 REVERT JUMPDEST PUSH2 0x2120 DUP6 PUSH2 0x1F07 JUMP JUMPDEST SWAP4 POP PUSH2 0x212E PUSH1 0x20 DUP7 ADD PUSH2 0x1F07 JUMP JUMPDEST SWAP3 POP PUSH1 0x40 DUP6 ADD CALLDATALOAD SWAP2 POP PUSH1 0x60 DUP6 ADD CALLDATALOAD PUSH8 0xFFFFFFFFFFFFFFFF DUP2 GT ISZERO PUSH2 0x2151 JUMPI PUSH1 0x0 DUP1 REVERT JUMPDEST DUP6 ADD PUSH1 0x1F DUP2 ADD DUP8 SGT PUSH2 0x2162 JUMPI PUSH1 0x0 DUP1 REVERT JUMPDEST PUSH2 0x2171 DUP8 DUP3 CALLDATALOAD PUSH1 0x20 DUP5 ADD PUSH2 0x208B JUMP JUMPDEST SWAP2 POP POP SWAP3 SWAP6 SWAP2 SWAP5 POP SWAP3 POP JUMP JUMPDEST PUSH1 0x0 DUP1 PUSH1 0x0 DUP1 PUSH1 0x0 PUSH1 0xA0 DUP7 DUP9 SUB SLT ISZERO PUSH2 0x2195 JUMPI PUSH1 0x0 DUP1 REVERT JUMPDEST PUSH2 0x219E DUP7 PUSH2 0x1F07 JUMP JUMPDEST SWAP5 POP PUSH1 0x20 DUP7 ADD CALLDATALOAD SWAP4 POP PUSH1 0x40 DUP7 ADD CALLDATALOAD PUSH8 0xFFFFFFFFFFFFFFFF DUP2 GT ISZERO PUSH2 0x21C1 JUMPI PUSH1 0x0 DUP1 REVERT JUMPDEST DUP7 ADD PUSH1 0x1F DUP2 ADD DUP9 SGT PUSH2 0x21D2 JUMPI PUSH1 0x0 DUP1 REVERT JUMPDEST PUSH2 0x21E1 DUP9 DUP3 CALLDATALOAD PUSH1 0x20 DUP5 ADD PUSH2 0x208B JUMP JUMPDEST SWAP4 POP POP PUSH2 0x21F0 PUSH1 0x60 DUP8 ADD PUSH2 0x1F07 JUMP JUMPDEST SWAP2 POP PUSH2 0x21FE PUSH1 0x80 DUP8 ADD PUSH2 0x1F07 JUMP JUMPDEST SWAP1 POP SWAP3 SWAP6 POP SWAP3 SWAP6 SWAP1 SWAP4 POP JUMP JUMPDEST PUSH1 0x0 DUP1 PUSH1 0x40 DUP4 DUP6 SUB SLT ISZERO PUSH2 0x221D JUMPI PUSH1 0x0 DUP1 REVERT JUMPDEST PUSH2 0x2226 DUP4 PUSH2 0x1F07 JUMP JUMPDEST SWAP2 POP PUSH2 0x1FAC PUSH1 0x20 DUP5 ADD PUSH2 0x1F07 JUMP JUMPDEST PUSH1 0x1 DUP2 DUP2 SHR SWAP1 DUP3 AND DUP1 PUSH2 0x2248 JUMPI PUSH1 0x7F DUP3 AND SWAP2 POP JUMPDEST PUSH1 0x20 DUP3 LT DUP2 SUB PUSH2 0x2268 JUMPI PUSH4 0x4E487B71 PUSH1 0xE0 SHL PUSH1 0x0 MSTORE PUSH1 0x22 PUSH1 0x4 MSTORE PUSH1 0x24 PUSH1 0x0 REVERT JUMPDEST POP SWAP2 SWAP1 POP JUMP JUMPDEST PUSH1 0x20 DUP1 DUP3 MSTORE PUSH1 0x2D SWAP1 DUP3 ADD MSTORE PUSH32 0x4552433732313A2063616C6C6572206973206E6F7420746F6B656E206F776E65 PUSH1 0x40 DUP3 ADD MSTORE PUSH13 0x1C881BDC88185C1C1C9BDD9959 PUSH1 0x9A SHL PUSH1 0x60 DUP3 ADD MSTORE PUSH1 0x80 ADD SWAP1 JUMP JUMPDEST PUSH4 0x4E487B71 PUSH1 0xE0 SHL PUSH1 0x0 MSTORE PUSH1 0x32 PUSH1 0x4 MSTORE PUSH1 0x24 PUSH1 0x0 REVERT JUMPDEST PUSH4 0x4E487B71 PUSH1 0xE0 SHL PUSH1 0x0 MSTORE PUSH1 0x11 PUSH1 0x4 MSTORE PUSH1 0x24 PUSH1 0x0 REVERT JUMPDEST PUSH1 0x0 PUSH1 0x1 DUP3 ADD PUSH2 0x22F9 JUMPI PUSH2 0x22F9 PUSH2 0x22D1 JUMP JUMPDEST POP PUSH1 0x1 ADD SWAP1 JUMP JUMPDEST PUSH1 0x20 DUP1 DUP3 MSTORE PUSH1 0x25 SWAP1 DUP3 ADD MSTORE PUSH32 0x4552433732313A207472616E736665722066726F6D20696E636F727265637420 PUSH1 0x40 DUP3 ADD MSTORE PUSH5 0x37BBB732B9 PUSH1 0xD9 SHL PUSH1 0x60 DUP3 ADD MSTORE PUSH1 0x80 ADD SWAP1 JUMP JUMPDEST PUSH1 0x20 DUP1 DUP3 MSTORE PUSH1 0x32 SWAP1 DUP3 ADD MSTORE PUSH32 0x4552433732313A207472616E7366657220746F206E6F6E204552433732315265 PUSH1 0x40 DUP3 ADD MSTORE PUSH18 0x31B2B4BB32B91034B6B83632B6B2B73A32B9 PUSH1 0x71 SHL PUSH1 0x60 DUP3 ADD MSTORE PUSH1 0x80 ADD SWAP1 JUMP JUMPDEST PUSH1 0x1F DUP3 GT ISZERO PUSH2 0x66C JUMPI PUSH1 0x0 DUP2 DUP2 MSTORE PUSH1 0x20 DUP2 KECCAK256 PUSH1 0x1F DUP6 ADD PUSH1 0x5 SHR DUP2 ADD PUSH1 0x20 DUP7 LT ISZERO PUSH2 0x23BE JUMPI POP DUP1 JUMPDEST PUSH1 0x1F DUP6 ADD PUSH1 0x5 SHR DUP3 ADD SWAP2 POP JUMPDEST DUP2 DUP2 LT ISZERO PUSH2 0x23DD JUMPI DUP3 DUP2 SSTORE PUSH1 0x1 ADD PUSH2 0x23CA JUMP JUMPDEST POP POP POP POP POP POP JUMP JUMPDEST DUP2 MLOAD PUSH8 0xFFFFFFFFFFFFFFFF DUP2 GT ISZERO PUSH2 0x23FF JUMPI PUSH2 0x23FF PUSH2 0x2075 JUMP JUMPDEST PUSH2 0x2413 DUP2 PUSH2 0x240D DUP5 SLOAD PUSH2 0x2234 JUMP JUMPDEST DUP5 PUSH2 0x2397 JUMP JUMPDEST PUSH1 0x20 DUP1 PUSH1 0x1F DUP4 GT PUSH1 0x1 DUP2 EQ PUSH2 0x2448 JUMPI PUSH1 0x0 DUP5 ISZERO PUSH2 0x2430 JUMPI POP DUP6 DUP4 ADD MLOAD JUMPDEST PUSH1 0x0 NOT PUSH1 0x3 DUP7 SWAP1 SHL SHR NOT AND PUSH1 0x1 DUP6 SWAP1 SHL OR DUP6 SSTORE PUSH2 0x23DD JUMP JUMPDEST PUSH1 0x0 DUP6 DUP2 MSTORE PUSH1 0x20 DUP2 KECCAK256 PUSH1 0x1F NOT DUP7 AND SWAP2 JUMPDEST DUP3 DUP2 LT ISZERO PUSH2 0x2477 JUMPI DUP9 DUP7 ADD MLOAD DUP3 SSTORE SWAP5 DUP5 ADD SWAP5 PUSH1 0x1 SWAP1 SWAP2 ADD SWAP1 DUP5 ADD PUSH2 0x2458 JUMP JUMPDEST POP DUP6 DUP3 LT ISZERO PUSH2 0x2495 JUMPI DUP8 DUP6 ADD MLOAD PUSH1 0x0 NOT PUSH1 0x3 DUP9 SWAP1 SHL PUSH1 0xF8 AND SHR NOT AND DUP2 SSTORE JUMPDEST POP POP POP POP POP PUSH1 0x1 SWAP1 DUP2 SHL ADD SWAP1 SSTORE POP JUMP JUMPDEST PUSH1 0x0 DUP4 MLOAD PUSH2 0x24B7 DUP2 DUP5 PUSH1 0x20 DUP9 ADD PUSH2 0x1EA4 JUMP JUMPDEST DUP4 MLOAD SWAP1 DUP4 ADD SWAP1 PUSH2 0x24CB DUP2 DUP4 PUSH1 0x20 DUP9 ADD PUSH2 0x1EA4 JUMP JUMPDEST ADD SWAP5 SWAP4 POP POP POP POP JUMP JUMPDEST PUSH32 0x416363657373436F6E74726F6C3A206163636F756E7420000000000000000000 DUP2 MSTORE PUSH1 0x0 DUP4 MLOAD PUSH2 0x250C DUP2 PUSH1 0x17 DUP6 ADD PUSH1 0x20 DUP9 ADD PUSH2 0x1EA4 JUMP JUMPDEST PUSH17 0x1034B99036B4B9B9B4B733903937B6329 PUSH1 0x7D SHL PUSH1 0x17 SWAP2 DUP5 ADD SWAP2 DUP3 ADD MSTORE DUP4 MLOAD PUSH2 0x253D DUP2 PUSH1 0x28 DUP5 ADD PUSH1 0x20 DUP9 ADD PUSH2 0x1EA4 JUMP JUMPDEST ADD PUSH1 0x28 ADD SWAP5 SWAP4 POP POP POP POP JUMP JUMPDEST PUSH1 0x1 PUSH1 0x1 PUSH1 0xA0 SHL SUB DUP6 DUP2 AND DUP3 MSTORE DUP5 AND PUSH1 0x20 DUP3 ADD MSTORE PUSH1 0x40 DUP2 ADD DUP4 SWAP1 MSTORE PUSH1 0x80 PUSH1 0x60 DUP3 ADD DUP2 SWAP1 MSTORE PUSH1 0x0 SWAP1 PUSH2 0x257C SWAP1 DUP4 ADD DUP5 PUSH2 0x1EC8 JUMP JUMPDEST SWAP7 SWAP6 POP POP POP POP POP POP JUMP JUMPDEST PUSH1 0x0 PUSH1 0x20 DUP3 DUP5 SUB SLT ISZERO PUSH2 0x2598 JUMPI PUSH1 0x0 DUP1 REVERT JUMPDEST DUP2 MLOAD PUSH2 0x1790 DUP2 PUSH2 0x1E58 JUMP JUMPDEST DUP1 DUP3 MUL DUP2 ISZERO DUP3 DUP3 DIV DUP5 EQ OR PUSH2 0x498 JUMPI PUSH2 0x498 PUSH2 0x22D1 JUMP JUMPDEST DUP1 DUP3 ADD DUP1 DUP3 GT ISZERO PUSH2 0x498 JUMPI PUSH2 0x498 PUSH2 0x22D1 JUMP JUMPDEST PUSH1 0x0 DUP2 PUSH2 0x25DC JUMPI PUSH2 0x25DC PUSH2 0x22D1 JUMP JUMPDEST POP PUSH1 0x0 NOT ADD SWAP1 JUMP JUMPDEST DUP2 DUP2 SUB DUP2 DUP2 GT ISZERO PUSH2 0x498 JUMPI PUSH2 0x498 PUSH2 0x22D1 JUMP JUMPDEST PUSH4 0x4E487B71 PUSH1 0xE0 SHL PUSH1 0x0 MSTORE PUSH1 0x31 PUSH1 0x4 MSTORE PUSH1 0x24 PUSH1 0x0 REVERT INVALID LOG2 PUSH5 0x6970667358 0x22 SLT KECCAK256 LOG2 0xDF CODESIZE 0xD0 TIMESTAMP PUSH25 0x540D966692D6D2F1E632720CC780D13315012BA137EF892DC3 PUSH15 0x64736F6C6343000811003300000000 "},"methodIdentifiers":{"AGENT_ROLE()":"22459e18","ARBITRATOR_ROLE()":"9cea0787","ATHLETE_ROLE()":"783c69cc","DEFAULT_ADMIN_ROLE()":"a217fddf","SPONSOR_ROLE()":"c2d79444","TEAM_ROLE()":"49d5e604","athleteContract()":"0719fce9","createSponsorshipContract(address,address,string,uint256,uint256,uint256,address,address[])":"7b2da3ce","getContractDetails(uint256)":"4d6d6a9c","getRoleAdmin(bytes32)":"248a9ca3","getUserContracts(address)":"34c925f0","getUserRoles(address)":"06a36aee","grantRole(bytes32,address)":"2f2ff15d","hasRole(bytes32,address)":"91d14854","hasUserRole(address,bytes32)":"276832d7","mintContractNFT(uint256,string)":"e7cdebd8","registerUser(address,bytes32,string,string)":"b051a1fb","renounceRole(bytes32,address)":"36568abe","revokeRole(bytes32,address)":"d547741f","sponsorshipNFT()":"6c4ee56a","supportsInterface(bytes4)":"01ffc9a7","updateUserProfile(string,string)":"40e06979","userInfo(address)":"1959a002","userRoles(address,uint256)":"0dbb4929","verifyUser(address)":"4d813120"}}}}}