{"contracts/AthleteContract.sol":{"AthleteContract":{"abi":[{"anonymous":false,"inputs":[{"indexed":true,"internalType":"uint256","name":"contractId","type":"uint256"},{"indexed":false,"internalType":"address","name":"athlete","type":"address"},{"indexed":false,"internalType":"address","name":"sponsor","type":"address"}],"name":"ContractCreated","type":"event"},{"anonymous":false,"inputs":[{"indexed":true,"internalType":"uint256","name":"contractId","type":"uint256"}],"name":"ContractTerminated","type":"event"},{"anonymous":false,"inputs":[{"indexed":true,"internalType":"uint256","name":"contractId","type":"uint256"},{"indexed":false,"internalType":"string","name":"newContractIPFSHash","type":"string"}],"name":"ContractUpdated","type":"event"},{"anonymous":false,"inputs":[{"indexed":true,"internalType":"uint256","name":"contractId","type":"uint256"},{"indexed":false,"internalType":"string","name":"reason","type":"string"}],"name":"DisputeRaised","type":"event"},{"anonymous":false,"inputs":[{"indexed":true,"internalType":"uint256","name":"contractId","type":"uint256"},{"indexed":false,"internalType":"bool","name":"athleteFavor","type":"bool"}],"name":"DisputeResolved","type":"event"},{"anonymous":false,"inputs":[{"indexed":true,"internalType":"uint256","name":"contractId","type":"uint256"},{"indexed":false,"internalType":"uint256","name":"milestoneIndex","type":"uint256"}],"name":"MilestoneCompleted","type":"event"},{"anonymous":false,"inputs":[{"indexed":true,"internalType":"uint256","name":"contractId","type":"uint256"},{"indexed":false,"internalType":"uint256","name":"milestoneIndex","type":"uint256"},{"indexed":false,"internalType":"string","name":"reason","type":"string"}],"name":"MilestoneRejected","type":"event"},{"anonymous":false,"inputs":[{"indexed":true,"internalType":"uint256","name":"contractId","type":"uint256"},{"indexed":false,"internalType":"uint256","name":"milestoneIndex","type":"uint256"},{"indexed":false,"internalType":"uint256","name":"amount","type":"uint256"}],"name":"PaymentReleased","type":"event"},{"inputs":[{"internalType":"uint256","name":"contractId","type":"uint256"}],"name":"activateContract","outputs":[],"stateMutability":"nonpayable","type":"function"},{"inputs":[{"internalType":"uint256","name":"contractId","type":"uint256"},{"internalType":"string[]","name":"descriptions","type":"string[]"},{"internalType":"uint256[]","name":"amounts","type":"uint256[]"},{"internalType":"uint256[]","name":"deadlines","type":"uint256[]"}],"name":"addMilestones","outputs":[],"stateMutability":"nonpayable","type":"function"},{"inputs":[{"internalType":"uint256","name":"contractId","type":"uint256"},{"internalType":"uint256","name":"milestoneIndex","type":"uint256"},{"internalType":"string","name":"evidence","type":"string"}],"name":"completeMilestone","outputs":[],"stateMutability":"nonpayable","type":"function"},{"inputs":[],"name":"contractCount","outputs":[{"internalType":"uint256","name":"","type":"uint256"}],"stateMutability":"view","type":"function"},{"inputs":[{"internalType":"uint256","name":"","type":"uint256"}],"name":"contracts","outputs":[{"internalType":"address","name":"athlete","type":"address"},{"internalType":"address","name":"sponsor","type":"address"},{"internalType":"string","name":"contractIPFSHash","type":"string"},{"internalType":"uint256","name":"totalValue","type":"uint256"},{"internalType":"uint256","name":"startDate","type":"uint256"},{"internalType":"uint256","name":"endDate","type":"uint256"},{"internalType":"enum AthleteContract.ContractState","name":"state","type":"uint8"},{"internalType":"address","name":"paymentToken","type":"address"}],"stateMutability":"view","type":"function"},{"inputs":[{"internalType":"address","name":"athlete","type":"address"},{"internalType":"address","name":"sponsor","type":"address"},{"internalType":"string","name":"contractIPFSHash","type":"string"},{"internalType":"uint256","name":"totalValue","type":"uint256"},{"internalType":"uint256","name":"startDate","type":"uint256"},{"internalType":"uint256","name":"endDate","type":"uint256"},{"internalType":"address","name":"paymentToken","type":"address"},{"internalType":"address[]","name":"arbitrators","type":"address[]"}],"name":"createContract","outputs":[{"internalType":"uint256","name":"","type":"uint256"}],"stateMutability":"nonpayable","type":"function"},{"inputs":[{"internalType":"uint256","name":"contractId","type":"uint256"}],"name":"getContractDetails","outputs":[{"internalType":"address","name":"athlete","type":"address"},{"internalType":"address","name":"sponsor","type":"address"},{"internalType":"string","name":"contractIPFSHash","type":"string"},{"internalType":"uint256","name":"totalValue","type":"uint256"},{"internalType":"uint256","name":"startDate","type":"uint256"},{"internalType":"uint256","name":"endDate","type":"uint256"},{"internalType":"enum AthleteContract.ContractState","name":"state","type":"uint8"},{"internalType":"address","name":"paymentToken","type":"address"}],"stateMutability":"view","type":"function"},{"inputs":[{"internalType":"uint256","name":"contractId","type":"uint256"},{"internalType":"uint256","name":"milestoneIndex","type":"uint256"}],"name":"getMilestoneDetails","outputs":[{"internalType":"string","name":"description","type":"string"},{"internalType":"uint256","name":"amount","type":"uint256"},{"internalType":"uint256","name":"deadline","type":"uint256"},{"internalType":"enum AthleteContract.MilestoneStatus","name":"status","type":"uint8"},{"internalType":"string","name":"evidence","type":"string"},{"internalType":"bool","name":"paid","type":"bool"}],"stateMutability":"view","type":"function"},{"inputs":[{"internalType":"uint256","name":"contractId","type":"uint256"}],"name":"getMilestonesCount","outputs":[{"internalType":"uint256","name":"","type":"uint256"}],"stateMutability":"view","type":"function"},{"inputs":[{"internalType":"uint256","name":"contractId","type":"uint256"},{"internalType":"string","name":"reason","type":"string"}],"name":"raiseDispute","outputs":[],"stateMutability":"nonpayable","type":"function"},{"inputs":[{"internalType":"uint256","name":"contractId","type":"uint256"},{"internalType":"uint256","name":"milestoneIndex","type":"uint256"}],"name":"releaseMilestonePayment","outputs":[],"stateMutability":"payable","type":"function"},{"inputs":[{"internalType":"uint256","name":"contractId","type":"uint256"},{"internalType":"bool","name":"athleteFavor","type":"bool"}],"name":"resolveDispute","outputs":[],"stateMutability":"nonpayable","type":"function"},{"inputs":[{"internalType":"uint256","name":"contractId","type":"uint256"},{"internalType":"string","name":"newContractIPFSHash","type":"string"}],"name":"updateContract","outputs":[],"stateMutability":"nonpayable","type":"function"}],"evm":{"bytecode":{"linkReferences":{},"object":"608060405234801561001057600080fd5b506001600055611f0d806100256000396000f3fe6080604052600436106100c25760003560e01c80634d6d6a9c1161007f5780637fbedb75116100595780637fbedb75146102265780638736381a146102465780638c936e651461025c578063a7e5b6f31461026f57600080fd5b80634d6d6a9c146101b85780635aef573c146101d85780636a1cb18c146101f857600080fd5b806334b25ee2146100c757806335c2bd63146100e9578063460ff8c414610109578063474da79a1461012957806348259836146101665780634c37102214610186575b600080fd5b3480156100d357600080fd5b506100e76100e2366004611655565b61029f565b005b3480156100f557600080fd5b506100e7610104366004611685565b61043a565b34801561011557600080fd5b506100e76101243660046117e4565b610586565b34801561013557600080fd5b50610149610144366004611685565b6108bf565b60405161015d989796959493929190611944565b60405180910390f35b34801561017257600080fd5b506100e76101813660046119b3565b6109a5565b34801561019257600080fd5b506101a66101a13660046119fa565b610a9f565b60405161015d96959493929190611a1c565b3480156101c457600080fd5b506101496101d3366004611685565b610c3e565b3480156101e457600080fd5b506100e76101f33660046119b3565b610d4c565b34801561020457600080fd5b50610218610213366004611a95565b610e55565b60405190815260200161015d565b34801561023257600080fd5b506100e7610241366004611ba5565b611016565b34801561025257600080fd5b5061021860025481565b6100e761026a3660046119fa565b6111ae565b34801561027b57600080fd5b5061021861028a366004611685565b60009081526001602052604090206007015490565b600082815260016020526040812090805b6008830154811015610307578260080181815481106102d1576102d1611bf5565b6000918252602090912001546001600160a01b031633036102f55760019150610307565b806102ff81611c21565b9150506102b0565b50806103665760405162461bcd60e51b815260206004820152602360248201527f4f6e6c792061726269747261746f722063616e207265736f6c7665206469737060448201526275746560e81b60648201526084015b60405180910390fd5b6003600683015460ff1660048111156103815761038161192e565b146103c65760405162461bcd60e51b815260206004820152601560248201527410dbdb9d1c9858dd081b9bdd08191a5cdc1d5d1959605a1b604482015260640161035d565b826103d25760046103d5565b60015b60068301805460ff191660018360048111156103f3576103f361192e565b0217905550837f5a87909bff68caaaaf0b3fd9c74eeccc928832f879315e5c6fb7a73612f26c0c8460405161042c911515815260200190565b60405180910390a250505050565b600081815260016020526040902080546001600160a01b031633148061046c575060018101546001600160a01b031633145b6104c45760405162461bcd60e51b8152602060048201526024808201527f4f6e6c79206174686c657465206f722073706f6e736f722063616e20616374696044820152637661746560e01b606482015260840161035d565b6000600682015460ff1660048111156104df576104df61192e565b1461052c5760405162461bcd60e51b815260206004820152601b60248201527f436f6e7472616374206e6f7420696e2064726166742073746174650000000000604482015260640161035d565b60078101546105755760405162461bcd60e51b8152602060048201526015602482015274139bc81b5a5b195cdd1bdb995cc81919599a5b9959605a1b604482015260640161035d565b600601805460ff1916600117905550565b600084815260016020526040902080546001600160a01b03163314806105b8575060018101546001600160a01b031633145b61060f5760405162461bcd60e51b815260206004820152602260248201527f4f6e6c79206174686c657465206f722073706f6e736f722063616e206d6f6469604482015261667960f01b606482015260840161035d565b6000600682015460ff16600481111561062a5761062a61192e565b146106775760405162461bcd60e51b815260206004820152601b60248201527f436f6e7472616374206e6f7420696e2064726166742073746174650000000000604482015260640161035d565b82518451148015610689575081518351145b6106ce5760405162461bcd60e51b8152602060048201526016602482015275082e4e4c2f2e640d8cadccee8d040dad2e6dac2e8c6d60531b604482015260640161035d565b6000805b8451811015610849578481815181106106ed576106ed611bf5565b6020026020010151826107009190611c3a565b9150826007016040518060c0016040528088848151811061072357610723611bf5565b6020026020010151815260200187848151811061074257610742611bf5565b6020026020010151815260200186848151811061076157610761611bf5565b60200260200101518152602001600060038111156107815761078161192e565b81526040805160208181018352600080835281850192909252919092018290528354600181018555938252902081519192600602019081906107c39082611cd8565b50602082015181600101556040820151816002015560608201518160030160006101000a81548160ff021916908360038111156108025761080261192e565b02179055506080820151600482019061081b9082611cd8565b5060a091909101516005909101805460ff19169115159190911790558061084181611c21565b9150506106d2565b50816003015481146108b75760405162461bcd60e51b815260206004820152603160248201527f546f74616c206d696c6573746f6e6520616d6f756e7473206d757374206d6174604482015270636820636f6e74726163742076616c756560781b606482015260840161035d565b505050505050565b60016020819052600091825260409091208054918101546002820180546001600160a01b039485169490921692916108f690611c53565b80601f016020809104026020016040519081016040528092919081815260200182805461092290611c53565b801561096f5780601f106109445761010080835404028352916020019161096f565b820191906000526020600020905b81548152906001019060200180831161095257829003601f168201915b505050506003830154600484015460058501546006909501549394919390925060ff81169061010090046001600160a01b031688565b600082815260016020526040902080546001600160a01b03163314806109d7575060018101546001600160a01b031633145b610a2e5760405162461bcd60e51b815260206004820152602260248201527f4f6e6c79206174686c657465206f722073706f6e736f722063616e2075706461604482015261746560f01b606482015260840161035d565b6009810180546001810182556000918252602090912001610a526002830182611d98565b5060028101610a618382611cd8565b50827f3d6b58530bfb3205822f758555331d98d728b985f2081c1f5dbdcf7bc755d65083604051610a929190611e73565b60405180910390a2505050565b606060008060006060600080600160008a815260200190815260200160002090506000816007018981548110610ad757610ad7611bf5565b6000918252602090912060069091020160018101546002820154600383015460058401548454949550859460ff92831692600487019216908690610b1a90611c53565b80601f0160208091040260200160405190810160405280929190818152602001828054610b4690611c53565b8015610b935780601f10610b6857610100808354040283529160200191610b93565b820191906000526020600020905b815481529060010190602001808311610b7657829003601f168201915b50505050509550818054610ba690611c53565b80601f0160208091040260200160405190810160405280929190818152602001828054610bd290611c53565b8015610c1f5780601f10610bf457610100808354040283529160200191610c1f565b820191906000526020600020905b815481529060010190602001808311610c0257829003601f168201915b5050505050915097509750975097509750975050509295509295509295565b60008181526001602081905260408220805491810154600382015460048301546005840154600685015460028601805489986060988a98899889988998899894976001600160a01b039687169794871696909593949293919260ff8316926101009004909116908690610cb090611c53565b80601f0160208091040260200160405190810160405280929190818152602001828054610cdc90611c53565b8015610d295780601f10610cfe57610100808354040283529160200191610d29565b820191906000526020600020905b815481529060010190602001808311610d0c57829003601f168201915b505050505095509850985098509850985098509850985050919395975091939597565b600082815260016020526040902080546001600160a01b0316331480610d7e575060018101546001600160a01b031633145b610ddc5760405162461bcd60e51b815260206004820152602960248201527f4f6e6c79206174686c657465206f722073706f6e736f722063616e207261697360448201526865206469737075746560b81b606482015260840161035d565b6001600682015460ff166004811115610df757610df761192e565b14610e145760405162461bcd60e51b815260040161035d90611e8d565b60068101805460ff1916600317905560405183907fe07ad455e24561261e9047aab2f668ae1fc2cc6fda35021764673613b888836d90610a92908590611e73565b6000848411610eb05760405162461bcd60e51b815260206004820152602160248201527f456e642064617465206d757374206265206166746572207374617274206461746044820152606560f81b606482015260840161035d565b6001600160a01b03891615801590610ed057506001600160a01b03881615155b610f105760405162461bcd60e51b8152602060048201526011602482015270496e76616c69642061646472657373657360781b604482015260640161035d565b6002805460009182610f2183611c21565b90915550600081815260016020819052604090912080546001600160a01b03808f166001600160a01b03199283161783559282018054938e16939091169290921790915590915060028101610f768a82611cd8565b506003810188905560048101879055600581018690556006810180546001600160a81b0319166101006001600160a01b038816021790558351610fc290600883019060208701906115ca565b50604080516001600160a01b03808e1682528c16602082015283917f56560a52c047ed21fd801bf0f345b23d9af696f7922ff8e63101af5d48caddab910160405180910390a2509998505050505050505050565b600083815260016020526040902080546001600160a01b031633146110895760405162461bcd60e51b815260206004820152602360248201527f4f6e6c79206174686c6574652063616e20636f6d706c657465206d696c6573746044820152626f6e6560e81b606482015260840161035d565b6001600682015460ff1660048111156110a4576110a461192e565b146110c15760405162461bcd60e51b815260040161035d90611e8d565b60008160070184815481106110d8576110d8611bf5565b600091825260208220600690910201915060038083015460ff16908111156111025761110261192e565b1461114f5760405162461bcd60e51b815260206004820152601860248201527f496e76616c6964206d696c6573746f6e65207374617475730000000000000000604482015260640161035d565b60038101805460ff191660011790556004810161116c8482611cd8565b50847f1b7218c0ac23ea9cbe4df603d2b340fbf469a115b73ea3d11460727f445d6be18560405161119f91815260200190565b60405180910390a25050505050565b6111b6611571565b6000828152600160208190526040909120908101546001600160a01b031633146112225760405162461bcd60e51b815260206004820181905260248201527f4f6e6c792073706f6e736f722063616e2072656c65617365207061796d656e74604482015260640161035d565b6001600682015460ff16600481111561123d5761123d61192e565b1461125a5760405162461bcd60e51b815260040161035d90611e8d565b600081600701838154811061127157611271611bf5565b600091825260209091206006909102019050600160038083015460ff169081111561129e5761129e61192e565b146112eb5760405162461bcd60e51b815260206004820152601760248201527f4d696c6573746f6e65206e6f7420636f6d706c65746564000000000000000000604482015260640161035d565b600581015460ff16156113405760405162461bcd60e51b815260206004820152601860248201527f5061796d656e7420616c72656164792072656c65617365640000000000000000604482015260640161035d565b6001810154600683015461010090046001600160a01b0316611449578034146113ab5760405162461bcd60e51b815260206004820152601860248201527f496e636f7272656374207061796d656e7420616d6f756e740000000000000000604482015260640161035d565b82546040516000916001600160a01b03169083908381818185875af1925050503d80600081146113f7576040519150601f19603f3d011682016040523d82523d6000602084013e6113fc565b606091505b50509050806114435760405162461bcd60e51b8152602060048201526013602482015272115512081d1c985b9cd9995c8819985a5b1959606a1b604482015260640161035d565b50611516565b600683015483546040516323b872dd60e01b81523360048201526001600160a01b03918216602482015260448101849052610100909204169081906323b872dd906064016020604051808303816000875af11580156114ac573d6000803e3d6000fd5b505050506040513d601f19601f820116820180604052508101906114d09190611eba565b6115145760405162461bcd60e51b8152602060048201526015602482015274151bdad95b881d1c985b9cd9995c8819985a5b1959605a1b604482015260640161035d565b505b60058201805460ff19166001179055604080518581526020810183905286917f3c70b1e8034b5738ec77fbfdaa4d28906a0b3160018d67a2dc7b534e53e33fe0910160405180910390a250505061156d6001600055565b5050565b6002600054036115c35760405162461bcd60e51b815260206004820152601f60248201527f5265656e7472616e637947756172643a207265656e7472616e742063616c6c00604482015260640161035d565b6002600055565b82805482825590600052602060002090810192821561161f579160200282015b8281111561161f57825182546001600160a01b0319166001600160a01b039091161782556020909201916001909101906115ea565b5061162b92915061162f565b5090565b5b8082111561162b5760008155600101611630565b801515811461165257600080fd5b50565b6000806040838503121561166857600080fd5b82359150602083013561167a81611644565b809150509250929050565b60006020828403121561169757600080fd5b5035919050565b634e487b7160e01b600052604160045260246000fd5b604051601f8201601f1916810167ffffffffffffffff811182821017156116dd576116dd61169e565b604052919050565b600067ffffffffffffffff8211156116ff576116ff61169e565b5060051b60200190565b600082601f83011261171a57600080fd5b813567ffffffffffffffff8111156117345761173461169e565b611747601f8201601f19166020016116b4565b81815284602083860101111561175c57600080fd5b816020850160208301376000918101602001919091529392505050565b600082601f83011261178a57600080fd5b8135602061179f61179a836116e5565b6116b4565b82815260059290921b840181019181810190868411156117be57600080fd5b8286015b848110156117d957803583529183019183016117c2565b509695505050505050565b600080600080608085870312156117fa57600080fd5b8435935060208086013567ffffffffffffffff8082111561181a57600080fd5b818801915088601f83011261182e57600080fd5b813561183c61179a826116e5565b81815260059190911b8301840190848101908b83111561185b57600080fd5b8585015b83811015611893578035858111156118775760008081fd5b6118858e89838a0101611709565b84525091860191860161185f565b509750505060408801359250808311156118ac57600080fd5b6118b889848a01611779565b945060608801359250808311156118ce57600080fd5b50506118dc87828801611779565b91505092959194509250565b6000815180845260005b8181101561190e576020818501810151868301820152016118f2565b506000602082860101526020601f19601f83011685010191505092915050565b634e487b7160e01b600052602160045260246000fd5b6001600160a01b0389811682528881166020830152610100604083018190526000916119728483018b6118e8565b92508860608501528760808501528660a0850152600586106119965761199661192e565b8560c085015280851660e085015250509998505050505050505050565b600080604083850312156119c657600080fd5b82359150602083013567ffffffffffffffff8111156119e457600080fd5b6119f085828601611709565b9150509250929050565b60008060408385031215611a0d57600080fd5b50508035926020909101359150565b60c081526000611a2f60c08301896118e8565b87602084015286604084015260048610611a4b57611a4b61192e565b8560608401528281036080840152611a6381866118e8565b91505082151560a0830152979650505050505050565b80356001600160a01b0381168114611a9057600080fd5b919050565b600080600080600080600080610100898b031215611ab257600080fd5b611abb89611a79565b97506020611aca818b01611a79565b975060408a013567ffffffffffffffff80821115611ae757600080fd5b611af38d838e01611709565b985060608c0135975060808c0135965060a08c01359550611b1660c08d01611a79565b945060e08c0135915080821115611b2c57600080fd5b508a01601f81018c13611b3e57600080fd5b8035611b4c61179a826116e5565b81815260059190911b8201830190838101908e831115611b6b57600080fd5b928401925b82841015611b9057611b8184611a79565b82529284019290840190611b70565b80955050505050509295985092959890939650565b600080600060608486031215611bba57600080fd5b8335925060208401359150604084013567ffffffffffffffff811115611bdf57600080fd5b611beb86828701611709565b9150509250925092565b634e487b7160e01b600052603260045260246000fd5b634e487b7160e01b600052601160045260246000fd5b600060018201611c3357611c33611c0b565b5060010190565b80820180821115611c4d57611c4d611c0b565b92915050565b600181811c90821680611c6757607f821691505b602082108103611c8757634e487b7160e01b600052602260045260246000fd5b50919050565b601f821115611cd357600081815260208120601f850160051c81016020861015611cb45750805b601f850160051c820191505b818110156108b757828155600101611cc0565b505050565b815167ffffffffffffffff811115611cf257611cf261169e565b611d0681611d008454611c53565b84611c8d565b602080601f831160018114611d3b5760008415611d235750858301515b600019600386901b1c1916600185901b1785556108b7565b600085815260208120601f198616915b82811015611d6a57888601518255948401946001909101908401611d4b565b5085821015611d885787850151600019600388901b60f8161c191681555b5050505050600190811b01905550565b818103611da3575050565b611dad8254611c53565b67ffffffffffffffff811115611dc557611dc561169e565b611dd381611d008454611c53565b6000601f821160018114611e075760008315611def5750848201545b600019600385901b1c1916600184901b178455611e6c565b600085815260209020601f19841690600086815260209020845b83811015611e415782860154825560019586019590910190602001611e21565b5085831015611e5f5781850154600019600388901b60f8161c191681555b50505060018360011b0184555b5050505050565b602081526000611e8660208301846118e8565b9392505050565b602080825260139082015272436f6e7472616374206e6f742061637469766560681b604082015260600190565b600060208284031215611ecc57600080fd5b8151611e868161164456fea2646970667358221220ea4051eaeadf5800756ba15d51e07f39ddc2b23fff6ba86ec75b79cc7d1f9cdf64736f6c63430008110033","opcodes":"PUSH1 0x80 PUSH1 0x40 MSTORE CALLVALUE DUP1 ISZERO PUSH2 0x10 JUMPI PUSH1 0x0 DUP1 REVERT JUMPDEST POP PUSH1 0x1 PUSH1 0x0 SSTORE PUSH2 0x1F0D DUP1 PUSH2 0x25 PUSH1 0x0 CODECOPY PUSH1 0x0 RETURN INVALID PUSH1 0x80 PUSH1 0x40 MSTORE PUSH1 0x4 CALLDATASIZE LT PUSH2 0xC2 JUMPI PUSH1 0x0 CALLDATALOAD PUSH1 0xE0 SHR DUP1 PUSH4 0x4D6D6A9C GT PUSH2 0x7F JUMPI DUP1 PUSH4 0x7FBEDB75 GT PUSH2 0x59 JUMPI DUP1 PUSH4 0x7FBEDB75 EQ PUSH2 0x226 JUMPI DUP1 PUSH4 0x8736381A EQ PUSH2 0x246 JUMPI DUP1 PUSH4 0x8C936E65 EQ PUSH2 0x25C JUMPI DUP1 PUSH4 0xA7E5B6F3 EQ PUSH2 0x26F JUMPI PUSH1 0x0 DUP1 REVERT JUMPDEST DUP1 PUSH4 0x4D6D6A9C EQ PUSH2 0x1B8 JUMPI DUP1 PUSH4 0x5AEF573C EQ PUSH2 0x1D8 JUMPI DUP1 PUSH4 0x6A1CB18C EQ PUSH2 0x1F8 JUMPI PUSH1 0x0 DUP1 REVERT JUMPDEST DUP1 PUSH4 0x34B25EE2 EQ PUSH2 0xC7 JUMPI DUP1 PUSH4 0x35C2BD63 EQ PUSH2 0xE9 JUMPI DUP1 PUSH4 0x460FF8C4 EQ PUSH2 0x109 JUMPI DUP1 PUSH4 0x474DA79A EQ PUSH2 0x129 JUMPI DUP1 PUSH4 0x48259836 EQ PUSH2 0x166 JUMPI DUP1 PUSH4 0x4C371022 EQ PUSH2 0x186 JUMPI JUMPDEST PUSH1 0x0 DUP1 REVERT JUMPDEST CALLVALUE DUP1 ISZERO PUSH2 0xD3 JUMPI PUSH1 0x0 DUP1 REVERT JUMPDEST POP PUSH2 0xE7 PUSH2 0xE2 CALLDATASIZE PUSH1 0x4 PUSH2 0x1655 JUMP JUMPDEST PUSH2 0x29F JUMP JUMPDEST STOP JUMPDEST CALLVALUE DUP1 ISZERO PUSH2 0xF5 JUMPI PUSH1 0x0 DUP1 REVERT JUMPDEST POP PUSH2 0xE7 PUSH2 0x104 CALLDATASIZE PUSH1 0x4 PUSH2 0x1685 JUMP JUMPDEST PUSH2 0x43A JUMP JUMPDEST CALLVALUE DUP1 ISZERO PUSH2 0x115 JUMPI PUSH1 0x0 DUP1 REVERT JUMPDEST POP PUSH2 0xE7 PUSH2 0x124 CALLDATASIZE PUSH1 0x4 PUSH2 0x17E4 JUMP JUMPDEST PUSH2 0x586 JUMP JUMPDEST CALLVALUE DUP1 ISZERO PUSH2 0x135 JUMPI PUSH1 0x0 DUP1 REVERT JUMPDEST POP PUSH2 0x149 PUSH2 0x144 CALLDATASIZE PUSH1 0x4 PUSH2 0x1685 JUMP JUMPDEST PUSH2 0x8BF JUMP JUMPDEST PUSH1 0x40 MLOAD PUSH2 0x15D SWAP9 SWAP8 SWAP7 SWAP6 SWAP5 SWAP4 SWAP3 SWAP2 SWAP1 PUSH2 0x1944 JUMP JUMPDEST PUSH1 0x40 MLOAD DUP1 SWAP2 SUB SWAP1 RETURN JUMPDEST CALLVALUE DUP1 ISZERO PUSH2 0x172 JUMPI PUSH1 0x0 DUP1 REVERT JUMPDEST POP PUSH2 0xE7 PUSH2 0x181 CALLDATASIZE PUSH1 0x4 PUSH2 0x19B3 JUMP JUMPDEST PUSH2 0x9A5 JUMP JUMPDEST CALLVALUE DUP1 ISZERO PUSH2 0x192 JUMPI PUSH1 0x0 DUP1 REVERT JUMPDEST POP PUSH2 0x1A6 PUSH2 0x1A1 CALLDATASIZE PUSH1 0x4 PUSH2 0x19FA JUMP JUMPDEST PUSH2 0xA9F JUMP JUMPDEST PUSH1 0x40 MLOAD PUSH2 0x15D SWAP7 SWAP6 SWAP5 SWAP4 SWAP3 SWAP2 SWAP1 PUSH2 0x1A1C JUMP JUMPDEST CALLVALUE DUP1 ISZERO PUSH2 0x1C4 JUMPI PUSH1 0x0 DUP1 REVERT JUMPDEST POP PUSH2 0x149 PUSH2 0x1D3 CALLDATASIZE PUSH1 0x4 PUSH2 0x1685 JUMP JUMPDEST PUSH2 0xC3E JUMP JUMPDEST CALLVALUE DUP1 ISZERO PUSH2 0x1E4 JUMPI PUSH1 0x0 DUP1 REVERT JUMPDEST POP PUSH2 0xE7 PUSH2 0x1F3 CALLDATASIZE PUSH1 0x4 PUSH2 0x19B3 JUMP JUMPDEST PUSH2 0xD4C JUMP JUMPDEST CALLVALUE DUP1 ISZERO PUSH2 0x204 JUMPI PUSH1 0x0 DUP1 REVERT JUMPDEST POP PUSH2 0x218 PUSH2 0x213 CALLDATASIZE PUSH1 0x4 PUSH2 0x1A95 JUMP JUMPDEST PUSH2 0xE55 JUMP JUMPDEST PUSH1 0x40 MLOAD SWAP1 DUP2 MSTORE PUSH1 0x20 ADD PUSH2 0x15D JUMP JUMPDEST CALLVALUE DUP1 ISZERO PUSH2 0x232 JUMPI PUSH1 0x0 DUP1 REVERT JUMPDEST POP PUSH2 0xE7 PUSH2 0x241 CALLDATASIZE PUSH1 0x4 PUSH2 0x1BA5 JUMP JUMPDEST PUSH2 0x1016 JUMP JUMPDEST CALLVALUE DUP1 ISZERO PUSH2 0x252 JUMPI PUSH1 0x0 DUP1 REVERT JUMPDEST POP PUSH2 0x218 PUSH1 0x2 SLOAD DUP2 JUMP JUMPDEST PUSH2 0xE7 PUSH2 0x26A CALLDATASIZE PUSH1 0x4 PUSH2 0x19FA JUMP JUMPDEST PUSH2 0x11AE JUMP JUMPDEST CALLVALUE DUP1 ISZERO PUSH2 0x27B JUMPI PUSH1 0x0 DUP1 REVERT JUMPDEST POP PUSH2 0x218 PUSH2 0x28A CALLDATASIZE PUSH1 0x4 PUSH2 0x1685 JUMP JUMPDEST PUSH1 0x0 SWAP1 DUP2 MSTORE PUSH1 0x1 PUSH1 0x20 MSTORE PUSH1 0x40 SWAP1 KECCAK256 PUSH1 0x7 ADD SLOAD SWAP1 JUMP JUMPDEST PUSH1 0x0 DUP3 DUP2 MSTORE PUSH1 0x1 PUSH1 0x20 MSTORE PUSH1 0x40 DUP2 KECCAK256 SWAP1 DUP1 JUMPDEST PUSH1 0x8 DUP4 ADD SLOAD DUP2 LT ISZERO PUSH2 0x307 JUMPI DUP3 PUSH1 0x8 ADD DUP2 DUP2 SLOAD DUP2 LT PUSH2 0x2D1 JUMPI PUSH2 0x2D1 PUSH2 0x1BF5 JUMP JUMPDEST PUSH1 0x0 SWAP2 DUP3 MSTORE PUSH1 0x20 SWAP1 SWAP2 KECCAK256 ADD SLOAD PUSH1 0x1 PUSH1 0x1 PUSH1 0xA0 SHL SUB AND CALLER SUB PUSH2 0x2F5 JUMPI PUSH1 0x1 SWAP2 POP PUSH2 0x307 JUMP JUMPDEST DUP1 PUSH2 0x2FF DUP2 PUSH2 0x1C21 JUMP JUMPDEST SWAP2 POP POP PUSH2 0x2B0 JUMP JUMPDEST POP DUP1 PUSH2 0x366 JUMPI PUSH1 0x40 MLOAD PUSH3 0x461BCD PUSH1 0xE5 SHL DUP2 MSTORE PUSH1 0x20 PUSH1 0x4 DUP3 ADD MSTORE PUSH1 0x23 PUSH1 0x24 DUP3 ADD MSTORE PUSH32 0x4F6E6C792061726269747261746F722063616E207265736F6C76652064697370 PUSH1 0x44 DUP3 ADD MSTORE PUSH3 0x757465 PUSH1 0xE8 SHL PUSH1 0x64 DUP3 ADD MSTORE PUSH1 0x84 ADD JUMPDEST PUSH1 0x40 MLOAD DUP1 SWAP2 SUB SWAP1 REVERT JUMPDEST PUSH1 0x3 PUSH1 0x6 DUP4 ADD SLOAD PUSH1 0xFF AND PUSH1 0x4 DUP2 GT ISZERO PUSH2 0x381 JUMPI PUSH2 0x381 PUSH2 0x192E JUMP JUMPDEST EQ PUSH2 0x3C6 JUMPI PUSH1 0x40 MLOAD PUSH3 0x461BCD PUSH1 0xE5 SHL DUP2 MSTORE PUSH1 0x20 PUSH1 0x4 DUP3 ADD MSTORE PUSH1 0x15 PUSH1 0x24 DUP3 ADD MSTORE PUSH21 0x10DBDB9D1C9858DD081B9BDD08191A5CDC1D5D1959 PUSH1 0x5A SHL PUSH1 0x44 DUP3 ADD MSTORE PUSH1 0x64 ADD PUSH2 0x35D JUMP JUMPDEST DUP3 PUSH2 0x3D2 JUMPI PUSH1 0x4 PUSH2 0x3D5 JUMP JUMPDEST PUSH1 0x1 JUMPDEST PUSH1 0x6 DUP4 ADD DUP1 SLOAD PUSH1 0xFF NOT AND PUSH1 0x1 DUP4 PUSH1 0x4 DUP2 GT ISZERO PUSH2 0x3F3 JUMPI PUSH2 0x3F3 PUSH2 0x192E JUMP JUMPDEST MUL OR SWAP1 SSTORE POP DUP4 PUSH32 0x5A87909BFF68CAAAAF0B3FD9C74EECCC928832F879315E5C6FB7A73612F26C0C DUP5 PUSH1 0x40 MLOAD PUSH2 0x42C SWAP2 ISZERO ISZERO DUP2 MSTORE PUSH1 0x20 ADD SWAP1 JUMP JUMPDEST PUSH1 0x40 MLOAD DUP1 SWAP2 SUB SWAP1 LOG2 POP POP POP POP JUMP JUMPDEST PUSH1 0x0 DUP2 DUP2 MSTORE PUSH1 0x1 PUSH1 0x20 MSTORE PUSH1 0x40 SWAP1 KECCAK256 DUP1 SLOAD PUSH1 0x1 PUSH1 0x1 PUSH1 0xA0 SHL SUB AND CALLER EQ DUP1 PUSH2 0x46C JUMPI POP PUSH1 0x1 DUP2 ADD SLOAD PUSH1 0x1 PUSH1 0x1 PUSH1 0xA0 SHL SUB AND CALLER EQ JUMPDEST PUSH2 0x4C4 JUMPI PUSH1 0x40 MLOAD PUSH3 0x461BCD PUSH1 0xE5 SHL DUP2 MSTORE PUSH1 0x20 PUSH1 0x4 DUP3 ADD MSTORE PUSH1 0x24 DUP1 DUP3 ADD MSTORE PUSH32 0x4F6E6C79206174686C657465206F722073706F6E736F722063616E2061637469 PUSH1 0x44 DUP3 ADD MSTORE PUSH4 0x76617465 PUSH1 0xE0 SHL PUSH1 0x64 DUP3 ADD MSTORE PUSH1 0x84 ADD PUSH2 0x35D JUMP JUMPDEST PUSH1 0x0 PUSH1 0x6 DUP3 ADD SLOAD PUSH1 0xFF AND PUSH1 0x4 DUP2 GT ISZERO PUSH2 0x4DF JUMPI PUSH2 0x4DF PUSH2 0x192E JUMP JUMPDEST EQ PUSH2 0x52C JUMPI PUSH1 0x40 MLOAD PUSH3 0x461BCD PUSH1 0xE5 SHL DUP2 MSTORE PUSH1 0x20 PUSH1 0x4 DUP3 ADD MSTORE PUSH1 0x1B PUSH1 0x24 DUP3 ADD MSTORE PUSH32 0x436F6E7472616374206E6F7420696E2064726166742073746174650000000000 PUSH1 0x44 DUP3 ADD MSTORE PUSH1 0x64 ADD PUSH2 0x35D JUMP JUMPDEST PUSH1 0x7 DUP2 ADD SLOAD PUSH2 0x575 JUMPI PUSH1 0x40 MLOAD PUSH3 0x461BCD PUSH1 0xE5 SHL DUP2 MSTORE PUSH1 0x20 PUSH1 0x4 DUP3 ADD MSTORE PUSH1 0x15 PUSH1 0x24 DUP3 ADD MSTORE PUSH21 0x139BC81B5A5B195CDD1BDB995CC81919599A5B9959 PUSH1 0x5A SHL PUSH1 0x44 DUP3 ADD MSTORE PUSH1 0x64 ADD PUSH2 0x35D JUMP JUMPDEST PUSH1 0x6 ADD DUP1 SLOAD PUSH1 0xFF NOT AND PUSH1 0x1 OR SWAP1 SSTORE POP JUMP JUMPDEST PUSH1 0x0 DUP5 DUP2 MSTORE PUSH1 0x1 PUSH1 0x20 MSTORE PUSH1 0x40 SWAP1 KECCAK256 DUP1 SLOAD PUSH1 0x1 PUSH1 0x1 PUSH1 0xA0 SHL SUB AND CALLER EQ DUP1 PUSH2 0x5B8 JUMPI POP PUSH1 0x1 DUP2 ADD SLOAD PUSH1 0x1 PUSH1 0x1 PUSH1 0xA0 SHL SUB AND CALLER EQ JUMPDEST PUSH2 0x60F JUMPI PUSH1 0x40 MLOAD PUSH3 0x461BCD PUSH1 0xE5 SHL DUP2 MSTORE PUSH1 0x20 PUSH1 0x4 DUP3 ADD MSTORE PUSH1 0x22 PUSH1 0x24 DUP3 ADD MSTORE PUSH32 0x4F6E6C79206174686C657465206F722073706F6E736F722063616E206D6F6469 PUSH1 0x44 DUP3 ADD MSTORE PUSH2 0x6679 PUSH1 0xF0 SHL PUSH1 0x64 DUP3 ADD MSTORE PUSH1 0x84 ADD PUSH2 0x35D JUMP JUMPDEST PUSH1 0x0 PUSH1 0x6 DUP3 ADD SLOAD PUSH1 0xFF AND PUSH1 0x4 DUP2 GT ISZERO PUSH2 0x62A JUMPI PUSH2 0x62A PUSH2 0x192E JUMP JUMPDEST EQ PUSH2 0x677 JUMPI PUSH1 0x40 MLOAD PUSH3 0x461BCD PUSH1 0xE5 SHL DUP2 MSTORE PUSH1 0x20 PUSH1 0x4 DUP3 ADD MSTORE PUSH1 0x1B PUSH1 0x24 DUP3 ADD MSTORE PUSH32 0x436F6E7472616374206E6F7420696E2064726166742073746174650000000000 PUSH1 0x44 DUP3 ADD MSTORE PUSH1 0x64 ADD PUSH2 0x35D JUMP JUMPDEST DUP3 MLOAD DUP5 MLOAD EQ DUP1 ISZERO PUSH2 0x689 JUMPI POP DUP2 MLOAD DUP4 MLOAD EQ JUMPDEST PUSH2 0x6CE JUMPI PUSH1 0x40 MLOAD PUSH3 0x461BCD PUSH1 0xE5 SHL DUP2 MSTORE PUSH1 0x20 PUSH1 0x4 DUP3 ADD MSTORE PUSH1 0x16 PUSH1 0x24 DUP3 ADD MSTORE PUSH22 0x82E4E4C2F2E640D8CADCCEE8D040DAD2E6DAC2E8C6D PUSH1 0x53 SHL PUSH1 0x44 DUP3 ADD MSTORE PUSH1 0x64 ADD PUSH2 0x35D JUMP JUMPDEST PUSH1 0x0 DUP1 JUMPDEST DUP5 MLOAD DUP2 LT ISZERO PUSH2 0x849 JUMPI DUP5 DUP2 DUP2 MLOAD DUP2 LT PUSH2 0x6ED JUMPI PUSH2 0x6ED PUSH2 0x1BF5 JUMP JUMPDEST PUSH1 0x20 MUL PUSH1 0x20 ADD ADD MLOAD DUP3 PUSH2 0x700 SWAP2 SWAP1 PUSH2 0x1C3A JUMP JUMPDEST SWAP2 POP DUP3 PUSH1 0x7 ADD PUSH1 0x40 MLOAD DUP1 PUSH1 0xC0 ADD PUSH1 0x40 MSTORE DUP1 DUP9 DUP5 DUP2 MLOAD DUP2 LT PUSH2 0x723 JUMPI PUSH2 0x723 PUSH2 0x1BF5 JUMP JUMPDEST PUSH1 0x20 MUL PUSH1 0x20 ADD ADD MLOAD DUP2 MSTORE PUSH1 0x20 ADD DUP8 DUP5 DUP2 MLOAD DUP2 LT PUSH2 0x742 JUMPI PUSH2 0x742 PUSH2 0x1BF5 JUMP JUMPDEST PUSH1 0x20 MUL PUSH1 0x20 ADD ADD MLOAD DUP2 MSTORE PUSH1 0x20 ADD DUP7 DUP5 DUP2 MLOAD DUP2 LT PUSH2 0x761 JUMPI PUSH2 0x761 PUSH2 0x1BF5 JUMP JUMPDEST PUSH1 0x20 MUL PUSH1 0x20 ADD ADD MLOAD DUP2 MSTORE PUSH1 0x20 ADD PUSH1 0x0 PUSH1 0x3 DUP2 GT ISZERO PUSH2 0x781 JUMPI PUSH2 0x781 PUSH2 0x192E JUMP JUMPDEST DUP2 MSTORE PUSH1 0x40 DUP1 MLOAD PUSH1 0x20 DUP2 DUP2 ADD DUP4 MSTORE PUSH1 0x0 DUP1 DUP4 MSTORE DUP2 DUP6 ADD SWAP3 SWAP1 SWAP3 MSTORE SWAP2 SWAP1 SWAP3 ADD DUP3 SWAP1 MSTORE DUP4 SLOAD PUSH1 0x1 DUP2 ADD DUP6 SSTORE SWAP4 DUP3 MSTORE SWAP1 KECCAK256 DUP2 MLOAD SWAP2 SWAP3 PUSH1 0x6 MUL ADD SWAP1 DUP2 SWAP1 PUSH2 0x7C3 SWAP1 DUP3 PUSH2 0x1CD8 JUMP JUMPDEST POP PUSH1 0x20 DUP3 ADD MLOAD DUP2 PUSH1 0x1 ADD SSTORE PUSH1 0x40 DUP3 ADD MLOAD DUP2 PUSH1 0x2 ADD SSTORE PUSH1 0x60 DUP3 ADD MLOAD DUP2 PUSH1 0x3 ADD PUSH1 0x0 PUSH2 0x100 EXP DUP2 SLOAD DUP2 PUSH1 0xFF MUL NOT AND SWAP1 DUP4 PUSH1 0x3 DUP2 GT ISZERO PUSH2 0x802 JUMPI PUSH2 0x802 PUSH2 0x192E JUMP JUMPDEST MUL OR SWAP1 SSTORE POP PUSH1 0x80 DUP3 ADD MLOAD PUSH1 0x4 DUP3 ADD SWAP1 PUSH2 0x81B SWAP1 DUP3 PUSH2 0x1CD8 JUMP JUMPDEST POP PUSH1 0xA0 SWAP2 SWAP1 SWAP2 ADD MLOAD PUSH1 0x5 SWAP1 SWAP2 ADD DUP1 SLOAD PUSH1 0xFF NOT AND SWAP2 ISZERO ISZERO SWAP2 SWAP1 SWAP2 OR SWAP1 SSTORE DUP1 PUSH2 0x841 DUP2 PUSH2 0x1C21 JUMP JUMPDEST SWAP2 POP POP PUSH2 0x6D2 JUMP JUMPDEST POP DUP2 PUSH1 0x3 ADD SLOAD DUP2 EQ PUSH2 0x8B7 JUMPI PUSH1 0x40 MLOAD PUSH3 0x461BCD PUSH1 0xE5 SHL DUP2 MSTORE PUSH1 0x20 PUSH1 0x4 DUP3 ADD MSTORE PUSH1 0x31 PUSH1 0x24 DUP3 ADD MSTORE PUSH32 0x546F74616C206D696C6573746F6E6520616D6F756E7473206D757374206D6174 PUSH1 0x44 DUP3 ADD MSTORE PUSH17 0x636820636F6E74726163742076616C7565 PUSH1 0x78 SHL PUSH1 0x64 DUP3 ADD MSTORE PUSH1 0x84 ADD PUSH2 0x35D JUMP JUMPDEST POP POP POP POP POP POP JUMP JUMPDEST PUSH1 0x1 PUSH1 0x20 DUP2 SWAP1 MSTORE PUSH1 0x0 SWAP2 DUP3 MSTORE PUSH1 0x40 SWAP1 SWAP2 KECCAK256 DUP1 SLOAD SWAP2 DUP2 ADD SLOAD PUSH1 0x2 DUP3 ADD DUP1 SLOAD PUSH1 0x1 PUSH1 0x1 PUSH1 0xA0 SHL SUB SWAP5 DUP6 AND SWAP5 SWAP1 SWAP3 AND SWAP3 SWAP2 PUSH2 0x8F6 SWAP1 PUSH2 0x1C53 JUMP JUMPDEST DUP1 PUSH1 0x1F ADD PUSH1 0x20 DUP1 SWAP2 DIV MUL PUSH1 0x20 ADD PUSH1 0x40 MLOAD SWAP1 DUP2 ADD PUSH1 0x40 MSTORE DUP1 SWAP3 SWAP2 SWAP1 DUP2 DUP2 MSTORE PUSH1 0x20 ADD DUP3 DUP1 SLOAD PUSH2 0x922 SWAP1 PUSH2 0x1C53 JUMP JUMPDEST DUP1 ISZERO PUSH2 0x96F JUMPI DUP1 PUSH1 0x1F LT PUSH2 0x944 JUMPI PUSH2 0x100 DUP1 DUP4 SLOAD DIV MUL DUP4 MSTORE SWAP2 PUSH1 0x20 ADD SWAP2 PUSH2 0x96F JUMP JUMPDEST DUP3 ADD SWAP2 SWAP1 PUSH1 0x0 MSTORE PUSH1 0x20 PUSH1 0x0 KECCAK256 SWAP1 JUMPDEST DUP2 SLOAD DUP2 MSTORE SWAP1 PUSH1 0x1 ADD SWAP1 PUSH1 0x20 ADD DUP1 DUP4 GT PUSH2 0x952 JUMPI DUP3 SWAP1 SUB PUSH1 0x1F AND DUP3 ADD SWAP2 JUMPDEST POP POP POP POP PUSH1 0x3 DUP4 ADD SLOAD PUSH1 0x4 DUP5 ADD SLOAD PUSH1 0x5 DUP6 ADD SLOAD PUSH1 0x6 SWAP1 SWAP6 ADD SLOAD SWAP4 SWAP5 SWAP2 SWAP4 SWAP1 SWAP3 POP PUSH1 0xFF DUP2 AND SWAP1 PUSH2 0x100 SWAP1 DIV PUSH1 0x1 PUSH1 0x1 PUSH1 0xA0 SHL SUB AND DUP9 JUMP JUMPDEST PUSH1 0x0 DUP3 DUP2 MSTORE PUSH1 0x1 PUSH1 0x20 MSTORE PUSH1 0x40 SWAP1 KECCAK256 DUP1 SLOAD PUSH1 0x1 PUSH1 0x1 PUSH1 0xA0 SHL SUB AND CALLER EQ DUP1 PUSH2 0x9D7 JUMPI POP PUSH1 0x1 DUP2 ADD SLOAD PUSH1 0x1 PUSH1 0x1 PUSH1 0xA0 SHL SUB AND CALLER EQ JUMPDEST PUSH2 0xA2E JUMPI PUSH1 0x40 MLOAD PUSH3 0x461BCD PUSH1 0xE5 SHL DUP2 MSTORE PUSH1 0x20 PUSH1 0x4 DUP3 ADD MSTORE PUSH1 0x22 PUSH1 0x24 DUP3 ADD MSTORE PUSH32 0x4F6E6C79206174686C657465206F722073706F6E736F722063616E2075706461 PUSH1 0x44 DUP3 ADD MSTORE PUSH2 0x7465 PUSH1 0xF0 SHL PUSH1 0x64 DUP3 ADD MSTORE PUSH1 0x84 ADD PUSH2 0x35D JUMP JUMPDEST PUSH1 0x9 DUP2 ADD DUP1 SLOAD PUSH1 0x1 DUP2 ADD DUP3 SSTORE PUSH1 0x0 SWAP2 DUP3 MSTORE PUSH1 0x20 SWAP1 SWAP2 KECCAK256 ADD PUSH2 0xA52 PUSH1 0x2 DUP4 ADD DUP3 PUSH2 0x1D98 JUMP JUMPDEST POP PUSH1 0x2 DUP2 ADD PUSH2 0xA61 DUP4 DUP3 PUSH2 0x1CD8 JUMP JUMPDEST POP DUP3 PUSH32 0x3D6B58530BFB3205822F758555331D98D728B985F2081C1F5DBDCF7BC755D650 DUP4 PUSH1 0x40 MLOAD PUSH2 0xA92 SWAP2 SWAP1 PUSH2 0x1E73 JUMP JUMPDEST PUSH1 0x40 MLOAD DUP1 SWAP2 SUB SWAP1 LOG2 POP POP POP JUMP JUMPDEST PUSH1 0x60 PUSH1 0x0 DUP1 PUSH1 0x0 PUSH1 0x60 PUSH1 0x0 DUP1 PUSH1 0x1 PUSH1 0x0 DUP11 DUP2 MSTORE PUSH1 0x20 ADD SWAP1 DUP2 MSTORE PUSH1 0x20 ADD PUSH1 0x0 KECCAK256 SWAP1 POP PUSH1 0x0 DUP2 PUSH1 0x7 ADD DUP10 DUP2 SLOAD DUP2 LT PUSH2 0xAD7 JUMPI PUSH2 0xAD7 PUSH2 0x1BF5 JUMP JUMPDEST PUSH1 0x0 SWAP2 DUP3 MSTORE PUSH1 0x20 SWAP1 SWAP2 KECCAK256 PUSH1 0x6 SWAP1 SWAP2 MUL ADD PUSH1 0x1 DUP2 ADD SLOAD PUSH1 0x2 DUP3 ADD SLOAD PUSH1 0x3 DUP4 ADD SLOAD PUSH1 0x5 DUP5 ADD SLOAD DUP5 SLOAD SWAP5 SWAP6 POP DUP6 SWAP5 PUSH1 0xFF SWAP3 DUP4 AND SWAP3 PUSH1 0x4 DUP8 ADD SWAP3 AND SWAP1 DUP7 SWAP1 PUSH2 0xB1A SWAP1 PUSH2 0x1C53 JUMP JUMPDEST DUP1 PUSH1 0x1F ADD PUSH1 0x20 DUP1 SWAP2 DIV MUL PUSH1 0x20 ADD PUSH1 0x40 MLOAD SWAP1 DUP2 ADD PUSH1 0x40 MSTORE DUP1 SWAP3 SWAP2 SWAP1 DUP2 DUP2 MSTORE PUSH1 0x20 ADD DUP3 DUP1 SLOAD PUSH2 0xB46 SWAP1 PUSH2 0x1C53 JUMP JUMPDEST DUP1 ISZERO PUSH2 0xB93 JUMPI DUP1 PUSH1 0x1F LT PUSH2 0xB68 JUMPI PUSH2 0x100 DUP1 DUP4 SLOAD DIV MUL DUP4 MSTORE SWAP2 PUSH1 0x20 ADD SWAP2 PUSH2 0xB93 JUMP JUMPDEST DUP3 ADD SWAP2 SWAP1 PUSH1 0x0 MSTORE PUSH1 0x20 PUSH1 0x0 KECCAK256 SWAP1 JUMPDEST DUP2 SLOAD DUP2 MSTORE SWAP1 PUSH1 0x1 ADD SWAP1 PUSH1 0x20 ADD DUP1 DUP4 GT PUSH2 0xB76 JUMPI DUP3 SWAP1 SUB PUSH1 0x1F AND DUP3 ADD SWAP2 JUMPDEST POP POP POP POP POP SWAP6 POP DUP2 DUP1 SLOAD PUSH2 0xBA6 SWAP1 PUSH2 0x1C53 JUMP JUMPDEST DUP1 PUSH1 0x1F ADD PUSH1 0x20 DUP1 SWAP2 DIV MUL PUSH1 0x20 ADD PUSH1 0x40 MLOAD SWAP1 DUP2 ADD PUSH1 0x40 MSTORE DUP1 SWAP3 SWAP2 SWAP1 DUP2 DUP2 MSTORE PUSH1 0x20 ADD DUP3 DUP1 SLOAD PUSH2 0xBD2 SWAP1 PUSH2 0x1C53 JUMP JUMPDEST DUP1 ISZERO PUSH2 0xC1F JUMPI DUP1 PUSH1 0x1F LT PUSH2 0xBF4 JUMPI PUSH2 0x100 DUP1 DUP4 SLOAD DIV MUL DUP4 MSTORE SWAP2 PUSH1 0x20 ADD SWAP2 PUSH2 0xC1F JUMP JUMPDEST DUP3 ADD SWAP2 SWAP1 PUSH1 0x0 MSTORE PUSH1 0x20 PUSH1 0x0 KECCAK256 SWAP1 JUMPDEST DUP2 SLOAD DUP2 MSTORE SWAP1 PUSH1 0x1 ADD SWAP1 PUSH1 0x20 ADD DUP1 DUP4 GT PUSH2 0xC02 JUMPI DUP3 SWAP1 SUB PUSH1 0x1F AND DUP3 ADD SWAP2 JUMPDEST POP POP POP POP POP SWAP2 POP SWAP8 POP SWAP8 POP SWAP8 POP SWAP8 POP SWAP8 POP SWAP8 POP POP POP SWAP3 SWAP6 POP SWAP3 SWAP6 POP SWAP3 SWAP6 JUMP JUMPDEST PUSH1 0x0 DUP2 DUP2 MSTORE PUSH1 0x1 PUSH1 0x20 DUP2 SWAP1 MSTORE PUSH1 0x40 DUP3 KECCAK256 DUP1 SLOAD SWAP2 DUP2 ADD SLOAD PUSH1 0x3 DUP3 ADD SLOAD PUSH1 0x4 DUP4 ADD SLOAD PUSH1 0x5 DUP5 ADD SLOAD PUSH1 0x6 DUP6 ADD SLOAD PUSH1 0x2 DUP7 ADD DUP1 SLOAD DUP10 SWAP9 PUSH1 0x60 SWAP9 DUP11 SWAP9 DUP10 SWAP9 DUP10 SWAP9 DUP10 SWAP9 DUP10 SWAP9 SWAP5 SWAP8 PUSH1 0x1 PUSH1 0x1 PUSH1 0xA0 SHL SUB SWAP7 DUP8 AND SWAP8 SWAP5 DUP8 AND SWAP7 SWAP1 SWAP6 SWAP4 SWAP5 SWAP3 SWAP4 SWAP2 SWAP3 PUSH1 0xFF DUP4 AND SWAP3 PUSH2 0x100 SWAP1 DIV SWAP1 SWAP2 AND SWAP1 DUP7 SWAP1 PUSH2 0xCB0 SWAP1 PUSH2 0x1C53 JUMP JUMPDEST DUP1 PUSH1 0x1F ADD PUSH1 0x20 DUP1 SWAP2 DIV MUL PUSH1 0x20 ADD PUSH1 0x40 MLOAD SWAP1 DUP2 ADD PUSH1 0x40 MSTORE DUP1 SWAP3 SWAP2 SWAP1 DUP2 DUP2 MSTORE PUSH1 0x20 ADD DUP3 DUP1 SLOAD PUSH2 0xCDC SWAP1 PUSH2 0x1C53 JUMP JUMPDEST DUP1 ISZERO PUSH2 0xD29 JUMPI DUP1 PUSH1 0x1F LT PUSH2 0xCFE JUMPI PUSH2 0x100 DUP1 DUP4 SLOAD DIV MUL DUP4 MSTORE SWAP2 PUSH1 0x20 ADD SWAP2 PUSH2 0xD29 JUMP JUMPDEST DUP3 ADD SWAP2 SWAP1 PUSH1 0x0 MSTORE PUSH1 0x20 PUSH1 0x0 KECCAK256 SWAP1 JUMPDEST DUP2 SLOAD DUP2 MSTORE SWAP1 PUSH1 0x1 ADD SWAP1 PUSH1 0x20 ADD DUP1 DUP4 GT PUSH2 0xD0C JUMPI DUP3 SWAP1 SUB PUSH1 0x1F AND DUP3 ADD SWAP2 JUMPDEST POP POP POP POP POP SWAP6 POP SWAP9 POP SWAP9 POP SWAP9 POP SWAP9 POP SWAP9 POP SWAP9 POP SWAP9 POP SWAP9 POP POP SWAP2 SWAP4 SWAP6 SWAP8 POP SWAP2 SWAP4 SWAP6 SWAP8 JUMP JUMPDEST PUSH1 0x0 DUP3 DUP2 MSTORE PUSH1 0x1 PUSH1 0x20 MSTORE PUSH1 0x40 SWAP1 KECCAK256 DUP1 SLOAD PUSH1 0x1 PUSH1 0x1 PUSH1 0xA0 SHL SUB AND CALLER EQ DUP1 PUSH2 0xD7E JUMPI POP PUSH1 0x1 DUP2 ADD SLOAD PUSH1 0x1 PUSH1 0x1 PUSH1 0xA0 SHL SUB AND CALLER EQ JUMPDEST PUSH2 0xDDC JUMPI PUSH1 0x40 MLOAD PUSH3 0x461BCD PUSH1 0xE5 SHL DUP2 MSTORE PUSH1 0x20 PUSH1 0x4 DUP3 ADD MSTORE PUSH1 0x29 PUSH1 0x24 DUP3 ADD MSTORE PUSH32 0x4F6E6C79206174686C657465206F722073706F6E736F722063616E2072616973 PUSH1 0x44 DUP3 ADD MSTORE PUSH9 0x652064697370757465 PUSH1 0xB8 SHL PUSH1 0x64 DUP3 ADD MSTORE PUSH1 0x84 ADD PUSH2 0x35D JUMP JUMPDEST PUSH1 0x1 PUSH1 0x6 DUP3 ADD SLOAD PUSH1 0xFF AND PUSH1 0x4 DUP2 GT ISZERO PUSH2 0xDF7 JUMPI PUSH2 0xDF7 PUSH2 0x192E JUMP JUMPDEST EQ PUSH2 0xE14 JUMPI PUSH1 0x40 MLOAD PUSH3 0x461BCD PUSH1 0xE5 SHL DUP2 MSTORE PUSH1 0x4 ADD PUSH2 0x35D SWAP1 PUSH2 0x1E8D JUMP JUMPDEST PUSH1 0x6 DUP2 ADD DUP1 SLOAD PUSH1 0xFF NOT AND PUSH1 0x3 OR SWAP1 SSTORE PUSH1 0x40 MLOAD DUP4 SWAP1 PUSH32 0xE07AD455E24561261E9047AAB2F668AE1FC2CC6FDA35021764673613B888836D SWAP1 PUSH2 0xA92 SWAP1 DUP6 SWAP1 PUSH2 0x1E73 JUMP JUMPDEST PUSH1 0x0 DUP5 DUP5 GT PUSH2 0xEB0 JUMPI PUSH1 0x40 MLOAD PUSH3 0x461BCD PUSH1 0xE5 SHL DUP2 MSTORE PUSH1 0x20 PUSH1 0x4 DUP3 ADD MSTORE PUSH1 0x21 PUSH1 0x24 DUP3 ADD MSTORE PUSH32 0x456E642064617465206D75737420626520616674657220737461727420646174 PUSH1 0x44 DUP3 ADD MSTORE PUSH1 0x65 PUSH1 0xF8 SHL PUSH1 0x64 DUP3 ADD MSTORE PUSH1 0x84 ADD PUSH2 0x35D JUMP JUMPDEST PUSH1 0x1 PUSH1 0x1 PUSH1 0xA0 SHL SUB DUP10 AND ISZERO DUP1 ISZERO SWAP1 PUSH2 0xED0 JUMPI POP PUSH1 0x1 PUSH1 0x1 PUSH1 0xA0 SHL SUB DUP9 AND ISZERO ISZERO JUMPDEST PUSH2 0xF10 JUMPI PUSH1 0x40 MLOAD PUSH3 0x461BCD PUSH1 0xE5 SHL DUP2 MSTORE PUSH1 0x20 PUSH1 0x4 DUP3 ADD MSTORE PUSH1 0x11 PUSH1 0x24 DUP3 ADD MSTORE PUSH17 0x496E76616C696420616464726573736573 PUSH1 0x78 SHL PUSH1 0x44 DUP3 ADD MSTORE PUSH1 0x64 ADD PUSH2 0x35D JUMP JUMPDEST PUSH1 0x2 DUP1 SLOAD PUSH1 0x0 SWAP2 DUP3 PUSH2 0xF21 DUP4 PUSH2 0x1C21 JUMP JUMPDEST SWAP1 SWAP2 SSTORE POP PUSH1 0x0 DUP2 DUP2 MSTORE PUSH1 0x1 PUSH1 0x20 DUP2 SWAP1 MSTORE PUSH1 0x40 SWAP1 SWAP2 KECCAK256 DUP1 SLOAD PUSH1 0x1 PUSH1 0x1 PUSH1 0xA0 SHL SUB DUP1 DUP16 AND PUSH1 0x1 PUSH1 0x1 PUSH1 0xA0 SHL SUB NOT SWAP3 DUP4 AND OR DUP4 SSTORE SWAP3 DUP3 ADD DUP1 SLOAD SWAP4 DUP15 AND SWAP4 SWAP1 SWAP2 AND SWAP3 SWAP1 SWAP3 OR SWAP1 SWAP2 SSTORE SWAP1 SWAP2 POP PUSH1 0x2 DUP2 ADD PUSH2 0xF76 DUP11 DUP3 PUSH2 0x1CD8 JUMP JUMPDEST POP PUSH1 0x3 DUP2 ADD DUP9 SWAP1 SSTORE PUSH1 0x4 DUP2 ADD DUP8 SWAP1 SSTORE PUSH1 0x5 DUP2 ADD DUP7 SWAP1 SSTORE PUSH1 0x6 DUP2 ADD DUP1 SLOAD PUSH1 0x1 PUSH1 0x1 PUSH1 0xA8 SHL SUB NOT AND PUSH2 0x100 PUSH1 0x1 PUSH1 0x1 PUSH1 0xA0 SHL SUB DUP9 AND MUL OR SWAP1 SSTORE DUP4 MLOAD PUSH2 0xFC2 SWAP1 PUSH1 0x8 DUP4 ADD SWAP1 PUSH1 0x20 DUP8 ADD SWAP1 PUSH2 0x15CA JUMP JUMPDEST POP PUSH1 0x40 DUP1 MLOAD PUSH1 0x1 PUSH1 0x1 PUSH1 0xA0 SHL SUB DUP1 DUP15 AND DUP3 MSTORE DUP13 AND PUSH1 0x20 DUP3 ADD MSTORE DUP4 SWAP2 PUSH32 0x56560A52C047ED21FD801BF0F345B23D9AF696F7922FF8E63101AF5D48CADDAB SWAP2 ADD PUSH1 0x40 MLOAD DUP1 SWAP2 SUB SWAP1 LOG2 POP SWAP10 SWAP9 POP POP POP POP POP POP POP POP POP JUMP JUMPDEST PUSH1 0x0 DUP4 DUP2 MSTORE PUSH1 0x1 PUSH1 0x20 MSTORE PUSH1 0x40 SWAP1 KECCAK256 DUP1 SLOAD PUSH1 0x1 PUSH1 0x1 PUSH1 0xA0 SHL SUB AND CALLER EQ PUSH2 0x1089 JUMPI PUSH1 0x40 MLOAD PUSH3 0x461BCD PUSH1 0xE5 SHL DUP2 MSTORE PUSH1 0x20 PUSH1 0x4 DUP3 ADD MSTORE PUSH1 0x23 PUSH1 0x24 DUP3 ADD MSTORE PUSH32 0x4F6E6C79206174686C6574652063616E20636F6D706C657465206D696C657374 PUSH1 0x44 DUP3 ADD MSTORE PUSH3 0x6F6E65 PUSH1 0xE8 SHL PUSH1 0x64 DUP3 ADD MSTORE PUSH1 0x84 ADD PUSH2 0x35D JUMP JUMPDEST PUSH1 0x1 PUSH1 0x6 DUP3 ADD SLOAD PUSH1 0xFF AND PUSH1 0x4 DUP2 GT ISZERO PUSH2 0x10A4 JUMPI PUSH2 0x10A4 PUSH2 0x192E JUMP JUMPDEST EQ PUSH2 0x10C1 JUMPI PUSH1 0x40 MLOAD PUSH3 0x461BCD PUSH1 0xE5 SHL DUP2 MSTORE PUSH1 0x4 ADD PUSH2 0x35D SWAP1 PUSH2 0x1E8D JUMP JUMPDEST PUSH1 0x0 DUP2 PUSH1 0x7 ADD DUP5 DUP2 SLOAD DUP2 LT PUSH2 0x10D8 JUMPI PUSH2 0x10D8 PUSH2 0x1BF5 JUMP JUMPDEST PUSH1 0x0 SWAP2 DUP3 MSTORE PUSH1 0x20 DUP3 KECCAK256 PUSH1 0x6 SWAP1 SWAP2 MUL ADD SWAP2 POP PUSH1 0x3 DUP1 DUP4 ADD SLOAD PUSH1 0xFF AND SWAP1 DUP2 GT ISZERO PUSH2 0x1102 JUMPI PUSH2 0x1102 PUSH2 0x192E JUMP JUMPDEST EQ PUSH2 0x114F JUMPI PUSH1 0x40 MLOAD PUSH3 0x461BCD PUSH1 0xE5 SHL DUP2 MSTORE PUSH1 0x20 PUSH1 0x4 DUP3 ADD MSTORE PUSH1 0x18 PUSH1 0x24 DUP3 ADD MSTORE PUSH32 0x496E76616C6964206D696C6573746F6E65207374617475730000000000000000 PUSH1 0x44 DUP3 ADD MSTORE PUSH1 0x64 ADD PUSH2 0x35D JUMP JUMPDEST PUSH1 0x3 DUP2 ADD DUP1 SLOAD PUSH1 0xFF NOT AND PUSH1 0x1 OR SWAP1 SSTORE PUSH1 0x4 DUP2 ADD PUSH2 0x116C DUP5 DUP3 PUSH2 0x1CD8 JUMP JUMPDEST POP DUP5 PUSH32 0x1B7218C0AC23EA9CBE4DF603D2B340FBF469A115B73EA3D11460727F445D6BE1 DUP6 PUSH1 0x40 MLOAD PUSH2 0x119F SWAP2 DUP2 MSTORE PUSH1 0x20 ADD SWAP1 JUMP JUMPDEST PUSH1 0x40 MLOAD DUP1 SWAP2 SUB SWAP1 LOG2 POP POP POP POP POP JUMP JUMPDEST PUSH2 0x11B6 PUSH2 0x1571 JUMP JUMPDEST PUSH1 0x0 DUP3 DUP2 MSTORE PUSH1 0x1 PUSH1 0x20 DUP2 SWAP1 MSTORE PUSH1 0x40 SWAP1 SWAP2 KECCAK256 SWAP1 DUP2 ADD SLOAD PUSH1 0x1 PUSH1 0x1 PUSH1 0xA0 SHL SUB AND CALLER EQ PUSH2 0x1222 JUMPI PUSH1 0x40 MLOAD PUSH3 0x461BCD PUSH1 0xE5 SHL DUP2 MSTORE PUSH1 0x20 PUSH1 0x4 DUP3 ADD DUP2 SWAP1 MSTORE PUSH1 0x24 DUP3 ADD MSTORE PUSH32 0x4F6E6C792073706F6E736F722063616E2072656C65617365207061796D656E74 PUSH1 0x44 DUP3 ADD MSTORE PUSH1 0x64 ADD PUSH2 0x35D JUMP JUMPDEST PUSH1 0x1 PUSH1 0x6 DUP3 ADD SLOAD PUSH1 0xFF AND PUSH1 0x4 DUP2 GT ISZERO PUSH2 0x123D JUMPI PUSH2 0x123D PUSH2 0x192E JUMP JUMPDEST EQ PUSH2 0x125A JUMPI PUSH1 0x40 MLOAD PUSH3 0x461BCD PUSH1 0xE5 SHL DUP2 MSTORE PUSH1 0x4 ADD PUSH2 0x35D SWAP1 PUSH2 0x1E8D JUMP JUMPDEST PUSH1 0x0 DUP2 PUSH1 0x7 ADD DUP4 DUP2 SLOAD DUP2 LT PUSH2 0x1271 JUMPI PUSH2 0x1271 PUSH2 0x1BF5 JUMP JUMPDEST PUSH1 0x0 SWAP2 DUP3 MSTORE PUSH1 0x20 SWAP1 SWAP2 KECCAK256 PUSH1 0x6 SWAP1 SWAP2 MUL ADD SWAP1 POP PUSH1 0x1 PUSH1 0x3 DUP1 DUP4 ADD SLOAD PUSH1 0xFF AND SWAP1 DUP2 GT ISZERO PUSH2 0x129E JUMPI PUSH2 0x129E PUSH2 0x192E JUMP JUMPDEST EQ PUSH2 0x12EB JUMPI PUSH1 0x40 MLOAD PUSH3 0x461BCD PUSH1 0xE5 SHL DUP2 MSTORE PUSH1 0x20 PUSH1 0x4 DUP3 ADD MSTORE PUSH1 0x17 PUSH1 0x24 DUP3 ADD MSTORE PUSH32 0x4D696C6573746F6E65206E6F7420636F6D706C65746564000000000000000000 PUSH1 0x44 DUP3 ADD MSTORE PUSH1 0x64 ADD PUSH2 0x35D JUMP JUMPDEST PUSH1 0x5 DUP2 ADD SLOAD PUSH1 0xFF AND ISZERO PUSH2 0x1340 JUMPI PUSH1 0x40 MLOAD PUSH3 0x461BCD PUSH1 0xE5 SHL DUP2 MSTORE PUSH1 0x20 PUSH1 0x4 DUP3 ADD MSTORE PUSH1 0x18 PUSH1 0x24 DUP3 ADD MSTORE PUSH32 0x5061796D656E7420616C72656164792072656C65617365640000000000000000 PUSH1 0x44 DUP3 ADD MSTORE PUSH1 0x64 ADD PUSH2 0x35D JUMP JUMPDEST PUSH1 0x1 DUP2 ADD SLOAD PUSH1 0x6 DUP4 ADD SLOAD PUSH2 0x100 SWAP1 DIV PUSH1 0x1 PUSH1 0x1 PUSH1 0xA0 SHL SUB AND PUSH2 0x1449 JUMPI DUP1 CALLVALUE EQ PUSH2 0x13AB JUMPI PUSH1 0x40 MLOAD PUSH3 0x461BCD PUSH1 0xE5 SHL DUP2 MSTORE PUSH1 0x20 PUSH1 0x4 DUP3 ADD MSTORE PUSH1 0x18 PUSH1 0x24 DUP3 ADD MSTORE PUSH32 0x496E636F7272656374207061796D656E7420616D6F756E740000000000000000 PUSH1 0x44 DUP3 ADD MSTORE PUSH1 0x64 ADD PUSH2 0x35D JUMP JUMPDEST DUP3 SLOAD PUSH1 0x40 MLOAD PUSH1 0x0 SWAP2 PUSH1 0x1 PUSH1 0x1 PUSH1 0xA0 SHL SUB AND SWAP1 DUP4 SWAP1 DUP4 DUP2 DUP2 DUP2 DUP6 DUP8 GAS CALL SWAP3 POP POP POP RETURNDATASIZE DUP1 PUSH1 0x0 DUP2 EQ PUSH2 0x13F7 JUMPI PUSH1 0x40 MLOAD SWAP2 POP PUSH1 0x1F NOT PUSH1 0x3F RETURNDATASIZE ADD AND DUP3 ADD PUSH1 0x40 MSTORE RETURNDATASIZE DUP3 MSTORE RETURNDATASIZE PUSH1 0x0 PUSH1 0x20 DUP5 ADD RETURNDATACOPY PUSH2 0x13FC JUMP JUMPDEST PUSH1 0x60 SWAP2 POP JUMPDEST POP POP SWAP1 POP DUP1 PUSH2 0x1443 JUMPI PUSH1 0x40 MLOAD PUSH3 0x461BCD PUSH1 0xE5 SHL DUP2 MSTORE PUSH1 0x20 PUSH1 0x4 DUP3 ADD MSTORE PUSH1 0x13 PUSH1 0x24 DUP3 ADD MSTORE PUSH19 0x115512081D1C985B9CD9995C8819985A5B1959 PUSH1 0x6A SHL PUSH1 0x44 DUP3 ADD MSTORE PUSH1 0x64 ADD PUSH2 0x35D JUMP JUMPDEST POP PUSH2 0x1516 JUMP JUMPDEST PUSH1 0x6 DUP4 ADD SLOAD DUP4 SLOAD PUSH1 0x40 MLOAD PUSH4 0x23B872DD PUSH1 0xE0 SHL DUP2 MSTORE CALLER PUSH1 0x4 DUP3 ADD MSTORE PUSH1 0x1 PUSH1 0x1 PUSH1 0xA0 SHL SUB SWAP2 DUP3 AND PUSH1 0x24 DUP3 ADD MSTORE PUSH1 0x44 DUP2 ADD DUP5 SWAP1 MSTORE PUSH2 0x100 SWAP1 SWAP3 DIV AND SWAP1 DUP2 SWAP1 PUSH4 0x23B872DD SWAP1 PUSH1 0x64 ADD PUSH1 0x20 PUSH1 0x40 MLOAD DUP1 DUP4 SUB DUP2 PUSH1 0x0 DUP8 GAS CALL ISZERO DUP1 ISZERO PUSH2 0x14AC JUMPI RETURNDATASIZE PUSH1 0x0 DUP1 RETURNDATACOPY RETURNDATASIZE PUSH1 0x0 REVERT JUMPDEST POP POP POP POP PUSH1 0x40 MLOAD RETURNDATASIZE PUSH1 0x1F NOT PUSH1 0x1F DUP3 ADD AND DUP3 ADD DUP1 PUSH1 0x40 MSTORE POP DUP2 ADD SWAP1 PUSH2 0x14D0 SWAP2 SWAP1 PUSH2 0x1EBA JUMP JUMPDEST PUSH2 0x1514 JUMPI PUSH1 0x40 MLOAD PUSH3 0x461BCD PUSH1 0xE5 SHL DUP2 MSTORE PUSH1 0x20 PUSH1 0x4 DUP3 ADD MSTORE PUSH1 0x15 PUSH1 0x24 DUP3 ADD MSTORE PUSH21 0x151BDAD95B881D1C985B9CD9995C8819985A5B1959 PUSH1 0x5A SHL PUSH1 0x44 DUP3 ADD MSTORE PUSH1 0x64 ADD PUSH2 0x35D JUMP JUMPDEST POP JUMPDEST PUSH1 0x5 DUP3 ADD DUP1 SLOAD PUSH1 0xFF NOT AND PUSH1 0x1 OR SWAP1 SSTORE PUSH1 0x40 DUP1 MLOAD DUP6 DUP2 MSTORE PUSH1 0x20 DUP2 ADD DUP4 SWAP1 MSTORE DUP7 SWAP2 PUSH32 0x3C70B1E8034B5738EC77FBFDAA4D28906A0B3160018D67A2DC7B534E53E33FE0 SWAP2 ADD PUSH1 0x40 MLOAD DUP1 SWAP2 SUB SWAP1 LOG2 POP POP POP PUSH2 0x156D PUSH1 0x1 PUSH1 0x0 SSTORE JUMP JUMPDEST POP POP JUMP JUMPDEST PUSH1 0x2 PUSH1 0x0 SLOAD SUB PUSH2 0x15C3 JUMPI PUSH1 0x40 MLOAD PUSH3 0x461BCD PUSH1 0xE5 SHL DUP2 MSTORE PUSH1 0x20 PUSH1 0x4 DUP3 ADD MSTORE PUSH1 0x1F PUSH1 0x24 DUP3 ADD MSTORE PUSH32 0x5265656E7472616E637947756172643A207265656E7472616E742063616C6C00 PUSH1 0x44 DUP3 ADD MSTORE PUSH1 0x64 ADD PUSH2 0x35D JUMP JUMPDEST PUSH1 0x2 PUSH1 0x0 SSTORE JUMP JUMPDEST DUP3 DUP1 SLOAD DUP3 DUP3 SSTORE SWAP1 PUSH1 0x0 MSTORE PUSH1 0x20 PUSH1 0x0 KECCAK256 SWAP1 DUP2 ADD SWAP3 DUP3 ISZERO PUSH2 0x161F JUMPI SWAP2 PUSH1 0x20 MUL DUP3 ADD JUMPDEST DUP3 DUP2 GT ISZERO PUSH2 0x161F JUMPI DUP3 MLOAD DUP3 SLOAD PUSH1 0x1 PUSH1 0x1 PUSH1 0xA0 SHL SUB NOT AND PUSH1 0x1 PUSH1 0x1 PUSH1 0xA0 SHL SUB SWAP1 SWAP2 AND OR DUP3 SSTORE PUSH1 0x20 SWAP1 SWAP3 ADD SWAP2 PUSH1 0x1 SWAP1 SWAP2 ADD SWAP1 PUSH2 0x15EA JUMP JUMPDEST POP PUSH2 0x162B SWAP3 SWAP2 POP PUSH2 0x162F JUMP JUMPDEST POP SWAP1 JUMP JUMPDEST JUMPDEST DUP1 DUP3 GT ISZERO PUSH2 0x162B JUMPI PUSH1 0x0 DUP2 SSTORE PUSH1 0x1 ADD PUSH2 0x1630 JUMP JUMPDEST DUP1 ISZERO ISZERO DUP2 EQ PUSH2 0x1652 JUMPI PUSH1 0x0 DUP1 REVERT JUMPDEST POP JUMP JUMPDEST PUSH1 0x0 DUP1 PUSH1 0x40 DUP4 DUP6 SUB SLT ISZERO PUSH2 0x1668 JUMPI PUSH1 0x0 DUP1 REVERT JUMPDEST DUP3 CALLDATALOAD SWAP2 POP PUSH1 0x20 DUP4 ADD CALLDATALOAD PUSH2 0x167A DUP2 PUSH2 0x1644 JUMP JUMPDEST DUP1 SWAP2 POP POP SWAP3 POP SWAP3 SWAP1 POP JUMP JUMPDEST PUSH1 0x0 PUSH1 0x20 DUP3 DUP5 SUB SLT ISZERO PUSH2 0x1697 JUMPI PUSH1 0x0 DUP1 REVERT JUMPDEST POP CALLDATALOAD SWAP2 SWAP1 POP JUMP JUMPDEST PUSH4 0x4E487B71 PUSH1 0xE0 SHL PUSH1 0x0 MSTORE PUSH1 0x41 PUSH1 0x4 MSTORE PUSH1 0x24 PUSH1 0x0 REVERT JUMPDEST PUSH1 0x40 MLOAD PUSH1 0x1F DUP3 ADD PUSH1 0x1F NOT AND DUP2 ADD PUSH8 0xFFFFFFFFFFFFFFFF DUP2 GT DUP3 DUP3 LT OR ISZERO PUSH2 0x16DD JUMPI PUSH2 0x16DD PUSH2 0x169E JUMP JUMPDEST PUSH1 0x40 MSTORE SWAP2 SWAP1 POP JUMP JUMPDEST PUSH1 0x0 PUSH8 0xFFFFFFFFFFFFFFFF DUP3 GT ISZERO PUSH2 0x16FF JUMPI PUSH2 0x16FF PUSH2 0x169E JUMP JUMPDEST POP PUSH1 0x5 SHL PUSH1 0x20 ADD SWAP1 JUMP JUMPDEST PUSH1 0x0 DUP3 PUSH1 0x1F DUP4 ADD SLT PUSH2 0x171A JUMPI PUSH1 0x0 DUP1 REVERT JUMPDEST DUP2 CALLDATALOAD PUSH8 0xFFFFFFFFFFFFFFFF DUP2 GT ISZERO PUSH2 0x1734 JUMPI PUSH2 0x1734 PUSH2 0x169E JUMP JUMPDEST PUSH2 0x1747 PUSH1 0x1F DUP3 ADD PUSH1 0x1F NOT AND PUSH1 0x20 ADD PUSH2 0x16B4 JUMP JUMPDEST DUP2 DUP2 MSTORE DUP5 PUSH1 0x20 DUP4 DUP7 ADD ADD GT ISZERO PUSH2 0x175C JUMPI PUSH1 0x0 DUP1 REVERT JUMPDEST DUP2 PUSH1 0x20 DUP6 ADD PUSH1 0x20 DUP4 ADD CALLDATACOPY PUSH1 0x0 SWAP2 DUP2 ADD PUSH1 0x20 ADD SWAP2 SWAP1 SWAP2 MSTORE SWAP4 SWAP3 POP POP POP JUMP JUMPDEST PUSH1 0x0 DUP3 PUSH1 0x1F DUP4 ADD SLT PUSH2 0x178A JUMPI PUSH1 0x0 DUP1 REVERT JUMPDEST DUP2 CALLDATALOAD PUSH1 0x20 PUSH2 0x179F PUSH2 0x179A DUP4 PUSH2 0x16E5 JUMP JUMPDEST PUSH2 0x16B4 JUMP JUMPDEST DUP3 DUP2 MSTORE PUSH1 0x5 SWAP3 SWAP1 SWAP3 SHL DUP5 ADD DUP2 ADD SWAP2 DUP2 DUP2 ADD SWAP1 DUP7 DUP5 GT ISZERO PUSH2 0x17BE JUMPI PUSH1 0x0 DUP1 REVERT JUMPDEST DUP3 DUP7 ADD JUMPDEST DUP5 DUP2 LT ISZERO PUSH2 0x17D9 JUMPI DUP1 CALLDATALOAD DUP4 MSTORE SWAP2 DUP4 ADD SWAP2 DUP4 ADD PUSH2 0x17C2 JUMP JUMPDEST POP SWAP7 SWAP6 POP POP POP POP POP POP JUMP JUMPDEST PUSH1 0x0 DUP1 PUSH1 0x0 DUP1 PUSH1 0x80 DUP6 DUP8 SUB SLT ISZERO PUSH2 0x17FA JUMPI PUSH1 0x0 DUP1 REVERT JUMPDEST DUP5 CALLDATALOAD SWAP4 POP PUSH1 0x20 DUP1 DUP7 ADD CALLDATALOAD PUSH8 0xFFFFFFFFFFFFFFFF DUP1 DUP3 GT ISZERO PUSH2 0x181A JUMPI PUSH1 0x0 DUP1 REVERT JUMPDEST DUP2 DUP9 ADD SWAP2 POP DUP9 PUSH1 0x1F DUP4 ADD SLT PUSH2 0x182E JUMPI PUSH1 0x0 DUP1 REVERT JUMPDEST DUP2 CALLDATALOAD PUSH2 0x183C PUSH2 0x179A DUP3 PUSH2 0x16E5 JUMP JUMPDEST DUP2 DUP2 MSTORE PUSH1 0x5 SWAP2 SWAP1 SWAP2 SHL DUP4 ADD DUP5 ADD SWAP1 DUP5 DUP2 ADD SWAP1 DUP12 DUP4 GT ISZERO PUSH2 0x185B JUMPI PUSH1 0x0 DUP1 REVERT JUMPDEST DUP6 DUP6 ADD JUMPDEST DUP4 DUP2 LT ISZERO PUSH2 0x1893 JUMPI DUP1 CALLDATALOAD DUP6 DUP2 GT ISZERO PUSH2 0x1877 JUMPI PUSH1 0x0 DUP1 DUP2 REVERT JUMPDEST PUSH2 0x1885 DUP15 DUP10 DUP4 DUP11 ADD ADD PUSH2 0x1709 JUMP JUMPDEST DUP5 MSTORE POP SWAP2 DUP7 ADD SWAP2 DUP7 ADD PUSH2 0x185F JUMP JUMPDEST POP SWAP8 POP POP POP PUSH1 0x40 DUP9 ADD CALLDATALOAD SWAP3 POP DUP1 DUP4 GT ISZERO PUSH2 0x18AC JUMPI PUSH1 0x0 DUP1 REVERT JUMPDEST PUSH2 0x18B8 DUP10 DUP5 DUP11 ADD PUSH2 0x1779 JUMP JUMPDEST SWAP5 POP PUSH1 0x60 DUP9 ADD CALLDATALOAD SWAP3 POP DUP1 DUP4 GT ISZERO PUSH2 0x18CE JUMPI PUSH1 0x0 DUP1 REVERT JUMPDEST POP POP PUSH2 0x18DC DUP8 DUP3 DUP9 ADD PUSH2 0x1779 JUMP JUMPDEST SWAP2 POP POP SWAP3 SWAP6 SWAP2 SWAP5 POP SWAP3 POP JUMP JUMPDEST PUSH1 0x0 DUP2 MLOAD DUP1 DUP5 MSTORE PUSH1 0x0 JUMPDEST DUP2 DUP2 LT ISZERO PUSH2 0x190E JUMPI PUSH1 0x20 DUP2 DUP6 ADD DUP2 ADD MLOAD DUP7 DUP4 ADD DUP3 ADD MSTORE ADD PUSH2 0x18F2 JUMP JUMPDEST POP PUSH1 0x0 PUSH1 0x20 DUP3 DUP7 ADD ADD MSTORE PUSH1 0x20 PUSH1 0x1F NOT PUSH1 0x1F DUP4 ADD AND DUP6 ADD ADD SWAP2 POP POP SWAP3 SWAP2 POP POP JUMP JUMPDEST PUSH4 0x4E487B71 PUSH1 0xE0 SHL PUSH1 0x0 MSTORE PUSH1 0x21 PUSH1 0x4 MSTORE PUSH1 0x24 PUSH1 0x0 REVERT JUMPDEST PUSH1 0x1 PUSH1 0x1 PUSH1 0xA0 SHL SUB DUP10 DUP2 AND DUP3 MSTORE DUP9 DUP2 AND PUSH1 0x20 DUP4 ADD MSTORE PUSH2 0x100 PUSH1 0x40 DUP4 ADD DUP2 SWAP1 MSTORE PUSH1 0x0 SWAP2 PUSH2 0x1972 DUP5 DUP4 ADD DUP12 PUSH2 0x18E8 JUMP JUMPDEST SWAP3 POP DUP9 PUSH1 0x60 DUP6 ADD MSTORE DUP8 PUSH1 0x80 DUP6 ADD MSTORE DUP7 PUSH1 0xA0 DUP6 ADD MSTORE PUSH1 0x5 DUP7 LT PUSH2 0x1996 JUMPI PUSH2 0x1996 PUSH2 0x192E JUMP JUMPDEST DUP6 PUSH1 0xC0 DUP6 ADD MSTORE DUP1 DUP6 AND PUSH1 0xE0 DUP6 ADD MSTORE POP POP SWAP10 SWAP9 POP POP POP POP POP POP POP POP POP JUMP JUMPDEST PUSH1 0x0 DUP1 PUSH1 0x40 DUP4 DUP6 SUB SLT ISZERO PUSH2 0x19C6 JUMPI PUSH1 0x0 DUP1 REVERT JUMPDEST DUP3 CALLDATALOAD SWAP2 POP PUSH1 0x20 DUP4 ADD CALLDATALOAD PUSH8 0xFFFFFFFFFFFFFFFF DUP2 GT ISZERO PUSH2 0x19E4 JUMPI PUSH1 0x0 DUP1 REVERT JUMPDEST PUSH2 0x19F0 DUP6 DUP3 DUP7 ADD PUSH2 0x1709 JUMP JUMPDEST SWAP2 POP POP SWAP3 POP SWAP3 SWAP1 POP JUMP JUMPDEST PUSH1 0x0 DUP1 PUSH1 0x40 DUP4 DUP6 SUB SLT ISZERO PUSH2 0x1A0D JUMPI PUSH1 0x0 DUP1 REVERT JUMPDEST POP POP DUP1 CALLDATALOAD SWAP3 PUSH1 0x20 SWAP1 SWAP2 ADD CALLDATALOAD SWAP2 POP JUMP JUMPDEST PUSH1 0xC0 DUP2 MSTORE PUSH1 0x0 PUSH2 0x1A2F PUSH1 0xC0 DUP4 ADD DUP10 PUSH2 0x18E8 JUMP JUMPDEST DUP8 PUSH1 0x20 DUP5 ADD MSTORE DUP7 PUSH1 0x40 DUP5 ADD MSTORE PUSH1 0x4 DUP7 LT PUSH2 0x1A4B JUMPI PUSH2 0x1A4B PUSH2 0x192E JUMP JUMPDEST DUP6 PUSH1 0x60 DUP5 ADD MSTORE DUP3 DUP2 SUB PUSH1 0x80 DUP5 ADD MSTORE PUSH2 0x1A63 DUP2 DUP7 PUSH2 0x18E8 JUMP JUMPDEST SWAP2 POP POP DUP3 ISZERO ISZERO PUSH1 0xA0 DUP4 ADD MSTORE SWAP8 SWAP7 POP POP POP POP POP POP POP JUMP JUMPDEST DUP1 CALLDATALOAD PUSH1 0x1 PUSH1 0x1 PUSH1 0xA0 SHL SUB DUP2 AND DUP2 EQ PUSH2 0x1A90 JUMPI PUSH1 0x0 DUP1 REVERT JUMPDEST SWAP2 SWAP1 POP JUMP JUMPDEST PUSH1 0x0 DUP1 PUSH1 0x0 DUP1 PUSH1 0x0 DUP1 PUSH1 0x0 DUP1 PUSH2 0x100 DUP10 DUP12 SUB SLT ISZERO PUSH2 0x1AB2 JUMPI PUSH1 0x0 DUP1 REVERT JUMPDEST PUSH2 0x1ABB DUP10 PUSH2 0x1A79 JUMP JUMPDEST SWAP8 POP PUSH1 0x20 PUSH2 0x1ACA DUP2 DUP12 ADD PUSH2 0x1A79 JUMP JUMPDEST SWAP8 POP PUSH1 0x40 DUP11 ADD CALLDATALOAD PUSH8 0xFFFFFFFFFFFFFFFF DUP1 DUP3 GT ISZERO PUSH2 0x1AE7 JUMPI PUSH1 0x0 DUP1 REVERT JUMPDEST PUSH2 0x1AF3 DUP14 DUP4 DUP15 ADD PUSH2 0x1709 JUMP JUMPDEST SWAP9 POP PUSH1 0x60 DUP13 ADD CALLDATALOAD SWAP8 POP PUSH1 0x80 DUP13 ADD CALLDATALOAD SWAP7 POP PUSH1 0xA0 DUP13 ADD CALLDATALOAD SWAP6 POP PUSH2 0x1B16 PUSH1 0xC0 DUP14 ADD PUSH2 0x1A79 JUMP JUMPDEST SWAP5 POP PUSH1 0xE0 DUP13 ADD CALLDATALOAD SWAP2 POP DUP1 DUP3 GT ISZERO PUSH2 0x1B2C JUMPI PUSH1 0x0 DUP1 REVERT JUMPDEST POP DUP11 ADD PUSH1 0x1F DUP2 ADD DUP13 SGT PUSH2 0x1B3E JUMPI PUSH1 0x0 DUP1 REVERT JUMPDEST DUP1 CALLDATALOAD PUSH2 0x1B4C PUSH2 0x179A DUP3 PUSH2 0x16E5 JUMP JUMPDEST DUP2 DUP2 MSTORE PUSH1 0x5 SWAP2 SWAP1 SWAP2 SHL DUP3 ADD DUP4 ADD SWAP1 DUP4 DUP2 ADD SWAP1 DUP15 DUP4 GT ISZERO PUSH2 0x1B6B JUMPI PUSH1 0x0 DUP1 REVERT JUMPDEST SWAP3 DUP5 ADD SWAP3 JUMPDEST DUP3 DUP5 LT ISZERO PUSH2 0x1B90 JUMPI PUSH2 0x1B81 DUP5 PUSH2 0x1A79 JUMP JUMPDEST DUP3 MSTORE SWAP3 DUP5 ADD SWAP3 SWAP1 DUP5 ADD SWAP1 PUSH2 0x1B70 JUMP JUMPDEST DUP1 SWAP6 POP POP POP POP POP POP SWAP3 SWAP6 SWAP9 POP SWAP3 SWAP6 SWAP9 SWAP1 SWAP4 SWAP7 POP JUMP JUMPDEST PUSH1 0x0 DUP1 PUSH1 0x0 PUSH1 0x60 DUP5 DUP7 SUB SLT ISZERO PUSH2 0x1BBA JUMPI PUSH1 0x0 DUP1 REVERT JUMPDEST DUP4 CALLDATALOAD SWAP3 POP PUSH1 0x20 DUP5 ADD CALLDATALOAD SWAP2 POP PUSH1 0x40 DUP5 ADD CALLDATALOAD PUSH8 0xFFFFFFFFFFFFFFFF DUP2 GT ISZERO PUSH2 0x1BDF JUMPI PUSH1 0x0 DUP1 REVERT JUMPDEST PUSH2 0x1BEB DUP7 DUP3 DUP8 ADD PUSH2 0x1709 JUMP JUMPDEST SWAP2 POP POP SWAP3 POP SWAP3 POP SWAP3 JUMP JUMPDEST PUSH4 0x4E487B71 PUSH1 0xE0 SHL PUSH1 0x0 MSTORE PUSH1 0x32 PUSH1 0x4 MSTORE PUSH1 0x24 PUSH1 0x0 REVERT JUMPDEST PUSH4 0x4E487B71 PUSH1 0xE0 SHL PUSH1 0x0 MSTORE PUSH1 0x11 PUSH1 0x4 MSTORE PUSH1 0x24 PUSH1 0x0 REVERT JUMPDEST PUSH1 0x0 PUSH1 0x1 DUP3 ADD PUSH2 0x1C33 JUMPI PUSH2 0x1C33 PUSH2 0x1C0B JUMP JUMPDEST POP PUSH1 0x1 ADD SWAP1 JUMP JUMPDEST DUP1 DUP3 ADD DUP1 DUP3 GT ISZERO PUSH2 0x1C4D JUMPI PUSH2 0x1C4D PUSH2 0x1C0B JUMP JUMPDEST SWAP3 SWAP2 POP POP JUMP JUMPDEST PUSH1 0x1 DUP2 DUP2 SHR SWAP1 DUP3 AND DUP1 PUSH2 0x1C67 JUMPI PUSH1 0x7F DUP3 AND SWAP2 POP JUMPDEST PUSH1 0x20 DUP3 LT DUP2 SUB PUSH2 0x1C87 JUMPI PUSH4 0x4E487B71 PUSH1 0xE0 SHL PUSH1 0x0 MSTORE PUSH1 0x22 PUSH1 0x4 MSTORE PUSH1 0x24 PUSH1 0x0 REVERT JUMPDEST POP SWAP2 SWAP1 POP JUMP JUMPDEST PUSH1 0x1F DUP3 GT ISZERO PUSH2 0x1CD3 JUMPI PUSH1 0x0 DUP2 DUP2 MSTORE PUSH1 0x20 DUP2 KECCAK256 PUSH1 0x1F DUP6 ADD PUSH1 0x5 SHR DUP2 ADD PUSH1 0x20 DUP7 LT ISZERO PUSH2 0x1CB4 JUMPI POP DUP1 JUMPDEST PUSH1 0x1F DUP6 ADD PUSH1 0x5 SHR DUP3 ADD SWAP2 POP JUMPDEST DUP2 DUP2 LT ISZERO PUSH2 0x8B7 JUMPI DUP3 DUP2 SSTORE PUSH1 0x1 ADD PUSH2 0x1CC0 JUMP JUMPDEST POP POP POP JUMP JUMPDEST DUP2 MLOAD PUSH8 0xFFFFFFFFFFFFFFFF DUP2 GT ISZERO PUSH2 0x1CF2 JUMPI PUSH2 0x1CF2 PUSH2 0x169E JUMP JUMPDEST PUSH2 0x1D06 DUP2 PUSH2 0x1D00 DUP5 SLOAD PUSH2 0x1C53 JUMP JUMPDEST DUP5 PUSH2 0x1C8D JUMP JUMPDEST PUSH1 0x20 DUP1 PUSH1 0x1F DUP4 GT PUSH1 0x1 DUP2 EQ PUSH2 0x1D3B JUMPI PUSH1 0x0 DUP5 ISZERO PUSH2 0x1D23 JUMPI POP DUP6 DUP4 ADD MLOAD JUMPDEST PUSH1 0x0 NOT PUSH1 0x3 DUP7 SWAP1 SHL SHR NOT AND PUSH1 0x1 DUP6 SWAP1 SHL OR DUP6 SSTORE PUSH2 0x8B7 JUMP JUMPDEST PUSH1 0x0 DUP6 DUP2 MSTORE PUSH1 0x20 DUP2 KECCAK256 PUSH1 0x1F NOT DUP7 AND SWAP2 JUMPDEST DUP3 DUP2 LT ISZERO PUSH2 0x1D6A JUMPI DUP9 DUP7 ADD MLOAD DUP3 SSTORE SWAP5 DUP5 ADD SWAP5 PUSH1 0x1 SWAP1 SWAP2 ADD SWAP1 DUP5 ADD PUSH2 0x1D4B JUMP JUMPDEST POP DUP6 DUP3 LT ISZERO PUSH2 0x1D88 JUMPI DUP8 DUP6 ADD MLOAD PUSH1 0x0 NOT PUSH1 0x3 DUP9 SWAP1 SHL PUSH1 0xF8 AND SHR NOT AND DUP2 SSTORE JUMPDEST POP POP POP POP POP PUSH1 0x1 SWAP1 DUP2 SHL ADD SWAP1 SSTORE POP JUMP JUMPDEST DUP2 DUP2 SUB PUSH2 0x1DA3 JUMPI POP POP JUMP JUMPDEST PUSH2 0x1DAD DUP3 SLOAD PUSH2 0x1C53 JUMP JUMPDEST PUSH8 0xFFFFFFFFFFFFFFFF DUP2 GT ISZERO PUSH2 0x1DC5 JUMPI PUSH2 0x1DC5 PUSH2 0x169E JUMP JUMPDEST PUSH2 0x1DD3 DUP2 PUSH2 0x1D00 DUP5 SLOAD PUSH2 0x1C53 JUMP JUMPDEST PUSH1 0x0 PUSH1 0x1F DUP3 GT PUSH1 0x1 DUP2 EQ PUSH2 0x1E07 JUMPI PUSH1 0x0 DUP4 ISZERO PUSH2 0x1DEF JUMPI POP DUP5 DUP3 ADD SLOAD JUMPDEST PUSH1 0x0 NOT PUSH1 0x3 DUP6 SWAP1 SHL SHR NOT AND PUSH1 0x1 DUP5 SWAP1 SHL OR DUP5 SSTORE PUSH2 0x1E6C JUMP JUMPDEST PUSH1 0x0 DUP6 DUP2 MSTORE PUSH1 0x20 SWAP1 KECCAK256 PUSH1 0x1F NOT DUP5 AND SWAP1 PUSH1 0x0 DUP7 DUP2 MSTORE PUSH1 0x20 SWAP1 KECCAK256 DUP5 JUMPDEST DUP4 DUP2 LT ISZERO PUSH2 0x1E41 JUMPI DUP3 DUP7 ADD SLOAD DUP3 SSTORE PUSH1 0x1 SWAP6 DUP7 ADD SWAP6 SWAP1 SWAP2 ADD SWAP1 PUSH1 0x20 ADD PUSH2 0x1E21 JUMP JUMPDEST POP DUP6 DUP4 LT ISZERO PUSH2 0x1E5F JUMPI DUP2 DUP6 ADD SLOAD PUSH1 0x0 NOT PUSH1 0x3 DUP9 SWAP1 SHL PUSH1 0xF8 AND SHR NOT AND DUP2 SSTORE JUMPDEST POP POP POP PUSH1 0x1 DUP4 PUSH1 0x1 SHL ADD DUP5 SSTORE JUMPDEST POP POP POP POP POP JUMP JUMPDEST PUSH1 0x20 DUP2 MSTORE PUSH1 0x0 PUSH2 0x1E86 PUSH1 0x20 DUP4 ADD DUP5 PUSH2 0x18E8 JUMP JUMPDEST SWAP4 SWAP3 POP POP POP JUMP JUMPDEST PUSH1 0x20 DUP1 DUP3 MSTORE PUSH1 0x13 SWAP1 DUP3 ADD MSTORE PUSH19 0x436F6E7472616374206E6F7420616374697665 PUSH1 0x68 SHL PUSH1 0x40 DUP3 ADD MSTORE PUSH1 0x60 ADD SWAP1 JUMP JUMPDEST PUSH1 0x0 PUSH1 0x20 DUP3 DUP5 SUB SLT ISZERO PUSH2 0x1ECC JUMPI PUSH1 0x0 DUP1 REVERT JUMPDEST DUP2 MLOAD PUSH2 0x1E86 DUP2 PUSH2 0x1644 JUMP INVALID LOG2 PUSH5 0x6970667358 0x22 SLT KECCAK256 0xEA BLOCKHASH MLOAD 0xEA 0xEA 0xDF PC STOP PUSH22 0x6BA15D51E07F39DDC2B23FFF6BA86EC75B79CC7D1F9C 0xDF PUSH5 0x736F6C6343 STOP ADDMOD GT STOP CALLER "},"methodIdentifiers":{"activateContract(uint256)":"35c2bd63","addMilestones(uint256,string[],uint256[],uint256[])":"460ff8c4","completeMilestone(uint256,uint256,string)":"7fbedb75","contractCount()":"8736381a","contracts(uint256)":"474da79a","createContract(address,address,string,uint256,uint256,uint256,address,address[])":"6a1cb18c","getContractDetails(uint256)":"4d6d6a9c","getMilestoneDetails(uint256,uint256)":"4c371022","getMilestonesCount(uint256)":"a7e5b6f3","raiseDispute(uint256,string)":"5aef573c","releaseMilestonePayment(uint256,uint256)":"8c936e65","resolveDispute(uint256,bool)":"34b25ee2","updateContract(uint256,string)":"48259836"}}}}}