{
  "_format": "hh-sol-artifact-1",
  "contractName": "AthleteChainFactory",
  "sourceName": "contracts/AthleteChainFactory.sol",
  "abi": [
    {
      "inputs": [],
      "stateMutability": "nonpayable",
      "type": "constructor"
    },
    {
      "anonymous": false,
      "inputs": [
        {
          "indexed": true,
          "internalType": "uint256",
          "name": "contractId",
          "type": "uint256"
        },
        {
          "indexed": false,
          "internalType": "address",
          "name": "athlete",
          "type": "address"
        },
        {
          "indexed": false,
          "internalType": "address",
          "name": "sponsor",
          "type": "address"
        }
      ],
      "name": "ContractCreated",
      "type": "event"
    },
    {
      "anonymous": false,
      "inputs": [
        {
          "indexed": true,
          "internalType": "uint256",
          "name": "tokenId",
          "type": "uint256"
        },
        {
          "indexed": true,
          "internalType": "uint256",
          "name": "contractId",
          "type": "uint256"
        }
      ],
      "name": "NFTMinted",
      "type": "event"
    },
    {
      "anonymous": false,
      "inputs": [
        {
          "indexed": true,
          "internalType": "address",
          "name": "user",
          "type": "address"
        },
        {
          "indexed": false,
          "internalType": "bytes32",
          "name": "role",
          "type": "bytes32"
        }
      ],
      "name": "RoleAdded",
      "type": "event"
    },
    {
      "anonymous": false,
      "inputs": [
        {
          "indexed": true,
          "internalType": "address",
          "name": "user",
          "type": "address"
        },
        {
          "indexed": false,
          "internalType": "string",
          "name": "name",
          "type": "string"
        },
        {
          "indexed": false,
          "internalType": "string",
          "name": "profileIPFSHash",
          "type": "string"
        },
        {
          "indexed": false,
          "internalType": "bytes32",
          "name": "role",
          "type": "bytes32"
        }
      ],
      "name": "UserRegistered",
      "type": "event"
    },
    {
      "anonymous": false,
      "inputs": [
        {
          "indexed": true,
          "internalType": "address",
          "name": "user",
          "type": "address"
        }
      ],
      "name": "UserVerified",
      "type": "event"
    },
    {
      "inputs": [],
      "name": "ADMIN_ROLE",
      "outputs": [
        {
          "internalType": "bytes32",
          "name": "",
          "type": "bytes32"
        }
      ],
      "stateMutability": "view",
      "type": "function"
    },
    {
      "inputs": [],
      "name": "AGENT_ROLE",
      "outputs": [
        {
          "internalType": "bytes32",
          "name": "",
          "type": "bytes32"
        }
      ],
      "stateMutability": "view",
      "type": "function"
    },
    {
      "inputs": [],
      "name": "ARBITRATOR_ROLE",
      "outputs": [
        {
          "internalType": "bytes32",
          "name": "",
          "type": "bytes32"
        }
      ],
      "stateMutability": "view",
      "type": "function"
    },
    {
      "inputs": [],
      "name": "ATHLETE_ROLE",
      "outputs": [
        {
          "internalType": "bytes32",
          "name": "",
          "type": "bytes32"
        }
      ],
      "stateMutability": "view",
      "type": "function"
    },
    {
      "inputs": [],
      "name": "SPONSOR_ROLE",
      "outputs": [
        {
          "internalType": "bytes32",
          "name": "",
          "type": "bytes32"
        }
      ],
      "stateMutability": "view",
      "type": "function"
    },
    {
      "inputs": [
        {
          "internalType": "address",
          "name": "user",
          "type": "address"
        },
        {
          "internalType": "bytes32",
          "name": "role",
          "type": "bytes32"
        }
      ],
      "name": "addRole",
      "outputs": [],
      "stateMutability": "nonpayable",
      "type": "function"
    },
    {
      "inputs": [],
      "name": "admin",
      "outputs": [
        {
          "internalType": "address",
          "name": "",
          "type": "address"
        }
      ],
      "stateMutability": "view",
      "type": "function"
    },
    {
      "inputs": [],
      "name": "athleteContract",
      "outputs": [
        {
          "internalType": "contract AthleteContract",
          "name": "",
          "type": "address"
        }
      ],
      "stateMutability": "view",
      "type": "function"
    },
    {
      "inputs": [
        {
          "internalType": "address",
          "name": "athlete",
          "type": "address"
        },
        {
          "internalType": "address",
          "name": "sponsor",
          "type": "address"
        },
        {
          "internalType": "string",
          "name": "contractIPFSHash",
          "type": "string"
        },
        {
          "internalType": "uint256",
          "name": "totalValue",
          "type": "uint256"
        },
        {
          "internalType": "uint256",
          "name": "startDate",
          "type": "uint256"
        },
        {
          "internalType": "uint256",
          "name": "endDate",
          "type": "uint256"
        },
        {
          "internalType": "address",
          "name": "paymentToken",
          "type": "address"
        },
        {
          "internalType": "address[]",
          "name": "arbitrators",
          "type": "address[]"
        }
      ],
      "name": "createSponsorshipContract",
      "outputs": [
        {
          "internalType": "uint256",
          "name": "",
          "type": "uint256"
        }
      ],
      "stateMutability": "nonpayable",
      "type": "function"
    },
    {
      "inputs": [
        {
          "internalType": "uint256",
          "name": "contractId",
          "type": "uint256"
        }
      ],
      "name": "getContractDetails",
      "outputs": [
        {
          "internalType": "address",
          "name": "athlete",
          "type": "address"
        },
        {
          "internalType": "address",
          "name": "sponsor",
          "type": "address"
        },
        {
          "internalType": "string",
          "name": "contractIPFSHash",
          "type": "string"
        },
        {
          "internalType": "uint256",
          "name": "totalValue",
          "type": "uint256"
        },
        {
          "internalType": "uint256",
          "name": "startDate",
          "type": "uint256"
        },
        {
          "internalType": "uint256",
          "name": "endDate",
          "type": "uint256"
        },
        {
          "internalType": "enum AthleteContract.ContractState",
          "name": "state",
          "type": "uint8"
        },
        {
          "internalType": "address",
          "name": "paymentToken",
          "type": "address"
        }
      ],
      "stateMutability": "view",
      "type": "function"
    },
    {
      "inputs": [
        {
          "internalType": "address",
          "name": "user",
          "type": "address"
        }
      ],
      "name": "getUser",
      "outputs": [
        {
          "internalType": "string",
          "name": "name",
          "type": "string"
        },
        {
          "internalType": "string",
          "name": "profileIPFSHash",
          "type": "string"
        },
        {
          "internalType": "bool",
          "name": "verified",
          "type": "bool"
        }
      ],
      "stateMutability": "view",
      "type": "function"
    },
    {
      "inputs": [
        {
          "internalType": "address",
          "name": "",
          "type": "address"
        }
      ],
      "name": "isRegistered",
      "outputs": [
        {
          "internalType": "bool",
          "name": "",
          "type": "bool"
        }
      ],
      "stateMutability": "view",
      "type": "function"
    },
    {
      "inputs": [
        {
          "internalType": "address",
          "name": "user",
          "type": "address"
        },
        {
          "internalType": "bytes32",
          "name": "role",
          "type": "bytes32"
        }
      ],
      "name": "isUserInRole",
      "outputs": [
        {
          "internalType": "bool",
          "name": "",
          "type": "bool"
        }
      ],
      "stateMutability": "view",
      "type": "function"
    },
    {
      "inputs": [
        {
          "internalType": "uint256",
          "name": "contractId",
          "type": "uint256"
        },
        {
          "internalType": "string",
          "name": "tokenURI",
          "type": "string"
        }
      ],
      "name": "mintContractNFT",
      "outputs": [
        {
          "internalType": "uint256",
          "name": "",
          "type": "uint256"
        }
      ],
      "stateMutability": "nonpayable",
      "type": "function"
    },
    {
      "inputs": [
        {
          "internalType": "address",
          "name": "user",
          "type": "address"
        },
        {
          "internalType": "bytes32",
          "name": "role",
          "type": "bytes32"
        },
        {
          "internalType": "string",
          "name": "name",
          "type": "string"
        },
        {
          "internalType": "string",
          "name": "profileIPFSHash",
          "type": "string"
        }
      ],
      "name": "registerUser",
      "outputs": [],
      "stateMutability": "nonpayable",
      "type": "function"
    },
    {
      "inputs": [],
      "name": "sponsorshipNFT",
      "outputs": [
        {
          "internalType": "contract SponsorshipNFT",
          "name": "",
          "type": "address"
        }
      ],
      "stateMutability": "view",
      "type": "function"
    },
    {
      "inputs": [
        {
          "internalType": "address",
          "name": "user",
          "type": "address"
        }
      ],
      "name": "verifyUser",
      "outputs": [],
      "stateMutability": "nonpayable",
      "type": "function"
    }
  ],
  "bytecode": "0x608060405234801561001057600080fd5b5060405161001d906100b2565b604051809103906000f080158015610039573d6000803e3d6000fd5b50600080546001600160a01b0319166001600160a01b0392909216919091179055604051610066906100c0565b604051809103906000f080158015610082573d6000803e3d6000fd5b50600180546001600160a01b03929092166001600160a01b031992831617905560048054909116331790556100ce565b611f32806200142d83390190565b6121df806200335f83390190565b61134f80620000de6000396000f3fe608060405234801561001057600080fd5b506004361061010b5760003560e01c8063783c69cc116100a2578063b051a1fb11610071578063b051a1fb146102ce578063c2d79444146102e1578063c3c5a54714610308578063e7cdebd81461032b578063f851a4401461033e57600080fd5b8063783c69cc1461025a5780637b2da3ce146102815780639cea078714610294578063a73f7f8a146102bb57600080fd5b80634d813120116100de5780634d813120146101e95780636c4ee56a146101fe5780636f77926b1461021157806375b238fc1461023357600080fd5b80630719fce91461011057806322459e1814610140578063485f8c19146101755780634d6d6a9c146101c2575b600080fd5b600054610123906001600160a01b031681565b6040516001600160a01b0390911681526020015b60405180910390f35b6101677fcab5a0bfe0b79d2c4b1c2e02599fa044d115b7511f9659307cb427695096770981565b604051908152602001610137565b6101b2610183366004610b83565b6001600160a01b0391909116600090815260026020908152604080832093835260039093019052205460ff1690565b6040519015158152602001610137565b6101d56101d0366004610baf565b610351565b604051610137989796959493929190610c18565b6101fc6101f7366004610c95565b6103eb565b005b600154610123906001600160a01b031681565b61022461021f366004610c95565b6104e4565b60405161013793929190610cb9565b6101677fa49807205ce4d355092ef5a8a18f56e8913cf4a201fbe287825b095693c2177581565b6101677f7f611ffbf41dd527826abad73cb1b1ecff28482bb0412695be053afa0451ad1881565b61016761028f366004610db6565b610640565b6101677f16ceee8289685dd2a02b9c8ae81d2df373176ce53519e6284e2a2950d6546ffa81565b6101fc6102c9366004610b83565b610717565b6101fc6102dc366004610ee6565b610822565b6101677f1597bc5e34ff090612f53164e4e642d2ab4fc78bffe19ed1b602a0d12559561a81565b6101b2610316366004610c95565b60036020526000908152604090205460ff1681565b610167610339366004610f66565b6109c2565b600454610123906001600160a01b031681565b6000805460405163135b5aa760e21b8152600481018490528291606091839182918291829182916001600160a01b031690634d6d6a9c90602401600060405180830381865afa1580156103a8573d6000803e3d6000fd5b505050506040513d6000823e601f3d908101601f191682016040526103d09190810190610fcc565b97509750975097509750975097509750919395975091939597565b6004546001600160a01b031633146104375760405162461bcd60e51b815260206004820152600a60248201526927b7363c9030b236b4b760b11b60448201526064015b60405180910390fd5b6001600160a01b03811660009081526003602052604090205460ff166104955760405162461bcd60e51b8152602060048201526013602482015272155cd95c881b9bdd081c9959da5cdd195c9959606a1b604482015260640161042e565b6001600160a01b038116600081815260026020526040808220600401805460ff19166001179055517fa6625d2d26e786e2f473111bea4b2fcdbbf1863d883a2359989ce3a103d2972a9190a250565b6001600160a01b03811660009081526002602081905260408220600481015460018201805460609586959094939084019160ff909116908390610526906110ab565b80601f0160208091040260200160405190810160405280929190818152602001828054610552906110ab565b801561059f5780601f106105745761010080835404028352916020019161059f565b820191906000526020600020905b81548152906001019060200180831161058257829003601f168201915b505050505092508180546105b2906110ab565b80601f01602080910402602001604051908101604052809291908181526020018280546105de906110ab565b801561062b5780601f106106005761010080835404028352916020019161062b565b820191906000526020600020905b81548152906001019060200180831161060e57829003601f168201915b50505050509150935093509350509193909250565b60008054604051631a872c6360e21b815282916001600160a01b031690636a1cb18c9061067f908d908d908d908d908d908d908d908d906004016110e5565b6020604051808303816000875af115801561069e573d6000803e3d6000fd5b505050506040513d601f19601f820116820180604052508101906106c29190611179565b604080516001600160a01b03808e1682528c16602082015291925082917f56560a52c047ed21fd801bf0f345b23d9af696f7922ff8e63101af5d48caddab910160405180910390a29998505050505050505050565b6004546001600160a01b0316331461075e5760405162461bcd60e51b815260206004820152600a60248201526927b7363c9030b236b4b760b11b604482015260640161042e565b6001600160a01b03821660009081526003602052604090205460ff166107bc5760405162461bcd60e51b8152602060048201526013602482015272155cd95c881b9bdd081c9959da5cdd195c9959606a1b604482015260640161042e565b6001600160a01b0382166000818152600260209081526040808320858452600301825291829020805460ff1916600117905590518381527faa695d83684b95e18fda4eda7e1794787e74fbc90097a9582f5c41989687883e910160405180910390a25050565b6001600160a01b03841660009081526003602052604090205460ff16156108805760405162461bcd60e51b8152602060048201526012602482015271105b1c9958591e481c9959da5cdd195c995960721b604482015260640161042e565b336001600160a01b03851614806108a157506004546001600160a01b031633145b6108ed5760405162461bcd60e51b815260206004820152601f60248201527f4f6e6c792073656c66206f722061646d696e2063616e20726567697374657200604482015260640161042e565b6001600160a01b038416600081815260026020526040902080546001600160a01b03191690911781556001810161092484826111e1565b506002810161093383826111e1565b5060008481526003828101602090815260408084208054600160ff199182168117909255600487018054821690556001600160a01b038b1680875294909352938190208054909216909317905590517fe6b2c969b9ba750233ef92a491dc16544c194075c2628993f5965512764d261a906109b3908690869089906112a1565b60405180910390a25050505050565b6000805460405163135b5aa760e21b815260048101859052829182916001600160a01b0390911690634d6d6a9c90602401600060405180830381865afa158015610a10573d6000803e3d6000fd5b505050506040513d6000823e601f3d908101601f19168201604052610a389190810190610fcc565b50505050505091509150816001600160a01b0316336001600160a01b03161480610a6a5750336001600160a01b038216145b610ab65760405162461bcd60e51b815260206004820181905260248201527f4f6e6c79206174686c657465206f722073706f6e736f722063616e206d696e74604482015260640161042e565b60015460405163613d8e4160e11b81526000916001600160a01b03169063c27b1c8290610aef9085908a908a90899084906004016112d7565b6020604051808303816000875af1158015610b0e573d6000803e3d6000fd5b505050506040513d601f19601f82011682018060405250810190610b329190611179565b905085817fd4c3f7782ecae0d1a12013592109b1bf02689d7f4e8ab653c75a61aea745e3be60405160405180910390a395945050505050565b6001600160a01b0381168114610b8057600080fd5b50565b60008060408385031215610b9657600080fd5b8235610ba181610b6b565b946020939093013593505050565b600060208284031215610bc157600080fd5b5035919050565b60005b83811015610be3578181015183820152602001610bcb565b50506000910152565b60008151808452610c04816020860160208601610bc8565b601f01601f19169290920160200192915050565b6001600160a01b038981168252888116602083015261010060408301819052600091610c468483018b610bec565b92508860608501528760808501528660a085015260058610610c7857634e487b7160e01b600052602160045260246000fd5b8560c085015280851660e085015250509998505050505050505050565b600060208284031215610ca757600080fd5b8135610cb281610b6b565b9392505050565b606081526000610ccc6060830186610bec565b8281036020840152610cde8186610bec565b9150508215156040830152949350505050565b634e487b7160e01b600052604160045260246000fd5b604051601f8201601f1916810167ffffffffffffffff81118282101715610d3057610d30610cf1565b604052919050565b600067ffffffffffffffff821115610d5257610d52610cf1565b50601f01601f191660200190565b600082601f830112610d7157600080fd5b8135610d84610d7f82610d38565b610d07565b818152846020838601011115610d9957600080fd5b816020850160208301376000918101602001919091529392505050565b600080600080600080600080610100898b031215610dd357600080fd5b8835610dde81610b6b565b9750602089810135610def81610b6b565b975060408a013567ffffffffffffffff80821115610e0c57600080fd5b610e188d838e01610d60565b985060608c0135975060808c0135965060a08c0135955060c08c01359150610e3f82610b6b565b90935060e08b01359080821115610e5557600080fd5b818c0191508c601f830112610e6957600080fd5b813581811115610e7b57610e7b610cf1565b8060051b9150610e8c848301610d07565b818152918301840191848101908f841115610ea657600080fd5b938501935b83851015610ed05784359250610ec083610b6b565b8282529385019390850190610eab565b8096505050505050509295985092959890939650565b60008060008060808587031215610efc57600080fd5b8435610f0781610b6b565b935060208501359250604085013567ffffffffffffffff80821115610f2b57600080fd5b610f3788838901610d60565b93506060870135915080821115610f4d57600080fd5b50610f5a87828801610d60565b91505092959194509250565b60008060408385031215610f7957600080fd5b82359150602083013567ffffffffffffffff811115610f9757600080fd5b610fa385828601610d60565b9150509250929050565b8051610fb881610b6b565b919050565b805160058110610fb857600080fd5b600080600080600080600080610100898b031215610fe957600080fd5b8851610ff481610b6b565b60208a015190985061100581610b6b565b60408a015190975067ffffffffffffffff81111561102257600080fd5b8901601f81018b1361103357600080fd5b8051611041610d7f82610d38565b8181528c602083850101111561105657600080fd5b611067826020830160208601610bc8565b809850505050606089015194506080890151935060a0890151925061108e60c08a01610fbd565b915061109c60e08a01610fad565b90509295985092959890939650565b600181811c908216806110bf57607f821691505b6020821081036110df57634e487b7160e01b600052602260045260246000fd5b50919050565b600061010060018060a01b03808c1684526020818c16818601528260408601526111118386018c610bec565b606086018b9052608086018a905260a0860189905287831660c087015285810360e0870152865180825282880194509082019060005b81811015611165578551851683529483019491830191600101611147565b50909e9d5050505050505050505050505050565b60006020828403121561118b57600080fd5b5051919050565b601f8211156111dc57600081815260208120601f850160051c810160208610156111b95750805b601f850160051c820191505b818110156111d8578281556001016111c5565b5050505b505050565b815167ffffffffffffffff8111156111fb576111fb610cf1565b61120f8161120984546110ab565b84611192565b602080601f831160018114611244576000841561122c5750858301515b600019600386901b1c1916600185901b1785556111d8565b600085815260208120601f198616915b8281101561127357888601518255948401946001909101908401611254565b50858210156112915787850151600019600388901b60f8161c191681555b5050505050600190811b01905550565b6060815260006112b46060830186610bec565b82810360208401526112c68186610bec565b915050826040830152949350505050565b600060018060a01b03808816835286602084015260a060408401526112ff60a0840187610bec565b94811660608401529290921660809091015250939250505056fea26469706673582212204c0538c156838332fb102b55c37162a498fcd8dbab0ef8cca97b6ea21606de1d64736f6c63430008110033608060405234801561001057600080fd5b506001600055611f0d806100256000396000f3fe6080604052600436106100c25760003560e01c80634d6d6a9c1161007f5780637fbedb75116100595780637fbedb75146102265780638736381a146102465780638c936e651461025c578063a7e5b6f31461026f57600080fd5b80634d6d6a9c146101b85780635aef573c146101d85780636a1cb18c146101f857600080fd5b806334b25ee2146100c757806335c2bd63146100e9578063460ff8c414610109578063474da79a1461012957806348259836146101665780634c37102214610186575b600080fd5b3480156100d357600080fd5b506100e76100e2366004611655565b61029f565b005b3480156100f557600080fd5b506100e7610104366004611685565b61043a565b34801561011557600080fd5b506100e76101243660046117e4565b610586565b34801561013557600080fd5b50610149610144366004611685565b6108bf565b60405161015d989796959493929190611944565b60405180910390f35b34801561017257600080fd5b506100e76101813660046119b3565b6109a5565b34801561019257600080fd5b506101a66101a13660046119fa565b610a9f565b60405161015d96959493929190611a1c565b3480156101c457600080fd5b506101496101d3366004611685565b610c3e565b3480156101e457600080fd5b506100e76101f33660046119b3565b610d4c565b34801561020457600080fd5b50610218610213366004611a95565b610e55565b60405190815260200161015d565b34801561023257600080fd5b506100e7610241366004611ba5565b611016565b34801561025257600080fd5b5061021860025481565b6100e761026a3660046119fa565b6111ae565b34801561027b57600080fd5b5061021861028a366004611685565b60009081526001602052604090206007015490565b600082815260016020526040812090805b6008830154811015610307578260080181815481106102d1576102d1611bf5565b6000918252602090912001546001600160a01b031633036102f55760019150610307565b806102ff81611c21565b9150506102b0565b50806103665760405162461bcd60e51b815260206004820152602360248201527f4f6e6c792061726269747261746f722063616e207265736f6c7665206469737060448201526275746560e81b60648201526084015b60405180910390fd5b6003600683015460ff1660048111156103815761038161192e565b146103c65760405162461bcd60e51b815260206004820152601560248201527410dbdb9d1c9858dd081b9bdd08191a5cdc1d5d1959605a1b604482015260640161035d565b826103d25760046103d5565b60015b60068301805460ff191660018360048111156103f3576103f361192e565b0217905550837f5a87909bff68caaaaf0b3fd9c74eeccc928832f879315e5c6fb7a73612f26c0c8460405161042c911515815260200190565b60405180910390a250505050565b600081815260016020526040902080546001600160a01b031633148061046c575060018101546001600160a01b031633145b6104c45760405162461bcd60e51b8152602060048201526024808201527f4f6e6c79206174686c657465206f722073706f6e736f722063616e20616374696044820152637661746560e01b606482015260840161035d565b6000600682015460ff1660048111156104df576104df61192e565b1461052c5760405162461bcd60e51b815260206004820152601b60248201527f436f6e7472616374206e6f7420696e2064726166742073746174650000000000604482015260640161035d565b60078101546105755760405162461bcd60e51b8152602060048201526015602482015274139bc81b5a5b195cdd1bdb995cc81919599a5b9959605a1b604482015260640161035d565b600601805460ff1916600117905550565b600084815260016020526040902080546001600160a01b03163314806105b8575060018101546001600160a01b031633145b61060f5760405162461bcd60e51b815260206004820152602260248201527f4f6e6c79206174686c657465206f722073706f6e736f722063616e206d6f6469604482015261667960f01b606482015260840161035d565b6000600682015460ff16600481111561062a5761062a61192e565b146106775760405162461bcd60e51b815260206004820152601b60248201527f436f6e7472616374206e6f7420696e2064726166742073746174650000000000604482015260640161035d565b82518451148015610689575081518351145b6106ce5760405162461bcd60e51b8152602060048201526016602482015275082e4e4c2f2e640d8cadccee8d040dad2e6dac2e8c6d60531b604482015260640161035d565b6000805b8451811015610849578481815181106106ed576106ed611bf5565b6020026020010151826107009190611c3a565b9150826007016040518060c0016040528088848151811061072357610723611bf5565b6020026020010151815260200187848151811061074257610742611bf5565b6020026020010151815260200186848151811061076157610761611bf5565b60200260200101518152602001600060038111156107815761078161192e565b81526040805160208181018352600080835281850192909252919092018290528354600181018555938252902081519192600602019081906107c39082611cd8565b50602082015181600101556040820151816002015560608201518160030160006101000a81548160ff021916908360038111156108025761080261192e565b02179055506080820151600482019061081b9082611cd8565b5060a091909101516005909101805460ff19169115159190911790558061084181611c21565b9150506106d2565b50816003015481146108b75760405162461bcd60e51b815260206004820152603160248201527f546f74616c206d696c6573746f6e6520616d6f756e7473206d757374206d6174604482015270636820636f6e74726163742076616c756560781b606482015260840161035d565b505050505050565b60016020819052600091825260409091208054918101546002820180546001600160a01b039485169490921692916108f690611c53565b80601f016020809104026020016040519081016040528092919081815260200182805461092290611c53565b801561096f5780601f106109445761010080835404028352916020019161096f565b820191906000526020600020905b81548152906001019060200180831161095257829003601f168201915b505050506003830154600484015460058501546006909501549394919390925060ff81169061010090046001600160a01b031688565b600082815260016020526040902080546001600160a01b03163314806109d7575060018101546001600160a01b031633145b610a2e5760405162461bcd60e51b815260206004820152602260248201527f4f6e6c79206174686c657465206f722073706f6e736f722063616e2075706461604482015261746560f01b606482015260840161035d565b6009810180546001810182556000918252602090912001610a526002830182611d98565b5060028101610a618382611cd8565b50827f3d6b58530bfb3205822f758555331d98d728b985f2081c1f5dbdcf7bc755d65083604051610a929190611e73565b60405180910390a2505050565b606060008060006060600080600160008a815260200190815260200160002090506000816007018981548110610ad757610ad7611bf5565b6000918252602090912060069091020160018101546002820154600383015460058401548454949550859460ff92831692600487019216908690610b1a90611c53565b80601f0160208091040260200160405190810160405280929190818152602001828054610b4690611c53565b8015610b935780601f10610b6857610100808354040283529160200191610b93565b820191906000526020600020905b815481529060010190602001808311610b7657829003601f168201915b50505050509550818054610ba690611c53565b80601f0160208091040260200160405190810160405280929190818152602001828054610bd290611c53565b8015610c1f5780601f10610bf457610100808354040283529160200191610c1f565b820191906000526020600020905b815481529060010190602001808311610c0257829003601f168201915b5050505050915097509750975097509750975050509295509295509295565b60008181526001602081905260408220805491810154600382015460048301546005840154600685015460028601805489986060988a98899889988998899894976001600160a01b039687169794871696909593949293919260ff8316926101009004909116908690610cb090611c53565b80601f0160208091040260200160405190810160405280929190818152602001828054610cdc90611c53565b8015610d295780601f10610cfe57610100808354040283529160200191610d29565b820191906000526020600020905b815481529060010190602001808311610d0c57829003601f168201915b505050505095509850985098509850985098509850985050919395975091939597565b600082815260016020526040902080546001600160a01b0316331480610d7e575060018101546001600160a01b031633145b610ddc5760405162461bcd60e51b815260206004820152602960248201527f4f6e6c79206174686c657465206f722073706f6e736f722063616e207261697360448201526865206469737075746560b81b606482015260840161035d565b6001600682015460ff166004811115610df757610df761192e565b14610e145760405162461bcd60e51b815260040161035d90611e8d565b60068101805460ff1916600317905560405183907fe07ad455e24561261e9047aab2f668ae1fc2cc6fda35021764673613b888836d90610a92908590611e73565b6000848411610eb05760405162461bcd60e51b815260206004820152602160248201527f456e642064617465206d757374206265206166746572207374617274206461746044820152606560f81b606482015260840161035d565b6001600160a01b03891615801590610ed057506001600160a01b03881615155b610f105760405162461bcd60e51b8152602060048201526011602482015270496e76616c69642061646472657373657360781b604482015260640161035d565b6002805460009182610f2183611c21565b90915550600081815260016020819052604090912080546001600160a01b03808f166001600160a01b03199283161783559282018054938e16939091169290921790915590915060028101610f768a82611cd8565b506003810188905560048101879055600581018690556006810180546001600160a81b0319166101006001600160a01b038816021790558351610fc290600883019060208701906115ca565b50604080516001600160a01b03808e1682528c16602082015283917f56560a52c047ed21fd801bf0f345b23d9af696f7922ff8e63101af5d48caddab910160405180910390a2509998505050505050505050565b600083815260016020526040902080546001600160a01b031633146110895760405162461bcd60e51b815260206004820152602360248201527f4f6e6c79206174686c6574652063616e20636f6d706c657465206d696c6573746044820152626f6e6560e81b606482015260840161035d565b6001600682015460ff1660048111156110a4576110a461192e565b146110c15760405162461bcd60e51b815260040161035d90611e8d565b60008160070184815481106110d8576110d8611bf5565b600091825260208220600690910201915060038083015460ff16908111156111025761110261192e565b1461114f5760405162461bcd60e51b815260206004820152601860248201527f496e76616c6964206d696c6573746f6e65207374617475730000000000000000604482015260640161035d565b60038101805460ff191660011790556004810161116c8482611cd8565b50847f1b7218c0ac23ea9cbe4df603d2b340fbf469a115b73ea3d11460727f445d6be18560405161119f91815260200190565b60405180910390a25050505050565b6111b6611571565b6000828152600160208190526040909120908101546001600160a01b031633146112225760405162461bcd60e51b815260206004820181905260248201527f4f6e6c792073706f6e736f722063616e2072656c65617365207061796d656e74604482015260640161035d565b6001600682015460ff16600481111561123d5761123d61192e565b1461125a5760405162461bcd60e51b815260040161035d90611e8d565b600081600701838154811061127157611271611bf5565b600091825260209091206006909102019050600160038083015460ff169081111561129e5761129e61192e565b146112eb5760405162461bcd60e51b815260206004820152601760248201527f4d696c6573746f6e65206e6f7420636f6d706c65746564000000000000000000604482015260640161035d565b600581015460ff16156113405760405162461bcd60e51b815260206004820152601860248201527f5061796d656e7420616c72656164792072656c65617365640000000000000000604482015260640161035d565b6001810154600683015461010090046001600160a01b0316611449578034146113ab5760405162461bcd60e51b815260206004820152601860248201527f496e636f7272656374207061796d656e7420616d6f756e740000000000000000604482015260640161035d565b82546040516000916001600160a01b03169083908381818185875af1925050503d80600081146113f7576040519150601f19603f3d011682016040523d82523d6000602084013e6113fc565b606091505b50509050806114435760405162461bcd60e51b8152602060048201526013602482015272115512081d1c985b9cd9995c8819985a5b1959606a1b604482015260640161035d565b50611516565b600683015483546040516323b872dd60e01b81523360048201526001600160a01b03918216602482015260448101849052610100909204169081906323b872dd906064016020604051808303816000875af11580156114ac573d6000803e3d6000fd5b505050506040513d601f19601f820116820180604052508101906114d09190611eba565b6115145760405162461bcd60e51b8152602060048201526015602482015274151bdad95b881d1c985b9cd9995c8819985a5b1959605a1b604482015260640161035d565b505b60058201805460ff19166001179055604080518581526020810183905286917f3c70b1e8034b5738ec77fbfdaa4d28906a0b3160018d67a2dc7b534e53e33fe0910160405180910390a250505061156d6001600055565b5050565b6002600054036115c35760405162461bcd60e51b815260206004820152601f60248201527f5265656e7472616e637947756172643a207265656e7472616e742063616c6c00604482015260640161035d565b6002600055565b82805482825590600052602060002090810192821561161f579160200282015b8281111561161f57825182546001600160a01b0319166001600160a01b039091161782556020909201916001909101906115ea565b5061162b92915061162f565b5090565b5b8082111561162b5760008155600101611630565b801515811461165257600080fd5b50565b6000806040838503121561166857600080fd5b82359150602083013561167a81611644565b809150509250929050565b60006020828403121561169757600080fd5b5035919050565b634e487b7160e01b600052604160045260246000fd5b604051601f8201601f1916810167ffffffffffffffff811182821017156116dd576116dd61169e565b604052919050565b600067ffffffffffffffff8211156116ff576116ff61169e565b5060051b60200190565b600082601f83011261171a57600080fd5b813567ffffffffffffffff8111156117345761173461169e565b611747601f8201601f19166020016116b4565b81815284602083860101111561175c57600080fd5b816020850160208301376000918101602001919091529392505050565b600082601f83011261178a57600080fd5b8135602061179f61179a836116e5565b6116b4565b82815260059290921b840181019181810190868411156117be57600080fd5b8286015b848110156117d957803583529183019183016117c2565b509695505050505050565b600080600080608085870312156117fa57600080fd5b8435935060208086013567ffffffffffffffff8082111561181a57600080fd5b818801915088601f83011261182e57600080fd5b813561183c61179a826116e5565b81815260059190911b8301840190848101908b83111561185b57600080fd5b8585015b83811015611893578035858111156118775760008081fd5b6118858e89838a0101611709565b84525091860191860161185f565b509750505060408801359250808311156118ac57600080fd5b6118b889848a01611779565b945060608801359250808311156118ce57600080fd5b50506118dc87828801611779565b91505092959194509250565b6000815180845260005b8181101561190e576020818501810151868301820152016118f2565b506000602082860101526020601f19601f83011685010191505092915050565b634e487b7160e01b600052602160045260246000fd5b6001600160a01b0389811682528881166020830152610100604083018190526000916119728483018b6118e8565b92508860608501528760808501528660a0850152600586106119965761199661192e565b8560c085015280851660e085015250509998505050505050505050565b600080604083850312156119c657600080fd5b82359150602083013567ffffffffffffffff8111156119e457600080fd5b6119f085828601611709565b9150509250929050565b60008060408385031215611a0d57600080fd5b50508035926020909101359150565b60c081526000611a2f60c08301896118e8565b87602084015286604084015260048610611a4b57611a4b61192e565b8560608401528281036080840152611a6381866118e8565b91505082151560a0830152979650505050505050565b80356001600160a01b0381168114611a9057600080fd5b919050565b600080600080600080600080610100898b031215611ab257600080fd5b611abb89611a79565b97506020611aca818b01611a79565b975060408a013567ffffffffffffffff80821115611ae757600080fd5b611af38d838e01611709565b985060608c0135975060808c0135965060a08c01359550611b1660c08d01611a79565b945060e08c0135915080821115611b2c57600080fd5b508a01601f81018c13611b3e57600080fd5b8035611b4c61179a826116e5565b81815260059190911b8201830190838101908e831115611b6b57600080fd5b928401925b82841015611b9057611b8184611a79565b82529284019290840190611b70565b80955050505050509295985092959890939650565b600080600060608486031215611bba57600080fd5b8335925060208401359150604084013567ffffffffffffffff811115611bdf57600080fd5b611beb86828701611709565b9150509250925092565b634e487b7160e01b600052603260045260246000fd5b634e487b7160e01b600052601160045260246000fd5b600060018201611c3357611c33611c0b565b5060010190565b80820180821115611c4d57611c4d611c0b565b92915050565b600181811c90821680611c6757607f821691505b602082108103611c8757634e487b7160e01b600052602260045260246000fd5b50919050565b601f821115611cd357600081815260208120601f850160051c81016020861015611cb45750805b601f850160051c820191505b818110156108b757828155600101611cc0565b505050565b815167ffffffffffffffff811115611cf257611cf261169e565b611d0681611d008454611c53565b84611c8d565b602080601f831160018114611d3b5760008415611d235750858301515b600019600386901b1c1916600185901b1785556108b7565b600085815260208120601f198616915b82811015611d6a57888601518255948401946001909101908401611d4b565b5085821015611d885787850151600019600388901b60f8161c191681555b5050505050600190811b01905550565b818103611da3575050565b611dad8254611c53565b67ffffffffffffffff811115611dc557611dc561169e565b611dd381611d008454611c53565b6000601f821160018114611e075760008315611def5750848201545b600019600385901b1c1916600184901b178455611e6c565b600085815260209020601f19841690600086815260209020845b83811015611e415782860154825560019586019590910190602001611e21565b5085831015611e5f5781850154600019600388901b60f8161c191681555b50505060018360011b0184555b5050505050565b602081526000611e8660208301846118e8565b9392505050565b602080825260139082015272436f6e7472616374206e6f742061637469766560681b604082015260600190565b600060208284031215611ecc57600080fd5b8151611e868161164456fea2646970667358221220ea4051eaeadf5800756ba15d51e07f39ddc2b23fff6ba86ec75b79cc7d1f9cdf64736f6c6343000811003360806040523480156200001157600080fd5b506040518060400160405280601381526020017f4174686c6574652053706f6e736f7273686970000000000000000000000000008152506040518060400160405280600581526020016420a9a827a760d91b815250816000908162000077919062000134565b50600162000086828262000134565b50505062000200565b634e487b7160e01b600052604160045260246000fd5b600181811c90821680620000ba57607f821691505b602082108103620000db57634e487b7160e01b600052602260045260246000fd5b50919050565b601f8211156200012f57600081815260208120601f850160051c810160208610156200010a5750805b601f850160051c820191505b818110156200012b5782815560010162000116565b5050505b505050565b81516001600160401b038111156200015057620001506200008f565b6200016881620001618454620000a5565b84620000e1565b602080601f831160018114620001a05760008415620001875750858301515b600019600386901b1c1916600185901b1785556200012b565b600085815260208120601f198616915b82811015620001d157888601518255948401946001909101908401620001b0565b5085821015620001f05787850151600019600388901b60f8161c191681555b5050505050600190811b01905550565b611fcf80620002106000396000f3fe608060405234801561001057600080fd5b50600436106101425760003560e01c80634f6ccce7116100b8578063a22cb4651161007c578063a22cb465146102c7578063b88d4fde146102da578063c27b1c82146102ed578063c87b56dd14610300578063e985e9c514610313578063fc88210a1461034f57600080fd5b80634f6ccce7146102735780636352211e1461028657806370a082311461029957806393004916146102ac57806395d89b41146102bf57600080fd5b80630f152e5d1161010a5780630f152e5d146101f257806318160ddd1461021257806323b872dd1461021a5780632f745c591461022d57806340398d671461024057806342842e0e1461026057600080fd5b806301ffc9a71461014757806306474d121461016f57806306fdde031461019d578063081812fc146101b2578063095ea7b3146101dd575b600080fd5b61015a6101553660046118c0565b610362565b60405190151581526020015b60405180910390f35b61018f61017d3660046118dd565b600d6020526000908152604090205481565b604051908152602001610166565b6101a5610373565b6040516101669190611946565b6101c56101c03660046118dd565b610405565b6040516001600160a01b039091168152602001610166565b6101f06101eb366004611975565b61042c565b005b61018f6102003660046118dd565b600c6020526000908152604090205481565b60095461018f565b6101f061022836600461199f565b610546565b61018f61023b366004611975565b610577565b61025361024e3660046119db565b61060d565b60405161016691906119f6565b6101f061026e36600461199f565b6106af565b61018f6102813660046118dd565b6106ca565b6101c56102943660046118dd565b61075d565b61018f6102a73660046119db565b6107bd565b6101f06102ba366004611a3a565b610843565b6101a561094f565b6101f06102d5366004611a5f565b61095e565b6101f06102e8366004611b27565b61096d565b61018f6102fb366004611ba3565b6109a5565b6101a561030e3660046118dd565b610aaf565b61015a610321366004611c30565b6001600160a01b03918216600090815260056020908152604080832093909416825291909152205460ff1690565b61018f61035d3660046118dd565b610aba565b600061036d82610b1b565b92915050565b60606000805461038290611c63565b80601f01602080910402602001604051908101604052809291908181526020018280546103ae90611c63565b80156103fb5780601f106103d0576101008083540402835291602001916103fb565b820191906000526020600020905b8154815290600101906020018083116103de57829003601f168201915b5050505050905090565b600061041082610b40565b506000908152600460205260409020546001600160a01b031690565b60006104378261075d565b9050806001600160a01b0316836001600160a01b0316036104a95760405162461bcd60e51b815260206004820152602160248201527f4552433732313a20617070726f76616c20746f2063757272656e74206f776e656044820152603960f91b60648201526084015b60405180910390fd5b336001600160a01b03821614806104c557506104c58133610321565b6105375760405162461bcd60e51b815260206004820152603d60248201527f4552433732313a20617070726f76652063616c6c6572206973206e6f7420746f60448201527f6b656e206f776e6572206f7220617070726f76656420666f7220616c6c00000060648201526084016104a0565b6105418383610b93565b505050565b6105503382610c01565b61056c5760405162461bcd60e51b81526004016104a090611c9d565b610541838383610c80565b6000610582836107bd565b82106105e45760405162461bcd60e51b815260206004820152602b60248201527f455243373231456e756d657261626c653a206f776e657220696e646578206f7560448201526a74206f6620626f756e647360a81b60648201526084016104a0565b506001600160a01b03919091166000908152600760209081526040808320938352929052205490565b6060600061061a836107bd565b905060008167ffffffffffffffff81111561063757610637611a9b565b604051908082528060200260200182016040528015610660578160200160208202803683370190505b50905060005b828110156106a7576106788582610577565b82828151811061068a5761068a611cea565b60209081029190910101528061069f81611d16565b915050610666565b509392505050565b6105418383836040518060200160405280600081525061096d565b60006106d560095490565b82106107385760405162461bcd60e51b815260206004820152602c60248201527f455243373231456e756d657261626c653a20676c6f62616c20696e646578206f60448201526b7574206f6620626f756e647360a01b60648201526084016104a0565b6009828154811061074b5761074b611cea565b90600052602060002001549050919050565b6000818152600260205260408120546001600160a01b03168061036d5760405162461bcd60e51b8152602060048201526018602482015277115490cdcc8c4e881a5b9d985b1a59081d1bdad95b88125160421b60448201526064016104a0565b60006001600160a01b0382166108275760405162461bcd60e51b815260206004820152602960248201527f4552433732313a2061646472657373207a65726f206973206e6f7420612076616044820152683634b21037bbb732b960b91b60648201526084016104a0565b506001600160a01b031660009081526003602052604090205490565b61084c83610df1565b61088f5760405162461bcd60e51b8152602060048201526014602482015273151bdad95b88191bd95cc81b9bdd08195e1a5cdd60621b60448201526064016104a0565b6108988361075d565b6001600160a01b0316336001600160a01b0316146109065760405162461bcd60e51b815260206004820152602560248201527f4f6e6c7920746f6b656e206f776e65722063616e207265636f726420726f79616044820152646c7469657360d81b60648201526084016104a0565b604080516001600160a01b03841681526020810183905284917ff670029fc6f5302baba881b4ae845d1453acdf752b4c19ed81fe0fa6a686409b910160405180910390a2505050565b60606001805461038290611c63565b610969338383610e0e565b5050565b6109773383610c01565b6109935760405162461bcd60e51b81526004016104a090611c9d565b61099f84848484610edc565b50505050565b6000848152600d602052604081205415610a0d5760405162461bcd60e51b8152602060048201526024808201527f4e465420616c7265616479206d696e74656420666f72207468697320636f6e746044820152631c9858dd60e21b60648201526084016104a0565b610a1b600b80546001019055565b6000610a26600b5490565b9050610a328782610f0f565b610a3c818661108a565b6000818152600c60209081526040808320899055888352600d82529182902083905581516001600160a01b038088168252861691810191909152879183917f55e9844e5f860996963c4a8a758e7e68642c5e59723728e1b09c9923698d927d910160405180910390a39695505050505050565b606061036d8261110e565b6000610ac582610df1565b610b085760405162461bcd60e51b8152602060048201526014602482015273151bdad95b88191bd95cc81b9bdd08195e1a5cdd60621b60448201526064016104a0565b506000908152600c602052604090205490565b60006001600160e01b0319821663780e9d6360e01b148061036d575061036d82611216565b610b4981610df1565b610b905760405162461bcd60e51b8152602060048201526018602482015277115490cdcc8c4e881a5b9d985b1a59081d1bdad95b88125160421b60448201526064016104a0565b50565b600081815260046020526040902080546001600160a01b0319166001600160a01b0384169081179091558190610bc88261075d565b6001600160a01b03167f8c5be1e5ebec7d5bd14f71427d1e84f3dd0314c0f7b2291e5b200ac8c7c3b92560405160405180910390a45050565b600080610c0d8361075d565b9050806001600160a01b0316846001600160a01b03161480610c5457506001600160a01b0380821660009081526005602090815260408083209388168352929052205460ff165b80610c785750836001600160a01b0316610c6d84610405565b6001600160a01b0316145b949350505050565b826001600160a01b0316610c938261075d565b6001600160a01b031614610cb95760405162461bcd60e51b81526004016104a090611d2f565b6001600160a01b038216610d1b5760405162461bcd60e51b8152602060048201526024808201527f4552433732313a207472616e7366657220746f20746865207a65726f206164646044820152637265737360e01b60648201526084016104a0565b610d288383836001611266565b826001600160a01b0316610d3b8261075d565b6001600160a01b031614610d615760405162461bcd60e51b81526004016104a090611d2f565b600081815260046020908152604080832080546001600160a01b03199081169091556001600160a01b0387811680865260038552838620805460001901905590871680865283862080546001019055868652600290945282852080549092168417909155905184937fddf252ad1be2c89b69c2b068fc378daa952ba7f163c4a11628f55a4df523b3ef91a4505050565b6000908152600260205260409020546001600160a01b0316151590565b816001600160a01b0316836001600160a01b031603610e6f5760405162461bcd60e51b815260206004820152601960248201527f4552433732313a20617070726f766520746f2063616c6c65720000000000000060448201526064016104a0565b6001600160a01b03838116600081815260056020908152604080832094871680845294825291829020805460ff191686151590811790915591519182527f17307eab39ab6107e8899845ad3d59bd9653f200f220920489ca2b5937696c31910160405180910390a3505050565b610ee7848484610c80565b610ef384848484611272565b61099f5760405162461bcd60e51b81526004016104a090611d74565b6001600160a01b038216610f655760405162461bcd60e51b815260206004820181905260248201527f4552433732313a206d696e7420746f20746865207a65726f206164647265737360448201526064016104a0565b610f6e81610df1565b15610fbb5760405162461bcd60e51b815260206004820152601c60248201527f4552433732313a20746f6b656e20616c7265616479206d696e7465640000000060448201526064016104a0565b610fc9600083836001611266565b610fd281610df1565b1561101f5760405162461bcd60e51b815260206004820152601c60248201527f4552433732313a20746f6b656e20616c7265616479206d696e7465640000000060448201526064016104a0565b6001600160a01b038216600081815260036020908152604080832080546001019055848352600290915280822080546001600160a01b0319168417905551839291907fddf252ad1be2c89b69c2b068fc378daa952ba7f163c4a11628f55a4df523b3ef908290a45050565b61109382610df1565b6110f65760405162461bcd60e51b815260206004820152602e60248201527f45524337323155524953746f726167653a2055524920736574206f66206e6f6e60448201526d32bc34b9ba32b73a103a37b5b2b760911b60648201526084016104a0565b60008281526006602052604090206105418282611e14565b606061111982610b40565b6000828152600660205260408120805461113290611c63565b80601f016020809104026020016040519081016040528092919081815260200182805461115e90611c63565b80156111ab5780601f10611180576101008083540402835291602001916111ab565b820191906000526020600020905b81548152906001019060200180831161118e57829003601f168201915b5050505050905060006111c960408051602081019091526000815290565b905080516000036111db575092915050565b81511561120d5780826040516020016111f5929190611ed4565b60405160208183030381529060405292505050919050565b610c7884611373565b60006001600160e01b031982166380ac58cd60e01b148061124757506001600160e01b03198216635b5e139f60e01b145b8061036d57506301ffc9a760e01b6001600160e01b031983161461036d565b61099f848484846113e7565b60006001600160a01b0384163b1561136857604051630a85bd0160e11b81526001600160a01b0385169063150b7a02906112b6903390899088908890600401611f03565b6020604051808303816000875af19250505080156112f1575060408051601f3d908101601f191682019092526112ee91810190611f40565b60015b61134e573d80801561131f576040519150601f19603f3d011682016040523d82523d6000602084013e611324565b606091505b5080516000036113465760405162461bcd60e51b81526004016104a090611d74565b805181602001fd5b6001600160e01b031916630a85bd0160e11b149050610c78565b506001949350505050565b606061137e82610b40565b600061139560408051602081019091526000815290565b905060008151116113b557604051806020016040528060008152506113e0565b806113bf84611527565b6040516020016113d0929190611ed4565b6040516020818303038152906040525b9392505050565b6113f3848484846115ba565b60018111156114625760405162461bcd60e51b815260206004820152603560248201527f455243373231456e756d657261626c653a20636f6e7365637574697665207472604482015274185b9cd9995c9cc81b9bdd081cdd5c1c1bdc9d1959605a1b60648201526084016104a0565b816001600160a01b0385166114be576114b981600980546000838152600a60205260408120829055600182018355919091527f6e1540171b6c0c960b71a7020d9f60077f6af931a8bbf590da0223dacf75c7af0155565b6114e1565b836001600160a01b0316856001600160a01b0316146114e1576114e18582611642565b6001600160a01b0384166114fd576114f8816116df565b611520565b846001600160a01b0316846001600160a01b03161461152057611520848261178e565b5050505050565b60606000611534836117d2565b600101905060008167ffffffffffffffff81111561155457611554611a9b565b6040519080825280601f01601f19166020018201604052801561157e576020820181803683370190505b5090508181016020015b600019016f181899199a1a9b1b9c1cb0b131b232b360811b600a86061a8153600a850494508461158857509392505050565b600181111561099f576001600160a01b03841615611600576001600160a01b038416600090815260036020526040812080548392906115fa908490611f5d565b90915550505b6001600160a01b0383161561099f576001600160a01b03831660009081526003602052604081208054839290611637908490611f70565b909155505050505050565b6000600161164f846107bd565b6116599190611f5d565b6000838152600860205260409020549091508082146116ac576001600160a01b03841660009081526007602090815260408083208584528252808320548484528184208190558352600890915290208190555b5060009182526008602090815260408084208490556001600160a01b039094168352600781528383209183525290812055565b6009546000906116f190600190611f5d565b6000838152600a60205260408120546009805493945090928490811061171957611719611cea565b90600052602060002001549050806009838154811061173a5761173a611cea565b6000918252602080832090910192909255828152600a9091526040808220849055858252812055600980548061177257611772611f83565b6001900381819060005260206000200160009055905550505050565b6000611799836107bd565b6001600160a01b039093166000908152600760209081526040808320868452825280832085905593825260089052919091209190915550565b60008072184f03e93ff9f4daa797ed6e38ed64bf6a1f0160401b83106118115772184f03e93ff9f4daa797ed6e38ed64bf6a1f0160401b830492506040015b6d04ee2d6d415b85acef8100000000831061183d576d04ee2d6d415b85acef8100000000830492506020015b662386f26fc10000831061185b57662386f26fc10000830492506010015b6305f5e1008310611873576305f5e100830492506008015b612710831061188757612710830492506004015b60648310611899576064830492506002015b600a831061036d5760010192915050565b6001600160e01b031981168114610b9057600080fd5b6000602082840312156118d257600080fd5b81356113e0816118aa565b6000602082840312156118ef57600080fd5b5035919050565b60005b838110156119115781810151838201526020016118f9565b50506000910152565b600081518084526119328160208601602086016118f6565b601f01601f19169290920160200192915050565b6020815260006113e0602083018461191a565b80356001600160a01b038116811461197057600080fd5b919050565b6000806040838503121561198857600080fd5b61199183611959565b946020939093013593505050565b6000806000606084860312156119b457600080fd5b6119bd84611959565b92506119cb60208501611959565b9150604084013590509250925092565b6000602082840312156119ed57600080fd5b6113e082611959565b6020808252825182820181905260009190848201906040850190845b81811015611a2e57835183529284019291840191600101611a12565b50909695505050505050565b600080600060608486031215611a4f57600080fd5b833592506119cb60208501611959565b60008060408385031215611a7257600080fd5b611a7b83611959565b915060208301358015158114611a9057600080fd5b809150509250929050565b634e487b7160e01b600052604160045260246000fd5b600067ffffffffffffffff80841115611acc57611acc611a9b565b604051601f8501601f19908116603f01168101908282118183101715611af457611af4611a9b565b81604052809350858152868686011115611b0d57600080fd5b858560208301376000602087830101525050509392505050565b60008060008060808587031215611b3d57600080fd5b611b4685611959565b9350611b5460208601611959565b925060408501359150606085013567ffffffffffffffff811115611b7757600080fd5b8501601f81018713611b8857600080fd5b611b9787823560208401611ab1565b91505092959194509250565b600080600080600060a08688031215611bbb57600080fd5b611bc486611959565b945060208601359350604086013567ffffffffffffffff811115611be757600080fd5b8601601f81018813611bf857600080fd5b611c0788823560208401611ab1565b935050611c1660608701611959565b9150611c2460808701611959565b90509295509295909350565b60008060408385031215611c4357600080fd5b611c4c83611959565b9150611c5a60208401611959565b90509250929050565b600181811c90821680611c7757607f821691505b602082108103611c9757634e487b7160e01b600052602260045260246000fd5b50919050565b6020808252602d908201527f4552433732313a2063616c6c6572206973206e6f7420746f6b656e206f776e6560408201526c1c881bdc88185c1c1c9bdd9959609a1b606082015260800190565b634e487b7160e01b600052603260045260246000fd5b634e487b7160e01b600052601160045260246000fd5b600060018201611d2857611d28611d00565b5060010190565b60208082526025908201527f4552433732313a207472616e736665722066726f6d20696e636f72726563742060408201526437bbb732b960d91b606082015260800190565b60208082526032908201527f4552433732313a207472616e7366657220746f206e6f6e20455243373231526560408201527131b2b4bb32b91034b6b83632b6b2b73a32b960711b606082015260800190565b601f82111561054157600081815260208120601f850160051c81016020861015611ded5750805b601f850160051c820191505b81811015611e0c57828155600101611df9565b505050505050565b815167ffffffffffffffff811115611e2e57611e2e611a9b565b611e4281611e3c8454611c63565b84611dc6565b602080601f831160018114611e775760008415611e5f5750858301515b600019600386901b1c1916600185901b178555611e0c565b600085815260208120601f198616915b82811015611ea657888601518255948401946001909101908401611e87565b5085821015611ec45787850151600019600388901b60f8161c191681555b5050505050600190811b01905550565b60008351611ee68184602088016118f6565b835190830190611efa8183602088016118f6565b01949350505050565b6001600160a01b0385811682528416602082015260408101839052608060608201819052600090611f369083018461191a565b9695505050505050565b600060208284031215611f5257600080fd5b81516113e0816118aa565b8181038181111561036d5761036d611d00565b8082018082111561036d5761036d611d00565b634e487b7160e01b600052603160045260246000fdfea2646970667358221220a508560416cb447c83e3da089880c2e77d1f124c4db61cad9be37943c8e25e7e64736f6c63430008110033",
  "linkReferences": {},
  "deployedLinkReferences": {}
}