{
  "_format": "hh-sol-artifact-1",
  "contractName": "AthleteChainFactory",
  "sourceName": "contracts/AthleteChainFactory.sol",
  "abi": [
    {
      "inputs": [],
      "stateMutability": "nonpayable",
      "type": "constructor"
    },
    {
      "anonymous": false,
      "inputs": [
        {
          "indexed": true,
          "internalType": "uint256",
          "name": "contractId",
          "type": "uint256"
        },
        {
          "indexed": false,
          "internalType": "address",
          "name": "athlete",
          "type": "address"
        },
        {
          "indexed": false,
          "internalType": "address",
          "name": "sponsor",
          "type": "address"
        }
      ],
      "name": "ContractCreated",
      "type": "event"
    },
    {
      "anonymous": false,
      "inputs": [
        {
          "indexed": true,
          "internalType": "uint256",
          "name": "tokenId",
          "type": "uint256"
        },
        {
          "indexed": true,
          "internalType": "uint256",
          "name": "contractId",
          "type": "uint256"
        }
      ],
      "name": "NFTMinted",
      "type": "event"
    },
    {
      "anonymous": false,
      "inputs": [
        {
          "indexed": true,
          "internalType": "bytes32",
          "name": "role",
          "type": "bytes32"
        },
        {
          "indexed": true,
          "internalType": "bytes32",
          "name": "previousAdminRole",
          "type": "bytes32"
        },
        {
          "indexed": true,
          "internalType": "bytes32",
          "name": "newAdminRole",
          "type": "bytes32"
        }
      ],
      "name": "RoleAdminChanged",
      "type": "event"
    },
    {
      "anonymous": false,
      "inputs": [
        {
          "indexed": true,
          "internalType": "bytes32",
          "name": "role",
          "type": "bytes32"
        },
        {
          "indexed": true,
          "internalType": "address",
          "name": "account",
          "type": "address"
        },
        {
          "indexed": true,
          "internalType": "address",
          "name": "sender",
          "type": "address"
        }
      ],
      "name": "RoleGranted",
      "type": "event"
    },
    {
      "anonymous": false,
      "inputs": [
        {
          "indexed": true,
          "internalType": "bytes32",
          "name": "role",
          "type": "bytes32"
        },
        {
          "indexed": true,
          "internalType": "address",
          "name": "account",
          "type": "address"
        },
        {
          "indexed": true,
          "internalType": "address",
          "name": "sender",
          "type": "address"
        }
      ],
      "name": "RoleRevoked",
      "type": "event"
    },
    {
      "anonymous": false,
      "inputs": [
        {
          "indexed": true,
          "internalType": "address",
          "name": "user",
          "type": "address"
        },
        {
          "indexed": false,
          "internalType": "bytes32",
          "name": "role",
          "type": "bytes32"
        }
      ],
      "name": "UserRegistered",
      "type": "event"
    },
    {
      "inputs": [],
      "name": "AGENT_ROLE",
      "outputs": [
        {
          "internalType": "bytes32",
          "name": "",
          "type": "bytes32"
        }
      ],
      "stateMutability": "view",
      "type": "function"
    },
    {
      "inputs": [],
      "name": "ARBITRATOR_ROLE",
      "outputs": [
        {
          "internalType": "bytes32",
          "name": "",
          "type": "bytes32"
        }
      ],
      "stateMutability": "view",
      "type": "function"
    },
    {
      "inputs": [],
      "name": "ATHLETE_ROLE",
      "outputs": [
        {
          "internalType": "bytes32",
          "name": "",
          "type": "bytes32"
        }
      ],
      "stateMutability": "view",
      "type": "function"
    },
    {
      "inputs": [],
      "name": "DEFAULT_ADMIN_ROLE",
      "outputs": [
        {
          "internalType": "bytes32",
          "name": "",
          "type": "bytes32"
        }
      ],
      "stateMutability": "view",
      "type": "function"
    },
    {
      "inputs": [],
      "name": "SPONSOR_ROLE",
      "outputs": [
        {
          "internalType": "bytes32",
          "name": "",
          "type": "bytes32"
        }
      ],
      "stateMutability": "view",
      "type": "function"
    },
    {
      "inputs": [],
      "name": "TEAM_ROLE",
      "outputs": [
        {
          "internalType": "bytes32",
          "name": "",
          "type": "bytes32"
        }
      ],
      "stateMutability": "view",
      "type": "function"
    },
    {
      "inputs": [],
      "name": "athleteContract",
      "outputs": [
        {
          "internalType": "contract AthleteContract",
          "name": "",
          "type": "address"
        }
      ],
      "stateMutability": "view",
      "type": "function"
    },
    {
      "inputs": [
        {
          "internalType": "address",
          "name": "athlete",
          "type": "address"
        },
        {
          "internalType": "address",
          "name": "sponsor",
          "type": "address"
        },
        {
          "internalType": "string",
          "name": "contractIPFSHash",
          "type": "string"
        },
        {
          "internalType": "uint256",
          "name": "totalValue",
          "type": "uint256"
        },
        {
          "internalType": "uint256",
          "name": "startDate",
          "type": "uint256"
        },
        {
          "internalType": "uint256",
          "name": "endDate",
          "type": "uint256"
        },
        {
          "internalType": "address",
          "name": "paymentToken",
          "type": "address"
        },
        {
          "internalType": "address[]",
          "name": "arbitrators",
          "type": "address[]"
        }
      ],
      "name": "createSponsorshipContract",
      "outputs": [
        {
          "internalType": "uint256",
          "name": "",
          "type": "uint256"
        }
      ],
      "stateMutability": "nonpayable",
      "type": "function"
    },
    {
      "inputs": [
        {
          "internalType": "uint256",
          "name": "contractId",
          "type": "uint256"
        }
      ],
      "name": "getContractDetails",
      "outputs": [
        {
          "internalType": "address",
          "name": "athlete",
          "type": "address"
        },
        {
          "internalType": "address",
          "name": "sponsor",
          "type": "address"
        },
        {
          "internalType": "string",
          "name": "contractIPFSHash",
          "type": "string"
        },
        {
          "internalType": "uint256",
          "name": "totalValue",
          "type": "uint256"
        },
        {
          "internalType": "uint256",
          "name": "startDate",
          "type": "uint256"
        },
        {
          "internalType": "uint256",
          "name": "endDate",
          "type": "uint256"
        },
        {
          "internalType": "enum AthleteContract.ContractState",
          "name": "state",
          "type": "uint8"
        },
        {
          "internalType": "address",
          "name": "paymentToken",
          "type": "address"
        }
      ],
      "stateMutability": "view",
      "type": "function"
    },
    {
      "inputs": [
        {
          "internalType": "bytes32",
          "name": "role",
          "type": "bytes32"
        }
      ],
      "name": "getRoleAdmin",
      "outputs": [
        {
          "internalType": "bytes32",
          "name": "",
          "type": "bytes32"
        }
      ],
      "stateMutability": "view",
      "type": "function"
    },
    {
      "inputs": [
        {
          "internalType": "address",
          "name": "user",
          "type": "address"
        }
      ],
      "name": "getUserContracts",
      "outputs": [
        {
          "internalType": "uint256[]",
          "name": "",
          "type": "uint256[]"
        }
      ],
      "stateMutability": "view",
      "type": "function"
    },
    {
      "inputs": [
        {
          "internalType": "address",
          "name": "user",
          "type": "address"
        }
      ],
      "name": "getUserRoles",
      "outputs": [
        {
          "internalType": "bytes32[]",
          "name": "",
          "type": "bytes32[]"
        }
      ],
      "stateMutability": "view",
      "type": "function"
    },
    {
      "inputs": [
        {
          "internalType": "bytes32",
          "name": "role",
          "type": "bytes32"
        },
        {
          "internalType": "address",
          "name": "account",
          "type": "address"
        }
      ],
      "name": "grantRole",
      "outputs": [],
      "stateMutability": "nonpayable",
      "type": "function"
    },
    {
      "inputs": [
        {
          "internalType": "bytes32",
          "name": "role",
          "type": "bytes32"
        },
        {
          "internalType": "address",
          "name": "account",
          "type": "address"
        }
      ],
      "name": "hasRole",
      "outputs": [
        {
          "internalType": "bool",
          "name": "",
          "type": "bool"
        }
      ],
      "stateMutability": "view",
      "type": "function"
    },
    {
      "inputs": [
        {
          "internalType": "address",
          "name": "user",
          "type": "address"
        },
        {
          "internalType": "bytes32",
          "name": "role",
          "type": "bytes32"
        }
      ],
      "name": "hasUserRole",
      "outputs": [
        {
          "internalType": "bool",
          "name": "",
          "type": "bool"
        }
      ],
      "stateMutability": "view",
      "type": "function"
    },
    {
      "inputs": [
        {
          "internalType": "uint256",
          "name": "contractId",
          "type": "uint256"
        },
        {
          "internalType": "string",
          "name": "tokenURI",
          "type": "string"
        }
      ],
      "name": "mintContractNFT",
      "outputs": [
        {
          "internalType": "uint256",
          "name": "",
          "type": "uint256"
        }
      ],
      "stateMutability": "nonpayable",
      "type": "function"
    },
    {
      "inputs": [
        {
          "internalType": "address",
          "name": "user",
          "type": "address"
        },
        {
          "internalType": "bytes32",
          "name": "role",
          "type": "bytes32"
        },
        {
          "internalType": "string",
          "name": "name",
          "type": "string"
        },
        {
          "internalType": "string",
          "name": "profileIPFSHash",
          "type": "string"
        }
      ],
      "name": "registerUser",
      "outputs": [],
      "stateMutability": "nonpayable",
      "type": "function"
    },
    {
      "inputs": [
        {
          "internalType": "bytes32",
          "name": "role",
          "type": "bytes32"
        },
        {
          "internalType": "address",
          "name": "account",
          "type": "address"
        }
      ],
      "name": "renounceRole",
      "outputs": [],
      "stateMutability": "nonpayable",
      "type": "function"
    },
    {
      "inputs": [
        {
          "internalType": "bytes32",
          "name": "role",
          "type": "bytes32"
        },
        {
          "internalType": "address",
          "name": "account",
          "type": "address"
        }
      ],
      "name": "revokeRole",
      "outputs": [],
      "stateMutability": "nonpayable",
      "type": "function"
    },
    {
      "inputs": [],
      "name": "sponsorshipNFT",
      "outputs": [
        {
          "internalType": "contract SponsorshipNFT",
          "name": "",
          "type": "address"
        }
      ],
      "stateMutability": "view",
      "type": "function"
    },
    {
      "inputs": [
        {
          "internalType": "bytes4",
          "name": "interfaceId",
          "type": "bytes4"
        }
      ],
      "name": "supportsInterface",
      "outputs": [
        {
          "internalType": "bool",
          "name": "",
          "type": "bool"
        }
      ],
      "stateMutability": "view",
      "type": "function"
    },
    {
      "inputs": [
        {
          "internalType": "string",
          "name": "name",
          "type": "string"
        },
        {
          "internalType": "string",
          "name": "profileIPFSHash",
          "type": "string"
        }
      ],
      "name": "updateUserProfile",
      "outputs": [],
      "stateMutability": "nonpayable",
      "type": "function"
    },
    {
      "inputs": [
        {
          "internalType": "address",
          "name": "",
          "type": "address"
        }
      ],
      "name": "userInfo",
      "outputs": [
        {
          "internalType": "string",
          "name": "name",
          "type": "string"
        },
        {
          "internalType": "string",
          "name": "profileIPFSHash",
          "type": "string"
        },
        {
          "internalType": "bool",
          "name": "isVerified",
          "type": "bool"
        }
      ],
      "stateMutability": "view",
      "type": "function"
    },
    {
      "inputs": [
        {
          "internalType": "address",
          "name": "",
          "type": "address"
        },
        {
          "internalType": "uint256",
          "name": "",
          "type": "uint256"
        }
      ],
      "name": "userRoles",
      "outputs": [
        {
          "internalType": "bytes32",
          "name": "",
          "type": "bytes32"
        }
      ],
      "stateMutability": "view",
      "type": "function"
    },
    {
      "inputs": [
        {
          "internalType": "address",
          "name": "user",
          "type": "address"
        }
      ],
      "name": "verifyUser",
      "outputs": [],
      "stateMutability": "nonpayable",
      "type": "function"
    }
  ],
  "bytecode": "0x60806040523480156200001157600080fd5b506200001f60003362000132565b6040516200002d90620001d3565b604051809103906000f0801580156200004a573d6000803e3d6000fd5b50600180546001600160a01b0319166001600160a01b03929092169190911790556040516200007990620001e1565b604051809103906000f08015801562000096573d6000803e3d6000fd5b50600280546001600160a01b0319166001600160a01b03929092169182179055604051632f2ff15d60e01b81527f9f2df0fed2c77648de5860a4cc508cd0818c85b8b8a1ab4ceeef8d981c8956a66004820152306024820152632f2ff15d90604401600060405180830381600087803b1580156200011357600080fd5b505af115801562000128573d6000803e3d6000fd5b50505050620001ef565b6000828152602081815260408083206001600160a01b038516845290915290205460ff16620001cf576000828152602081815260408083206001600160a01b03851684529091529020805460ff191660011790556200018e3390565b6001600160a01b0316816001600160a01b0316837f2f8788117e7eff1d82e926ec794901d17c78024a50270940304540a733656f0d60405160405180910390a45b5050565b612b078062001dac83390190565b61293380620048b383390190565b611bad80620001ff6000396000f3fe608060405234801561001057600080fd5b50600436106101735760003560e01c806349d5e604116100de57806391d1485411610097578063b051a1fb11610071578063b051a1fb146103b7578063c2d79444146103ca578063d547741f146103f1578063e7cdebd81461040457600080fd5b806391d14854146103755780639cea078714610388578063a217fddf146103af57600080fd5b806349d5e604146102c75780634d6d6a9c146102ee5780634d813120146103155780636c4ee56a14610328578063783c69cc1461033b5780637b2da3ce1461036257600080fd5b8063248a9ca311610130578063248a9ca314610243578063276832d7146102665780632f2ff15d1461027957806334c925f01461028e57806336568abe146102a157806340e06979146102b457600080fd5b806301ffc9a71461017857806306a36aee146101a05780630719fce9146101c05780630dbb4929146101eb5780631959a0021461020c57806322459e181461022e575b600080fd5b61018b6101863660046111fd565b610417565b60405190151581526020015b60405180910390f35b6101b36101ae36600461123c565b61044e565b6040516101979190611259565b6001546101d3906001600160a01b031681565b6040516001600160a01b039091168152602001610197565b6101fe6101f936600461129d565b6104ba565b604051908152602001610197565b61021f61021a36600461123c565b6104eb565b60405161019793929190611319565b6101fe600080516020611b5883398151915281565b6101fe610251366004611351565b60009081526020819052604090206001015490565b61018b61027436600461129d565b610620565b61028c61028736600461136a565b610633565b005b6101b361029c36600461123c565b61065d565b61028c6102af36600461136a565b6106ca565b61028c6102c236600461145f565b61074d565b6101fe7f5146a08baf902532d0ee2f909971144f12ca32651cd70cbee1117cddfb3b3b3381565b6103016102fc366004611351565b61077c565b6040516101979897969594939291906114c3565b61028c61032336600461123c565b61081a565b6002546101d3906001600160a01b031681565b6101fe7f7f611ffbf41dd527826abad73cb1b1ecff28482bb0412695be053afa0451ad1881565b6101fe610370366004611540565b61088e565b61018b61038336600461136a565b610b27565b6101fe7f16ceee8289685dd2a02b9c8ae81d2df373176ce53519e6284e2a2950d6546ffa81565b6101fe600081565b61028c6103c5366004611670565b610b50565b6101fe7f1597bc5e34ff090612f53164e4e642d2ab4fc78bffe19ed1b602a0d12559561a81565b61028c6103ff36600461136a565b610d04565b6101fe6104123660046116f0565b610d29565b60006001600160e01b03198216637965db0b60e01b148061044857506301ffc9a760e01b6001600160e01b03198316145b92915050565b6001600160a01b0381166000908152600460209081526040918290208054835181840281018401909452808452606093928301828280156104ae57602002820191906000526020600020905b81548152602001906001019080831161049a575b50505050509050919050565b600460205281600052604060002081815481106104d657600080fd5b90600052602060002001600091509150505481565b6003602052600090815260409020805481906105069061172d565b80601f01602080910402602001604051908101604052809291908181526020018280546105329061172d565b801561057f5780601f106105545761010080835404028352916020019161057f565b820191906000526020600020905b81548152906001019060200180831161056257829003601f168201915b5050505050908060010180546105949061172d565b80601f01602080910402602001604051908101604052809291908181526020018280546105c09061172d565b801561060d5780601f106105e25761010080835404028352916020019161060d565b820191906000526020600020905b8154815290600101906020018083116105f057829003601f168201915b5050506002909301549192505060ff1683565b600061062c8284610b27565b9392505050565b60008281526020819052604090206001015461064e81610f00565b6106588383610f0d565b505050565b6001600160a01b0381166000908152600360208181526040928390209091018054835181840281018401909452808452606093928301828280156104ae576020028201919060005260206000209081548152602001906001019080831161049a5750505050509050919050565b6001600160a01b038116331461073f5760405162461bcd60e51b815260206004820152602f60248201527f416363657373436f6e74726f6c3a2063616e206f6e6c792072656e6f756e636560448201526e103937b632b9903337b91039b2b63360891b60648201526084015b60405180910390fd5b6107498282610f91565b5050565b3360009081526003602052604090208061076784826117b5565b506001810161077683826117b5565b50505050565b60015460405163135b5aa760e21b8152600481018390526000918291606091839182918291829182916001600160a01b0390911690634d6d6a9c90602401600060405180830381865afa1580156107d7573d6000803e3d6000fd5b505050506040513d6000823e601f3d908101601f191682016040526107ff9190810190611894565b97509750975097509750975097509750919395975091939597565b610825600033610b27565b6108675760405162461bcd60e51b815260206004820152601360248201527210591b5a5b881c9bdb19481c995c5d5a5c9959606a1b6044820152606401610736565b6001600160a01b03166000908152600360205260409020600201805460ff19166001179055565b60006108ba7f7f611ffbf41dd527826abad73cb1b1ecff28482bb0412695be053afa0451ad188a610b27565b806108d857506108d8600080516020611b5883398151915233610b27565b6109245760405162461bcd60e51b815260206004820181905260248201527f4f6e6c79206174686c657465206f72206167656e742063616e206372656174656044820152606401610736565b61094e7f1597bc5e34ff090612f53164e4e642d2ab4fc78bffe19ed1b602a0d12559561a89610b27565b61099a5760405162461bcd60e51b815260206004820152601e60248201527f53706f6e736f72206d75737420686176652053504f4e534f525f524f4c4500006044820152606401610736565b600154604051631a872c6360e21b81526000916001600160a01b031690636a1cb18c906109d9908d908d908d908d908d908d908d908d90600401611973565b6020604051808303816000875af11580156109f8573d6000803e3d6000fd5b505050506040513d601f19601f82011682018060405250810190610a1c9190611a07565b6001600160a01b03808c166000908152600360208181526040808420830180546001818101835591865283862001879055948f16845283209091018054938401815582529020018190559050610a80600080516020611b5883398151915233610b27565b8015610a955750336001600160a01b038b1614155b8015610aaa5750336001600160a01b038a1614155b15610ad557336000908152600360208181526040832090910180546001810182559083529120018190555b604080516001600160a01b03808d1682528b16602082015282917f56560a52c047ed21fd801bf0f345b23d9af696f7922ff8e63101af5d48caddab910160405180910390a29998505050505050505050565b6000918252602082815260408084206001600160a01b0393909316845291905290205460ff1690565b610b5b600033610b27565b610b9d5760405162461bcd60e51b815260206004820152601360248201527210591b5a5b881c9bdb19481c995c5d5a5c9959606a1b6044820152606401610736565b610ba78385610b27565b15610bf45760405162461bcd60e51b815260206004820152601a60248201527f5573657220616c726561647920686173207468697320726f6c650000000000006044820152606401610736565b600154604051632f2ff15d60e01b8152600481018590526001600160a01b03868116602483015290911690632f2ff15d90604401600060405180830381600087803b158015610c4257600080fd5b505af1158015610c56573d6000803e3d6000fd5b50505050610c648385610f0d565b6001600160a01b038416600090815260036020526040902080610c8784826117b5565b5060018101610c9683826117b5565b506001600160a01b038516600081815260046020908152604080832080546001810182559084529190922001869055517f4c5d15f5779ae1ecd7d55bd3283d898e29c35743d172bd7b83a16e17bc0afe2a90610cf59087815260200190565b60405180910390a25050505050565b600082815260208190526040902060010154610d1f81610f00565b6106588383610f91565b60015460405163135b5aa760e21b815260048101849052600091829182916001600160a01b031690634d6d6a9c90602401600060405180830381865afa158015610d77573d6000803e3d6000fd5b505050506040513d6000823e601f3d908101601f19168201604052610d9f9190810190611894565b50505050505091509150816001600160a01b0316336001600160a01b03161480610dd15750336001600160a01b038216145b80610def5750610def600080516020611b5883398151915233610b27565b610e4b5760405162461bcd60e51b815260206004820152602760248201527f4f6e6c79206174686c6574652c2073706f6e736f72206f72206167656e742063604482015266185b881b5a5b9d60ca1b6064820152608401610736565b60025460405163613d8e4160e11b81526000916001600160a01b03169063c27b1c8290610e849085908a908a9089908490600401611a20565b6020604051808303816000875af1158015610ea3573d6000803e3d6000fd5b505050506040513d601f19601f82011682018060405250810190610ec79190611a07565b905085817fd4c3f7782ecae0d1a12013592109b1bf02689d7f4e8ab653c75a61aea745e3be60405160405180910390a395945050505050565b610f0a8133610ff6565b50565b610f178282610b27565b610749576000828152602081815260408083206001600160a01b03851684529091529020805460ff19166001179055610f4d3390565b6001600160a01b0316816001600160a01b0316837f2f8788117e7eff1d82e926ec794901d17c78024a50270940304540a733656f0d60405160405180910390a45050565b610f9b8282610b27565b15610749576000828152602081815260408083206001600160a01b0385168085529252808320805460ff1916905551339285917ff6391f5c32d9c69d2a47ea670b442974b53935d1edc7fd64eb21e047a839171b9190a45050565b6110008282610b27565b6107495761100d8161104f565b611018836020611061565b604051602001611029929190611a62565b60408051601f198184030181529082905262461bcd60e51b825261073691600401611ad7565b60606104486001600160a01b03831660145b60606000611070836002611b00565b61107b906002611b17565b67ffffffffffffffff8111156110935761109361139a565b6040519080825280601f01601f1916602001820160405280156110bd576020820181803683370190505b509050600360fc1b816000815181106110d8576110d8611b2a565b60200101906001600160f81b031916908160001a905350600f60fb1b8160018151811061110757611107611b2a565b60200101906001600160f81b031916908160001a905350600061112b846002611b00565b611136906001611b17565b90505b60018111156111ae576f181899199a1a9b1b9c1cb0b131b232b360811b85600f166010811061116a5761116a611b2a565b1a60f81b82828151811061118057611180611b2a565b60200101906001600160f81b031916908160001a90535060049490941c936111a781611b40565b9050611139565b50831561062c5760405162461bcd60e51b815260206004820181905260248201527f537472696e67733a20686578206c656e67746820696e73756666696369656e746044820152606401610736565b60006020828403121561120f57600080fd5b81356001600160e01b03198116811461062c57600080fd5b6001600160a01b0381168114610f0a57600080fd5b60006020828403121561124e57600080fd5b813561062c81611227565b6020808252825182820181905260009190848201906040850190845b8181101561129157835183529284019291840191600101611275565b50909695505050505050565b600080604083850312156112b057600080fd5b82356112bb81611227565b946020939093013593505050565b60005b838110156112e45781810151838201526020016112cc565b50506000910152565b600081518084526113058160208601602086016112c9565b601f01601f19169290920160200192915050565b60608152600061132c60608301866112ed565b828103602084015261133e81866112ed565b9150508215156040830152949350505050565b60006020828403121561136357600080fd5b5035919050565b6000806040838503121561137d57600080fd5b82359150602083013561138f81611227565b809150509250929050565b634e487b7160e01b600052604160045260246000fd5b604051601f8201601f1916810167ffffffffffffffff811182821017156113d9576113d961139a565b604052919050565b600067ffffffffffffffff8211156113fb576113fb61139a565b50601f01601f191660200190565b600082601f83011261141a57600080fd5b813561142d611428826113e1565b6113b0565b81815284602083860101111561144257600080fd5b816020850160208301376000918101602001919091529392505050565b6000806040838503121561147257600080fd5b823567ffffffffffffffff8082111561148a57600080fd5b61149686838701611409565b935060208501359150808211156114ac57600080fd5b506114b985828601611409565b9150509250929050565b6001600160a01b0389811682528881166020830152610100604083018190526000916114f18483018b6112ed565b92508860608501528760808501528660a08501526005861061152357634e487b7160e01b600052602160045260246000fd5b8560c085015280851660e085015250509998505050505050505050565b600080600080600080600080610100898b03121561155d57600080fd5b883561156881611227565b975060208981013561157981611227565b975060408a013567ffffffffffffffff8082111561159657600080fd5b6115a28d838e01611409565b985060608c0135975060808c0135965060a08c0135955060c08c013591506115c982611227565b90935060e08b013590808211156115df57600080fd5b818c0191508c601f8301126115f357600080fd5b8135818111156116055761160561139a565b8060051b91506116168483016113b0565b818152918301840191848101908f84111561163057600080fd5b938501935b8385101561165a578435925061164a83611227565b8282529385019390850190611635565b8096505050505050509295985092959890939650565b6000806000806080858703121561168657600080fd5b843561169181611227565b935060208501359250604085013567ffffffffffffffff808211156116b557600080fd5b6116c188838901611409565b935060608701359150808211156116d757600080fd5b506116e487828801611409565b91505092959194509250565b6000806040838503121561170357600080fd5b82359150602083013567ffffffffffffffff81111561172157600080fd5b6114b985828601611409565b600181811c9082168061174157607f821691505b60208210810361176157634e487b7160e01b600052602260045260246000fd5b50919050565b601f82111561065857600081815260208120601f850160051c8101602086101561178e5750805b601f850160051c820191505b818110156117ad5782815560010161179a565b505050505050565b815167ffffffffffffffff8111156117cf576117cf61139a565b6117e3816117dd845461172d565b84611767565b602080601f83116001811461181857600084156118005750858301515b600019600386901b1c1916600185901b1785556117ad565b600085815260208120601f198616915b8281101561184757888601518255948401946001909101908401611828565b50858210156118655787850151600019600388901b60f8161c191681555b5050505050600190811b01905550565b805161188081611227565b919050565b80516005811061188057600080fd5b600080600080600080600080610100898b0312156118b157600080fd5b88516118bc81611227565b60208a01519098506118cd81611227565b60408a015190975067ffffffffffffffff8111156118ea57600080fd5b8901601f81018b136118fb57600080fd5b8051611909611428826113e1565b8181528c602083850101111561191e57600080fd5b61192f8260208301602086016112c9565b809850505050606089015194506080890151935060a0890151925061195660c08a01611885565b915061196460e08a01611875565b90509295985092959890939650565b600061010060018060a01b03808c1684526020818c168186015282604086015261199f8386018c6112ed565b606086018b9052608086018a905260a0860189905287831660c087015285810360e0870152865180825282880194509082019060005b818110156119f35785518516835294830194918301916001016119d5565b50909e9d5050505050505050505050505050565b600060208284031215611a1957600080fd5b5051919050565b600060018060a01b03808816835286602084015260a06040840152611a4860a08401876112ed565b948116606084015292909216608090910152509392505050565b7f416363657373436f6e74726f6c3a206163636f756e7420000000000000000000815260008351611a9a8160178501602088016112c9565b7001034b99036b4b9b9b4b733903937b6329607d1b6017918401918201528351611acb8160288401602088016112c9565b01602801949350505050565b60208152600061062c60208301846112ed565b634e487b7160e01b600052601160045260246000fd5b808202811582820484141761044857610448611aea565b8082018082111561044857610448611aea565b634e487b7160e01b600052603260045260246000fd5b600081611b4f57611b4f611aea565b50600019019056fecab5a0bfe0b79d2c4b1c2e02599fa044d115b7511f9659307cb4276950967709a26469706673582212207dd8638bf4f131b42bea49e33b10c4590bff655117f4a3982855aa2486e52d9864736f6c6343000811003360806040523480156200001157600080fd5b50600180556200002360003362000029565b620000ca565b6000828152602081815260408083206001600160a01b038516845290915290205460ff16620000c6576000828152602081815260408083206001600160a01b03851684529091529020805460ff19166001179055620000853390565b6001600160a01b0316816001600160a01b0316837f2f8788117e7eff1d82e926ec794901d17c78024a50270940304540a733656f0d60405160405180910390a45b5050565b612a2d80620000da6000396000f3fe608060405234801561001057600080fd5b506004361061018e5760003560e01c80634c371022116100de5780638736381a11610097578063a217fddf11610071578063a217fddf146103c4578063c2010e50146103cc578063c2d79444146103ef578063d547741f1461041657600080fd5b80638736381a1461038157806391d148541461038a5780639cea07871461039d57600080fd5b80634c371022146102e95780634d6d6a9c1461030e5780635aef573c146103215780636a1cb18c146103345780636e2a373a14610347578063783c69cc1461035a57600080fd5b806334b25ee21161014b578063460ff8c411610125578063460ff8c414610275578063474da79a1461028857806348259836146102af57806349d5e604146102c257600080fd5b806334b25ee21461023c57806335c2bd631461024f57806336568abe1461026257600080fd5b806301ffc9a7146101935780630390e07a146101bb57806320913da5146101d057806322459e18146101e3578063248a9ca3146102065780632f2ff15d14610229575b600080fd5b6101a66101a1366004611fe5565b610429565b60405190151581526020015b60405180910390f35b6101ce6101c93660046120c6565b610460565b005b6101ce6101de366004612116565b61063a565b6101f86000805160206129d883398151915281565b6040519081526020016101b2565b6101f8610214366004612138565b60009081526020819052604090206001015490565b6101ce61023736600461216d565b6109f9565b6101ce61024a3660046121a7565b610a23565b6101ce61025d366004612138565b610be1565b6101ce61027036600461216d565b610e0e565b6101ce610283366004612266565b610e88565b61029b610296366004612138565b6111c3565b6040516101b29897969594939291906123d0565b6101ce6102bd36600461243f565b6112a9565b6101f87f5146a08baf902532d0ee2f909971144f12ca32651cd70cbee1117cddfb3b3b3381565b6102fc6102f7366004612116565b6113a5565b6040516101b296959493929190612486565b61029b61031c366004612138565b61153e565b6101ce61032f36600461243f565b61164b565b6101f86103423660046124e3565b611754565b6101ce6103553660046120c6565b6119d1565b6101f87f7f611ffbf41dd527826abad73cb1b1ecff28482bb0412695be053afa0451ad1881565b6101f860035481565b6101a661039836600461216d565b611bc0565b6101f87f16ceee8289685dd2a02b9c8ae81d2df373176ce53519e6284e2a2950d6546ffa81565b6101f8600081565b6101f86103da366004612138565b60009081526002602052604090206007015490565b6101f87f1597bc5e34ff090612f53164e4e642d2ab4fc78bffe19ed1b602a0d12559561a81565b6101ce61042436600461216d565b611be9565b60006001600160e01b03198216637965db0b60e01b148061045a57506301ffc9a760e01b6001600160e01b03198316145b92915050565b600083815260026020526040902080546001600160a01b031633146104d65760405162461bcd60e51b815260206004820152602160248201527f4f6e6c79206174686c6574652063616e207375626d6974206d696c6573746f6e6044820152606560f81b60648201526084015b60405180910390fd5b6001600682015460ff1660048111156104f1576104f16123ba565b1461050e5760405162461bcd60e51b81526004016104cd906125f3565b600781015483106105315760405162461bcd60e51b81526004016104cd90612620565b600081600701848154811061054857610548612657565b60009182526020909120600360069092020181015460ff1690811115610570576105706123ba565b146105b55760405162461bcd60e51b81526020600482015260156024820152744d696c6573746f6e65206e6f742070656e64696e6760581b60448201526064016104cd565b60008160070184815481106105cc576105cc612657565b90600052602060002090600602019050828160040190816105ed91906126ed565b5060038101805460ff1916600117905560405184815285907f1b7218c0ac23ea9cbe4df603d2b340fbf469a115b73ea3d11460727f445d6be1906020015b60405180910390a25050505050565b610642611c0e565b600082815260026020526040902060018101546001600160a01b031633146106b75760405162461bcd60e51b815260206004820152602260248201527f4f6e6c792073706f6e736f722063616e20617070726f7665206d696c6573746f6044820152616e6560f01b60648201526084016104cd565b6001600682015460ff1660048111156106d2576106d26123ba565b146106ef5760405162461bcd60e51b81526004016104cd906125f3565b600781015482106107125760405162461bcd60e51b81526004016104cd90612620565b600081600701838154811061072957610729612657565b600091825260209091206006909102019050600160038083015460ff1690811115610756576107566123ba565b1461079d5760405162461bcd60e51b8152602060048201526017602482015276135a5b195cdd1bdb99481b9bdd0818dbdb5c1b195d1959604a1b60448201526064016104cd565b600581015460ff16156107ed5760405162461bcd60e51b815260206004820152601860248201527714185e5b595b9d08185b1c9958591e481c995b19585cd95960421b60448201526064016104cd565b60058101805460ff19166001179055600682015461010090046001600160a01b031661085657815460018201546040516001600160a01b039092169181156108fc0291906000818181858888f19350505050158015610850573d6000803e3d6000fd5b5061092f565b60068201546001808401548454918401546040516323b872dd60e01b81526001600160a01b039283166004820152928216602484015260448301526101009092049091169081906323b872dd906064016020604051808303816000875af11580156108c5573d6000803e3d6000fd5b505050506040513d601f19601f820116820180604052508101906108e991906127ad565b61092d5760405162461bcd60e51b8152602060048201526015602482015274151bdad95b881d1c985b9cd9995c8819985a5b1959605a1b60448201526064016104cd565b505b837f3c70b1e8034b5738ec77fbfdaa4d28906a0b3160018d67a2dc7b534e53e33fe084836001015460405161096e929190918252602082015260400190565b60405180910390a2600160005b60078401548110156109d25783600701818154811061099c5761099c612657565b600091825260209091206005600690920201015460ff166109c057600091506109d2565b806109ca816127e0565b91505061097b565b5080156109e95760068301805460ff191660021790555b5050506109f560018055565b5050565b600082815260208190526040902060010154610a1481611c67565b610a1e8383611c74565b505050565b600082815260026020526040812090805b6008830154811015610a8b57826008018181548110610a5557610a55612657565b6000918252602090912001546001600160a01b03163303610a795760019150610a8b565b80610a83816127e0565b915050610a34565b508080610abd5750610abd7f16ceee8289685dd2a02b9c8ae81d2df373176ce53519e6284e2a2950d6546ffa33611bc0565b610b155760405162461bcd60e51b815260206004820152602360248201527f4f6e6c792061726269747261746f722063616e207265736f6c7665206469737060448201526275746560e81b60648201526084016104cd565b6003600683015460ff166004811115610b3057610b306123ba565b14610b755760405162461bcd60e51b815260206004820152601560248201527410dbdb9d1c9858dd081b9bdd08191a5cdc1d5d1959605a1b60448201526064016104cd565b8215610b8f5760068201805460ff19166001179055610b9f565b60068201805460ff191660041790555b837f5a87909bff68caaaaf0b3fd9c74eeccc928832f879315e5c6fb7a73612f26c0c84604051610bd3911515815260200190565b60405180910390a250505050565b600081815260026020526040902060018101546001600160a01b03163314610c565760405162461bcd60e51b815260206004820152602260248201527f4f6e6c792073706f6e736f722063616e20616374697661746520636f6e74726160448201526118dd60f21b60648201526084016104cd565b6000600682015460ff166004811115610c7157610c716123ba565b14610cbe5760405162461bcd60e51b815260206004820152601b60248201527f436f6e7472616374206e6f7420696e206472616674207374617465000000000060448201526064016104cd565b6007810154610d0f5760405162461bcd60e51b815260206004820152601d60248201527f436f6e7472616374206d7573742068617665206d696c6573746f6e657300000060448201526064016104cd565b600681015461010090046001600160a01b031615610dfd57600681015460038201546001830154604051636eb1769f60e11b81526001600160a01b0391821660048201523060248201526101009093041691829063dd62ed3e90604401602060405180830381865afa158015610d89573d6000803e3d6000fd5b505050506040513d601f19601f82011682018060405250810190610dad91906127f9565b1015610dfb5760405162461bcd60e51b815260206004820152601c60248201527f496e73756666696369656e7420746f6b656e20616c6c6f77616e63650000000060448201526064016104cd565b505b600601805460ff1916600117905550565b6001600160a01b0381163314610e7e5760405162461bcd60e51b815260206004820152602f60248201527f416363657373436f6e74726f6c3a2063616e206f6e6c792072656e6f756e636560448201526e103937b632b9903337b91039b2b63360891b60648201526084016104cd565b6109f58282611cf8565b600084815260026020526040902080546001600160a01b0316331480610eba575060018101546001600160a01b031633145b80610ed85750610ed86000805160206129d883398151915233611bc0565b610f135760405162461bcd60e51b815260206004820152600c60248201526b155b985d5d1a1bdc9a5e995960a21b60448201526064016104cd565b6000600682015460ff166004811115610f2e57610f2e6123ba565b14610f7b5760405162461bcd60e51b815260206004820152601b60248201527f436f6e7472616374206e6f7420696e206472616674207374617465000000000060448201526064016104cd565b82518451148015610f8d575081518351145b610fd25760405162461bcd60e51b8152602060048201526016602482015275082e4e4c2f2e640d8cadccee8d040dad2e6dac2e8c6d60531b60448201526064016104cd565b6000805b845181101561114d57848181518110610ff157610ff1612657565b6020026020010151826110049190612812565b9150826007016040518060c0016040528088848151811061102757611027612657565b6020026020010151815260200187848151811061104657611046612657565b6020026020010151815260200186848151811061106557611065612657565b6020026020010151815260200160006003811115611085576110856123ba565b81526040805160208181018352600080835281850192909252919092018290528354600181018555938252902081519192600602019081906110c790826126ed565b50602082015181600101556040820151816002015560608201518160030160006101000a81548160ff02191690836003811115611106576111066123ba565b02179055506080820151600482019061111f90826126ed565b5060a091909101516005909101805460ff191691151591909117905580611145816127e0565b915050610fd6565b50816003015481146111bb5760405162461bcd60e51b815260206004820152603160248201527f546f74616c206d696c6573746f6e6520616d6f756e7473206d757374206d6174604482015270636820636f6e74726163742076616c756560781b60648201526084016104cd565b505050505050565b60026020819052600091825260409091208054600182015492820180546001600160a01b039283169490921692916111fa9061266d565b80601f01602080910402602001604051908101604052809291908181526020018280546112269061266d565b80156112735780601f1061124857610100808354040283529160200191611273565b820191906000526020600020905b81548152906001019060200180831161125657829003601f168201915b505050506003830154600484015460058501546006909501549394919390925060ff81169061010090046001600160a01b031688565b600082815260026020526040902080546001600160a01b03163314806112db575060018101546001600160a01b031633145b806112f957506112f96000805160206129d883398151915233611bc0565b6113345760405162461bcd60e51b815260206004820152600c60248201526b155b985d5d1a1bdc9a5e995960a21b60448201526064016104cd565b60098101805460018101825560009182526020909120016113586002830182612825565b506002810161136783826126ed565b50827f3d6b58530bfb3205822f758555331d98d728b985f2081c1f5dbdcf7bc755d650836040516113989190612900565b60405180910390a2505050565b606060008060006060600080600260008a815260200190815260200160002060070188815481106113d8576113d8612657565b6000918252602090912060069091020160018101546002820154600383015460058401548454949550859460ff9283169260048701921690869061141b9061266d565b80601f01602080910402602001604051908101604052809291908181526020018280546114479061266d565b80156114945780601f1061146957610100808354040283529160200191611494565b820191906000526020600020905b81548152906001019060200180831161147757829003601f168201915b505050505095508180546114a79061266d565b80601f01602080910402602001604051908101604052809291908181526020018280546114d39061266d565b80156115205780601f106114f557610100808354040283529160200191611520565b820191906000526020600020905b81548152906001019060200180831161150357829003601f168201915b50505050509150965096509650965096509650509295509295509295565b60008181526002602081905260408220805460018201546003830154600484015460058501546006860154968601805489986060988a98899889988998899894976001600160a01b03948516979385169690959294919360ff8216926101009092049091169086906115af9061266d565b80601f01602080910402602001604051908101604052809291908181526020018280546115db9061266d565b80156116285780601f106115fd57610100808354040283529160200191611628565b820191906000526020600020905b81548152906001019060200180831161160b57829003601f168201915b505050505095509850985098509850985098509850985050919395975091939597565b600082815260026020526040902080546001600160a01b031633148061167d575060018101546001600160a01b031633145b6116db5760405162461bcd60e51b815260206004820152602960248201527f4f6e6c79206174686c657465206f722073706f6e736f722063616e207261697360448201526865206469737075746560b81b60648201526084016104cd565b6001600682015460ff1660048111156116f6576116f66123ba565b146117135760405162461bcd60e51b81526004016104cd906125f3565b60068101805460ff1916600317905560405183907fe07ad455e24561261e9047aab2f668ae1fc2cc6fda35021764673613b888836d90611398908590612900565b60006117807f7f611ffbf41dd527826abad73cb1b1ecff28482bb0412695be053afa0451ad188a611bc0565b8061179e575061179e6000805160206129d883398151915233611bc0565b6118015760405162461bcd60e51b815260206004820152602e60248201527f556e617574686f72697a65643a204f6e6c79206174686c657465206f7220616760448201526d656e742063616e2063726561746560901b60648201526084016104cd565b61182b7f1597bc5e34ff090612f53164e4e642d2ab4fc78bffe19ed1b602a0d12559561a89611bc0565b6118775760405162461bcd60e51b815260206004820152601e60248201527f53706f6e736f72206d75737420686176652053504f4e534f525f524f4c45000060448201526064016104cd565b8484116118d05760405162461bcd60e51b815260206004820152602160248201527f456e642064617465206d757374206265206166746572207374617274206461746044820152606560f81b60648201526084016104cd565b60038054600091826118e1836127e0565b90915550600081815260026020819052604090912080546001600160a01b03808f166001600160a01b0319928316178355600183018054918f169190921617905591925081016119318a826126ed565b506003810188905560048101879055600581018690556006810180546001600160a81b0319166101006001600160a01b03881602179055835161197d9060088301906020870190611f6b565b50604080516001600160a01b03808e1682528c16602082015283917f56560a52c047ed21fd801bf0f345b23d9af696f7922ff8e63101af5d48caddab910160405180910390a2509998505050505050505050565b600083815260026020526040902060018101546001600160a01b03163314611a455760405162461bcd60e51b815260206004820152602160248201527f4f6e6c792073706f6e736f722063616e2072656a656374206d696c6573746f6e6044820152606560f81b60648201526084016104cd565b6001600682015460ff166004811115611a6057611a606123ba565b14611a7d5760405162461bcd60e51b81526004016104cd906125f3565b60078101548310611aa05760405162461bcd60e51b81526004016104cd90612620565b6000816007018481548110611ab757611ab7612657565b600091825260209091206006909102019050600160038083015460ff1690811115611ae457611ae46123ba565b14611b2b5760405162461bcd60e51b8152602060048201526017602482015276135a5b195cdd1bdb99481b9bdd0818dbdb5c1b195d1959604a1b60448201526064016104cd565b600581015460ff1615611b7b5760405162461bcd60e51b815260206004820152601860248201527714185e5b595b9d08185b1c9958591e481c995b19585cd95960421b60448201526064016104cd565b6003818101805460ff19166001830217905550847f2632a738857d774f3179abee0fa205787aea133c8f6d4cbfe4e605028d3e8230858560405161062b929190612913565b6000918252602082815260408084206001600160a01b0393909316845291905290205460ff1690565b600082815260208190526040902060010154611c0481611c67565b610a1e8383611cf8565b600260015403611c605760405162461bcd60e51b815260206004820152601f60248201527f5265656e7472616e637947756172643a207265656e7472616e742063616c6c0060448201526064016104cd565b6002600155565b611c718133611d5d565b50565b611c7e8282611bc0565b6109f5576000828152602081815260408083206001600160a01b03851684529091529020805460ff19166001179055611cb43390565b6001600160a01b0316816001600160a01b0316837f2f8788117e7eff1d82e926ec794901d17c78024a50270940304540a733656f0d60405160405180910390a45050565b611d028282611bc0565b156109f5576000828152602081815260408083206001600160a01b0385168085529252808320805460ff1916905551339285917ff6391f5c32d9c69d2a47ea670b442974b53935d1edc7fd64eb21e047a839171b9190a45050565b611d678282611bc0565b6109f557611d7481611db6565b611d7f836020611dc8565b604051602001611d90929190612934565b60408051601f198184030181529082905262461bcd60e51b82526104cd91600401612900565b606061045a6001600160a01b03831660145b60606000611dd78360026129a9565b611de2906002612812565b67ffffffffffffffff811115611dfa57611dfa61200f565b6040519080825280601f01601f191660200182016040528015611e24576020820181803683370190505b509050600360fc1b81600081518110611e3f57611e3f612657565b60200101906001600160f81b031916908160001a905350600f60fb1b81600181518110611e6e57611e6e612657565b60200101906001600160f81b031916908160001a9053506000611e928460026129a9565b611e9d906001612812565b90505b6001811115611f15576f181899199a1a9b1b9c1cb0b131b232b360811b85600f1660108110611ed157611ed1612657565b1a60f81b828281518110611ee757611ee7612657565b60200101906001600160f81b031916908160001a90535060049490941c93611f0e816129c0565b9050611ea0565b508315611f645760405162461bcd60e51b815260206004820181905260248201527f537472696e67733a20686578206c656e67746820696e73756666696369656e7460448201526064016104cd565b9392505050565b828054828255906000526020600020908101928215611fc0579160200282015b82811115611fc057825182546001600160a01b0319166001600160a01b03909116178255602090920191600190910190611f8b565b50611fcc929150611fd0565b5090565b5b80821115611fcc5760008155600101611fd1565b600060208284031215611ff757600080fd5b81356001600160e01b031981168114611f6457600080fd5b634e487b7160e01b600052604160045260246000fd5b604051601f8201601f1916810167ffffffffffffffff8111828210171561204e5761204e61200f565b604052919050565b600082601f83011261206757600080fd5b813567ffffffffffffffff8111156120815761208161200f565b612094601f8201601f1916602001612025565b8181528460208386010111156120a957600080fd5b816020850160208301376000918101602001919091529392505050565b6000806000606084860312156120db57600080fd5b8335925060208401359150604084013567ffffffffffffffff81111561210057600080fd5b61210c86828701612056565b9150509250925092565b6000806040838503121561212957600080fd5b50508035926020909101359150565b60006020828403121561214a57600080fd5b5035919050565b80356001600160a01b038116811461216857600080fd5b919050565b6000806040838503121561218057600080fd5b8235915061219060208401612151565b90509250929050565b8015158114611c7157600080fd5b600080604083850312156121ba57600080fd5b8235915060208301356121cc81612199565b809150509250929050565b600067ffffffffffffffff8211156121f1576121f161200f565b5060051b60200190565b600082601f83011261220c57600080fd5b8135602061222161221c836121d7565b612025565b82815260059290921b8401810191818101908684111561224057600080fd5b8286015b8481101561225b5780358352918301918301612244565b509695505050505050565b6000806000806080858703121561227c57600080fd5b8435935060208086013567ffffffffffffffff8082111561229c57600080fd5b818801915088601f8301126122b057600080fd5b81356122be61221c826121d7565b81815260059190911b8301840190848101908b8311156122dd57600080fd5b8585015b83811015612315578035858111156122f95760008081fd5b6123078e89838a0101612056565b8452509186019186016122e1565b5097505050604088013592508083111561232e57600080fd5b61233a89848a016121fb565b9450606088013592508083111561235057600080fd5b505061235e878288016121fb565b91505092959194509250565b60005b8381101561238557818101518382015260200161236d565b50506000910152565b600081518084526123a681602086016020860161236a565b601f01601f19169290920160200192915050565b634e487b7160e01b600052602160045260246000fd5b6001600160a01b0389811682528881166020830152610100604083018190526000916123fe8483018b61238e565b92508860608501528760808501528660a085015260058610612422576124226123ba565b8560c085015280851660e085015250509998505050505050505050565b6000806040838503121561245257600080fd5b82359150602083013567ffffffffffffffff81111561247057600080fd5b61247c85828601612056565b9150509250929050565b60c08152600061249960c083018961238e565b876020840152866040840152600486106124b5576124b56123ba565b85606084015282810360808401526124cd818661238e565b91505082151560a0830152979650505050505050565b600080600080600080600080610100898b03121561250057600080fd5b61250989612151565b97506020612518818b01612151565b975060408a013567ffffffffffffffff8082111561253557600080fd5b6125418d838e01612056565b985060608c0135975060808c0135965060a08c0135955061256460c08d01612151565b945060e08c013591508082111561257a57600080fd5b508a01601f81018c1361258c57600080fd5b803561259a61221c826121d7565b81815260059190911b8201830190838101908e8311156125b957600080fd5b928401925b828410156125de576125cf84612151565b825292840192908401906125be565b80955050505050509295985092959890939650565b602080825260139082015272436f6e7472616374206e6f742061637469766560681b604082015260600190565b60208082526017908201527f496e76616c6964206d696c6573746f6e6520696e646578000000000000000000604082015260600190565b634e487b7160e01b600052603260045260246000fd5b600181811c9082168061268157607f821691505b6020821081036126a157634e487b7160e01b600052602260045260246000fd5b50919050565b601f821115610a1e57600081815260208120601f850160051c810160208610156126ce5750805b601f850160051c820191505b818110156111bb578281556001016126da565b815167ffffffffffffffff8111156127075761270761200f565b61271b81612715845461266d565b846126a7565b602080601f83116001811461275057600084156127385750858301515b600019600386901b1c1916600185901b1785556111bb565b600085815260208120601f198616915b8281101561277f57888601518255948401946001909101908401612760565b508582101561279d5787850151600019600388901b60f8161c191681555b5050505050600190811b01905550565b6000602082840312156127bf57600080fd5b8151611f6481612199565b634e487b7160e01b600052601160045260246000fd5b6000600182016127f2576127f26127ca565b5060010190565b60006020828403121561280b57600080fd5b5051919050565b8082018082111561045a5761045a6127ca565b818103612830575050565b61283a825461266d565b67ffffffffffffffff8111156128525761285261200f565b61286081612715845461266d565b6000601f821160018114612894576000831561287c5750848201545b600019600385901b1c1916600184901b1784556128f9565b600085815260209020601f19841690600086815260209020845b838110156128ce57828601548255600195860195909101906020016128ae565b50858310156128ec5781850154600019600388901b60f8161c191681555b50505060018360011b0184555b5050505050565b602081526000611f64602083018461238e565b82815260406020820152600061292c604083018461238e565b949350505050565b7f416363657373436f6e74726f6c3a206163636f756e742000000000000000000081526000835161296c81601785016020880161236a565b7001034b99036b4b9b9b4b733903937b6329607d1b601791840191820152835161299d81602884016020880161236a565b01602801949350505050565b808202811582820484141761045a5761045a6127ca565b6000816129cf576129cf6127ca565b50600019019056fecab5a0bfe0b79d2c4b1c2e02599fa044d115b7511f9659307cb4276950967709a2646970667358221220147d5b0bee03f5bc9f87234acfb37a73ce39e597efa9544836f051e0910ec7d464736f6c6343000811003360806040523480156200001157600080fd5b506040518060400160405280601381526020017f4174686c6574652053706f6e736f7273686970000000000000000000000000008152506040518060400160405280600581526020016420a9a827a760d91b815250816000908162000077919062000214565b50600162000086828262000214565b506200009891506000905033620000ca565b620000c47f9f2df0fed2c77648de5860a4cc508cd0818c85b8b8a1ab4ceeef8d981c8956a633620000ca565b620002e0565b6000828152600b602090815260408083206001600160a01b038516845290915290205460ff166200016b576000828152600b602090815260408083206001600160a01b03851684529091529020805460ff191660011790556200012a3390565b6001600160a01b0316816001600160a01b0316837f2f8788117e7eff1d82e926ec794901d17c78024a50270940304540a733656f0d60405160405180910390a45b5050565b634e487b7160e01b600052604160045260246000fd5b600181811c908216806200019a57607f821691505b602082108103620001bb57634e487b7160e01b600052602260045260246000fd5b50919050565b601f8211156200020f57600081815260208120601f850160051c81016020861015620001ea5750805b601f850160051c820191505b818110156200020b57828155600101620001f6565b5050505b505050565b81516001600160401b038111156200023057620002306200016f565b620002488162000241845462000185565b84620001c1565b602080601f831160018114620002805760008415620002675750858301515b600019600386901b1c1916600185901b1785556200020b565b600085815260208120601f198616915b82811015620002b15788860151825594840194600190910190840162000290565b5085821015620002d05787850151600019600388901b60f8161c191681555b5050505050600190811b01905550565b61264380620002f06000396000f3fe608060405234801561001057600080fd5b50600436106101cf5760003560e01c80634f6ccce711610104578063a22cb465116100a2578063d539139311610071578063d539139314610404578063d547741f1461042b578063e985e9c51461043e578063fc88210a1461047a57600080fd5b8063a22cb465146103b8578063b88d4fde146103cb578063c27b1c82146103de578063c87b56dd146103f157600080fd5b806391d14854116100de57806391d1485414610382578063930049161461039557806395d89b41146103a8578063a217fddf146103b057600080fd5b80634f6ccce7146103495780636352211e1461035c57806370a082311461036f57600080fd5b806323b872dd116101715780632f745c591161014b5780632f745c59146102f057806336568abe1461030357806340398d671461031657806342842e0e1461033657600080fd5b806323b872dd146102a7578063248a9ca3146102ba5780632f2ff15d146102dd57600080fd5b8063081812fc116101ad578063081812fc1461023f578063095ea7b31461026a5780630f152e5d1461027f57806318160ddd1461029f57600080fd5b806301ffc9a7146101d457806306474d12146101fc57806306fdde031461022a575b600080fd5b6101e76101e2366004611e6e565b61048d565b60405190151581526020015b60405180910390f35b61021c61020a366004611e8b565b600e6020526000908152604090205481565b6040519081526020016101f3565b61023261049e565b6040516101f39190611ef4565b61025261024d366004611e8b565b610530565b6040516001600160a01b0390911681526020016101f3565b61027d610278366004611f23565b610557565b005b61021c61028d366004611e8b565b600d6020526000908152604090205481565b60095461021c565b61027d6102b5366004611f4d565b610671565b61021c6102c8366004611e8b565b6000908152600b602052604090206001015490565b61027d6102eb366004611f89565b6106a2565b61021c6102fe366004611f23565b6106c7565b61027d610311366004611f89565b61075d565b610329610324366004611fb5565b6107db565b6040516101f39190611fd0565b61027d610344366004611f4d565b61087d565b61021c610357366004611e8b565b610898565b61025261036a366004611e8b565b61092b565b61021c61037d366004611fb5565b61098b565b6101e7610390366004611f89565b610a11565b61027d6103a3366004612014565b610a3c565b610232610b48565b61021c600081565b61027d6103c6366004612039565b610b57565b61027d6103d9366004612101565b610b62565b61021c6103ec36600461217d565b610b9a565b6102326103ff366004611e8b565b610d15565b61021c7f9f2df0fed2c77648de5860a4cc508cd0818c85b8b8a1ab4ceeef8d981c8956a681565b61027d610439366004611f89565b610d20565b6101e761044c36600461220a565b6001600160a01b03918216600090815260056020908152604080832093909416825291909152205460ff1690565b61021c610488366004611e8b565b610d45565b600061049882610da6565b92915050565b6060600080546104ad90612234565b80601f01602080910402602001604051908101604052809291908181526020018280546104d990612234565b80156105265780601f106104fb57610100808354040283529160200191610526565b820191906000526020600020905b81548152906001019060200180831161050957829003601f168201915b5050505050905090565b600061053b82610dcb565b506000908152600460205260409020546001600160a01b031690565b60006105628261092b565b9050806001600160a01b0316836001600160a01b0316036105d45760405162461bcd60e51b815260206004820152602160248201527f4552433732313a20617070726f76616c20746f2063757272656e74206f776e656044820152603960f91b60648201526084015b60405180910390fd5b336001600160a01b03821614806105f057506105f0813361044c565b6106625760405162461bcd60e51b815260206004820152603d60248201527f4552433732313a20617070726f76652063616c6c6572206973206e6f7420746f60448201527f6b656e206f776e6572206f7220617070726f76656420666f7220616c6c00000060648201526084016105cb565b61066c8383610e1e565b505050565b61067b3382610e8c565b6106975760405162461bcd60e51b81526004016105cb9061226e565b61066c838383610f0b565b6000828152600b60205260409020600101546106bd8161107c565b61066c8383611086565b60006106d28361098b565b82106107345760405162461bcd60e51b815260206004820152602b60248201527f455243373231456e756d657261626c653a206f776e657220696e646578206f7560448201526a74206f6620626f756e647360a81b60648201526084016105cb565b506001600160a01b03919091166000908152600760209081526040808320938352929052205490565b6001600160a01b03811633146107cd5760405162461bcd60e51b815260206004820152602f60248201527f416363657373436f6e74726f6c3a2063616e206f6e6c792072656e6f756e636560448201526e103937b632b9903337b91039b2b63360891b60648201526084016105cb565b6107d7828261110c565b5050565b606060006107e88361098b565b905060008167ffffffffffffffff81111561080557610805612075565b60405190808252806020026020018201604052801561082e578160200160208202803683370190505b50905060005b828110156108755761084685826106c7565b828281518110610858576108586122bb565b60209081029190910101528061086d816122e7565b915050610834565b509392505050565b61066c83838360405180602001604052806000815250610b62565b60006108a360095490565b82106109065760405162461bcd60e51b815260206004820152602c60248201527f455243373231456e756d657261626c653a20676c6f62616c20696e646578206f60448201526b7574206f6620626f756e647360a01b60648201526084016105cb565b60098281548110610919576109196122bb565b90600052602060002001549050919050565b6000818152600260205260408120546001600160a01b0316806104985760405162461bcd60e51b8152602060048201526018602482015277115490cdcc8c4e881a5b9d985b1a59081d1bdad95b88125160421b60448201526064016105cb565b60006001600160a01b0382166109f55760405162461bcd60e51b815260206004820152602960248201527f4552433732313a2061646472657373207a65726f206973206e6f7420612076616044820152683634b21037bbb732b960b91b60648201526084016105cb565b506001600160a01b031660009081526003602052604090205490565b6000918252600b602090815260408084206001600160a01b0393909316845291905290205460ff1690565b610a4583611173565b610a885760405162461bcd60e51b8152602060048201526014602482015273151bdad95b88191bd95cc81b9bdd08195e1a5cdd60621b60448201526064016105cb565b610a918361092b565b6001600160a01b0316336001600160a01b031614610aff5760405162461bcd60e51b815260206004820152602560248201527f4f6e6c7920746f6b656e206f776e65722063616e207265636f726420726f79616044820152646c7469657360d81b60648201526084016105cb565b604080516001600160a01b03841681526020810183905284917ff670029fc6f5302baba881b4ae845d1453acdf752b4c19ed81fe0fa6a686409b910160405180910390a2505050565b6060600180546104ad90612234565b6107d7338383611190565b610b6c3383610e8c565b610b885760405162461bcd60e51b81526004016105cb9061226e565b610b948484848461125e565b50505050565b6000610bc67f9f2df0fed2c77648de5860a4cc508cd0818c85b8b8a1ab4ceeef8d981c8956a633610a11565b610c0b5760405162461bcd60e51b815260206004820152601660248201527521b0b63632b91034b9903737ba10309036b4b73a32b960511b60448201526064016105cb565b6000858152600e602052604090205415610c735760405162461bcd60e51b8152602060048201526024808201527f4e465420616c7265616479206d696e74656420666f72207468697320636f6e746044820152631c9858dd60e21b60648201526084016105cb565b610c81600c80546001019055565b6000610c8c600c5490565b9050610c988782611291565b610ca2818661140c565b6000818152600d60209081526040808320899055888352600e82529182902083905581516001600160a01b038088168252861691810191909152879183917f55e9844e5f860996963c4a8a758e7e68642c5e59723728e1b09c9923698d927d910160405180910390a39695505050505050565b606061049882611490565b6000828152600b6020526040902060010154610d3b8161107c565b61066c838361110c565b6000610d5082611173565b610d935760405162461bcd60e51b8152602060048201526014602482015273151bdad95b88191bd95cc81b9bdd08195e1a5cdd60621b60448201526064016105cb565b506000908152600d602052604090205490565b60006001600160e01b03198216637965db0b60e01b1480610498575061049882611598565b610dd481611173565b610e1b5760405162461bcd60e51b8152602060048201526018602482015277115490cdcc8c4e881a5b9d985b1a59081d1bdad95b88125160421b60448201526064016105cb565b50565b600081815260046020526040902080546001600160a01b0319166001600160a01b0384169081179091558190610e538261092b565b6001600160a01b03167f8c5be1e5ebec7d5bd14f71427d1e84f3dd0314c0f7b2291e5b200ac8c7c3b92560405160405180910390a45050565b600080610e988361092b565b9050806001600160a01b0316846001600160a01b03161480610edf57506001600160a01b0380821660009081526005602090815260408083209388168352929052205460ff165b80610f035750836001600160a01b0316610ef884610530565b6001600160a01b0316145b949350505050565b826001600160a01b0316610f1e8261092b565b6001600160a01b031614610f445760405162461bcd60e51b81526004016105cb90612300565b6001600160a01b038216610fa65760405162461bcd60e51b8152602060048201526024808201527f4552433732313a207472616e7366657220746f20746865207a65726f206164646044820152637265737360e01b60648201526084016105cb565b610fb383838360016115bd565b826001600160a01b0316610fc68261092b565b6001600160a01b031614610fec5760405162461bcd60e51b81526004016105cb90612300565b600081815260046020908152604080832080546001600160a01b03199081169091556001600160a01b0387811680865260038552838620805460001901905590871680865283862080546001019055868652600290945282852080549092168417909155905184937fddf252ad1be2c89b69c2b068fc378daa952ba7f163c4a11628f55a4df523b3ef91a4505050565b610e1b81336115c9565b6110908282610a11565b6107d7576000828152600b602090815260408083206001600160a01b03851684529091529020805460ff191660011790556110c83390565b6001600160a01b0316816001600160a01b0316837f2f8788117e7eff1d82e926ec794901d17c78024a50270940304540a733656f0d60405160405180910390a45050565b6111168282610a11565b156107d7576000828152600b602090815260408083206001600160a01b0385168085529252808320805460ff1916905551339285917ff6391f5c32d9c69d2a47ea670b442974b53935d1edc7fd64eb21e047a839171b9190a45050565b6000908152600260205260409020546001600160a01b0316151590565b816001600160a01b0316836001600160a01b0316036111f15760405162461bcd60e51b815260206004820152601960248201527f4552433732313a20617070726f766520746f2063616c6c65720000000000000060448201526064016105cb565b6001600160a01b03838116600081815260056020908152604080832094871680845294825291829020805460ff191686151590811790915591519182527f17307eab39ab6107e8899845ad3d59bd9653f200f220920489ca2b5937696c31910160405180910390a3505050565b611269848484610f0b565b61127584848484611622565b610b945760405162461bcd60e51b81526004016105cb90612345565b6001600160a01b0382166112e75760405162461bcd60e51b815260206004820181905260248201527f4552433732313a206d696e7420746f20746865207a65726f206164647265737360448201526064016105cb565b6112f081611173565b1561133d5760405162461bcd60e51b815260206004820152601c60248201527f4552433732313a20746f6b656e20616c7265616479206d696e7465640000000060448201526064016105cb565b61134b6000838360016115bd565b61135481611173565b156113a15760405162461bcd60e51b815260206004820152601c60248201527f4552433732313a20746f6b656e20616c7265616479206d696e7465640000000060448201526064016105cb565b6001600160a01b038216600081815260036020908152604080832080546001019055848352600290915280822080546001600160a01b0319168417905551839291907fddf252ad1be2c89b69c2b068fc378daa952ba7f163c4a11628f55a4df523b3ef908290a45050565b61141582611173565b6114785760405162461bcd60e51b815260206004820152602e60248201527f45524337323155524953746f726167653a2055524920736574206f66206e6f6e60448201526d32bc34b9ba32b73a103a37b5b2b760911b60648201526084016105cb565b600082815260066020526040902061066c82826123e5565b606061149b82610dcb565b600082815260066020526040812080546114b490612234565b80601f01602080910402602001604051908101604052809291908181526020018280546114e090612234565b801561152d5780601f106115025761010080835404028352916020019161152d565b820191906000526020600020905b81548152906001019060200180831161151057829003601f168201915b50505050509050600061154b60408051602081019091526000815290565b9050805160000361155d575092915050565b81511561158f5780826040516020016115779291906124a5565b60405160208183030381529060405292505050919050565b610f0384611723565b60006001600160e01b0319821663780e9d6360e01b1480610498575061049882611797565b610b94848484846117e7565b6115d38282610a11565b6107d7576115e081611927565b6115eb836020611939565b6040516020016115fc9291906124d4565b60408051601f198184030181529082905262461bcd60e51b82526105cb91600401611ef4565b60006001600160a01b0384163b1561171857604051630a85bd0160e11b81526001600160a01b0385169063150b7a0290611666903390899088908890600401612549565b6020604051808303816000875af19250505080156116a1575060408051601f3d908101601f1916820190925261169e91810190612586565b60015b6116fe573d8080156116cf576040519150601f19603f3d011682016040523d82523d6000602084013e6116d4565b606091505b5080516000036116f65760405162461bcd60e51b81526004016105cb90612345565b805181602001fd5b6001600160e01b031916630a85bd0160e11b149050610f03565b506001949350505050565b606061172e82610dcb565b600061174560408051602081019091526000815290565b905060008151116117655760405180602001604052806000815250611790565b8061176f84611ad5565b6040516020016117809291906124a5565b6040516020818303038152906040525b9392505050565b60006001600160e01b031982166380ac58cd60e01b14806117c857506001600160e01b03198216635b5e139f60e01b145b8061049857506301ffc9a760e01b6001600160e01b0319831614610498565b6117f384848484611b68565b60018111156118625760405162461bcd60e51b815260206004820152603560248201527f455243373231456e756d657261626c653a20636f6e7365637574697665207472604482015274185b9cd9995c9cc81b9bdd081cdd5c1c1bdc9d1959605a1b60648201526084016105cb565b816001600160a01b0385166118be576118b981600980546000838152600a60205260408120829055600182018355919091527f6e1540171b6c0c960b71a7020d9f60077f6af931a8bbf590da0223dacf75c7af0155565b6118e1565b836001600160a01b0316856001600160a01b0316146118e1576118e18582611bf0565b6001600160a01b0384166118fd576118f881611c8d565b611920565b846001600160a01b0316846001600160a01b031614611920576119208482611d3c565b5050505050565b60606104986001600160a01b03831660145b606060006119488360026125a3565b6119539060026125ba565b67ffffffffffffffff81111561196b5761196b612075565b6040519080825280601f01601f191660200182016040528015611995576020820181803683370190505b509050600360fc1b816000815181106119b0576119b06122bb565b60200101906001600160f81b031916908160001a905350600f60fb1b816001815181106119df576119df6122bb565b60200101906001600160f81b031916908160001a9053506000611a038460026125a3565b611a0e9060016125ba565b90505b6001811115611a86576f181899199a1a9b1b9c1cb0b131b232b360811b85600f1660108110611a4257611a426122bb565b1a60f81b828281518110611a5857611a586122bb565b60200101906001600160f81b031916908160001a90535060049490941c93611a7f816125cd565b9050611a11565b5083156117905760405162461bcd60e51b815260206004820181905260248201527f537472696e67733a20686578206c656e67746820696e73756666696369656e7460448201526064016105cb565b60606000611ae283611d80565b600101905060008167ffffffffffffffff811115611b0257611b02612075565b6040519080825280601f01601f191660200182016040528015611b2c576020820181803683370190505b5090508181016020015b600019016f181899199a1a9b1b9c1cb0b131b232b360811b600a86061a8153600a8504945084611b3657509392505050565b6001811115610b94576001600160a01b03841615611bae576001600160a01b03841660009081526003602052604081208054839290611ba89084906125e4565b90915550505b6001600160a01b03831615610b94576001600160a01b03831660009081526003602052604081208054839290611be59084906125ba565b909155505050505050565b60006001611bfd8461098b565b611c0791906125e4565b600083815260086020526040902054909150808214611c5a576001600160a01b03841660009081526007602090815260408083208584528252808320548484528184208190558352600890915290208190555b5060009182526008602090815260408084208490556001600160a01b039094168352600781528383209183525290812055565b600954600090611c9f906001906125e4565b6000838152600a602052604081205460098054939450909284908110611cc757611cc76122bb565b906000526020600020015490508060098381548110611ce857611ce86122bb565b6000918252602080832090910192909255828152600a90915260408082208490558582528120556009805480611d2057611d206125f7565b6001900381819060005260206000200160009055905550505050565b6000611d478361098b565b6001600160a01b039093166000908152600760209081526040808320868452825280832085905593825260089052919091209190915550565b60008072184f03e93ff9f4daa797ed6e38ed64bf6a1f0160401b8310611dbf5772184f03e93ff9f4daa797ed6e38ed64bf6a1f0160401b830492506040015b6d04ee2d6d415b85acef81000000008310611deb576d04ee2d6d415b85acef8100000000830492506020015b662386f26fc100008310611e0957662386f26fc10000830492506010015b6305f5e1008310611e21576305f5e100830492506008015b6127108310611e3557612710830492506004015b60648310611e47576064830492506002015b600a83106104985760010192915050565b6001600160e01b031981168114610e1b57600080fd5b600060208284031215611e8057600080fd5b813561179081611e58565b600060208284031215611e9d57600080fd5b5035919050565b60005b83811015611ebf578181015183820152602001611ea7565b50506000910152565b60008151808452611ee0816020860160208601611ea4565b601f01601f19169290920160200192915050565b6020815260006117906020830184611ec8565b80356001600160a01b0381168114611f1e57600080fd5b919050565b60008060408385031215611f3657600080fd5b611f3f83611f07565b946020939093013593505050565b600080600060608486031215611f6257600080fd5b611f6b84611f07565b9250611f7960208501611f07565b9150604084013590509250925092565b60008060408385031215611f9c57600080fd5b82359150611fac60208401611f07565b90509250929050565b600060208284031215611fc757600080fd5b61179082611f07565b6020808252825182820181905260009190848201906040850190845b8181101561200857835183529284019291840191600101611fec565b50909695505050505050565b60008060006060848603121561202957600080fd5b83359250611f7960208501611f07565b6000806040838503121561204c57600080fd5b61205583611f07565b91506020830135801515811461206a57600080fd5b809150509250929050565b634e487b7160e01b600052604160045260246000fd5b600067ffffffffffffffff808411156120a6576120a6612075565b604051601f8501601f19908116603f011681019082821181831017156120ce576120ce612075565b816040528093508581528686860111156120e757600080fd5b858560208301376000602087830101525050509392505050565b6000806000806080858703121561211757600080fd5b61212085611f07565b935061212e60208601611f07565b925060408501359150606085013567ffffffffffffffff81111561215157600080fd5b8501601f8101871361216257600080fd5b6121718782356020840161208b565b91505092959194509250565b600080600080600060a0868803121561219557600080fd5b61219e86611f07565b945060208601359350604086013567ffffffffffffffff8111156121c157600080fd5b8601601f810188136121d257600080fd5b6121e18882356020840161208b565b9350506121f060608701611f07565b91506121fe60808701611f07565b90509295509295909350565b6000806040838503121561221d57600080fd5b61222683611f07565b9150611fac60208401611f07565b600181811c9082168061224857607f821691505b60208210810361226857634e487b7160e01b600052602260045260246000fd5b50919050565b6020808252602d908201527f4552433732313a2063616c6c6572206973206e6f7420746f6b656e206f776e6560408201526c1c881bdc88185c1c1c9bdd9959609a1b606082015260800190565b634e487b7160e01b600052603260045260246000fd5b634e487b7160e01b600052601160045260246000fd5b6000600182016122f9576122f96122d1565b5060010190565b60208082526025908201527f4552433732313a207472616e736665722066726f6d20696e636f72726563742060408201526437bbb732b960d91b606082015260800190565b60208082526032908201527f4552433732313a207472616e7366657220746f206e6f6e20455243373231526560408201527131b2b4bb32b91034b6b83632b6b2b73a32b960711b606082015260800190565b601f82111561066c57600081815260208120601f850160051c810160208610156123be5750805b601f850160051c820191505b818110156123dd578281556001016123ca565b505050505050565b815167ffffffffffffffff8111156123ff576123ff612075565b6124138161240d8454612234565b84612397565b602080601f83116001811461244857600084156124305750858301515b600019600386901b1c1916600185901b1785556123dd565b600085815260208120601f198616915b8281101561247757888601518255948401946001909101908401612458565b50858210156124955787850151600019600388901b60f8161c191681555b5050505050600190811b01905550565b600083516124b7818460208801611ea4565b8351908301906124cb818360208801611ea4565b01949350505050565b7f416363657373436f6e74726f6c3a206163636f756e742000000000000000000081526000835161250c816017850160208801611ea4565b7001034b99036b4b9b9b4b733903937b6329607d1b601791840191820152835161253d816028840160208801611ea4565b01602801949350505050565b6001600160a01b038581168252841660208201526040810183905260806060820181905260009061257c90830184611ec8565b9695505050505050565b60006020828403121561259857600080fd5b815161179081611e58565b8082028115828204841417610498576104986122d1565b80820180821115610498576104986122d1565b6000816125dc576125dc6122d1565b506000190190565b81810381811115610498576104986122d1565b634e487b7160e01b600052603160045260246000fdfea2646970667358221220a2df38d04278540d966692d6d2f1e632720cc780d13315012ba137ef892dc36e64736f6c63430008110033",
  "linkReferences": {},
  "deployedLinkReferences": {}
}