{
  "_format": "hh-sol-artifact-1",
  "contractName": "DisputeResolution",
  "sourceName": "contracts/DisputeResolution.sol",
  "abi": [
    {
      "inputs": [
        {
          "internalType": "address",
          "name": "_athleteContract",
          "type": "address"
        }
      ],
      "stateMutability": "nonpayable",
      "type": "constructor"
    },
    {
      "anonymous": false,
      "inputs": [
        {
          "indexed": true,
          "internalType": "uint256",
          "name": "disputeId",
          "type": "uint256"
        },
        {
          "indexed": false,
          "internalType": "address",
          "name": "arbitrator",
          "type": "address"
        },
        {
          "indexed": false,
          "internalType": "bool",
          "name": "athleteFavor",
          "type": "bool"
        }
      ],
      "name": "ArbitratorVoted",
      "type": "event"
    },
    {
      "anonymous": false,
      "inputs": [
        {
          "indexed": true,
          "internalType": "uint256",
          "name": "disputeId",
          "type": "uint256"
        },
        {
          "indexed": true,
          "internalType": "uint256",
          "name": "contractId",
          "type": "uint256"
        },
        {
          "indexed": false,
          "internalType": "address",
          "name": "initiator",
          "type": "address"
        },
        {
          "indexed": false,
          "internalType": "string",
          "name": "reason",
          "type": "string"
        }
      ],
      "name": "DisputeCreated",
      "type": "event"
    },
    {
      "anonymous": false,
      "inputs": [
        {
          "indexed": true,
          "internalType": "uint256",
          "name": "disputeId",
          "type": "uint256"
        },
        {
          "indexed": true,
          "internalType": "uint256",
          "name": "contractId",
          "type": "uint256"
        },
        {
          "indexed": false,
          "internalType": "bool",
          "name": "athleteFavor",
          "type": "bool"
        }
      ],
      "name": "DisputeResolved",
      "type": "event"
    },
    {
      "anonymous": false,
      "inputs": [
        {
          "indexed": true,
          "internalType": "uint256",
          "name": "disputeId",
          "type": "uint256"
        },
        {
          "indexed": false,
          "internalType": "address",
          "name": "submitter",
          "type": "address"
        },
        {
          "indexed": false,
          "internalType": "string",
          "name": "evidenceIPFSHash",
          "type": "string"
        }
      ],
      "name": "EvidenceSubmitted",
      "type": "event"
    },
    {
      "anonymous": false,
      "inputs": [
        {
          "indexed": true,
          "internalType": "bytes32",
          "name": "role",
          "type": "bytes32"
        },
        {
          "indexed": true,
          "internalType": "bytes32",
          "name": "previousAdminRole",
          "type": "bytes32"
        },
        {
          "indexed": true,
          "internalType": "bytes32",
          "name": "newAdminRole",
          "type": "bytes32"
        }
      ],
      "name": "RoleAdminChanged",
      "type": "event"
    },
    {
      "anonymous": false,
      "inputs": [
        {
          "indexed": true,
          "internalType": "bytes32",
          "name": "role",
          "type": "bytes32"
        },
        {
          "indexed": true,
          "internalType": "address",
          "name": "account",
          "type": "address"
        },
        {
          "indexed": true,
          "internalType": "address",
          "name": "sender",
          "type": "address"
        }
      ],
      "name": "RoleGranted",
      "type": "event"
    },
    {
      "anonymous": false,
      "inputs": [
        {
          "indexed": true,
          "internalType": "bytes32",
          "name": "role",
          "type": "bytes32"
        },
        {
          "indexed": true,
          "internalType": "address",
          "name": "account",
          "type": "address"
        },
        {
          "indexed": true,
          "internalType": "address",
          "name": "sender",
          "type": "address"
        }
      ],
      "name": "RoleRevoked",
      "type": "event"
    },
    {
      "inputs": [],
      "name": "ARBITRATOR_ROLE",
      "outputs": [
        {
          "internalType": "bytes32",
          "name": "",
          "type": "bytes32"
        }
      ],
      "stateMutability": "view",
      "type": "function"
    },
    {
      "inputs": [],
      "name": "DEFAULT_ADMIN_ROLE",
      "outputs": [
        {
          "internalType": "bytes32",
          "name": "",
          "type": "bytes32"
        }
      ],
      "stateMutability": "view",
      "type": "function"
    },
    {
      "inputs": [],
      "name": "athleteContract",
      "outputs": [
        {
          "internalType": "contract AthleteContract",
          "name": "",
          "type": "address"
        }
      ],
      "stateMutability": "view",
      "type": "function"
    },
    {
      "inputs": [
        {
          "internalType": "uint256",
          "name": "contractId",
          "type": "uint256"
        },
        {
          "internalType": "string",
          "name": "evidenceIPFSHash",
          "type": "string"
        },
        {
          "internalType": "string",
          "name": "reason",
          "type": "string"
        }
      ],
      "name": "createDispute",
      "outputs": [
        {
          "internalType": "uint256",
          "name": "",
          "type": "uint256"
        }
      ],
      "stateMutability": "nonpayable",
      "type": "function"
    },
    {
      "inputs": [],
      "name": "disputeCount",
      "outputs": [
        {
          "internalType": "uint256",
          "name": "",
          "type": "uint256"
        }
      ],
      "stateMutability": "view",
      "type": "function"
    },
    {
      "inputs": [
        {
          "internalType": "uint256",
          "name": "",
          "type": "uint256"
        }
      ],
      "name": "disputeIdOf",
      "outputs": [
        {
          "internalType": "uint256",
          "name": "",
          "type": "uint256"
        }
      ],
      "stateMutability": "view",
      "type": "function"
    },
    {
      "inputs": [
        {
          "internalType": "uint256",
          "name": "",
          "type": "uint256"
        }
      ],
      "name": "disputes",
      "outputs": [
        {
          "internalType": "uint256",
          "name": "contractId",
          "type": "uint256"
        },
        {
          "internalType": "address",
          "name": "initiator",
          "type": "address"
        },
        {
          "internalType": "string",
          "name": "evidenceIPFSHash",
          "type": "string"
        },
        {
          "internalType": "string",
          "name": "reason",
          "type": "string"
        },
        {
          "internalType": "uint256",
          "name": "timestamp",
          "type": "uint256"
        },
        {
          "internalType": "bool",
          "name": "resolved",
          "type": "bool"
        },
        {
          "internalType": "bool",
          "name": "athleteFavor",
          "type": "bool"
        },
        {
          "internalType": "uint256",
          "name": "athleteVotes",
          "type": "uint256"
        },
        {
          "internalType": "uint256",
          "name": "sponsorVotes",
          "type": "uint256"
        }
      ],
      "stateMutability": "view",
      "type": "function"
    },
    {
      "inputs": [
        {
          "internalType": "uint256",
          "name": "disputeId",
          "type": "uint256"
        },
        {
          "internalType": "bool",
          "name": "athleteFavor",
          "type": "bool"
        }
      ],
      "name": "forceResolveDispute",
      "outputs": [],
      "stateMutability": "nonpayable",
      "type": "function"
    },
    {
      "inputs": [
        {
          "internalType": "uint256",
          "name": "disputeId",
          "type": "uint256"
        },
        {
          "internalType": "address",
          "name": "arbitrator",
          "type": "address"
        }
      ],
      "name": "getArbitratorVote",
      "outputs": [
        {
          "internalType": "bool",
          "name": "",
          "type": "bool"
        }
      ],
      "stateMutability": "view",
      "type": "function"
    },
    {
      "inputs": [
        {
          "internalType": "uint256",
          "name": "disputeId",
          "type": "uint256"
        }
      ],
      "name": "getDisputeDetails",
      "outputs": [
        {
          "internalType": "uint256",
          "name": "contractId",
          "type": "uint256"
        },
        {
          "internalType": "address",
          "name": "initiator",
          "type": "address"
        },
        {
          "internalType": "string",
          "name": "evidenceIPFSHash",
          "type": "string"
        },
        {
          "internalType": "string",
          "name": "reason",
          "type": "string"
        },
        {
          "internalType": "uint256",
          "name": "timestamp",
          "type": "uint256"
        },
        {
          "internalType": "bool",
          "name": "resolved",
          "type": "bool"
        },
        {
          "internalType": "bool",
          "name": "athleteFavor",
          "type": "bool"
        },
        {
          "internalType": "uint256",
          "name": "athleteVotes",
          "type": "uint256"
        },
        {
          "internalType": "uint256",
          "name": "sponsorVotes",
          "type": "uint256"
        },
        {
          "internalType": "uint256",
          "name": "totalVotes",
          "type": "uint256"
        }
      ],
      "stateMutability": "view",
      "type": "function"
    },
    {
      "inputs": [
        {
          "internalType": "uint256",
          "name": "contractId",
          "type": "uint256"
        }
      ],
      "name": "getDisputeId",
      "outputs": [
        {
          "internalType": "uint256",
          "name": "",
          "type": "uint256"
        }
      ],
      "stateMutability": "view",
      "type": "function"
    },
    {
      "inputs": [
        {
          "internalType": "bytes32",
          "name": "role",
          "type": "bytes32"
        }
      ],
      "name": "getRoleAdmin",
      "outputs": [
        {
          "internalType": "bytes32",
          "name": "",
          "type": "bytes32"
        }
      ],
      "stateMutability": "view",
      "type": "function"
    },
    {
      "inputs": [
        {
          "internalType": "bytes32",
          "name": "role",
          "type": "bytes32"
        },
        {
          "internalType": "address",
          "name": "account",
          "type": "address"
        }
      ],
      "name": "grantRole",
      "outputs": [],
      "stateMutability": "nonpayable",
      "type": "function"
    },
    {
      "inputs": [
        {
          "internalType": "uint256",
          "name": "disputeId",
          "type": "uint256"
        },
        {
          "internalType": "address",
          "name": "arbitrator",
          "type": "address"
        }
      ],
      "name": "hasArbitratorVoted",
      "outputs": [
        {
          "internalType": "bool",
          "name": "",
          "type": "bool"
        }
      ],
      "stateMutability": "view",
      "type": "function"
    },
    {
      "inputs": [
        {
          "internalType": "bytes32",
          "name": "role",
          "type": "bytes32"
        },
        {
          "internalType": "address",
          "name": "account",
          "type": "address"
        }
      ],
      "name": "hasRole",
      "outputs": [
        {
          "internalType": "bool",
          "name": "",
          "type": "bool"
        }
      ],
      "stateMutability": "view",
      "type": "function"
    },
    {
      "inputs": [
        {
          "internalType": "bytes32",
          "name": "role",
          "type": "bytes32"
        },
        {
          "internalType": "address",
          "name": "account",
          "type": "address"
        }
      ],
      "name": "renounceRole",
      "outputs": [],
      "stateMutability": "nonpayable",
      "type": "function"
    },
    {
      "inputs": [
        {
          "internalType": "bytes32",
          "name": "role",
          "type": "bytes32"
        },
        {
          "internalType": "address",
          "name": "account",
          "type": "address"
        }
      ],
      "name": "revokeRole",
      "outputs": [],
      "stateMutability": "nonpayable",
      "type": "function"
    },
    {
      "inputs": [
        {
          "internalType": "uint256",
          "name": "disputeId",
          "type": "uint256"
        },
        {
          "internalType": "string",
          "name": "evidenceIPFSHash",
          "type": "string"
        }
      ],
      "name": "submitEvidence",
      "outputs": [],
      "stateMutability": "nonpayable",
      "type": "function"
    },
    {
      "inputs": [
        {
          "internalType": "bytes4",
          "name": "interfaceId",
          "type": "bytes4"
        }
      ],
      "name": "supportsInterface",
      "outputs": [
        {
          "internalType": "bool",
          "name": "",
          "type": "bool"
        }
      ],
      "stateMutability": "view",
      "type": "function"
    },
    {
      "inputs": [
        {
          "internalType": "uint256",
          "name": "disputeId",
          "type": "uint256"
        },
        {
          "internalType": "bool",
          "name": "athleteFavor",
          "type": "bool"
        }
      ],
      "name": "voteOnDispute",
      "outputs": [],
      "stateMutability": "nonpayable",
      "type": "function"
    }
  ],
  "bytecode": "0x60806040523480156200001157600080fd5b5060405162001d2c38038062001d2c833981016040819052620000349162000108565b6200004160003362000067565b600180546001600160a01b0319166001600160a01b03929092169190911790556200013a565b6000828152602081815260408083206001600160a01b038516845290915290205460ff1662000104576000828152602081815260408083206001600160a01b03851684529091529020805460ff19166001179055620000c33390565b6001600160a01b0316816001600160a01b0316837f2f8788117e7eff1d82e926ec794901d17c78024a50270940304540a733656f0d60405160405180910390a45b5050565b6000602082840312156200011b57600080fd5b81516001600160a01b03811681146200013357600080fd5b9392505050565b611be2806200014a6000396000f3fe608060405234801561001057600080fd5b506004361061012c5760003560e01c806391d14854116100ad578063a6a7f0eb11610071578063a6a7f0eb146102e6578063c31a5e72146102f9578063d547741f1461030c578063ea89735d1461031f578063f888e91d1461034857600080fd5b806391d14854146102885780639cea07871461029b578063a217fddf146102c2578063a28889e1146102ca578063a4f5df12146102d357600080fd5b806351a63a7f116100f457806351a63a7f146101dd578063564a565d146101f05780636a53da77146102185780636ec74c62146102385780637100dc621461027557600080fd5b806301ffc9a7146101315780630719fce914610159578063248a9ca3146101845780632f2ff15d146101b557806336568abe146101ca575b600080fd5b61014461013f366004611446565b610368565b60405190151581526020015b60405180910390f35b60015461016c906001600160a01b031681565b6040516001600160a01b039091168152602001610150565b6101a7610192366004611470565b60009081526020819052604090206001015490565b604051908152602001610150565b6101c86101c336600461149e565b61039f565b005b6101c86101d836600461149e565b6103c9565b6101c86101eb3660046114ce565b61044c565b6102036101fe366004611470565b6105a6565b60405161015099989796959493929190611548565b6101a7610226366004611470565b60009081526004602052604090205490565b61014461024636600461149e565b60008281526002602090815260408083206001600160a01b038516845260070190915290205460ff1692915050565b6101a761028336600461167a565b610711565b61014461029636600461149e565b610a0b565b6101a77f16ceee8289685dd2a02b9c8ae81d2df373176ce53519e6284e2a2950d6546ffa81565b6101a7600081565b6101a760035481565b6101c86102e13660046114ce565b610a34565b6101c86102f43660046116e7565b610c81565b61014461030736600461149e565b610dfe565b6101c861031a36600461149e565b610e7b565b61033261032d366004611470565b610ea0565b6040516101509a9998979695949392919061172e565b6101a7610356366004611470565b60046020526000908152604090205481565b60006001600160e01b03198216637965db0b60e01b148061039957506301ffc9a760e01b6001600160e01b03198316145b92915050565b6000828152602081905260409020600101546103ba81611046565b6103c48383611053565b505050565b6001600160a01b038116331461043e5760405162461bcd60e51b815260206004820152602f60248201527f416363657373436f6e74726f6c3a2063616e206f6e6c792072656e6f756e636560448201526e103937b632b9903337b91039b2b63360891b60648201526084015b60405180910390fd5b61044882826110d7565b5050565b610457600033610a0b565b6104a35760405162461bcd60e51b815260206004820152601c60248201527f4f6e6c792061646d696e2063616e20666f726365207265736f6c7665000000006044820152606401610435565b6000828152600260205260409020600581015460ff16156104d65760405162461bcd60e51b8152600401610435906117a4565b6005810180548315156101000261ffff19909116176001908117909155548154604051631a592f7160e11b81526001600160a01b03909216916334b25ee29161052e9186906004019182521515602082015260400190565b600060405180830381600087803b15801561054857600080fd5b505af115801561055c573d6000803e3d6000fd5b505050508060000154837fc84a77110774854ab237145b108e924962dbaa5191275eb044a6cb09621c4a9484604051610599911515815260200190565b60405180910390a3505050565b600260208190526000918252604090912080546001820154928201805491936001600160a01b031692916105d9906117db565b80601f0160208091040260200160405190810160405280929190818152602001828054610605906117db565b80156106525780601f1061062757610100808354040283529160200191610652565b820191906000526020600020905b81548152906001019060200180831161063557829003601f168201915b505050505090806003018054610667906117db565b80601f0160208091040260200160405190810160405280929190818152602001828054610693906117db565b80156106e05780601f106106b5576101008083540402835291602001916106e0565b820191906000526020600020905b8154815290600101906020018083116106c357829003601f168201915b5050506004840154600585015460088601546009909601549495919460ff8083169550610100909204909116925089565b60015460405163135b5aa760e21b8152600481018590526000918291829182916001600160a01b0390911690634d6d6a9c90602401600060405180830381865afa158015610763573d6000803e3d6000fd5b505050506040513d6000823e601f3d908101601f1916820160405261078b9190810190611834565b5096505050505092509250826001600160a01b0316336001600160a01b031614806107be5750336001600160a01b038316145b61081d5760405162461bcd60e51b815260206004820152602a60248201527f4f6e6c79206174686c657465206f722073706f6e736f722063616e20637265616044820152697465206469737075746560b01b6064820152608401610435565b600381600481111561083157610831611913565b036108775760405162461bcd60e51b81526020600482015260166024820152754469737075746520616c72656164792065786973747360501b6044820152606401610435565b600481600481111561088b5761088b611913565b036108d85760405162461bcd60e51b815260206004820152601b60248201527f436f6e747261637420616c7265616479207465726d696e6174656400000000006044820152606401610435565b6001546040516316bbd5cf60e21b81526001600160a01b0390911690635aef573c9061090a908a908990600401611929565b600060405180830381600087803b15801561092457600080fd5b505af1158015610938573d6000803e3d6000fd5b5050600380546000935091508261094e83611960565b9091555060008181526002602081905260409091208a81556001810180546001600160a01b03191633179055919250810161098989826119c7565b506003810161099888826119c7565b504260048083019190915560058201805460ff1916905560008a815260209190915260409081902083905551899083907f187cf2180cf205abb3a86a43c8a0e9e92ffdc0d1029d2982b525b335a50efe51906109f79033908c90611a87565b60405180910390a350979650505050505050565b6000918252602082815260408084206001600160a01b0393909316845291905290205460ff1690565b610a5e7f16ceee8289685dd2a02b9c8ae81d2df373176ce53519e6284e2a2950d6546ffa33610a0b565b610aaa5760405162461bcd60e51b815260206004820152601860248201527f4f6e6c792061726269747261746f722063616e20766f746500000000000000006044820152606401610435565b6000828152600260205260409020600581015460ff1615610add5760405162461bcd60e51b8152600401610435906117a4565b60005b6006820154811015610b7f57336001600160a01b0316826006018281548110610b0b57610b0b611aab565b6000918252602090912001546001600160a01b031603610b6d5760405162461bcd60e51b815260206004820152601860248201527f41726269747261746f7220616c726561647920766f74656400000000000000006044820152606401610435565b80610b7781611960565b915050610ae0565b5033600081815260078301602090815260408220805460ff19168615801591909117909155600685018054600181018255908452919092200180546001600160a01b031916909217909155610bea57600881018054906000610be083611960565b9190505550610c02565b600981018054906000610bfc83611960565b91905055505b60408051338152831515602082015284917f3a670ceb4b5220591b28bde3bc1f2b2f0f68f37f105a13bfc395e336a327a69d910160405180910390a26006810154610c4f90600290611ac1565b81600801541180610c7357506006810154610c6c90600290611ac1565b8160090154115b156103c4576103c48361113c565b6000828152600260205260408082206001548154925163135b5aa760e21b8152600481019390935290929182916001600160a01b031690634d6d6a9c90602401600060405180830381865afa158015610cde573d6000803e3d6000fd5b505050506040513d6000823e601f3d908101601f19168201604052610d069190810190611834565b50505050505091509150816001600160a01b0316336001600160a01b03161480610d385750336001600160a01b038216145b610d985760405162461bcd60e51b815260206004820152602b60248201527f4f6e6c79206174686c657465206f722073706f6e736f722063616e207375626d60448201526a69742065766964656e636560a81b6064820152608401610435565b600583015460ff1615610dbd5760405162461bcd60e51b8152600401610435906117a4565b847fa49e7517d2b5714f7812f718444c5a2931d4fc670ed2d2aa2426ff2f42c5b44d3386604051610def929190611a87565b60405180910390a25050505050565b6000828152600260205260408120815b6006820154811015610e7057836001600160a01b0316826006018281548110610e3957610e39611aab565b6000918252602090912001546001600160a01b031603610e5e57600192505050610399565b80610e6881611960565b915050610e0e565b506000949350505050565b600082815260208190526040902060010154610e9681611046565b6103c483836110d7565b60008181526002602081905260408220805460018201546004830154600584015460088501546009860154600687015497870180548a996060998a998c998a998a998a998a998a99969895976001600160a01b03909516969560038a019560ff808616956101009004169392918890610f18906117db565b80601f0160208091040260200160405190810160405280929190818152602001828054610f44906117db565b8015610f915780601f10610f6657610100808354040283529160200191610f91565b820191906000526020600020905b815481529060010190602001808311610f7457829003601f168201915b50505050509750868054610fa4906117db565b80601f0160208091040260200160405190810160405280929190818152602001828054610fd0906117db565b801561101d5780601f10610ff25761010080835404028352916020019161101d565b820191906000526020600020905b81548152906001019060200180831161100057829003601f168201915b505050505096509a509a509a509a509a509a509a509a509a509a50509193959799509193959799565b6110508133611238565b50565b61105d8282610a0b565b610448576000828152602081815260408083206001600160a01b03851684529091529020805460ff191660011790556110933390565b6001600160a01b0316816001600160a01b0316837f2f8788117e7eff1d82e926ec794901d17c78024a50270940304540a733656f0d60405160405180910390a45050565b6110e18282610a0b565b15610448576000828152602081815260408083206001600160a01b0385168085529252808320805460ff1916905551339285917ff6391f5c32d9c69d2a47ea670b442974b53935d1edc7fd64eb21e047a839171b9190a45050565b6000818152600260205260409020600581015460ff161561116f5760405162461bcd60e51b8152600401610435906117a4565b60098101546008820154600583018054600161ffff199091169390921161010081029390931782179055548254604051631a592f7160e11b81526004810191909152602481018390526001600160a01b03909116906334b25ee290604401600060405180830381600087803b1580156111e757600080fd5b505af11580156111fb573d6000803e3d6000fd5b505050508160000154837fc84a77110774854ab237145b108e924962dbaa5191275eb044a6cb09621c4a9483604051610599911515815260200190565b6112428282610a0b565b6104485761124f81611291565b61125a8360206112a3565b60405160200161126b929190611ae3565b60408051601f198184030181529082905262461bcd60e51b825261043591600401611b58565b60606103996001600160a01b03831660145b606060006112b2836002611b6b565b6112bd906002611b82565b67ffffffffffffffff8111156112d5576112d56115b5565b6040519080825280601f01601f1916602001820160405280156112ff576020820181803683370190505b509050600360fc1b8160008151811061131a5761131a611aab565b60200101906001600160f81b031916908160001a905350600f60fb1b8160018151811061134957611349611aab565b60200101906001600160f81b031916908160001a905350600061136d846002611b6b565b611378906001611b82565b90505b60018111156113f0576f181899199a1a9b1b9c1cb0b131b232b360811b85600f16601081106113ac576113ac611aab565b1a60f81b8282815181106113c2576113c2611aab565b60200101906001600160f81b031916908160001a90535060049490941c936113e981611b95565b905061137b565b50831561143f5760405162461bcd60e51b815260206004820181905260248201527f537472696e67733a20686578206c656e67746820696e73756666696369656e746044820152606401610435565b9392505050565b60006020828403121561145857600080fd5b81356001600160e01b03198116811461143f57600080fd5b60006020828403121561148257600080fd5b5035919050565b6001600160a01b038116811461105057600080fd5b600080604083850312156114b157600080fd5b8235915060208301356114c381611489565b809150509250929050565b600080604083850312156114e157600080fd5b82359150602083013580151581146114c357600080fd5b60005b838110156115135781810151838201526020016114fb565b50506000910152565b600081518084526115348160208601602086016114f8565b601f01601f19169290920160200192915050565b8981526001600160a01b0389166020820152610120604082018190526000906115738382018b61151c565b90508281036060840152611587818a61151c565b6080840198909852505093151560a085015291151560c084015260e083015261010090910152949350505050565b634e487b7160e01b600052604160045260246000fd5b604051601f8201601f1916810167ffffffffffffffff811182821017156115f4576115f46115b5565b604052919050565b600067ffffffffffffffff821115611616576116166115b5565b50601f01601f191660200190565b600082601f83011261163557600080fd5b8135611648611643826115fc565b6115cb565b81815284602083860101111561165d57600080fd5b816020850160208301376000918101602001919091529392505050565b60008060006060848603121561168f57600080fd5b83359250602084013567ffffffffffffffff808211156116ae57600080fd5b6116ba87838801611624565b935060408601359150808211156116d057600080fd5b506116dd86828701611624565b9150509250925092565b600080604083850312156116fa57600080fd5b82359150602083013567ffffffffffffffff81111561171857600080fd5b61172485828601611624565b9150509250929050565b8a81526001600160a01b038a166020820152610140604082018190526000906117598382018c61151c565b9050828103606084015261176d818b61151c565b6080840199909952505094151560a086015292151560c085015260e084019190915261010083015261012090910152949350505050565b60208082526018908201527f4469737075746520616c7265616479207265736f6c7665640000000000000000604082015260600190565b600181811c908216806117ef57607f821691505b60208210810361180f57634e487b7160e01b600052602260045260246000fd5b50919050565b805161182081611489565b919050565b80516005811061182057600080fd5b600080600080600080600080610100898b03121561185157600080fd5b885161185c81611489565b60208a015190985061186d81611489565b60408a015190975067ffffffffffffffff81111561188a57600080fd5b8901601f81018b1361189b57600080fd5b80516118a9611643826115fc565b8181528c60208385010111156118be57600080fd5b6118cf8260208301602086016114f8565b809850505050606089015194506080890151935060a089015192506118f660c08a01611825565b915061190460e08a01611815565b90509295985092959890939650565b634e487b7160e01b600052602160045260246000fd5b828152604060208201526000611942604083018461151c565b949350505050565b634e487b7160e01b600052601160045260246000fd5b6000600182016119725761197261194a565b5060010190565b601f8211156103c457600081815260208120601f850160051c810160208610156119a05750805b601f850160051c820191505b818110156119bf578281556001016119ac565b505050505050565b815167ffffffffffffffff8111156119e1576119e16115b5565b6119f5816119ef84546117db565b84611979565b602080601f831160018114611a2a5760008415611a125750858301515b600019600386901b1c1916600185901b1785556119bf565b600085815260208120601f198616915b82811015611a5957888601518255948401946001909101908401611a3a565b5085821015611a775787850151600019600388901b60f8161c191681555b5050505050600190811b01905550565b6001600160a01b03831681526040602082018190526000906119429083018461151c565b634e487b7160e01b600052603260045260246000fd5b600082611ade57634e487b7160e01b600052601260045260246000fd5b500490565b7f416363657373436f6e74726f6c3a206163636f756e7420000000000000000000815260008351611b1b8160178501602088016114f8565b7001034b99036b4b9b9b4b733903937b6329607d1b6017918401918201528351611b4c8160288401602088016114f8565b01602801949350505050565b60208152600061143f602083018461151c565b80820281158282048414176103995761039961194a565b808201808211156103995761039961194a565b600081611ba457611ba461194a565b50600019019056fea26469706673582212205174b9d2dc4ea451319fbfe83afca9439237ac36e4eba11ef88533e139847ca864736f6c63430008110033",
  "linkReferences": {},
  "deployedLinkReferences": {}
}