{
  "_format": "hh-sol-artifact-1",
  "contractName": "SponsorshipNFT",
  "sourceName": "contracts/SponsorshipNFT.sol",
  "abi": [
    {
      "inputs": [],
      "stateMutability": "nonpayable",
      "type": "constructor"
    },
    {
      "anonymous": false,
      "inputs": [
        {
          "indexed": true,
          "internalType": "address",
          "name": "owner",
          "type": "address"
        },
        {
          "indexed": true,
          "internalType": "address",
          "name": "approved",
          "type": "address"
        },
        {
          "indexed": true,
          "internalType": "uint256",
          "name": "tokenId",
          "type": "uint256"
        }
      ],
      "name": "Approval",
      "type": "event"
    },
    {
      "anonymous": false,
      "inputs": [
        {
          "indexed": true,
          "internalType": "address",
          "name": "owner",
          "type": "address"
        },
        {
          "indexed": true,
          "internalType": "address",
          "name": "operator",
          "type": "address"
        },
        {
          "indexed": false,
          "internalType": "bool",
          "name": "approved",
          "type": "bool"
        }
      ],
      "name": "ApprovalForAll",
      "type": "event"
    },
    {
      "anonymous": false,
      "inputs": [
        {
          "indexed": true,
          "internalType": "bytes32",
          "name": "role",
          "type": "bytes32"
        },
        {
          "indexed": true,
          "internalType": "bytes32",
          "name": "previousAdminRole",
          "type": "bytes32"
        },
        {
          "indexed": true,
          "internalType": "bytes32",
          "name": "newAdminRole",
          "type": "bytes32"
        }
      ],
      "name": "RoleAdminChanged",
      "type": "event"
    },
    {
      "anonymous": false,
      "inputs": [
        {
          "indexed": true,
          "internalType": "bytes32",
          "name": "role",
          "type": "bytes32"
        },
        {
          "indexed": true,
          "internalType": "address",
          "name": "account",
          "type": "address"
        },
        {
          "indexed": true,
          "internalType": "address",
          "name": "sender",
          "type": "address"
        }
      ],
      "name": "RoleGranted",
      "type": "event"
    },
    {
      "anonymous": false,
      "inputs": [
        {
          "indexed": true,
          "internalType": "bytes32",
          "name": "role",
          "type": "bytes32"
        },
        {
          "indexed": true,
          "internalType": "address",
          "name": "account",
          "type": "address"
        },
        {
          "indexed": true,
          "internalType": "address",
          "name": "sender",
          "type": "address"
        }
      ],
      "name": "RoleRevoked",
      "type": "event"
    },
    {
      "anonymous": false,
      "inputs": [
        {
          "indexed": true,
          "internalType": "uint256",
          "name": "tokenId",
          "type": "uint256"
        },
        {
          "indexed": false,
          "internalType": "address",
          "name": "recipient",
          "type": "address"
        },
        {
          "indexed": false,
          "internalType": "uint256",
          "name": "amount",
          "type": "uint256"
        }
      ],
      "name": "RoyaltyPaid",
      "type": "event"
    },
    {
      "anonymous": false,
      "inputs": [
        {
          "indexed": true,
          "internalType": "uint256",
          "name": "tokenId",
          "type": "uint256"
        },
        {
          "indexed": true,
          "internalType": "uint256",
          "name": "contractId",
          "type": "uint256"
        },
        {
          "indexed": false,
          "internalType": "address",
          "name": "athlete",
          "type": "address"
        },
        {
          "indexed": false,
          "internalType": "address",
          "name": "sponsor",
          "type": "address"
        }
      ],
      "name": "SponsorshipNFTMinted",
      "type": "event"
    },
    {
      "anonymous": false,
      "inputs": [
        {
          "indexed": true,
          "internalType": "address",
          "name": "from",
          "type": "address"
        },
        {
          "indexed": true,
          "internalType": "address",
          "name": "to",
          "type": "address"
        },
        {
          "indexed": true,
          "internalType": "uint256",
          "name": "tokenId",
          "type": "uint256"
        }
      ],
      "name": "Transfer",
      "type": "event"
    },
    {
      "inputs": [],
      "name": "DEFAULT_ADMIN_ROLE",
      "outputs": [
        {
          "internalType": "bytes32",
          "name": "",
          "type": "bytes32"
        }
      ],
      "stateMutability": "view",
      "type": "function"
    },
    {
      "inputs": [],
      "name": "MINTER_ROLE",
      "outputs": [
        {
          "internalType": "bytes32",
          "name": "",
          "type": "bytes32"
        }
      ],
      "stateMutability": "view",
      "type": "function"
    },
    {
      "inputs": [
        {
          "internalType": "address",
          "name": "to",
          "type": "address"
        },
        {
          "internalType": "uint256",
          "name": "tokenId",
          "type": "uint256"
        }
      ],
      "name": "approve",
      "outputs": [],
      "stateMutability": "nonpayable",
      "type": "function"
    },
    {
      "inputs": [
        {
          "internalType": "address",
          "name": "owner",
          "type": "address"
        }
      ],
      "name": "balanceOf",
      "outputs": [
        {
          "internalType": "uint256",
          "name": "",
          "type": "uint256"
        }
      ],
      "stateMutability": "view",
      "type": "function"
    },
    {
      "inputs": [
        {
          "internalType": "uint256",
          "name": "",
          "type": "uint256"
        }
      ],
      "name": "contractIdOf",
      "outputs": [
        {
          "internalType": "uint256",
          "name": "",
          "type": "uint256"
        }
      ],
      "stateMutability": "view",
      "type": "function"
    },
    {
      "inputs": [
        {
          "internalType": "uint256",
          "name": "tokenId",
          "type": "uint256"
        }
      ],
      "name": "getApproved",
      "outputs": [
        {
          "internalType": "address",
          "name": "",
          "type": "address"
        }
      ],
      "stateMutability": "view",
      "type": "function"
    },
    {
      "inputs": [
        {
          "internalType": "uint256",
          "name": "tokenId",
          "type": "uint256"
        }
      ],
      "name": "getContractId",
      "outputs": [
        {
          "internalType": "uint256",
          "name": "",
          "type": "uint256"
        }
      ],
      "stateMutability": "view",
      "type": "function"
    },
    {
      "inputs": [
        {
          "internalType": "bytes32",
          "name": "role",
          "type": "bytes32"
        }
      ],
      "name": "getRoleAdmin",
      "outputs": [
        {
          "internalType": "bytes32",
          "name": "",
          "type": "bytes32"
        }
      ],
      "stateMutability": "view",
      "type": "function"
    },
    {
      "inputs": [
        {
          "internalType": "address",
          "name": "owner",
          "type": "address"
        }
      ],
      "name": "getTokensByOwner",
      "outputs": [
        {
          "internalType": "uint256[]",
          "name": "",
          "type": "uint256[]"
        }
      ],
      "stateMutability": "view",
      "type": "function"
    },
    {
      "inputs": [
        {
          "internalType": "bytes32",
          "name": "role",
          "type": "bytes32"
        },
        {
          "internalType": "address",
          "name": "account",
          "type": "address"
        }
      ],
      "name": "grantRole",
      "outputs": [],
      "stateMutability": "nonpayable",
      "type": "function"
    },
    {
      "inputs": [
        {
          "internalType": "bytes32",
          "name": "role",
          "type": "bytes32"
        },
        {
          "internalType": "address",
          "name": "account",
          "type": "address"
        }
      ],
      "name": "hasRole",
      "outputs": [
        {
          "internalType": "bool",
          "name": "",
          "type": "bool"
        }
      ],
      "stateMutability": "view",
      "type": "function"
    },
    {
      "inputs": [
        {
          "internalType": "address",
          "name": "owner",
          "type": "address"
        },
        {
          "internalType": "address",
          "name": "operator",
          "type": "address"
        }
      ],
      "name": "isApprovedForAll",
      "outputs": [
        {
          "internalType": "bool",
          "name": "",
          "type": "bool"
        }
      ],
      "stateMutability": "view",
      "type": "function"
    },
    {
      "inputs": [
        {
          "internalType": "address",
          "name": "to",
          "type": "address"
        },
        {
          "internalType": "uint256",
          "name": "contractId",
          "type": "uint256"
        },
        {
          "internalType": "string",
          "name": "tokenURI",
          "type": "string"
        },
        {
          "internalType": "address",
          "name": "athlete",
          "type": "address"
        },
        {
          "internalType": "address",
          "name": "sponsor",
          "type": "address"
        }
      ],
      "name": "mintSponsorshipNFT",
      "outputs": [
        {
          "internalType": "uint256",
          "name": "",
          "type": "uint256"
        }
      ],
      "stateMutability": "nonpayable",
      "type": "function"
    },
    {
      "inputs": [],
      "name": "name",
      "outputs": [
        {
          "internalType": "string",
          "name": "",
          "type": "string"
        }
      ],
      "stateMutability": "view",
      "type": "function"
    },
    {
      "inputs": [
        {
          "internalType": "uint256",
          "name": "tokenId",
          "type": "uint256"
        }
      ],
      "name": "ownerOf",
      "outputs": [
        {
          "internalType": "address",
          "name": "",
          "type": "address"
        }
      ],
      "stateMutability": "view",
      "type": "function"
    },
    {
      "inputs": [
        {
          "internalType": "uint256",
          "name": "tokenId",
          "type": "uint256"
        },
        {
          "internalType": "address",
          "name": "recipient",
          "type": "address"
        },
        {
          "internalType": "uint256",
          "name": "amount",
          "type": "uint256"
        }
      ],
      "name": "recordRoyaltyPayment",
      "outputs": [],
      "stateMutability": "nonpayable",
      "type": "function"
    },
    {
      "inputs": [
        {
          "internalType": "bytes32",
          "name": "role",
          "type": "bytes32"
        },
        {
          "internalType": "address",
          "name": "account",
          "type": "address"
        }
      ],
      "name": "renounceRole",
      "outputs": [],
      "stateMutability": "nonpayable",
      "type": "function"
    },
    {
      "inputs": [
        {
          "internalType": "bytes32",
          "name": "role",
          "type": "bytes32"
        },
        {
          "internalType": "address",
          "name": "account",
          "type": "address"
        }
      ],
      "name": "revokeRole",
      "outputs": [],
      "stateMutability": "nonpayable",
      "type": "function"
    },
    {
      "inputs": [
        {
          "internalType": "address",
          "name": "from",
          "type": "address"
        },
        {
          "internalType": "address",
          "name": "to",
          "type": "address"
        },
        {
          "internalType": "uint256",
          "name": "tokenId",
          "type": "uint256"
        }
      ],
      "name": "safeTransferFrom",
      "outputs": [],
      "stateMutability": "nonpayable",
      "type": "function"
    },
    {
      "inputs": [
        {
          "internalType": "address",
          "name": "from",
          "type": "address"
        },
        {
          "internalType": "address",
          "name": "to",
          "type": "address"
        },
        {
          "internalType": "uint256",
          "name": "tokenId",
          "type": "uint256"
        },
        {
          "internalType": "bytes",
          "name": "data",
          "type": "bytes"
        }
      ],
      "name": "safeTransferFrom",
      "outputs": [],
      "stateMutability": "nonpayable",
      "type": "function"
    },
    {
      "inputs": [
        {
          "internalType": "address",
          "name": "operator",
          "type": "address"
        },
        {
          "internalType": "bool",
          "name": "approved",
          "type": "bool"
        }
      ],
      "name": "setApprovalForAll",
      "outputs": [],
      "stateMutability": "nonpayable",
      "type": "function"
    },
    {
      "inputs": [
        {
          "internalType": "bytes4",
          "name": "interfaceId",
          "type": "bytes4"
        }
      ],
      "name": "supportsInterface",
      "outputs": [
        {
          "internalType": "bool",
          "name": "",
          "type": "bool"
        }
      ],
      "stateMutability": "view",
      "type": "function"
    },
    {
      "inputs": [],
      "name": "symbol",
      "outputs": [
        {
          "internalType": "string",
          "name": "",
          "type": "string"
        }
      ],
      "stateMutability": "view",
      "type": "function"
    },
    {
      "inputs": [
        {
          "internalType": "uint256",
          "name": "index",
          "type": "uint256"
        }
      ],
      "name": "tokenByIndex",
      "outputs": [
        {
          "internalType": "uint256",
          "name": "",
          "type": "uint256"
        }
      ],
      "stateMutability": "view",
      "type": "function"
    },
    {
      "inputs": [
        {
          "internalType": "uint256",
          "name": "",
          "type": "uint256"
        }
      ],
      "name": "tokenIdOf",
      "outputs": [
        {
          "internalType": "uint256",
          "name": "",
          "type": "uint256"
        }
      ],
      "stateMutability": "view",
      "type": "function"
    },
    {
      "inputs": [
        {
          "internalType": "address",
          "name": "owner",
          "type": "address"
        },
        {
          "internalType": "uint256",
          "name": "index",
          "type": "uint256"
        }
      ],
      "name": "tokenOfOwnerByIndex",
      "outputs": [
        {
          "internalType": "uint256",
          "name": "",
          "type": "uint256"
        }
      ],
      "stateMutability": "view",
      "type": "function"
    },
    {
      "inputs": [
        {
          "internalType": "uint256",
          "name": "tokenId",
          "type": "uint256"
        }
      ],
      "name": "tokenURI",
      "outputs": [
        {
          "internalType": "string",
          "name": "",
          "type": "string"
        }
      ],
      "stateMutability": "view",
      "type": "function"
    },
    {
      "inputs": [],
      "name": "totalSupply",
      "outputs": [
        {
          "internalType": "uint256",
          "name": "",
          "type": "uint256"
        }
      ],
      "stateMutability": "view",
      "type": "function"
    },
    {
      "inputs": [
        {
          "internalType": "address",
          "name": "from",
          "type": "address"
        },
        {
          "internalType": "address",
          "name": "to",
          "type": "address"
        },
        {
          "internalType": "uint256",
          "name": "tokenId",
          "type": "uint256"
        }
      ],
      "name": "transferFrom",
      "outputs": [],
      "stateMutability": "nonpayable",
      "type": "function"
    }
  ],
  "bytecode": "0x60806040523480156200001157600080fd5b506040518060400160405280601381526020017f4174686c6574652053706f6e736f7273686970000000000000000000000000008152506040518060400160405280600581526020016420a9a827a760d91b815250816000908162000077919062000214565b50600162000086828262000214565b506200009891506000905033620000ca565b620000c47f9f2df0fed2c77648de5860a4cc508cd0818c85b8b8a1ab4ceeef8d981c8956a633620000ca565b620002e0565b6000828152600b602090815260408083206001600160a01b038516845290915290205460ff166200016b576000828152600b602090815260408083206001600160a01b03851684529091529020805460ff191660011790556200012a3390565b6001600160a01b0316816001600160a01b0316837f2f8788117e7eff1d82e926ec794901d17c78024a50270940304540a733656f0d60405160405180910390a45b5050565b634e487b7160e01b600052604160045260246000fd5b600181811c908216806200019a57607f821691505b602082108103620001bb57634e487b7160e01b600052602260045260246000fd5b50919050565b601f8211156200020f57600081815260208120601f850160051c81016020861015620001ea5750805b601f850160051c820191505b818110156200020b57828155600101620001f6565b5050505b505050565b81516001600160401b038111156200023057620002306200016f565b620002488162000241845462000185565b84620001c1565b602080601f831160018114620002805760008415620002675750858301515b600019600386901b1c1916600185901b1785556200020b565b600085815260208120601f198616915b82811015620002b15788860151825594840194600190910190840162000290565b5085821015620002d05787850151600019600388901b60f8161c191681555b5050505050600190811b01905550565b61264380620002f06000396000f3fe608060405234801561001057600080fd5b50600436106101cf5760003560e01c80634f6ccce711610104578063a22cb465116100a2578063d539139311610071578063d539139314610404578063d547741f1461042b578063e985e9c51461043e578063fc88210a1461047a57600080fd5b8063a22cb465146103b8578063b88d4fde146103cb578063c27b1c82146103de578063c87b56dd146103f157600080fd5b806391d14854116100de57806391d1485414610382578063930049161461039557806395d89b41146103a8578063a217fddf146103b057600080fd5b80634f6ccce7146103495780636352211e1461035c57806370a082311461036f57600080fd5b806323b872dd116101715780632f745c591161014b5780632f745c59146102f057806336568abe1461030357806340398d671461031657806342842e0e1461033657600080fd5b806323b872dd146102a7578063248a9ca3146102ba5780632f2ff15d146102dd57600080fd5b8063081812fc116101ad578063081812fc1461023f578063095ea7b31461026a5780630f152e5d1461027f57806318160ddd1461029f57600080fd5b806301ffc9a7146101d457806306474d12146101fc57806306fdde031461022a575b600080fd5b6101e76101e2366004611e6e565b61048d565b60405190151581526020015b60405180910390f35b61021c61020a366004611e8b565b600e6020526000908152604090205481565b6040519081526020016101f3565b61023261049e565b6040516101f39190611ef4565b61025261024d366004611e8b565b610530565b6040516001600160a01b0390911681526020016101f3565b61027d610278366004611f23565b610557565b005b61021c61028d366004611e8b565b600d6020526000908152604090205481565b60095461021c565b61027d6102b5366004611f4d565b610671565b61021c6102c8366004611e8b565b6000908152600b602052604090206001015490565b61027d6102eb366004611f89565b6106a2565b61021c6102fe366004611f23565b6106c7565b61027d610311366004611f89565b61075d565b610329610324366004611fb5565b6107db565b6040516101f39190611fd0565b61027d610344366004611f4d565b61087d565b61021c610357366004611e8b565b610898565b61025261036a366004611e8b565b61092b565b61021c61037d366004611fb5565b61098b565b6101e7610390366004611f89565b610a11565b61027d6103a3366004612014565b610a3c565b610232610b48565b61021c600081565b61027d6103c6366004612039565b610b57565b61027d6103d9366004612101565b610b62565b61021c6103ec36600461217d565b610b9a565b6102326103ff366004611e8b565b610d15565b61021c7f9f2df0fed2c77648de5860a4cc508cd0818c85b8b8a1ab4ceeef8d981c8956a681565b61027d610439366004611f89565b610d20565b6101e761044c36600461220a565b6001600160a01b03918216600090815260056020908152604080832093909416825291909152205460ff1690565b61021c610488366004611e8b565b610d45565b600061049882610da6565b92915050565b6060600080546104ad90612234565b80601f01602080910402602001604051908101604052809291908181526020018280546104d990612234565b80156105265780601f106104fb57610100808354040283529160200191610526565b820191906000526020600020905b81548152906001019060200180831161050957829003601f168201915b5050505050905090565b600061053b82610dcb565b506000908152600460205260409020546001600160a01b031690565b60006105628261092b565b9050806001600160a01b0316836001600160a01b0316036105d45760405162461bcd60e51b815260206004820152602160248201527f4552433732313a20617070726f76616c20746f2063757272656e74206f776e656044820152603960f91b60648201526084015b60405180910390fd5b336001600160a01b03821614806105f057506105f0813361044c565b6106625760405162461bcd60e51b815260206004820152603d60248201527f4552433732313a20617070726f76652063616c6c6572206973206e6f7420746f60448201527f6b656e206f776e6572206f7220617070726f76656420666f7220616c6c00000060648201526084016105cb565b61066c8383610e1e565b505050565b61067b3382610e8c565b6106975760405162461bcd60e51b81526004016105cb9061226e565b61066c838383610f0b565b6000828152600b60205260409020600101546106bd8161107c565b61066c8383611086565b60006106d28361098b565b82106107345760405162461bcd60e51b815260206004820152602b60248201527f455243373231456e756d657261626c653a206f776e657220696e646578206f7560448201526a74206f6620626f756e647360a81b60648201526084016105cb565b506001600160a01b03919091166000908152600760209081526040808320938352929052205490565b6001600160a01b03811633146107cd5760405162461bcd60e51b815260206004820152602f60248201527f416363657373436f6e74726f6c3a2063616e206f6e6c792072656e6f756e636560448201526e103937b632b9903337b91039b2b63360891b60648201526084016105cb565b6107d7828261110c565b5050565b606060006107e88361098b565b905060008167ffffffffffffffff81111561080557610805612075565b60405190808252806020026020018201604052801561082e578160200160208202803683370190505b50905060005b828110156108755761084685826106c7565b828281518110610858576108586122bb565b60209081029190910101528061086d816122e7565b915050610834565b509392505050565b61066c83838360405180602001604052806000815250610b62565b60006108a360095490565b82106109065760405162461bcd60e51b815260206004820152602c60248201527f455243373231456e756d657261626c653a20676c6f62616c20696e646578206f60448201526b7574206f6620626f756e647360a01b60648201526084016105cb565b60098281548110610919576109196122bb565b90600052602060002001549050919050565b6000818152600260205260408120546001600160a01b0316806104985760405162461bcd60e51b8152602060048201526018602482015277115490cdcc8c4e881a5b9d985b1a59081d1bdad95b88125160421b60448201526064016105cb565b60006001600160a01b0382166109f55760405162461bcd60e51b815260206004820152602960248201527f4552433732313a2061646472657373207a65726f206973206e6f7420612076616044820152683634b21037bbb732b960b91b60648201526084016105cb565b506001600160a01b031660009081526003602052604090205490565b6000918252600b602090815260408084206001600160a01b0393909316845291905290205460ff1690565b610a4583611173565b610a885760405162461bcd60e51b8152602060048201526014602482015273151bdad95b88191bd95cc81b9bdd08195e1a5cdd60621b60448201526064016105cb565b610a918361092b565b6001600160a01b0316336001600160a01b031614610aff5760405162461bcd60e51b815260206004820152602560248201527f4f6e6c7920746f6b656e206f776e65722063616e207265636f726420726f79616044820152646c7469657360d81b60648201526084016105cb565b604080516001600160a01b03841681526020810183905284917ff670029fc6f5302baba881b4ae845d1453acdf752b4c19ed81fe0fa6a686409b910160405180910390a2505050565b6060600180546104ad90612234565b6107d7338383611190565b610b6c3383610e8c565b610b885760405162461bcd60e51b81526004016105cb9061226e565b610b948484848461125e565b50505050565b6000610bc67f9f2df0fed2c77648de5860a4cc508cd0818c85b8b8a1ab4ceeef8d981c8956a633610a11565b610c0b5760405162461bcd60e51b815260206004820152601660248201527521b0b63632b91034b9903737ba10309036b4b73a32b960511b60448201526064016105cb565b6000858152600e602052604090205415610c735760405162461bcd60e51b8152602060048201526024808201527f4e465420616c7265616479206d696e74656420666f72207468697320636f6e746044820152631c9858dd60e21b60648201526084016105cb565b610c81600c80546001019055565b6000610c8c600c5490565b9050610c988782611291565b610ca2818661140c565b6000818152600d60209081526040808320899055888352600e82529182902083905581516001600160a01b038088168252861691810191909152879183917f55e9844e5f860996963c4a8a758e7e68642c5e59723728e1b09c9923698d927d910160405180910390a39695505050505050565b606061049882611490565b6000828152600b6020526040902060010154610d3b8161107c565b61066c838361110c565b6000610d5082611173565b610d935760405162461bcd60e51b8152602060048201526014602482015273151bdad95b88191bd95cc81b9bdd08195e1a5cdd60621b60448201526064016105cb565b506000908152600d602052604090205490565b60006001600160e01b03198216637965db0b60e01b1480610498575061049882611598565b610dd481611173565b610e1b5760405162461bcd60e51b8152602060048201526018602482015277115490cdcc8c4e881a5b9d985b1a59081d1bdad95b88125160421b60448201526064016105cb565b50565b600081815260046020526040902080546001600160a01b0319166001600160a01b0384169081179091558190610e538261092b565b6001600160a01b03167f8c5be1e5ebec7d5bd14f71427d1e84f3dd0314c0f7b2291e5b200ac8c7c3b92560405160405180910390a45050565b600080610e988361092b565b9050806001600160a01b0316846001600160a01b03161480610edf57506001600160a01b0380821660009081526005602090815260408083209388168352929052205460ff165b80610f035750836001600160a01b0316610ef884610530565b6001600160a01b0316145b949350505050565b826001600160a01b0316610f1e8261092b565b6001600160a01b031614610f445760405162461bcd60e51b81526004016105cb90612300565b6001600160a01b038216610fa65760405162461bcd60e51b8152602060048201526024808201527f4552433732313a207472616e7366657220746f20746865207a65726f206164646044820152637265737360e01b60648201526084016105cb565b610fb383838360016115bd565b826001600160a01b0316610fc68261092b565b6001600160a01b031614610fec5760405162461bcd60e51b81526004016105cb90612300565b600081815260046020908152604080832080546001600160a01b03199081169091556001600160a01b0387811680865260038552838620805460001901905590871680865283862080546001019055868652600290945282852080549092168417909155905184937fddf252ad1be2c89b69c2b068fc378daa952ba7f163c4a11628f55a4df523b3ef91a4505050565b610e1b81336115c9565b6110908282610a11565b6107d7576000828152600b602090815260408083206001600160a01b03851684529091529020805460ff191660011790556110c83390565b6001600160a01b0316816001600160a01b0316837f2f8788117e7eff1d82e926ec794901d17c78024a50270940304540a733656f0d60405160405180910390a45050565b6111168282610a11565b156107d7576000828152600b602090815260408083206001600160a01b0385168085529252808320805460ff1916905551339285917ff6391f5c32d9c69d2a47ea670b442974b53935d1edc7fd64eb21e047a839171b9190a45050565b6000908152600260205260409020546001600160a01b0316151590565b816001600160a01b0316836001600160a01b0316036111f15760405162461bcd60e51b815260206004820152601960248201527f4552433732313a20617070726f766520746f2063616c6c65720000000000000060448201526064016105cb565b6001600160a01b03838116600081815260056020908152604080832094871680845294825291829020805460ff191686151590811790915591519182527f17307eab39ab6107e8899845ad3d59bd9653f200f220920489ca2b5937696c31910160405180910390a3505050565b611269848484610f0b565b61127584848484611622565b610b945760405162461bcd60e51b81526004016105cb90612345565b6001600160a01b0382166112e75760405162461bcd60e51b815260206004820181905260248201527f4552433732313a206d696e7420746f20746865207a65726f206164647265737360448201526064016105cb565b6112f081611173565b1561133d5760405162461bcd60e51b815260206004820152601c60248201527f4552433732313a20746f6b656e20616c7265616479206d696e7465640000000060448201526064016105cb565b61134b6000838360016115bd565b61135481611173565b156113a15760405162461bcd60e51b815260206004820152601c60248201527f4552433732313a20746f6b656e20616c7265616479206d696e7465640000000060448201526064016105cb565b6001600160a01b038216600081815260036020908152604080832080546001019055848352600290915280822080546001600160a01b0319168417905551839291907fddf252ad1be2c89b69c2b068fc378daa952ba7f163c4a11628f55a4df523b3ef908290a45050565b61141582611173565b6114785760405162461bcd60e51b815260206004820152602e60248201527f45524337323155524953746f726167653a2055524920736574206f66206e6f6e60448201526d32bc34b9ba32b73a103a37b5b2b760911b60648201526084016105cb565b600082815260066020526040902061066c82826123e5565b606061149b82610dcb565b600082815260066020526040812080546114b490612234565b80601f01602080910402602001604051908101604052809291908181526020018280546114e090612234565b801561152d5780601f106115025761010080835404028352916020019161152d565b820191906000526020600020905b81548152906001019060200180831161151057829003601f168201915b50505050509050600061154b60408051602081019091526000815290565b9050805160000361155d575092915050565b81511561158f5780826040516020016115779291906124a5565b60405160208183030381529060405292505050919050565b610f0384611723565b60006001600160e01b0319821663780e9d6360e01b1480610498575061049882611797565b610b94848484846117e7565b6115d38282610a11565b6107d7576115e081611927565b6115eb836020611939565b6040516020016115fc9291906124d4565b60408051601f198184030181529082905262461bcd60e51b82526105cb91600401611ef4565b60006001600160a01b0384163b1561171857604051630a85bd0160e11b81526001600160a01b0385169063150b7a0290611666903390899088908890600401612549565b6020604051808303816000875af19250505080156116a1575060408051601f3d908101601f1916820190925261169e91810190612586565b60015b6116fe573d8080156116cf576040519150601f19603f3d011682016040523d82523d6000602084013e6116d4565b606091505b5080516000036116f65760405162461bcd60e51b81526004016105cb90612345565b805181602001fd5b6001600160e01b031916630a85bd0160e11b149050610f03565b506001949350505050565b606061172e82610dcb565b600061174560408051602081019091526000815290565b905060008151116117655760405180602001604052806000815250611790565b8061176f84611ad5565b6040516020016117809291906124a5565b6040516020818303038152906040525b9392505050565b60006001600160e01b031982166380ac58cd60e01b14806117c857506001600160e01b03198216635b5e139f60e01b145b8061049857506301ffc9a760e01b6001600160e01b0319831614610498565b6117f384848484611b68565b60018111156118625760405162461bcd60e51b815260206004820152603560248201527f455243373231456e756d657261626c653a20636f6e7365637574697665207472604482015274185b9cd9995c9cc81b9bdd081cdd5c1c1bdc9d1959605a1b60648201526084016105cb565b816001600160a01b0385166118be576118b981600980546000838152600a60205260408120829055600182018355919091527f6e1540171b6c0c960b71a7020d9f60077f6af931a8bbf590da0223dacf75c7af0155565b6118e1565b836001600160a01b0316856001600160a01b0316146118e1576118e18582611bf0565b6001600160a01b0384166118fd576118f881611c8d565b611920565b846001600160a01b0316846001600160a01b031614611920576119208482611d3c565b5050505050565b60606104986001600160a01b03831660145b606060006119488360026125a3565b6119539060026125ba565b67ffffffffffffffff81111561196b5761196b612075565b6040519080825280601f01601f191660200182016040528015611995576020820181803683370190505b509050600360fc1b816000815181106119b0576119b06122bb565b60200101906001600160f81b031916908160001a905350600f60fb1b816001815181106119df576119df6122bb565b60200101906001600160f81b031916908160001a9053506000611a038460026125a3565b611a0e9060016125ba565b90505b6001811115611a86576f181899199a1a9b1b9c1cb0b131b232b360811b85600f1660108110611a4257611a426122bb565b1a60f81b828281518110611a5857611a586122bb565b60200101906001600160f81b031916908160001a90535060049490941c93611a7f816125cd565b9050611a11565b5083156117905760405162461bcd60e51b815260206004820181905260248201527f537472696e67733a20686578206c656e67746820696e73756666696369656e7460448201526064016105cb565b60606000611ae283611d80565b600101905060008167ffffffffffffffff811115611b0257611b02612075565b6040519080825280601f01601f191660200182016040528015611b2c576020820181803683370190505b5090508181016020015b600019016f181899199a1a9b1b9c1cb0b131b232b360811b600a86061a8153600a8504945084611b3657509392505050565b6001811115610b94576001600160a01b03841615611bae576001600160a01b03841660009081526003602052604081208054839290611ba89084906125e4565b90915550505b6001600160a01b03831615610b94576001600160a01b03831660009081526003602052604081208054839290611be59084906125ba565b909155505050505050565b60006001611bfd8461098b565b611c0791906125e4565b600083815260086020526040902054909150808214611c5a576001600160a01b03841660009081526007602090815260408083208584528252808320548484528184208190558352600890915290208190555b5060009182526008602090815260408084208490556001600160a01b039094168352600781528383209183525290812055565b600954600090611c9f906001906125e4565b6000838152600a602052604081205460098054939450909284908110611cc757611cc76122bb565b906000526020600020015490508060098381548110611ce857611ce86122bb565b6000918252602080832090910192909255828152600a90915260408082208490558582528120556009805480611d2057611d206125f7565b6001900381819060005260206000200160009055905550505050565b6000611d478361098b565b6001600160a01b039093166000908152600760209081526040808320868452825280832085905593825260089052919091209190915550565b60008072184f03e93ff9f4daa797ed6e38ed64bf6a1f0160401b8310611dbf5772184f03e93ff9f4daa797ed6e38ed64bf6a1f0160401b830492506040015b6d04ee2d6d415b85acef81000000008310611deb576d04ee2d6d415b85acef8100000000830492506020015b662386f26fc100008310611e0957662386f26fc10000830492506010015b6305f5e1008310611e21576305f5e100830492506008015b6127108310611e3557612710830492506004015b60648310611e47576064830492506002015b600a83106104985760010192915050565b6001600160e01b031981168114610e1b57600080fd5b600060208284031215611e8057600080fd5b813561179081611e58565b600060208284031215611e9d57600080fd5b5035919050565b60005b83811015611ebf578181015183820152602001611ea7565b50506000910152565b60008151808452611ee0816020860160208601611ea4565b601f01601f19169290920160200192915050565b6020815260006117906020830184611ec8565b80356001600160a01b0381168114611f1e57600080fd5b919050565b60008060408385031215611f3657600080fd5b611f3f83611f07565b946020939093013593505050565b600080600060608486031215611f6257600080fd5b611f6b84611f07565b9250611f7960208501611f07565b9150604084013590509250925092565b60008060408385031215611f9c57600080fd5b82359150611fac60208401611f07565b90509250929050565b600060208284031215611fc757600080fd5b61179082611f07565b6020808252825182820181905260009190848201906040850190845b8181101561200857835183529284019291840191600101611fec565b50909695505050505050565b60008060006060848603121561202957600080fd5b83359250611f7960208501611f07565b6000806040838503121561204c57600080fd5b61205583611f07565b91506020830135801515811461206a57600080fd5b809150509250929050565b634e487b7160e01b600052604160045260246000fd5b600067ffffffffffffffff808411156120a6576120a6612075565b604051601f8501601f19908116603f011681019082821181831017156120ce576120ce612075565b816040528093508581528686860111156120e757600080fd5b858560208301376000602087830101525050509392505050565b6000806000806080858703121561211757600080fd5b61212085611f07565b935061212e60208601611f07565b925060408501359150606085013567ffffffffffffffff81111561215157600080fd5b8501601f8101871361216257600080fd5b6121718782356020840161208b565b91505092959194509250565b600080600080600060a0868803121561219557600080fd5b61219e86611f07565b945060208601359350604086013567ffffffffffffffff8111156121c157600080fd5b8601601f810188136121d257600080fd5b6121e18882356020840161208b565b9350506121f060608701611f07565b91506121fe60808701611f07565b90509295509295909350565b6000806040838503121561221d57600080fd5b61222683611f07565b9150611fac60208401611f07565b600181811c9082168061224857607f821691505b60208210810361226857634e487b7160e01b600052602260045260246000fd5b50919050565b6020808252602d908201527f4552433732313a2063616c6c6572206973206e6f7420746f6b656e206f776e6560408201526c1c881bdc88185c1c1c9bdd9959609a1b606082015260800190565b634e487b7160e01b600052603260045260246000fd5b634e487b7160e01b600052601160045260246000fd5b6000600182016122f9576122f96122d1565b5060010190565b60208082526025908201527f4552433732313a207472616e736665722066726f6d20696e636f72726563742060408201526437bbb732b960d91b606082015260800190565b60208082526032908201527f4552433732313a207472616e7366657220746f206e6f6e20455243373231526560408201527131b2b4bb32b91034b6b83632b6b2b73a32b960711b606082015260800190565b601f82111561066c57600081815260208120601f850160051c810160208610156123be5750805b601f850160051c820191505b818110156123dd578281556001016123ca565b505050505050565b815167ffffffffffffffff8111156123ff576123ff612075565b6124138161240d8454612234565b84612397565b602080601f83116001811461244857600084156124305750858301515b600019600386901b1c1916600185901b1785556123dd565b600085815260208120601f198616915b8281101561247757888601518255948401946001909101908401612458565b50858210156124955787850151600019600388901b60f8161c191681555b5050505050600190811b01905550565b600083516124b7818460208801611ea4565b8351908301906124cb818360208801611ea4565b01949350505050565b7f416363657373436f6e74726f6c3a206163636f756e742000000000000000000081526000835161250c816017850160208801611ea4565b7001034b99036b4b9b9b4b733903937b6329607d1b601791840191820152835161253d816028840160208801611ea4565b01602801949350505050565b6001600160a01b038581168252841660208201526040810183905260806060820181905260009061257c90830184611ec8565b9695505050505050565b60006020828403121561259857600080fd5b815161179081611e58565b8082028115828204841417610498576104986122d1565b80820180821115610498576104986122d1565b6000816125dc576125dc6122d1565b506000190190565b81810381811115610498576104986122d1565b634e487b7160e01b600052603160045260246000fdfea26469706673582212209e1e3beb1f927f2b8f096cb827990b88138e6c4aa30f3c47990b6bfa47938ec464736f6c63430008110033",
  "linkReferences": {},
  "deployedLinkReferences": {}
}