{
  "_format": "hh-sol-artifact-1",
  "contractName": "SponsorshipNFT",
  "sourceName": "contracts/SponsorshipNFT.sol",
  "abi": [
    {
      "inputs": [],
      "stateMutability": "nonpayable",
      "type": "constructor"
    },
    {
      "anonymous": false,
      "inputs": [
        {
          "indexed": true,
          "internalType": "address",
          "name": "owner",
          "type": "address"
        },
        {
          "indexed": true,
          "internalType": "address",
          "name": "approved",
          "type": "address"
        },
        {
          "indexed": true,
          "internalType": "uint256",
          "name": "tokenId",
          "type": "uint256"
        }
      ],
      "name": "Approval",
      "type": "event"
    },
    {
      "anonymous": false,
      "inputs": [
        {
          "indexed": true,
          "internalType": "address",
          "name": "owner",
          "type": "address"
        },
        {
          "indexed": true,
          "internalType": "address",
          "name": "operator",
          "type": "address"
        },
        {
          "indexed": false,
          "internalType": "bool",
          "name": "approved",
          "type": "bool"
        }
      ],
      "name": "ApprovalForAll",
      "type": "event"
    },
    {
      "anonymous": false,
      "inputs": [
        {
          "indexed": true,
          "internalType": "uint256",
          "name": "tokenId",
          "type": "uint256"
        },
        {
          "indexed": false,
          "internalType": "address",
          "name": "recipient",
          "type": "address"
        },
        {
          "indexed": false,
          "internalType": "uint256",
          "name": "amount",
          "type": "uint256"
        }
      ],
      "name": "RoyaltyPaid",
      "type": "event"
    },
    {
      "anonymous": false,
      "inputs": [
        {
          "indexed": true,
          "internalType": "uint256",
          "name": "tokenId",
          "type": "uint256"
        },
        {
          "indexed": true,
          "internalType": "uint256",
          "name": "contractId",
          "type": "uint256"
        },
        {
          "indexed": false,
          "internalType": "address",
          "name": "athlete",
          "type": "address"
        },
        {
          "indexed": false,
          "internalType": "address",
          "name": "sponsor",
          "type": "address"
        }
      ],
      "name": "SponsorshipNFTMinted",
      "type": "event"
    },
    {
      "anonymous": false,
      "inputs": [
        {
          "indexed": true,
          "internalType": "address",
          "name": "from",
          "type": "address"
        },
        {
          "indexed": true,
          "internalType": "address",
          "name": "to",
          "type": "address"
        },
        {
          "indexed": true,
          "internalType": "uint256",
          "name": "tokenId",
          "type": "uint256"
        }
      ],
      "name": "Transfer",
      "type": "event"
    },
    {
      "inputs": [
        {
          "internalType": "address",
          "name": "to",
          "type": "address"
        },
        {
          "internalType": "uint256",
          "name": "tokenId",
          "type": "uint256"
        }
      ],
      "name": "approve",
      "outputs": [],
      "stateMutability": "nonpayable",
      "type": "function"
    },
    {
      "inputs": [
        {
          "internalType": "address",
          "name": "owner",
          "type": "address"
        }
      ],
      "name": "balanceOf",
      "outputs": [
        {
          "internalType": "uint256",
          "name": "",
          "type": "uint256"
        }
      ],
      "stateMutability": "view",
      "type": "function"
    },
    {
      "inputs": [
        {
          "internalType": "uint256",
          "name": "",
          "type": "uint256"
        }
      ],
      "name": "contractIdOf",
      "outputs": [
        {
          "internalType": "uint256",
          "name": "",
          "type": "uint256"
        }
      ],
      "stateMutability": "view",
      "type": "function"
    },
    {
      "inputs": [
        {
          "internalType": "uint256",
          "name": "tokenId",
          "type": "uint256"
        }
      ],
      "name": "getApproved",
      "outputs": [
        {
          "internalType": "address",
          "name": "",
          "type": "address"
        }
      ],
      "stateMutability": "view",
      "type": "function"
    },
    {
      "inputs": [
        {
          "internalType": "uint256",
          "name": "tokenId",
          "type": "uint256"
        }
      ],
      "name": "getContractId",
      "outputs": [
        {
          "internalType": "uint256",
          "name": "",
          "type": "uint256"
        }
      ],
      "stateMutability": "view",
      "type": "function"
    },
    {
      "inputs": [
        {
          "internalType": "address",
          "name": "owner",
          "type": "address"
        }
      ],
      "name": "getTokensByOwner",
      "outputs": [
        {
          "internalType": "uint256[]",
          "name": "",
          "type": "uint256[]"
        }
      ],
      "stateMutability": "view",
      "type": "function"
    },
    {
      "inputs": [
        {
          "internalType": "address",
          "name": "owner",
          "type": "address"
        },
        {
          "internalType": "address",
          "name": "operator",
          "type": "address"
        }
      ],
      "name": "isApprovedForAll",
      "outputs": [
        {
          "internalType": "bool",
          "name": "",
          "type": "bool"
        }
      ],
      "stateMutability": "view",
      "type": "function"
    },
    {
      "inputs": [
        {
          "internalType": "address",
          "name": "to",
          "type": "address"
        },
        {
          "internalType": "uint256",
          "name": "contractId",
          "type": "uint256"
        },
        {
          "internalType": "string",
          "name": "newTokenURI",
          "type": "string"
        },
        {
          "internalType": "address",
          "name": "athlete",
          "type": "address"
        },
        {
          "internalType": "address",
          "name": "sponsor",
          "type": "address"
        }
      ],
      "name": "mintSponsorshipNFT",
      "outputs": [
        {
          "internalType": "uint256",
          "name": "",
          "type": "uint256"
        }
      ],
      "stateMutability": "nonpayable",
      "type": "function"
    },
    {
      "inputs": [],
      "name": "name",
      "outputs": [
        {
          "internalType": "string",
          "name": "",
          "type": "string"
        }
      ],
      "stateMutability": "view",
      "type": "function"
    },
    {
      "inputs": [
        {
          "internalType": "uint256",
          "name": "tokenId",
          "type": "uint256"
        }
      ],
      "name": "ownerOf",
      "outputs": [
        {
          "internalType": "address",
          "name": "",
          "type": "address"
        }
      ],
      "stateMutability": "view",
      "type": "function"
    },
    {
      "inputs": [
        {
          "internalType": "uint256",
          "name": "tokenId",
          "type": "uint256"
        },
        {
          "internalType": "address",
          "name": "recipient",
          "type": "address"
        },
        {
          "internalType": "uint256",
          "name": "amount",
          "type": "uint256"
        }
      ],
      "name": "recordRoyaltyPayment",
      "outputs": [],
      "stateMutability": "nonpayable",
      "type": "function"
    },
    {
      "inputs": [
        {
          "internalType": "address",
          "name": "from",
          "type": "address"
        },
        {
          "internalType": "address",
          "name": "to",
          "type": "address"
        },
        {
          "internalType": "uint256",
          "name": "tokenId",
          "type": "uint256"
        }
      ],
      "name": "safeTransferFrom",
      "outputs": [],
      "stateMutability": "nonpayable",
      "type": "function"
    },
    {
      "inputs": [
        {
          "internalType": "address",
          "name": "from",
          "type": "address"
        },
        {
          "internalType": "address",
          "name": "to",
          "type": "address"
        },
        {
          "internalType": "uint256",
          "name": "tokenId",
          "type": "uint256"
        },
        {
          "internalType": "bytes",
          "name": "data",
          "type": "bytes"
        }
      ],
      "name": "safeTransferFrom",
      "outputs": [],
      "stateMutability": "nonpayable",
      "type": "function"
    },
    {
      "inputs": [
        {
          "internalType": "address",
          "name": "operator",
          "type": "address"
        },
        {
          "internalType": "bool",
          "name": "approved",
          "type": "bool"
        }
      ],
      "name": "setApprovalForAll",
      "outputs": [],
      "stateMutability": "nonpayable",
      "type": "function"
    },
    {
      "inputs": [
        {
          "internalType": "bytes4",
          "name": "interfaceId",
          "type": "bytes4"
        }
      ],
      "name": "supportsInterface",
      "outputs": [
        {
          "internalType": "bool",
          "name": "",
          "type": "bool"
        }
      ],
      "stateMutability": "view",
      "type": "function"
    },
    {
      "inputs": [],
      "name": "symbol",
      "outputs": [
        {
          "internalType": "string",
          "name": "",
          "type": "string"
        }
      ],
      "stateMutability": "view",
      "type": "function"
    },
    {
      "inputs": [
        {
          "internalType": "uint256",
          "name": "index",
          "type": "uint256"
        }
      ],
      "name": "tokenByIndex",
      "outputs": [
        {
          "internalType": "uint256",
          "name": "",
          "type": "uint256"
        }
      ],
      "stateMutability": "view",
      "type": "function"
    },
    {
      "inputs": [
        {
          "internalType": "uint256",
          "name": "",
          "type": "uint256"
        }
      ],
      "name": "tokenIdOf",
      "outputs": [
        {
          "internalType": "uint256",
          "name": "",
          "type": "uint256"
        }
      ],
      "stateMutability": "view",
      "type": "function"
    },
    {
      "inputs": [
        {
          "internalType": "address",
          "name": "owner",
          "type": "address"
        },
        {
          "internalType": "uint256",
          "name": "index",
          "type": "uint256"
        }
      ],
      "name": "tokenOfOwnerByIndex",
      "outputs": [
        {
          "internalType": "uint256",
          "name": "",
          "type": "uint256"
        }
      ],
      "stateMutability": "view",
      "type": "function"
    },
    {
      "inputs": [
        {
          "internalType": "uint256",
          "name": "tokenId",
          "type": "uint256"
        }
      ],
      "name": "tokenURI",
      "outputs": [
        {
          "internalType": "string",
          "name": "",
          "type": "string"
        }
      ],
      "stateMutability": "view",
      "type": "function"
    },
    {
      "inputs": [],
      "name": "totalSupply",
      "outputs": [
        {
          "internalType": "uint256",
          "name": "",
          "type": "uint256"
        }
      ],
      "stateMutability": "view",
      "type": "function"
    },
    {
      "inputs": [
        {
          "internalType": "address",
          "name": "from",
          "type": "address"
        },
        {
          "internalType": "address",
          "name": "to",
          "type": "address"
        },
        {
          "internalType": "uint256",
          "name": "tokenId",
          "type": "uint256"
        }
      ],
      "name": "transferFrom",
      "outputs": [],
      "stateMutability": "nonpayable",
      "type": "function"
    }
  ],
  "bytecode": "0x60806040523480156200001157600080fd5b506040518060400160405280601381526020017f4174686c6574652053706f6e736f7273686970000000000000000000000000008152506040518060400160405280600581526020016420a9a827a760d91b815250816000908162000077919062000134565b50600162000086828262000134565b50505062000200565b634e487b7160e01b600052604160045260246000fd5b600181811c90821680620000ba57607f821691505b602082108103620000db57634e487b7160e01b600052602260045260246000fd5b50919050565b601f8211156200012f57600081815260208120601f850160051c810160208610156200010a5750805b601f850160051c820191505b818110156200012b5782815560010162000116565b5050505b505050565b81516001600160401b038111156200015057620001506200008f565b6200016881620001618454620000a5565b84620000e1565b602080601f831160018114620001a05760008415620001875750858301515b600019600386901b1c1916600185901b1785556200012b565b600085815260208120601f198616915b82811015620001d157888601518255948401946001909101908401620001b0565b5085821015620001f05787850151600019600388901b60f8161c191681555b5050505050600190811b01905550565b611fcf80620002106000396000f3fe608060405234801561001057600080fd5b50600436106101425760003560e01c80634f6ccce7116100b8578063a22cb4651161007c578063a22cb465146102c7578063b88d4fde146102da578063c27b1c82146102ed578063c87b56dd14610300578063e985e9c514610313578063fc88210a1461034f57600080fd5b80634f6ccce7146102735780636352211e1461028657806370a082311461029957806393004916146102ac57806395d89b41146102bf57600080fd5b80630f152e5d1161010a5780630f152e5d146101f257806318160ddd1461021257806323b872dd1461021a5780632f745c591461022d57806340398d671461024057806342842e0e1461026057600080fd5b806301ffc9a71461014757806306474d121461016f57806306fdde031461019d578063081812fc146101b2578063095ea7b3146101dd575b600080fd5b61015a6101553660046118c0565b610362565b60405190151581526020015b60405180910390f35b61018f61017d3660046118dd565b600d6020526000908152604090205481565b604051908152602001610166565b6101a5610373565b6040516101669190611946565b6101c56101c03660046118dd565b610405565b6040516001600160a01b039091168152602001610166565b6101f06101eb366004611975565b61042c565b005b61018f6102003660046118dd565b600c6020526000908152604090205481565b60095461018f565b6101f061022836600461199f565b610546565b61018f61023b366004611975565b610577565b61025361024e3660046119db565b61060d565b60405161016691906119f6565b6101f061026e36600461199f565b6106af565b61018f6102813660046118dd565b6106ca565b6101c56102943660046118dd565b61075d565b61018f6102a73660046119db565b6107bd565b6101f06102ba366004611a3a565b610843565b6101a561094f565b6101f06102d5366004611a5f565b61095e565b6101f06102e8366004611b27565b61096d565b61018f6102fb366004611ba3565b6109a5565b6101a561030e3660046118dd565b610aaf565b61015a610321366004611c30565b6001600160a01b03918216600090815260056020908152604080832093909416825291909152205460ff1690565b61018f61035d3660046118dd565b610aba565b600061036d82610b1b565b92915050565b60606000805461038290611c63565b80601f01602080910402602001604051908101604052809291908181526020018280546103ae90611c63565b80156103fb5780601f106103d0576101008083540402835291602001916103fb565b820191906000526020600020905b8154815290600101906020018083116103de57829003601f168201915b5050505050905090565b600061041082610b40565b506000908152600460205260409020546001600160a01b031690565b60006104378261075d565b9050806001600160a01b0316836001600160a01b0316036104a95760405162461bcd60e51b815260206004820152602160248201527f4552433732313a20617070726f76616c20746f2063757272656e74206f776e656044820152603960f91b60648201526084015b60405180910390fd5b336001600160a01b03821614806104c557506104c58133610321565b6105375760405162461bcd60e51b815260206004820152603d60248201527f4552433732313a20617070726f76652063616c6c6572206973206e6f7420746f60448201527f6b656e206f776e6572206f7220617070726f76656420666f7220616c6c00000060648201526084016104a0565b6105418383610b93565b505050565b6105503382610c01565b61056c5760405162461bcd60e51b81526004016104a090611c9d565b610541838383610c80565b6000610582836107bd565b82106105e45760405162461bcd60e51b815260206004820152602b60248201527f455243373231456e756d657261626c653a206f776e657220696e646578206f7560448201526a74206f6620626f756e647360a81b60648201526084016104a0565b506001600160a01b03919091166000908152600760209081526040808320938352929052205490565b6060600061061a836107bd565b905060008167ffffffffffffffff81111561063757610637611a9b565b604051908082528060200260200182016040528015610660578160200160208202803683370190505b50905060005b828110156106a7576106788582610577565b82828151811061068a5761068a611cea565b60209081029190910101528061069f81611d16565b915050610666565b509392505050565b6105418383836040518060200160405280600081525061096d565b60006106d560095490565b82106107385760405162461bcd60e51b815260206004820152602c60248201527f455243373231456e756d657261626c653a20676c6f62616c20696e646578206f60448201526b7574206f6620626f756e647360a01b60648201526084016104a0565b6009828154811061074b5761074b611cea565b90600052602060002001549050919050565b6000818152600260205260408120546001600160a01b03168061036d5760405162461bcd60e51b8152602060048201526018602482015277115490cdcc8c4e881a5b9d985b1a59081d1bdad95b88125160421b60448201526064016104a0565b60006001600160a01b0382166108275760405162461bcd60e51b815260206004820152602960248201527f4552433732313a2061646472657373207a65726f206973206e6f7420612076616044820152683634b21037bbb732b960b91b60648201526084016104a0565b506001600160a01b031660009081526003602052604090205490565b61084c83610df1565b61088f5760405162461bcd60e51b8152602060048201526014602482015273151bdad95b88191bd95cc81b9bdd08195e1a5cdd60621b60448201526064016104a0565b6108988361075d565b6001600160a01b0316336001600160a01b0316146109065760405162461bcd60e51b815260206004820152602560248201527f4f6e6c7920746f6b656e206f776e65722063616e207265636f726420726f79616044820152646c7469657360d81b60648201526084016104a0565b604080516001600160a01b03841681526020810183905284917ff670029fc6f5302baba881b4ae845d1453acdf752b4c19ed81fe0fa6a686409b910160405180910390a2505050565b60606001805461038290611c63565b610969338383610e0e565b5050565b6109773383610c01565b6109935760405162461bcd60e51b81526004016104a090611c9d565b61099f84848484610edc565b50505050565b6000848152600d602052604081205415610a0d5760405162461bcd60e51b8152602060048201526024808201527f4e465420616c7265616479206d696e74656420666f72207468697320636f6e746044820152631c9858dd60e21b60648201526084016104a0565b610a1b600b80546001019055565b6000610a26600b5490565b9050610a328782610f0f565b610a3c818661108a565b6000818152600c60209081526040808320899055888352600d82529182902083905581516001600160a01b038088168252861691810191909152879183917f55e9844e5f860996963c4a8a758e7e68642c5e59723728e1b09c9923698d927d910160405180910390a39695505050505050565b606061036d8261110e565b6000610ac582610df1565b610b085760405162461bcd60e51b8152602060048201526014602482015273151bdad95b88191bd95cc81b9bdd08195e1a5cdd60621b60448201526064016104a0565b506000908152600c602052604090205490565b60006001600160e01b0319821663780e9d6360e01b148061036d575061036d82611216565b610b4981610df1565b610b905760405162461bcd60e51b8152602060048201526018602482015277115490cdcc8c4e881a5b9d985b1a59081d1bdad95b88125160421b60448201526064016104a0565b50565b600081815260046020526040902080546001600160a01b0319166001600160a01b0384169081179091558190610bc88261075d565b6001600160a01b03167f8c5be1e5ebec7d5bd14f71427d1e84f3dd0314c0f7b2291e5b200ac8c7c3b92560405160405180910390a45050565b600080610c0d8361075d565b9050806001600160a01b0316846001600160a01b03161480610c5457506001600160a01b0380821660009081526005602090815260408083209388168352929052205460ff165b80610c785750836001600160a01b0316610c6d84610405565b6001600160a01b0316145b949350505050565b826001600160a01b0316610c938261075d565b6001600160a01b031614610cb95760405162461bcd60e51b81526004016104a090611d2f565b6001600160a01b038216610d1b5760405162461bcd60e51b8152602060048201526024808201527f4552433732313a207472616e7366657220746f20746865207a65726f206164646044820152637265737360e01b60648201526084016104a0565b610d288383836001611266565b826001600160a01b0316610d3b8261075d565b6001600160a01b031614610d615760405162461bcd60e51b81526004016104a090611d2f565b600081815260046020908152604080832080546001600160a01b03199081169091556001600160a01b0387811680865260038552838620805460001901905590871680865283862080546001019055868652600290945282852080549092168417909155905184937fddf252ad1be2c89b69c2b068fc378daa952ba7f163c4a11628f55a4df523b3ef91a4505050565b6000908152600260205260409020546001600160a01b0316151590565b816001600160a01b0316836001600160a01b031603610e6f5760405162461bcd60e51b815260206004820152601960248201527f4552433732313a20617070726f766520746f2063616c6c65720000000000000060448201526064016104a0565b6001600160a01b03838116600081815260056020908152604080832094871680845294825291829020805460ff191686151590811790915591519182527f17307eab39ab6107e8899845ad3d59bd9653f200f220920489ca2b5937696c31910160405180910390a3505050565b610ee7848484610c80565b610ef384848484611272565b61099f5760405162461bcd60e51b81526004016104a090611d74565b6001600160a01b038216610f655760405162461bcd60e51b815260206004820181905260248201527f4552433732313a206d696e7420746f20746865207a65726f206164647265737360448201526064016104a0565b610f6e81610df1565b15610fbb5760405162461bcd60e51b815260206004820152601c60248201527f4552433732313a20746f6b656e20616c7265616479206d696e7465640000000060448201526064016104a0565b610fc9600083836001611266565b610fd281610df1565b1561101f5760405162461bcd60e51b815260206004820152601c60248201527f4552433732313a20746f6b656e20616c7265616479206d696e7465640000000060448201526064016104a0565b6001600160a01b038216600081815260036020908152604080832080546001019055848352600290915280822080546001600160a01b0319168417905551839291907fddf252ad1be2c89b69c2b068fc378daa952ba7f163c4a11628f55a4df523b3ef908290a45050565b61109382610df1565b6110f65760405162461bcd60e51b815260206004820152602e60248201527f45524337323155524953746f726167653a2055524920736574206f66206e6f6e60448201526d32bc34b9ba32b73a103a37b5b2b760911b60648201526084016104a0565b60008281526006602052604090206105418282611e14565b606061111982610b40565b6000828152600660205260408120805461113290611c63565b80601f016020809104026020016040519081016040528092919081815260200182805461115e90611c63565b80156111ab5780601f10611180576101008083540402835291602001916111ab565b820191906000526020600020905b81548152906001019060200180831161118e57829003601f168201915b5050505050905060006111c960408051602081019091526000815290565b905080516000036111db575092915050565b81511561120d5780826040516020016111f5929190611ed4565b60405160208183030381529060405292505050919050565b610c7884611373565b60006001600160e01b031982166380ac58cd60e01b148061124757506001600160e01b03198216635b5e139f60e01b145b8061036d57506301ffc9a760e01b6001600160e01b031983161461036d565b61099f848484846113e7565b60006001600160a01b0384163b1561136857604051630a85bd0160e11b81526001600160a01b0385169063150b7a02906112b6903390899088908890600401611f03565b6020604051808303816000875af19250505080156112f1575060408051601f3d908101601f191682019092526112ee91810190611f40565b60015b61134e573d80801561131f576040519150601f19603f3d011682016040523d82523d6000602084013e611324565b606091505b5080516000036113465760405162461bcd60e51b81526004016104a090611d74565b805181602001fd5b6001600160e01b031916630a85bd0160e11b149050610c78565b506001949350505050565b606061137e82610b40565b600061139560408051602081019091526000815290565b905060008151116113b557604051806020016040528060008152506113e0565b806113bf84611527565b6040516020016113d0929190611ed4565b6040516020818303038152906040525b9392505050565b6113f3848484846115ba565b60018111156114625760405162461bcd60e51b815260206004820152603560248201527f455243373231456e756d657261626c653a20636f6e7365637574697665207472604482015274185b9cd9995c9cc81b9bdd081cdd5c1c1bdc9d1959605a1b60648201526084016104a0565b816001600160a01b0385166114be576114b981600980546000838152600a60205260408120829055600182018355919091527f6e1540171b6c0c960b71a7020d9f60077f6af931a8bbf590da0223dacf75c7af0155565b6114e1565b836001600160a01b0316856001600160a01b0316146114e1576114e18582611642565b6001600160a01b0384166114fd576114f8816116df565b611520565b846001600160a01b0316846001600160a01b03161461152057611520848261178e565b5050505050565b60606000611534836117d2565b600101905060008167ffffffffffffffff81111561155457611554611a9b565b6040519080825280601f01601f19166020018201604052801561157e576020820181803683370190505b5090508181016020015b600019016f181899199a1a9b1b9c1cb0b131b232b360811b600a86061a8153600a850494508461158857509392505050565b600181111561099f576001600160a01b03841615611600576001600160a01b038416600090815260036020526040812080548392906115fa908490611f5d565b90915550505b6001600160a01b0383161561099f576001600160a01b03831660009081526003602052604081208054839290611637908490611f70565b909155505050505050565b6000600161164f846107bd565b6116599190611f5d565b6000838152600860205260409020549091508082146116ac576001600160a01b03841660009081526007602090815260408083208584528252808320548484528184208190558352600890915290208190555b5060009182526008602090815260408084208490556001600160a01b039094168352600781528383209183525290812055565b6009546000906116f190600190611f5d565b6000838152600a60205260408120546009805493945090928490811061171957611719611cea565b90600052602060002001549050806009838154811061173a5761173a611cea565b6000918252602080832090910192909255828152600a9091526040808220849055858252812055600980548061177257611772611f83565b6001900381819060005260206000200160009055905550505050565b6000611799836107bd565b6001600160a01b039093166000908152600760209081526040808320868452825280832085905593825260089052919091209190915550565b60008072184f03e93ff9f4daa797ed6e38ed64bf6a1f0160401b83106118115772184f03e93ff9f4daa797ed6e38ed64bf6a1f0160401b830492506040015b6d04ee2d6d415b85acef8100000000831061183d576d04ee2d6d415b85acef8100000000830492506020015b662386f26fc10000831061185b57662386f26fc10000830492506010015b6305f5e1008310611873576305f5e100830492506008015b612710831061188757612710830492506004015b60648310611899576064830492506002015b600a831061036d5760010192915050565b6001600160e01b031981168114610b9057600080fd5b6000602082840312156118d257600080fd5b81356113e0816118aa565b6000602082840312156118ef57600080fd5b5035919050565b60005b838110156119115781810151838201526020016118f9565b50506000910152565b600081518084526119328160208601602086016118f6565b601f01601f19169290920160200192915050565b6020815260006113e0602083018461191a565b80356001600160a01b038116811461197057600080fd5b919050565b6000806040838503121561198857600080fd5b61199183611959565b946020939093013593505050565b6000806000606084860312156119b457600080fd5b6119bd84611959565b92506119cb60208501611959565b9150604084013590509250925092565b6000602082840312156119ed57600080fd5b6113e082611959565b6020808252825182820181905260009190848201906040850190845b81811015611a2e57835183529284019291840191600101611a12565b50909695505050505050565b600080600060608486031215611a4f57600080fd5b833592506119cb60208501611959565b60008060408385031215611a7257600080fd5b611a7b83611959565b915060208301358015158114611a9057600080fd5b809150509250929050565b634e487b7160e01b600052604160045260246000fd5b600067ffffffffffffffff80841115611acc57611acc611a9b565b604051601f8501601f19908116603f01168101908282118183101715611af457611af4611a9b565b81604052809350858152868686011115611b0d57600080fd5b858560208301376000602087830101525050509392505050565b60008060008060808587031215611b3d57600080fd5b611b4685611959565b9350611b5460208601611959565b925060408501359150606085013567ffffffffffffffff811115611b7757600080fd5b8501601f81018713611b8857600080fd5b611b9787823560208401611ab1565b91505092959194509250565b600080600080600060a08688031215611bbb57600080fd5b611bc486611959565b945060208601359350604086013567ffffffffffffffff811115611be757600080fd5b8601601f81018813611bf857600080fd5b611c0788823560208401611ab1565b935050611c1660608701611959565b9150611c2460808701611959565b90509295509295909350565b60008060408385031215611c4357600080fd5b611c4c83611959565b9150611c5a60208401611959565b90509250929050565b600181811c90821680611c7757607f821691505b602082108103611c9757634e487b7160e01b600052602260045260246000fd5b50919050565b6020808252602d908201527f4552433732313a2063616c6c6572206973206e6f7420746f6b656e206f776e6560408201526c1c881bdc88185c1c1c9bdd9959609a1b606082015260800190565b634e487b7160e01b600052603260045260246000fd5b634e487b7160e01b600052601160045260246000fd5b600060018201611d2857611d28611d00565b5060010190565b60208082526025908201527f4552433732313a207472616e736665722066726f6d20696e636f72726563742060408201526437bbb732b960d91b606082015260800190565b60208082526032908201527f4552433732313a207472616e7366657220746f206e6f6e20455243373231526560408201527131b2b4bb32b91034b6b83632b6b2b73a32b960711b606082015260800190565b601f82111561054157600081815260208120601f850160051c81016020861015611ded5750805b601f850160051c820191505b81811015611e0c57828155600101611df9565b505050505050565b815167ffffffffffffffff811115611e2e57611e2e611a9b565b611e4281611e3c8454611c63565b84611dc6565b602080601f831160018114611e775760008415611e5f5750858301515b600019600386901b1c1916600185901b178555611e0c565b600085815260208120601f198616915b82811015611ea657888601518255948401946001909101908401611e87565b5085821015611ec45787850151600019600388901b60f8161c191681555b5050505050600190811b01905550565b60008351611ee68184602088016118f6565b835190830190611efa8183602088016118f6565b01949350505050565b6001600160a01b0385811682528416602082015260408101839052608060608201819052600090611f369083018461191a565b9695505050505050565b600060208284031215611f5257600080fd5b81516113e0816118aa565b8181038181111561036d5761036d611d00565b8082018082111561036d5761036d611d00565b634e487b7160e01b600052603160045260246000fdfea2646970667358221220a508560416cb447c83e3da089880c2e77d1f124c4db61cad9be37943c8e25e7e64736f6c63430008110033",
  "linkReferences": {},
  "deployedLinkReferences": {}
}