{
  "_format": "hh-sol-artifact-1",
  "contractName": "AthleteContract",
  "sourceName": "contracts/AthleteContract.sol",
  "abi": [
    {
      "anonymous": false,
      "inputs": [
        {
          "indexed": true,
          "internalType": "uint256",
          "name": "contractId",
          "type": "uint256"
        },
        {
          "indexed": false,
          "internalType": "address",
          "name": "athlete",
          "type": "address"
        },
        {
          "indexed": false,
          "internalType": "address",
          "name": "sponsor",
          "type": "address"
        }
      ],
      "name": "ContractCreated",
      "type": "event"
    },
    {
      "anonymous": false,
      "inputs": [
        {
          "indexed": true,
          "internalType": "uint256",
          "name": "contractId",
          "type": "uint256"
        }
      ],
      "name": "ContractTerminated",
      "type": "event"
    },
    {
      "anonymous": false,
      "inputs": [
        {
          "indexed": true,
          "internalType": "uint256",
          "name": "contractId",
          "type": "uint256"
        },
        {
          "indexed": false,
          "internalType": "string",
          "name": "newContractIPFSHash",
          "type": "string"
        }
      ],
      "name": "ContractUpdated",
      "type": "event"
    },
    {
      "anonymous": false,
      "inputs": [
        {
          "indexed": true,
          "internalType": "uint256",
          "name": "contractId",
          "type": "uint256"
        },
        {
          "indexed": false,
          "internalType": "string",
          "name": "reason",
          "type": "string"
        }
      ],
      "name": "DisputeRaised",
      "type": "event"
    },
    {
      "anonymous": false,
      "inputs": [
        {
          "indexed": true,
          "internalType": "uint256",
          "name": "contractId",
          "type": "uint256"
        },
        {
          "indexed": false,
          "internalType": "bool",
          "name": "athleteFavor",
          "type": "bool"
        }
      ],
      "name": "DisputeResolved",
      "type": "event"
    },
    {
      "anonymous": false,
      "inputs": [
        {
          "indexed": true,
          "internalType": "uint256",
          "name": "contractId",
          "type": "uint256"
        },
        {
          "indexed": false,
          "internalType": "uint256",
          "name": "milestoneIndex",
          "type": "uint256"
        }
      ],
      "name": "MilestoneCompleted",
      "type": "event"
    },
    {
      "anonymous": false,
      "inputs": [
        {
          "indexed": true,
          "internalType": "uint256",
          "name": "contractId",
          "type": "uint256"
        },
        {
          "indexed": false,
          "internalType": "uint256",
          "name": "milestoneIndex",
          "type": "uint256"
        },
        {
          "indexed": false,
          "internalType": "string",
          "name": "reason",
          "type": "string"
        }
      ],
      "name": "MilestoneRejected",
      "type": "event"
    },
    {
      "anonymous": false,
      "inputs": [
        {
          "indexed": true,
          "internalType": "uint256",
          "name": "contractId",
          "type": "uint256"
        },
        {
          "indexed": false,
          "internalType": "uint256",
          "name": "milestoneIndex",
          "type": "uint256"
        },
        {
          "indexed": false,
          "internalType": "uint256",
          "name": "amount",
          "type": "uint256"
        }
      ],
      "name": "PaymentReleased",
      "type": "event"
    },
    {
      "inputs": [
        {
          "internalType": "uint256",
          "name": "contractId",
          "type": "uint256"
        }
      ],
      "name": "activateContract",
      "outputs": [],
      "stateMutability": "nonpayable",
      "type": "function"
    },
    {
      "inputs": [
        {
          "internalType": "uint256",
          "name": "contractId",
          "type": "uint256"
        },
        {
          "internalType": "string[]",
          "name": "descriptions",
          "type": "string[]"
        },
        {
          "internalType": "uint256[]",
          "name": "amounts",
          "type": "uint256[]"
        },
        {
          "internalType": "uint256[]",
          "name": "deadlines",
          "type": "uint256[]"
        }
      ],
      "name": "addMilestones",
      "outputs": [],
      "stateMutability": "nonpayable",
      "type": "function"
    },
    {
      "inputs": [
        {
          "internalType": "uint256",
          "name": "contractId",
          "type": "uint256"
        },
        {
          "internalType": "uint256",
          "name": "milestoneIndex",
          "type": "uint256"
        },
        {
          "internalType": "string",
          "name": "evidence",
          "type": "string"
        }
      ],
      "name": "completeMilestone",
      "outputs": [],
      "stateMutability": "nonpayable",
      "type": "function"
    },
    {
      "inputs": [],
      "name": "contractCount",
      "outputs": [
        {
          "internalType": "uint256",
          "name": "",
          "type": "uint256"
        }
      ],
      "stateMutability": "view",
      "type": "function"
    },
    {
      "inputs": [
        {
          "internalType": "uint256",
          "name": "",
          "type": "uint256"
        }
      ],
      "name": "contracts",
      "outputs": [
        {
          "internalType": "address",
          "name": "athlete",
          "type": "address"
        },
        {
          "internalType": "address",
          "name": "sponsor",
          "type": "address"
        },
        {
          "internalType": "string",
          "name": "contractIPFSHash",
          "type": "string"
        },
        {
          "internalType": "uint256",
          "name": "totalValue",
          "type": "uint256"
        },
        {
          "internalType": "uint256",
          "name": "startDate",
          "type": "uint256"
        },
        {
          "internalType": "uint256",
          "name": "endDate",
          "type": "uint256"
        },
        {
          "internalType": "enum AthleteContract.ContractState",
          "name": "state",
          "type": "uint8"
        },
        {
          "internalType": "address",
          "name": "paymentToken",
          "type": "address"
        }
      ],
      "stateMutability": "view",
      "type": "function"
    },
    {
      "inputs": [
        {
          "internalType": "address",
          "name": "athlete",
          "type": "address"
        },
        {
          "internalType": "address",
          "name": "sponsor",
          "type": "address"
        },
        {
          "internalType": "string",
          "name": "contractIPFSHash",
          "type": "string"
        },
        {
          "internalType": "uint256",
          "name": "totalValue",
          "type": "uint256"
        },
        {
          "internalType": "uint256",
          "name": "startDate",
          "type": "uint256"
        },
        {
          "internalType": "uint256",
          "name": "endDate",
          "type": "uint256"
        },
        {
          "internalType": "address",
          "name": "paymentToken",
          "type": "address"
        },
        {
          "internalType": "address[]",
          "name": "arbitrators",
          "type": "address[]"
        }
      ],
      "name": "createContract",
      "outputs": [
        {
          "internalType": "uint256",
          "name": "",
          "type": "uint256"
        }
      ],
      "stateMutability": "nonpayable",
      "type": "function"
    },
    {
      "inputs": [
        {
          "internalType": "uint256",
          "name": "contractId",
          "type": "uint256"
        }
      ],
      "name": "getContractDetails",
      "outputs": [
        {
          "internalType": "address",
          "name": "athlete",
          "type": "address"
        },
        {
          "internalType": "address",
          "name": "sponsor",
          "type": "address"
        },
        {
          "internalType": "string",
          "name": "contractIPFSHash",
          "type": "string"
        },
        {
          "internalType": "uint256",
          "name": "totalValue",
          "type": "uint256"
        },
        {
          "internalType": "uint256",
          "name": "startDate",
          "type": "uint256"
        },
        {
          "internalType": "uint256",
          "name": "endDate",
          "type": "uint256"
        },
        {
          "internalType": "enum AthleteContract.ContractState",
          "name": "state",
          "type": "uint8"
        },
        {
          "internalType": "address",
          "name": "paymentToken",
          "type": "address"
        }
      ],
      "stateMutability": "view",
      "type": "function"
    },
    {
      "inputs": [
        {
          "internalType": "uint256",
          "name": "contractId",
          "type": "uint256"
        },
        {
          "internalType": "uint256",
          "name": "milestoneIndex",
          "type": "uint256"
        }
      ],
      "name": "getMilestoneDetails",
      "outputs": [
        {
          "internalType": "string",
          "name": "description",
          "type": "string"
        },
        {
          "internalType": "uint256",
          "name": "amount",
          "type": "uint256"
        },
        {
          "internalType": "uint256",
          "name": "deadline",
          "type": "uint256"
        },
        {
          "internalType": "enum AthleteContract.MilestoneStatus",
          "name": "status",
          "type": "uint8"
        },
        {
          "internalType": "string",
          "name": "evidence",
          "type": "string"
        },
        {
          "internalType": "bool",
          "name": "paid",
          "type": "bool"
        }
      ],
      "stateMutability": "view",
      "type": "function"
    },
    {
      "inputs": [
        {
          "internalType": "uint256",
          "name": "contractId",
          "type": "uint256"
        }
      ],
      "name": "getMilestonesCount",
      "outputs": [
        {
          "internalType": "uint256",
          "name": "",
          "type": "uint256"
        }
      ],
      "stateMutability": "view",
      "type": "function"
    },
    {
      "inputs": [
        {
          "internalType": "uint256",
          "name": "contractId",
          "type": "uint256"
        },
        {
          "internalType": "string",
          "name": "reason",
          "type": "string"
        }
      ],
      "name": "raiseDispute",
      "outputs": [],
      "stateMutability": "nonpayable",
      "type": "function"
    },
    {
      "inputs": [
        {
          "internalType": "uint256",
          "name": "contractId",
          "type": "uint256"
        },
        {
          "internalType": "uint256",
          "name": "milestoneIndex",
          "type": "uint256"
        }
      ],
      "name": "releaseMilestonePayment",
      "outputs": [],
      "stateMutability": "payable",
      "type": "function"
    },
    {
      "inputs": [
        {
          "internalType": "uint256",
          "name": "contractId",
          "type": "uint256"
        },
        {
          "internalType": "bool",
          "name": "athleteFavor",
          "type": "bool"
        }
      ],
      "name": "resolveDispute",
      "outputs": [],
      "stateMutability": "nonpayable",
      "type": "function"
    },
    {
      "inputs": [
        {
          "internalType": "uint256",
          "name": "contractId",
          "type": "uint256"
        },
        {
          "internalType": "string",
          "name": "newContractIPFSHash",
          "type": "string"
        }
      ],
      "name": "updateContract",
      "outputs": [],
      "stateMutability": "nonpayable",
      "type": "function"
    }
  ],
  "bytecode": "0x608060405234801561001057600080fd5b506001600055611f0d806100256000396000f3fe6080604052600436106100c25760003560e01c80634d6d6a9c1161007f5780637fbedb75116100595780637fbedb75146102265780638736381a146102465780638c936e651461025c578063a7e5b6f31461026f57600080fd5b80634d6d6a9c146101b85780635aef573c146101d85780636a1cb18c146101f857600080fd5b806334b25ee2146100c757806335c2bd63146100e9578063460ff8c414610109578063474da79a1461012957806348259836146101665780634c37102214610186575b600080fd5b3480156100d357600080fd5b506100e76100e2366004611655565b61029f565b005b3480156100f557600080fd5b506100e7610104366004611685565b61043a565b34801561011557600080fd5b506100e76101243660046117e4565b610586565b34801561013557600080fd5b50610149610144366004611685565b6108bf565b60405161015d989796959493929190611944565b60405180910390f35b34801561017257600080fd5b506100e76101813660046119b3565b6109a5565b34801561019257600080fd5b506101a66101a13660046119fa565b610a9f565b60405161015d96959493929190611a1c565b3480156101c457600080fd5b506101496101d3366004611685565b610c3e565b3480156101e457600080fd5b506100e76101f33660046119b3565b610d4c565b34801561020457600080fd5b50610218610213366004611a95565b610e55565b60405190815260200161015d565b34801561023257600080fd5b506100e7610241366004611ba5565b611016565b34801561025257600080fd5b5061021860025481565b6100e761026a3660046119fa565b6111ae565b34801561027b57600080fd5b5061021861028a366004611685565b60009081526001602052604090206007015490565b600082815260016020526040812090805b6008830154811015610307578260080181815481106102d1576102d1611bf5565b6000918252602090912001546001600160a01b031633036102f55760019150610307565b806102ff81611c21565b9150506102b0565b50806103665760405162461bcd60e51b815260206004820152602360248201527f4f6e6c792061726269747261746f722063616e207265736f6c7665206469737060448201526275746560e81b60648201526084015b60405180910390fd5b6003600683015460ff1660048111156103815761038161192e565b146103c65760405162461bcd60e51b815260206004820152601560248201527410dbdb9d1c9858dd081b9bdd08191a5cdc1d5d1959605a1b604482015260640161035d565b826103d25760046103d5565b60015b60068301805460ff191660018360048111156103f3576103f361192e565b0217905550837f5a87909bff68caaaaf0b3fd9c74eeccc928832f879315e5c6fb7a73612f26c0c8460405161042c911515815260200190565b60405180910390a250505050565b600081815260016020526040902080546001600160a01b031633148061046c575060018101546001600160a01b031633145b6104c45760405162461bcd60e51b8152602060048201526024808201527f4f6e6c79206174686c657465206f722073706f6e736f722063616e20616374696044820152637661746560e01b606482015260840161035d565b6000600682015460ff1660048111156104df576104df61192e565b1461052c5760405162461bcd60e51b815260206004820152601b60248201527f436f6e7472616374206e6f7420696e2064726166742073746174650000000000604482015260640161035d565b60078101546105755760405162461bcd60e51b8152602060048201526015602482015274139bc81b5a5b195cdd1bdb995cc81919599a5b9959605a1b604482015260640161035d565b600601805460ff1916600117905550565b600084815260016020526040902080546001600160a01b03163314806105b8575060018101546001600160a01b031633145b61060f5760405162461bcd60e51b815260206004820152602260248201527f4f6e6c79206174686c657465206f722073706f6e736f722063616e206d6f6469604482015261667960f01b606482015260840161035d565b6000600682015460ff16600481111561062a5761062a61192e565b146106775760405162461bcd60e51b815260206004820152601b60248201527f436f6e7472616374206e6f7420696e2064726166742073746174650000000000604482015260640161035d565b82518451148015610689575081518351145b6106ce5760405162461bcd60e51b8152602060048201526016602482015275082e4e4c2f2e640d8cadccee8d040dad2e6dac2e8c6d60531b604482015260640161035d565b6000805b8451811015610849578481815181106106ed576106ed611bf5565b6020026020010151826107009190611c3a565b9150826007016040518060c0016040528088848151811061072357610723611bf5565b6020026020010151815260200187848151811061074257610742611bf5565b6020026020010151815260200186848151811061076157610761611bf5565b60200260200101518152602001600060038111156107815761078161192e565b81526040805160208181018352600080835281850192909252919092018290528354600181018555938252902081519192600602019081906107c39082611cd8565b50602082015181600101556040820151816002015560608201518160030160006101000a81548160ff021916908360038111156108025761080261192e565b02179055506080820151600482019061081b9082611cd8565b5060a091909101516005909101805460ff19169115159190911790558061084181611c21565b9150506106d2565b50816003015481146108b75760405162461bcd60e51b815260206004820152603160248201527f546f74616c206d696c6573746f6e6520616d6f756e7473206d757374206d6174604482015270636820636f6e74726163742076616c756560781b606482015260840161035d565b505050505050565b60016020819052600091825260409091208054918101546002820180546001600160a01b039485169490921692916108f690611c53565b80601f016020809104026020016040519081016040528092919081815260200182805461092290611c53565b801561096f5780601f106109445761010080835404028352916020019161096f565b820191906000526020600020905b81548152906001019060200180831161095257829003601f168201915b505050506003830154600484015460058501546006909501549394919390925060ff81169061010090046001600160a01b031688565b600082815260016020526040902080546001600160a01b03163314806109d7575060018101546001600160a01b031633145b610a2e5760405162461bcd60e51b815260206004820152602260248201527f4f6e6c79206174686c657465206f722073706f6e736f722063616e2075706461604482015261746560f01b606482015260840161035d565b6009810180546001810182556000918252602090912001610a526002830182611d98565b5060028101610a618382611cd8565b50827f3d6b58530bfb3205822f758555331d98d728b985f2081c1f5dbdcf7bc755d65083604051610a929190611e73565b60405180910390a2505050565b606060008060006060600080600160008a815260200190815260200160002090506000816007018981548110610ad757610ad7611bf5565b6000918252602090912060069091020160018101546002820154600383015460058401548454949550859460ff92831692600487019216908690610b1a90611c53565b80601f0160208091040260200160405190810160405280929190818152602001828054610b4690611c53565b8015610b935780601f10610b6857610100808354040283529160200191610b93565b820191906000526020600020905b815481529060010190602001808311610b7657829003601f168201915b50505050509550818054610ba690611c53565b80601f0160208091040260200160405190810160405280929190818152602001828054610bd290611c53565b8015610c1f5780601f10610bf457610100808354040283529160200191610c1f565b820191906000526020600020905b815481529060010190602001808311610c0257829003601f168201915b5050505050915097509750975097509750975050509295509295509295565b60008181526001602081905260408220805491810154600382015460048301546005840154600685015460028601805489986060988a98899889988998899894976001600160a01b039687169794871696909593949293919260ff8316926101009004909116908690610cb090611c53565b80601f0160208091040260200160405190810160405280929190818152602001828054610cdc90611c53565b8015610d295780601f10610cfe57610100808354040283529160200191610d29565b820191906000526020600020905b815481529060010190602001808311610d0c57829003601f168201915b505050505095509850985098509850985098509850985050919395975091939597565b600082815260016020526040902080546001600160a01b0316331480610d7e575060018101546001600160a01b031633145b610ddc5760405162461bcd60e51b815260206004820152602960248201527f4f6e6c79206174686c657465206f722073706f6e736f722063616e207261697360448201526865206469737075746560b81b606482015260840161035d565b6001600682015460ff166004811115610df757610df761192e565b14610e145760405162461bcd60e51b815260040161035d90611e8d565b60068101805460ff1916600317905560405183907fe07ad455e24561261e9047aab2f668ae1fc2cc6fda35021764673613b888836d90610a92908590611e73565b6000848411610eb05760405162461bcd60e51b815260206004820152602160248201527f456e642064617465206d757374206265206166746572207374617274206461746044820152606560f81b606482015260840161035d565b6001600160a01b03891615801590610ed057506001600160a01b03881615155b610f105760405162461bcd60e51b8152602060048201526011602482015270496e76616c69642061646472657373657360781b604482015260640161035d565b6002805460009182610f2183611c21565b90915550600081815260016020819052604090912080546001600160a01b03808f166001600160a01b03199283161783559282018054938e16939091169290921790915590915060028101610f768a82611cd8565b506003810188905560048101879055600581018690556006810180546001600160a81b0319166101006001600160a01b038816021790558351610fc290600883019060208701906115ca565b50604080516001600160a01b03808e1682528c16602082015283917f56560a52c047ed21fd801bf0f345b23d9af696f7922ff8e63101af5d48caddab910160405180910390a2509998505050505050505050565b600083815260016020526040902080546001600160a01b031633146110895760405162461bcd60e51b815260206004820152602360248201527f4f6e6c79206174686c6574652063616e20636f6d706c657465206d696c6573746044820152626f6e6560e81b606482015260840161035d565b6001600682015460ff1660048111156110a4576110a461192e565b146110c15760405162461bcd60e51b815260040161035d90611e8d565b60008160070184815481106110d8576110d8611bf5565b600091825260208220600690910201915060038083015460ff16908111156111025761110261192e565b1461114f5760405162461bcd60e51b815260206004820152601860248201527f496e76616c6964206d696c6573746f6e65207374617475730000000000000000604482015260640161035d565b60038101805460ff191660011790556004810161116c8482611cd8565b50847f1b7218c0ac23ea9cbe4df603d2b340fbf469a115b73ea3d11460727f445d6be18560405161119f91815260200190565b60405180910390a25050505050565b6111b6611571565b6000828152600160208190526040909120908101546001600160a01b031633146112225760405162461bcd60e51b815260206004820181905260248201527f4f6e6c792073706f6e736f722063616e2072656c65617365207061796d656e74604482015260640161035d565b6001600682015460ff16600481111561123d5761123d61192e565b1461125a5760405162461bcd60e51b815260040161035d90611e8d565b600081600701838154811061127157611271611bf5565b600091825260209091206006909102019050600160038083015460ff169081111561129e5761129e61192e565b146112eb5760405162461bcd60e51b815260206004820152601760248201527f4d696c6573746f6e65206e6f7420636f6d706c65746564000000000000000000604482015260640161035d565b600581015460ff16156113405760405162461bcd60e51b815260206004820152601860248201527f5061796d656e7420616c72656164792072656c65617365640000000000000000604482015260640161035d565b6001810154600683015461010090046001600160a01b0316611449578034146113ab5760405162461bcd60e51b815260206004820152601860248201527f496e636f7272656374207061796d656e7420616d6f756e740000000000000000604482015260640161035d565b82546040516000916001600160a01b03169083908381818185875af1925050503d80600081146113f7576040519150601f19603f3d011682016040523d82523d6000602084013e6113fc565b606091505b50509050806114435760405162461bcd60e51b8152602060048201526013602482015272115512081d1c985b9cd9995c8819985a5b1959606a1b604482015260640161035d565b50611516565b600683015483546040516323b872dd60e01b81523360048201526001600160a01b03918216602482015260448101849052610100909204169081906323b872dd906064016020604051808303816000875af11580156114ac573d6000803e3d6000fd5b505050506040513d601f19601f820116820180604052508101906114d09190611eba565b6115145760405162461bcd60e51b8152602060048201526015602482015274151bdad95b881d1c985b9cd9995c8819985a5b1959605a1b604482015260640161035d565b505b60058201805460ff19166001179055604080518581526020810183905286917f3c70b1e8034b5738ec77fbfdaa4d28906a0b3160018d67a2dc7b534e53e33fe0910160405180910390a250505061156d6001600055565b5050565b6002600054036115c35760405162461bcd60e51b815260206004820152601f60248201527f5265656e7472616e637947756172643a207265656e7472616e742063616c6c00604482015260640161035d565b6002600055565b82805482825590600052602060002090810192821561161f579160200282015b8281111561161f57825182546001600160a01b0319166001600160a01b039091161782556020909201916001909101906115ea565b5061162b92915061162f565b5090565b5b8082111561162b5760008155600101611630565b801515811461165257600080fd5b50565b6000806040838503121561166857600080fd5b82359150602083013561167a81611644565b809150509250929050565b60006020828403121561169757600080fd5b5035919050565b634e487b7160e01b600052604160045260246000fd5b604051601f8201601f1916810167ffffffffffffffff811182821017156116dd576116dd61169e565b604052919050565b600067ffffffffffffffff8211156116ff576116ff61169e565b5060051b60200190565b600082601f83011261171a57600080fd5b813567ffffffffffffffff8111156117345761173461169e565b611747601f8201601f19166020016116b4565b81815284602083860101111561175c57600080fd5b816020850160208301376000918101602001919091529392505050565b600082601f83011261178a57600080fd5b8135602061179f61179a836116e5565b6116b4565b82815260059290921b840181019181810190868411156117be57600080fd5b8286015b848110156117d957803583529183019183016117c2565b509695505050505050565b600080600080608085870312156117fa57600080fd5b8435935060208086013567ffffffffffffffff8082111561181a57600080fd5b818801915088601f83011261182e57600080fd5b813561183c61179a826116e5565b81815260059190911b8301840190848101908b83111561185b57600080fd5b8585015b83811015611893578035858111156118775760008081fd5b6118858e89838a0101611709565b84525091860191860161185f565b509750505060408801359250808311156118ac57600080fd5b6118b889848a01611779565b945060608801359250808311156118ce57600080fd5b50506118dc87828801611779565b91505092959194509250565b6000815180845260005b8181101561190e576020818501810151868301820152016118f2565b506000602082860101526020601f19601f83011685010191505092915050565b634e487b7160e01b600052602160045260246000fd5b6001600160a01b0389811682528881166020830152610100604083018190526000916119728483018b6118e8565b92508860608501528760808501528660a0850152600586106119965761199661192e565b8560c085015280851660e085015250509998505050505050505050565b600080604083850312156119c657600080fd5b82359150602083013567ffffffffffffffff8111156119e457600080fd5b6119f085828601611709565b9150509250929050565b60008060408385031215611a0d57600080fd5b50508035926020909101359150565b60c081526000611a2f60c08301896118e8565b87602084015286604084015260048610611a4b57611a4b61192e565b8560608401528281036080840152611a6381866118e8565b91505082151560a0830152979650505050505050565b80356001600160a01b0381168114611a9057600080fd5b919050565b600080600080600080600080610100898b031215611ab257600080fd5b611abb89611a79565b97506020611aca818b01611a79565b975060408a013567ffffffffffffffff80821115611ae757600080fd5b611af38d838e01611709565b985060608c0135975060808c0135965060a08c01359550611b1660c08d01611a79565b945060e08c0135915080821115611b2c57600080fd5b508a01601f81018c13611b3e57600080fd5b8035611b4c61179a826116e5565b81815260059190911b8201830190838101908e831115611b6b57600080fd5b928401925b82841015611b9057611b8184611a79565b82529284019290840190611b70565b80955050505050509295985092959890939650565b600080600060608486031215611bba57600080fd5b8335925060208401359150604084013567ffffffffffffffff811115611bdf57600080fd5b611beb86828701611709565b9150509250925092565b634e487b7160e01b600052603260045260246000fd5b634e487b7160e01b600052601160045260246000fd5b600060018201611c3357611c33611c0b565b5060010190565b80820180821115611c4d57611c4d611c0b565b92915050565b600181811c90821680611c6757607f821691505b602082108103611c8757634e487b7160e01b600052602260045260246000fd5b50919050565b601f821115611cd357600081815260208120601f850160051c81016020861015611cb45750805b601f850160051c820191505b818110156108b757828155600101611cc0565b505050565b815167ffffffffffffffff811115611cf257611cf261169e565b611d0681611d008454611c53565b84611c8d565b602080601f831160018114611d3b5760008415611d235750858301515b600019600386901b1c1916600185901b1785556108b7565b600085815260208120601f198616915b82811015611d6a57888601518255948401946001909101908401611d4b565b5085821015611d885787850151600019600388901b60f8161c191681555b5050505050600190811b01905550565b818103611da3575050565b611dad8254611c53565b67ffffffffffffffff811115611dc557611dc561169e565b611dd381611d008454611c53565b6000601f821160018114611e075760008315611def5750848201545b600019600385901b1c1916600184901b178455611e6c565b600085815260209020601f19841690600086815260209020845b83811015611e415782860154825560019586019590910190602001611e21565b5085831015611e5f5781850154600019600388901b60f8161c191681555b50505060018360011b0184555b5050505050565b602081526000611e8660208301846118e8565b9392505050565b602080825260139082015272436f6e7472616374206e6f742061637469766560681b604082015260600190565b600060208284031215611ecc57600080fd5b8151611e868161164456fea2646970667358221220ea4051eaeadf5800756ba15d51e07f39ddc2b23fff6ba86ec75b79cc7d1f9cdf64736f6c63430008110033",
  "linkReferences": {},
  "deployedLinkReferences": {}
}