{
  "_format": "hh-sol-artifact-1",
  "contractName": "AthleteContract",
  "sourceName": "contracts/AthleteContract.sol",
  "abi": [
    {
      "inputs": [],
      "stateMutability": "nonpayable",
      "type": "constructor"
    },
    {
      "anonymous": false,
      "inputs": [
        {
          "indexed": true,
          "internalType": "uint256",
          "name": "contractId",
          "type": "uint256"
        },
        {
          "indexed": false,
          "internalType": "address",
          "name": "athlete",
          "type": "address"
        },
        {
          "indexed": false,
          "internalType": "address",
          "name": "sponsor",
          "type": "address"
        }
      ],
      "name": "ContractCreated",
      "type": "event"
    },
    {
      "anonymous": false,
      "inputs": [
        {
          "indexed": true,
          "internalType": "uint256",
          "name": "contractId",
          "type": "uint256"
        }
      ],
      "name": "ContractTerminated",
      "type": "event"
    },
    {
      "anonymous": false,
      "inputs": [
        {
          "indexed": true,
          "internalType": "uint256",
          "name": "contractId",
          "type": "uint256"
        },
        {
          "indexed": false,
          "internalType": "string",
          "name": "newContractIPFSHash",
          "type": "string"
        }
      ],
      "name": "ContractUpdated",
      "type": "event"
    },
    {
      "anonymous": false,
      "inputs": [
        {
          "indexed": true,
          "internalType": "uint256",
          "name": "contractId",
          "type": "uint256"
        },
        {
          "indexed": false,
          "internalType": "string",
          "name": "reason",
          "type": "string"
        }
      ],
      "name": "DisputeRaised",
      "type": "event"
    },
    {
      "anonymous": false,
      "inputs": [
        {
          "indexed": true,
          "internalType": "uint256",
          "name": "contractId",
          "type": "uint256"
        },
        {
          "indexed": false,
          "internalType": "bool",
          "name": "athleteFavor",
          "type": "bool"
        }
      ],
      "name": "DisputeResolved",
      "type": "event"
    },
    {
      "anonymous": false,
      "inputs": [
        {
          "indexed": true,
          "internalType": "uint256",
          "name": "contractId",
          "type": "uint256"
        },
        {
          "indexed": false,
          "internalType": "uint256",
          "name": "milestoneIndex",
          "type": "uint256"
        }
      ],
      "name": "MilestoneCompleted",
      "type": "event"
    },
    {
      "anonymous": false,
      "inputs": [
        {
          "indexed": true,
          "internalType": "uint256",
          "name": "contractId",
          "type": "uint256"
        },
        {
          "indexed": false,
          "internalType": "uint256",
          "name": "milestoneIndex",
          "type": "uint256"
        },
        {
          "indexed": false,
          "internalType": "string",
          "name": "reason",
          "type": "string"
        }
      ],
      "name": "MilestoneRejected",
      "type": "event"
    },
    {
      "anonymous": false,
      "inputs": [
        {
          "indexed": true,
          "internalType": "uint256",
          "name": "contractId",
          "type": "uint256"
        },
        {
          "indexed": false,
          "internalType": "uint256",
          "name": "milestoneIndex",
          "type": "uint256"
        },
        {
          "indexed": false,
          "internalType": "uint256",
          "name": "amount",
          "type": "uint256"
        }
      ],
      "name": "PaymentReleased",
      "type": "event"
    },
    {
      "anonymous": false,
      "inputs": [
        {
          "indexed": true,
          "internalType": "bytes32",
          "name": "role",
          "type": "bytes32"
        },
        {
          "indexed": true,
          "internalType": "bytes32",
          "name": "previousAdminRole",
          "type": "bytes32"
        },
        {
          "indexed": true,
          "internalType": "bytes32",
          "name": "newAdminRole",
          "type": "bytes32"
        }
      ],
      "name": "RoleAdminChanged",
      "type": "event"
    },
    {
      "anonymous": false,
      "inputs": [
        {
          "indexed": true,
          "internalType": "bytes32",
          "name": "role",
          "type": "bytes32"
        },
        {
          "indexed": true,
          "internalType": "address",
          "name": "account",
          "type": "address"
        },
        {
          "indexed": true,
          "internalType": "address",
          "name": "sender",
          "type": "address"
        }
      ],
      "name": "RoleGranted",
      "type": "event"
    },
    {
      "anonymous": false,
      "inputs": [
        {
          "indexed": true,
          "internalType": "bytes32",
          "name": "role",
          "type": "bytes32"
        },
        {
          "indexed": true,
          "internalType": "address",
          "name": "account",
          "type": "address"
        },
        {
          "indexed": true,
          "internalType": "address",
          "name": "sender",
          "type": "address"
        }
      ],
      "name": "RoleRevoked",
      "type": "event"
    },
    {
      "inputs": [],
      "name": "AGENT_ROLE",
      "outputs": [
        {
          "internalType": "bytes32",
          "name": "",
          "type": "bytes32"
        }
      ],
      "stateMutability": "view",
      "type": "function"
    },
    {
      "inputs": [],
      "name": "ARBITRATOR_ROLE",
      "outputs": [
        {
          "internalType": "bytes32",
          "name": "",
          "type": "bytes32"
        }
      ],
      "stateMutability": "view",
      "type": "function"
    },
    {
      "inputs": [],
      "name": "ATHLETE_ROLE",
      "outputs": [
        {
          "internalType": "bytes32",
          "name": "",
          "type": "bytes32"
        }
      ],
      "stateMutability": "view",
      "type": "function"
    },
    {
      "inputs": [],
      "name": "DEFAULT_ADMIN_ROLE",
      "outputs": [
        {
          "internalType": "bytes32",
          "name": "",
          "type": "bytes32"
        }
      ],
      "stateMutability": "view",
      "type": "function"
    },
    {
      "inputs": [],
      "name": "SPONSOR_ROLE",
      "outputs": [
        {
          "internalType": "bytes32",
          "name": "",
          "type": "bytes32"
        }
      ],
      "stateMutability": "view",
      "type": "function"
    },
    {
      "inputs": [],
      "name": "TEAM_ROLE",
      "outputs": [
        {
          "internalType": "bytes32",
          "name": "",
          "type": "bytes32"
        }
      ],
      "stateMutability": "view",
      "type": "function"
    },
    {
      "inputs": [
        {
          "internalType": "uint256",
          "name": "contractId",
          "type": "uint256"
        }
      ],
      "name": "activateContract",
      "outputs": [],
      "stateMutability": "nonpayable",
      "type": "function"
    },
    {
      "inputs": [
        {
          "internalType": "uint256",
          "name": "contractId",
          "type": "uint256"
        },
        {
          "internalType": "string[]",
          "name": "descriptions",
          "type": "string[]"
        },
        {
          "internalType": "uint256[]",
          "name": "amounts",
          "type": "uint256[]"
        },
        {
          "internalType": "uint256[]",
          "name": "deadlines",
          "type": "uint256[]"
        }
      ],
      "name": "addMilestones",
      "outputs": [],
      "stateMutability": "nonpayable",
      "type": "function"
    },
    {
      "inputs": [
        {
          "internalType": "uint256",
          "name": "contractId",
          "type": "uint256"
        },
        {
          "internalType": "uint256",
          "name": "milestoneIndex",
          "type": "uint256"
        }
      ],
      "name": "approveMilestone",
      "outputs": [],
      "stateMutability": "nonpayable",
      "type": "function"
    },
    {
      "inputs": [],
      "name": "contractCount",
      "outputs": [
        {
          "internalType": "uint256",
          "name": "",
          "type": "uint256"
        }
      ],
      "stateMutability": "view",
      "type": "function"
    },
    {
      "inputs": [
        {
          "internalType": "uint256",
          "name": "",
          "type": "uint256"
        }
      ],
      "name": "contracts",
      "outputs": [
        {
          "internalType": "address",
          "name": "athlete",
          "type": "address"
        },
        {
          "internalType": "address",
          "name": "sponsor",
          "type": "address"
        },
        {
          "internalType": "string",
          "name": "contractIPFSHash",
          "type": "string"
        },
        {
          "internalType": "uint256",
          "name": "totalValue",
          "type": "uint256"
        },
        {
          "internalType": "uint256",
          "name": "startDate",
          "type": "uint256"
        },
        {
          "internalType": "uint256",
          "name": "endDate",
          "type": "uint256"
        },
        {
          "internalType": "enum AthleteContract.ContractState",
          "name": "state",
          "type": "uint8"
        },
        {
          "internalType": "address",
          "name": "paymentToken",
          "type": "address"
        }
      ],
      "stateMutability": "view",
      "type": "function"
    },
    {
      "inputs": [
        {
          "internalType": "address",
          "name": "athlete",
          "type": "address"
        },
        {
          "internalType": "address",
          "name": "sponsor",
          "type": "address"
        },
        {
          "internalType": "string",
          "name": "contractIPFSHash",
          "type": "string"
        },
        {
          "internalType": "uint256",
          "name": "totalValue",
          "type": "uint256"
        },
        {
          "internalType": "uint256",
          "name": "startDate",
          "type": "uint256"
        },
        {
          "internalType": "uint256",
          "name": "endDate",
          "type": "uint256"
        },
        {
          "internalType": "address",
          "name": "paymentToken",
          "type": "address"
        },
        {
          "internalType": "address[]",
          "name": "arbitrators",
          "type": "address[]"
        }
      ],
      "name": "createContract",
      "outputs": [
        {
          "internalType": "uint256",
          "name": "",
          "type": "uint256"
        }
      ],
      "stateMutability": "nonpayable",
      "type": "function"
    },
    {
      "inputs": [
        {
          "internalType": "uint256",
          "name": "contractId",
          "type": "uint256"
        }
      ],
      "name": "getContractDetails",
      "outputs": [
        {
          "internalType": "address",
          "name": "athlete",
          "type": "address"
        },
        {
          "internalType": "address",
          "name": "sponsor",
          "type": "address"
        },
        {
          "internalType": "string",
          "name": "contractIPFSHash",
          "type": "string"
        },
        {
          "internalType": "uint256",
          "name": "totalValue",
          "type": "uint256"
        },
        {
          "internalType": "uint256",
          "name": "startDate",
          "type": "uint256"
        },
        {
          "internalType": "uint256",
          "name": "endDate",
          "type": "uint256"
        },
        {
          "internalType": "enum AthleteContract.ContractState",
          "name": "state",
          "type": "uint8"
        },
        {
          "internalType": "address",
          "name": "paymentToken",
          "type": "address"
        }
      ],
      "stateMutability": "view",
      "type": "function"
    },
    {
      "inputs": [
        {
          "internalType": "uint256",
          "name": "contractId",
          "type": "uint256"
        }
      ],
      "name": "getMilestoneCount",
      "outputs": [
        {
          "internalType": "uint256",
          "name": "",
          "type": "uint256"
        }
      ],
      "stateMutability": "view",
      "type": "function"
    },
    {
      "inputs": [
        {
          "internalType": "uint256",
          "name": "contractId",
          "type": "uint256"
        },
        {
          "internalType": "uint256",
          "name": "milestoneIndex",
          "type": "uint256"
        }
      ],
      "name": "getMilestoneDetails",
      "outputs": [
        {
          "internalType": "string",
          "name": "description",
          "type": "string"
        },
        {
          "internalType": "uint256",
          "name": "amount",
          "type": "uint256"
        },
        {
          "internalType": "uint256",
          "name": "deadline",
          "type": "uint256"
        },
        {
          "internalType": "enum AthleteContract.MilestoneStatus",
          "name": "status",
          "type": "uint8"
        },
        {
          "internalType": "string",
          "name": "evidence",
          "type": "string"
        },
        {
          "internalType": "bool",
          "name": "paid",
          "type": "bool"
        }
      ],
      "stateMutability": "view",
      "type": "function"
    },
    {
      "inputs": [
        {
          "internalType": "bytes32",
          "name": "role",
          "type": "bytes32"
        }
      ],
      "name": "getRoleAdmin",
      "outputs": [
        {
          "internalType": "bytes32",
          "name": "",
          "type": "bytes32"
        }
      ],
      "stateMutability": "view",
      "type": "function"
    },
    {
      "inputs": [
        {
          "internalType": "bytes32",
          "name": "role",
          "type": "bytes32"
        },
        {
          "internalType": "address",
          "name": "account",
          "type": "address"
        }
      ],
      "name": "grantRole",
      "outputs": [],
      "stateMutability": "nonpayable",
      "type": "function"
    },
    {
      "inputs": [
        {
          "internalType": "bytes32",
          "name": "role",
          "type": "bytes32"
        },
        {
          "internalType": "address",
          "name": "account",
          "type": "address"
        }
      ],
      "name": "hasRole",
      "outputs": [
        {
          "internalType": "bool",
          "name": "",
          "type": "bool"
        }
      ],
      "stateMutability": "view",
      "type": "function"
    },
    {
      "inputs": [
        {
          "internalType": "uint256",
          "name": "contractId",
          "type": "uint256"
        },
        {
          "internalType": "string",
          "name": "reason",
          "type": "string"
        }
      ],
      "name": "raiseDispute",
      "outputs": [],
      "stateMutability": "nonpayable",
      "type": "function"
    },
    {
      "inputs": [
        {
          "internalType": "uint256",
          "name": "contractId",
          "type": "uint256"
        },
        {
          "internalType": "uint256",
          "name": "milestoneIndex",
          "type": "uint256"
        },
        {
          "internalType": "string",
          "name": "reason",
          "type": "string"
        }
      ],
      "name": "rejectMilestone",
      "outputs": [],
      "stateMutability": "nonpayable",
      "type": "function"
    },
    {
      "inputs": [
        {
          "internalType": "bytes32",
          "name": "role",
          "type": "bytes32"
        },
        {
          "internalType": "address",
          "name": "account",
          "type": "address"
        }
      ],
      "name": "renounceRole",
      "outputs": [],
      "stateMutability": "nonpayable",
      "type": "function"
    },
    {
      "inputs": [
        {
          "internalType": "uint256",
          "name": "contractId",
          "type": "uint256"
        },
        {
          "internalType": "bool",
          "name": "athleteFavor",
          "type": "bool"
        }
      ],
      "name": "resolveDispute",
      "outputs": [],
      "stateMutability": "nonpayable",
      "type": "function"
    },
    {
      "inputs": [
        {
          "internalType": "bytes32",
          "name": "role",
          "type": "bytes32"
        },
        {
          "internalType": "address",
          "name": "account",
          "type": "address"
        }
      ],
      "name": "revokeRole",
      "outputs": [],
      "stateMutability": "nonpayable",
      "type": "function"
    },
    {
      "inputs": [
        {
          "internalType": "uint256",
          "name": "contractId",
          "type": "uint256"
        },
        {
          "internalType": "uint256",
          "name": "milestoneIndex",
          "type": "uint256"
        },
        {
          "internalType": "string",
          "name": "evidenceIPFSHash",
          "type": "string"
        }
      ],
      "name": "submitMilestone",
      "outputs": [],
      "stateMutability": "nonpayable",
      "type": "function"
    },
    {
      "inputs": [
        {
          "internalType": "bytes4",
          "name": "interfaceId",
          "type": "bytes4"
        }
      ],
      "name": "supportsInterface",
      "outputs": [
        {
          "internalType": "bool",
          "name": "",
          "type": "bool"
        }
      ],
      "stateMutability": "view",
      "type": "function"
    },
    {
      "inputs": [
        {
          "internalType": "uint256",
          "name": "contractId",
          "type": "uint256"
        },
        {
          "internalType": "string",
          "name": "newContractIPFSHash",
          "type": "string"
        }
      ],
      "name": "updateContract",
      "outputs": [],
      "stateMutability": "nonpayable",
      "type": "function"
    }
  ],
  "bytecode": "0x60806040523480156200001157600080fd5b50600180556200002360003362000029565b620000ca565b6000828152602081815260408083206001600160a01b038516845290915290205460ff16620000c6576000828152602081815260408083206001600160a01b03851684529091529020805460ff19166001179055620000853390565b6001600160a01b0316816001600160a01b0316837f2f8788117e7eff1d82e926ec794901d17c78024a50270940304540a733656f0d60405160405180910390a45b5050565b612a2d80620000da6000396000f3fe608060405234801561001057600080fd5b506004361061018e5760003560e01c80634c371022116100de5780638736381a11610097578063a217fddf11610071578063a217fddf146103c4578063c2010e50146103cc578063c2d79444146103ef578063d547741f1461041657600080fd5b80638736381a1461038157806391d148541461038a5780639cea07871461039d57600080fd5b80634c371022146102e95780634d6d6a9c1461030e5780635aef573c146103215780636a1cb18c146103345780636e2a373a14610347578063783c69cc1461035a57600080fd5b806334b25ee21161014b578063460ff8c411610125578063460ff8c414610275578063474da79a1461028857806348259836146102af57806349d5e604146102c257600080fd5b806334b25ee21461023c57806335c2bd631461024f57806336568abe1461026257600080fd5b806301ffc9a7146101935780630390e07a146101bb57806320913da5146101d057806322459e18146101e3578063248a9ca3146102065780632f2ff15d14610229575b600080fd5b6101a66101a1366004611fe5565b610429565b60405190151581526020015b60405180910390f35b6101ce6101c93660046120c6565b610460565b005b6101ce6101de366004612116565b61063a565b6101f86000805160206129d883398151915281565b6040519081526020016101b2565b6101f8610214366004612138565b60009081526020819052604090206001015490565b6101ce61023736600461216d565b6109f9565b6101ce61024a3660046121a7565b610a23565b6101ce61025d366004612138565b610be1565b6101ce61027036600461216d565b610e0e565b6101ce610283366004612266565b610e88565b61029b610296366004612138565b6111c3565b6040516101b29897969594939291906123d0565b6101ce6102bd36600461243f565b6112a9565b6101f87f5146a08baf902532d0ee2f909971144f12ca32651cd70cbee1117cddfb3b3b3381565b6102fc6102f7366004612116565b6113a5565b6040516101b296959493929190612486565b61029b61031c366004612138565b61153e565b6101ce61032f36600461243f565b61164b565b6101f86103423660046124e3565b611754565b6101ce6103553660046120c6565b6119d1565b6101f87f7f611ffbf41dd527826abad73cb1b1ecff28482bb0412695be053afa0451ad1881565b6101f860035481565b6101a661039836600461216d565b611bc0565b6101f87f16ceee8289685dd2a02b9c8ae81d2df373176ce53519e6284e2a2950d6546ffa81565b6101f8600081565b6101f86103da366004612138565b60009081526002602052604090206007015490565b6101f87f1597bc5e34ff090612f53164e4e642d2ab4fc78bffe19ed1b602a0d12559561a81565b6101ce61042436600461216d565b611be9565b60006001600160e01b03198216637965db0b60e01b148061045a57506301ffc9a760e01b6001600160e01b03198316145b92915050565b600083815260026020526040902080546001600160a01b031633146104d65760405162461bcd60e51b815260206004820152602160248201527f4f6e6c79206174686c6574652063616e207375626d6974206d696c6573746f6e6044820152606560f81b60648201526084015b60405180910390fd5b6001600682015460ff1660048111156104f1576104f16123ba565b1461050e5760405162461bcd60e51b81526004016104cd906125f3565b600781015483106105315760405162461bcd60e51b81526004016104cd90612620565b600081600701848154811061054857610548612657565b60009182526020909120600360069092020181015460ff1690811115610570576105706123ba565b146105b55760405162461bcd60e51b81526020600482015260156024820152744d696c6573746f6e65206e6f742070656e64696e6760581b60448201526064016104cd565b60008160070184815481106105cc576105cc612657565b90600052602060002090600602019050828160040190816105ed91906126ed565b5060038101805460ff1916600117905560405184815285907f1b7218c0ac23ea9cbe4df603d2b340fbf469a115b73ea3d11460727f445d6be1906020015b60405180910390a25050505050565b610642611c0e565b600082815260026020526040902060018101546001600160a01b031633146106b75760405162461bcd60e51b815260206004820152602260248201527f4f6e6c792073706f6e736f722063616e20617070726f7665206d696c6573746f6044820152616e6560f01b60648201526084016104cd565b6001600682015460ff1660048111156106d2576106d26123ba565b146106ef5760405162461bcd60e51b81526004016104cd906125f3565b600781015482106107125760405162461bcd60e51b81526004016104cd90612620565b600081600701838154811061072957610729612657565b600091825260209091206006909102019050600160038083015460ff1690811115610756576107566123ba565b1461079d5760405162461bcd60e51b8152602060048201526017602482015276135a5b195cdd1bdb99481b9bdd0818dbdb5c1b195d1959604a1b60448201526064016104cd565b600581015460ff16156107ed5760405162461bcd60e51b815260206004820152601860248201527714185e5b595b9d08185b1c9958591e481c995b19585cd95960421b60448201526064016104cd565b60058101805460ff19166001179055600682015461010090046001600160a01b031661085657815460018201546040516001600160a01b039092169181156108fc0291906000818181858888f19350505050158015610850573d6000803e3d6000fd5b5061092f565b60068201546001808401548454918401546040516323b872dd60e01b81526001600160a01b039283166004820152928216602484015260448301526101009092049091169081906323b872dd906064016020604051808303816000875af11580156108c5573d6000803e3d6000fd5b505050506040513d601f19601f820116820180604052508101906108e991906127ad565b61092d5760405162461bcd60e51b8152602060048201526015602482015274151bdad95b881d1c985b9cd9995c8819985a5b1959605a1b60448201526064016104cd565b505b837f3c70b1e8034b5738ec77fbfdaa4d28906a0b3160018d67a2dc7b534e53e33fe084836001015460405161096e929190918252602082015260400190565b60405180910390a2600160005b60078401548110156109d25783600701818154811061099c5761099c612657565b600091825260209091206005600690920201015460ff166109c057600091506109d2565b806109ca816127e0565b91505061097b565b5080156109e95760068301805460ff191660021790555b5050506109f560018055565b5050565b600082815260208190526040902060010154610a1481611c67565b610a1e8383611c74565b505050565b600082815260026020526040812090805b6008830154811015610a8b57826008018181548110610a5557610a55612657565b6000918252602090912001546001600160a01b03163303610a795760019150610a8b565b80610a83816127e0565b915050610a34565b508080610abd5750610abd7f16ceee8289685dd2a02b9c8ae81d2df373176ce53519e6284e2a2950d6546ffa33611bc0565b610b155760405162461bcd60e51b815260206004820152602360248201527f4f6e6c792061726269747261746f722063616e207265736f6c7665206469737060448201526275746560e81b60648201526084016104cd565b6003600683015460ff166004811115610b3057610b306123ba565b14610b755760405162461bcd60e51b815260206004820152601560248201527410dbdb9d1c9858dd081b9bdd08191a5cdc1d5d1959605a1b60448201526064016104cd565b8215610b8f5760068201805460ff19166001179055610b9f565b60068201805460ff191660041790555b837f5a87909bff68caaaaf0b3fd9c74eeccc928832f879315e5c6fb7a73612f26c0c84604051610bd3911515815260200190565b60405180910390a250505050565b600081815260026020526040902060018101546001600160a01b03163314610c565760405162461bcd60e51b815260206004820152602260248201527f4f6e6c792073706f6e736f722063616e20616374697661746520636f6e74726160448201526118dd60f21b60648201526084016104cd565b6000600682015460ff166004811115610c7157610c716123ba565b14610cbe5760405162461bcd60e51b815260206004820152601b60248201527f436f6e7472616374206e6f7420696e206472616674207374617465000000000060448201526064016104cd565b6007810154610d0f5760405162461bcd60e51b815260206004820152601d60248201527f436f6e7472616374206d7573742068617665206d696c6573746f6e657300000060448201526064016104cd565b600681015461010090046001600160a01b031615610dfd57600681015460038201546001830154604051636eb1769f60e11b81526001600160a01b0391821660048201523060248201526101009093041691829063dd62ed3e90604401602060405180830381865afa158015610d89573d6000803e3d6000fd5b505050506040513d601f19601f82011682018060405250810190610dad91906127f9565b1015610dfb5760405162461bcd60e51b815260206004820152601c60248201527f496e73756666696369656e7420746f6b656e20616c6c6f77616e63650000000060448201526064016104cd565b505b600601805460ff1916600117905550565b6001600160a01b0381163314610e7e5760405162461bcd60e51b815260206004820152602f60248201527f416363657373436f6e74726f6c3a2063616e206f6e6c792072656e6f756e636560448201526e103937b632b9903337b91039b2b63360891b60648201526084016104cd565b6109f58282611cf8565b600084815260026020526040902080546001600160a01b0316331480610eba575060018101546001600160a01b031633145b80610ed85750610ed86000805160206129d883398151915233611bc0565b610f135760405162461bcd60e51b815260206004820152600c60248201526b155b985d5d1a1bdc9a5e995960a21b60448201526064016104cd565b6000600682015460ff166004811115610f2e57610f2e6123ba565b14610f7b5760405162461bcd60e51b815260206004820152601b60248201527f436f6e7472616374206e6f7420696e206472616674207374617465000000000060448201526064016104cd565b82518451148015610f8d575081518351145b610fd25760405162461bcd60e51b8152602060048201526016602482015275082e4e4c2f2e640d8cadccee8d040dad2e6dac2e8c6d60531b60448201526064016104cd565b6000805b845181101561114d57848181518110610ff157610ff1612657565b6020026020010151826110049190612812565b9150826007016040518060c0016040528088848151811061102757611027612657565b6020026020010151815260200187848151811061104657611046612657565b6020026020010151815260200186848151811061106557611065612657565b6020026020010151815260200160006003811115611085576110856123ba565b81526040805160208181018352600080835281850192909252919092018290528354600181018555938252902081519192600602019081906110c790826126ed565b50602082015181600101556040820151816002015560608201518160030160006101000a81548160ff02191690836003811115611106576111066123ba565b02179055506080820151600482019061111f90826126ed565b5060a091909101516005909101805460ff191691151591909117905580611145816127e0565b915050610fd6565b50816003015481146111bb5760405162461bcd60e51b815260206004820152603160248201527f546f74616c206d696c6573746f6e6520616d6f756e7473206d757374206d6174604482015270636820636f6e74726163742076616c756560781b60648201526084016104cd565b505050505050565b60026020819052600091825260409091208054600182015492820180546001600160a01b039283169490921692916111fa9061266d565b80601f01602080910402602001604051908101604052809291908181526020018280546112269061266d565b80156112735780601f1061124857610100808354040283529160200191611273565b820191906000526020600020905b81548152906001019060200180831161125657829003601f168201915b505050506003830154600484015460058501546006909501549394919390925060ff81169061010090046001600160a01b031688565b600082815260026020526040902080546001600160a01b03163314806112db575060018101546001600160a01b031633145b806112f957506112f96000805160206129d883398151915233611bc0565b6113345760405162461bcd60e51b815260206004820152600c60248201526b155b985d5d1a1bdc9a5e995960a21b60448201526064016104cd565b60098101805460018101825560009182526020909120016113586002830182612825565b506002810161136783826126ed565b50827f3d6b58530bfb3205822f758555331d98d728b985f2081c1f5dbdcf7bc755d650836040516113989190612900565b60405180910390a2505050565b606060008060006060600080600260008a815260200190815260200160002060070188815481106113d8576113d8612657565b6000918252602090912060069091020160018101546002820154600383015460058401548454949550859460ff9283169260048701921690869061141b9061266d565b80601f01602080910402602001604051908101604052809291908181526020018280546114479061266d565b80156114945780601f1061146957610100808354040283529160200191611494565b820191906000526020600020905b81548152906001019060200180831161147757829003601f168201915b505050505095508180546114a79061266d565b80601f01602080910402602001604051908101604052809291908181526020018280546114d39061266d565b80156115205780601f106114f557610100808354040283529160200191611520565b820191906000526020600020905b81548152906001019060200180831161150357829003601f168201915b50505050509150965096509650965096509650509295509295509295565b60008181526002602081905260408220805460018201546003830154600484015460058501546006860154968601805489986060988a98899889988998899894976001600160a01b03948516979385169690959294919360ff8216926101009092049091169086906115af9061266d565b80601f01602080910402602001604051908101604052809291908181526020018280546115db9061266d565b80156116285780601f106115fd57610100808354040283529160200191611628565b820191906000526020600020905b81548152906001019060200180831161160b57829003601f168201915b505050505095509850985098509850985098509850985050919395975091939597565b600082815260026020526040902080546001600160a01b031633148061167d575060018101546001600160a01b031633145b6116db5760405162461bcd60e51b815260206004820152602960248201527f4f6e6c79206174686c657465206f722073706f6e736f722063616e207261697360448201526865206469737075746560b81b60648201526084016104cd565b6001600682015460ff1660048111156116f6576116f66123ba565b146117135760405162461bcd60e51b81526004016104cd906125f3565b60068101805460ff1916600317905560405183907fe07ad455e24561261e9047aab2f668ae1fc2cc6fda35021764673613b888836d90611398908590612900565b60006117807f7f611ffbf41dd527826abad73cb1b1ecff28482bb0412695be053afa0451ad188a611bc0565b8061179e575061179e6000805160206129d883398151915233611bc0565b6118015760405162461bcd60e51b815260206004820152602e60248201527f556e617574686f72697a65643a204f6e6c79206174686c657465206f7220616760448201526d656e742063616e2063726561746560901b60648201526084016104cd565b61182b7f1597bc5e34ff090612f53164e4e642d2ab4fc78bffe19ed1b602a0d12559561a89611bc0565b6118775760405162461bcd60e51b815260206004820152601e60248201527f53706f6e736f72206d75737420686176652053504f4e534f525f524f4c45000060448201526064016104cd565b8484116118d05760405162461bcd60e51b815260206004820152602160248201527f456e642064617465206d757374206265206166746572207374617274206461746044820152606560f81b60648201526084016104cd565b60038054600091826118e1836127e0565b90915550600081815260026020819052604090912080546001600160a01b03808f166001600160a01b0319928316178355600183018054918f169190921617905591925081016119318a826126ed565b506003810188905560048101879055600581018690556006810180546001600160a81b0319166101006001600160a01b03881602179055835161197d9060088301906020870190611f6b565b50604080516001600160a01b03808e1682528c16602082015283917f56560a52c047ed21fd801bf0f345b23d9af696f7922ff8e63101af5d48caddab910160405180910390a2509998505050505050505050565b600083815260026020526040902060018101546001600160a01b03163314611a455760405162461bcd60e51b815260206004820152602160248201527f4f6e6c792073706f6e736f722063616e2072656a656374206d696c6573746f6e6044820152606560f81b60648201526084016104cd565b6001600682015460ff166004811115611a6057611a606123ba565b14611a7d5760405162461bcd60e51b81526004016104cd906125f3565b60078101548310611aa05760405162461bcd60e51b81526004016104cd90612620565b6000816007018481548110611ab757611ab7612657565b600091825260209091206006909102019050600160038083015460ff1690811115611ae457611ae46123ba565b14611b2b5760405162461bcd60e51b8152602060048201526017602482015276135a5b195cdd1bdb99481b9bdd0818dbdb5c1b195d1959604a1b60448201526064016104cd565b600581015460ff1615611b7b5760405162461bcd60e51b815260206004820152601860248201527714185e5b595b9d08185b1c9958591e481c995b19585cd95960421b60448201526064016104cd565b6003818101805460ff19166001830217905550847f2632a738857d774f3179abee0fa205787aea133c8f6d4cbfe4e605028d3e8230858560405161062b929190612913565b6000918252602082815260408084206001600160a01b0393909316845291905290205460ff1690565b600082815260208190526040902060010154611c0481611c67565b610a1e8383611cf8565b600260015403611c605760405162461bcd60e51b815260206004820152601f60248201527f5265656e7472616e637947756172643a207265656e7472616e742063616c6c0060448201526064016104cd565b6002600155565b611c718133611d5d565b50565b611c7e8282611bc0565b6109f5576000828152602081815260408083206001600160a01b03851684529091529020805460ff19166001179055611cb43390565b6001600160a01b0316816001600160a01b0316837f2f8788117e7eff1d82e926ec794901d17c78024a50270940304540a733656f0d60405160405180910390a45050565b611d028282611bc0565b156109f5576000828152602081815260408083206001600160a01b0385168085529252808320805460ff1916905551339285917ff6391f5c32d9c69d2a47ea670b442974b53935d1edc7fd64eb21e047a839171b9190a45050565b611d678282611bc0565b6109f557611d7481611db6565b611d7f836020611dc8565b604051602001611d90929190612934565b60408051601f198184030181529082905262461bcd60e51b82526104cd91600401612900565b606061045a6001600160a01b03831660145b60606000611dd78360026129a9565b611de2906002612812565b67ffffffffffffffff811115611dfa57611dfa61200f565b6040519080825280601f01601f191660200182016040528015611e24576020820181803683370190505b509050600360fc1b81600081518110611e3f57611e3f612657565b60200101906001600160f81b031916908160001a905350600f60fb1b81600181518110611e6e57611e6e612657565b60200101906001600160f81b031916908160001a9053506000611e928460026129a9565b611e9d906001612812565b90505b6001811115611f15576f181899199a1a9b1b9c1cb0b131b232b360811b85600f1660108110611ed157611ed1612657565b1a60f81b828281518110611ee757611ee7612657565b60200101906001600160f81b031916908160001a90535060049490941c93611f0e816129c0565b9050611ea0565b508315611f645760405162461bcd60e51b815260206004820181905260248201527f537472696e67733a20686578206c656e67746820696e73756666696369656e7460448201526064016104cd565b9392505050565b828054828255906000526020600020908101928215611fc0579160200282015b82811115611fc057825182546001600160a01b0319166001600160a01b03909116178255602090920191600190910190611f8b565b50611fcc929150611fd0565b5090565b5b80821115611fcc5760008155600101611fd1565b600060208284031215611ff757600080fd5b81356001600160e01b031981168114611f6457600080fd5b634e487b7160e01b600052604160045260246000fd5b604051601f8201601f1916810167ffffffffffffffff8111828210171561204e5761204e61200f565b604052919050565b600082601f83011261206757600080fd5b813567ffffffffffffffff8111156120815761208161200f565b612094601f8201601f1916602001612025565b8181528460208386010111156120a957600080fd5b816020850160208301376000918101602001919091529392505050565b6000806000606084860312156120db57600080fd5b8335925060208401359150604084013567ffffffffffffffff81111561210057600080fd5b61210c86828701612056565b9150509250925092565b6000806040838503121561212957600080fd5b50508035926020909101359150565b60006020828403121561214a57600080fd5b5035919050565b80356001600160a01b038116811461216857600080fd5b919050565b6000806040838503121561218057600080fd5b8235915061219060208401612151565b90509250929050565b8015158114611c7157600080fd5b600080604083850312156121ba57600080fd5b8235915060208301356121cc81612199565b809150509250929050565b600067ffffffffffffffff8211156121f1576121f161200f565b5060051b60200190565b600082601f83011261220c57600080fd5b8135602061222161221c836121d7565b612025565b82815260059290921b8401810191818101908684111561224057600080fd5b8286015b8481101561225b5780358352918301918301612244565b509695505050505050565b6000806000806080858703121561227c57600080fd5b8435935060208086013567ffffffffffffffff8082111561229c57600080fd5b818801915088601f8301126122b057600080fd5b81356122be61221c826121d7565b81815260059190911b8301840190848101908b8311156122dd57600080fd5b8585015b83811015612315578035858111156122f95760008081fd5b6123078e89838a0101612056565b8452509186019186016122e1565b5097505050604088013592508083111561232e57600080fd5b61233a89848a016121fb565b9450606088013592508083111561235057600080fd5b505061235e878288016121fb565b91505092959194509250565b60005b8381101561238557818101518382015260200161236d565b50506000910152565b600081518084526123a681602086016020860161236a565b601f01601f19169290920160200192915050565b634e487b7160e01b600052602160045260246000fd5b6001600160a01b0389811682528881166020830152610100604083018190526000916123fe8483018b61238e565b92508860608501528760808501528660a085015260058610612422576124226123ba565b8560c085015280851660e085015250509998505050505050505050565b6000806040838503121561245257600080fd5b82359150602083013567ffffffffffffffff81111561247057600080fd5b61247c85828601612056565b9150509250929050565b60c08152600061249960c083018961238e565b876020840152866040840152600486106124b5576124b56123ba565b85606084015282810360808401526124cd818661238e565b91505082151560a0830152979650505050505050565b600080600080600080600080610100898b03121561250057600080fd5b61250989612151565b97506020612518818b01612151565b975060408a013567ffffffffffffffff8082111561253557600080fd5b6125418d838e01612056565b985060608c0135975060808c0135965060a08c0135955061256460c08d01612151565b945060e08c013591508082111561257a57600080fd5b508a01601f81018c1361258c57600080fd5b803561259a61221c826121d7565b81815260059190911b8201830190838101908e8311156125b957600080fd5b928401925b828410156125de576125cf84612151565b825292840192908401906125be565b80955050505050509295985092959890939650565b602080825260139082015272436f6e7472616374206e6f742061637469766560681b604082015260600190565b60208082526017908201527f496e76616c6964206d696c6573746f6e6520696e646578000000000000000000604082015260600190565b634e487b7160e01b600052603260045260246000fd5b600181811c9082168061268157607f821691505b6020821081036126a157634e487b7160e01b600052602260045260246000fd5b50919050565b601f821115610a1e57600081815260208120601f850160051c810160208610156126ce5750805b601f850160051c820191505b818110156111bb578281556001016126da565b815167ffffffffffffffff8111156127075761270761200f565b61271b81612715845461266d565b846126a7565b602080601f83116001811461275057600084156127385750858301515b600019600386901b1c1916600185901b1785556111bb565b600085815260208120601f198616915b8281101561277f57888601518255948401946001909101908401612760565b508582101561279d5787850151600019600388901b60f8161c191681555b5050505050600190811b01905550565b6000602082840312156127bf57600080fd5b8151611f6481612199565b634e487b7160e01b600052601160045260246000fd5b6000600182016127f2576127f26127ca565b5060010190565b60006020828403121561280b57600080fd5b5051919050565b8082018082111561045a5761045a6127ca565b818103612830575050565b61283a825461266d565b67ffffffffffffffff8111156128525761285261200f565b61286081612715845461266d565b6000601f821160018114612894576000831561287c5750848201545b600019600385901b1c1916600184901b1784556128f9565b600085815260209020601f19841690600086815260209020845b838110156128ce57828601548255600195860195909101906020016128ae565b50858310156128ec5781850154600019600388901b60f8161c191681555b50505060018360011b0184555b5050505050565b602081526000611f64602083018461238e565b82815260406020820152600061292c604083018461238e565b949350505050565b7f416363657373436f6e74726f6c3a206163636f756e742000000000000000000081526000835161296c81601785016020880161236a565b7001034b99036b4b9b9b4b733903937b6329607d1b601791840191820152835161299d81602884016020880161236a565b01602801949350505050565b808202811582820484141761045a5761045a6127ca565b6000816129cf576129cf6127ca565b50600019019056fecab5a0bfe0b79d2c4b1c2e02599fa044d115b7511f9659307cb4276950967709a2646970667358221220147d5b0bee03f5bc9f87234acfb37a73ce39e597efa9544836f051e0910ec7d464736f6c63430008110033",
  "linkReferences": {},
  "deployedLinkReferences": {}
}